{"contracts/executable/examples/ExecutableSample.sol":{"ExecutableSample":{"abi":[{"inputs":[{"internalType":"address","name":"gateway_","type":"address"}],"stateMutability":"nonpayable","type":"constructor"},{"inputs":[],"name":"InvalidAddress","type":"error"},{"inputs":[],"name":"NotApprovedByGateway","type":"error"},{"anonymous":false,"inputs":[{"indexed":false,"internalType":"string","name":"_sourceChain","type":"string"},{"indexed":false,"internalType":"string","name":"_sourceAddress","type":"string"},{"indexed":false,"internalType":"string","name":"_message","type":"string"},{"indexed":false,"internalType":"string","name":"_tokenSymbol","type":"string"},{"indexed":false,"internalType":"uint256","name":"_tokenAmount","type":"uint256"}],"name":"Executed","type":"event"},{"inputs":[{"internalType":"bytes32","name":"commandId","type":"bytes32"},{"internalType":"string","name":"sourceChain","type":"string"},{"internalType":"string","name":"sourceAddress","type":"string"},{"internalType":"bytes","name":"payload","type":"bytes"}],"name":"execute","outputs":[],"stateMutability":"nonpayable","type":"function"},{"inputs":[],"name":"gateway","outputs":[{"internalType":"contract IAxelarGateway","name":"","type":"address"}],"stateMutability":"view","type":"function"},{"inputs":[],"name":"message","outputs":[{"internalType":"string","name":"","type":"string"}],"stateMutability":"view","type":"function"},{"inputs":[],"name":"sourceAddress","outputs":[{"internalType":"string","name":"","type":"string"}],"stateMutability":"view","type":"function"},{"inputs":[],"name":"sourceChain","outputs":[{"internalType":"string","name":"","type":"string"}],"stateMutability":"view","type":"function"},{"inputs":[],"name":"tokenAmount","outputs":[{"internalType":"uint256","name":"","type":"uint256"}],"stateMutability":"view","type":"function"},{"inputs":[],"name":"tokenDenom","outputs":[{"internalType":"string","name":"","type":"string"}],"stateMutability":"view","type":"function"}],"evm":{"bytecode":{"linkReferences":{},"object":"60a06040523480156200001157600080fd5b506040516200147a3803806200147a833981810160405281019062000037919062000145565b80600073ffffffffffffffffffffffffffffffffffffffff168173ffffffffffffffffffffffffffffffffffffffff16036200009f576040517fe6c4247b00000000000000000000000000000000000000000000000000000000815260040160405180910390fd5b8073ffffffffffffffffffffffffffffffffffffffff1660808173ffffffffffffffffffffffffffffffffffffffff1681525050505062000177565b600080fd5b600073ffffffffffffffffffffffffffffffffffffffff82169050919050565b60006200010d82620000e0565b9050919050565b6200011f8162000100565b81146200012b57600080fd5b50565b6000815190506200013f8162000114565b92915050565b6000602082840312156200015e576200015d620000db565b5b60006200016e848285016200012e565b91505092915050565b6080516112d9620001a16000396000818161015401528181610206015261054e01526112d96000f3fe608060405234801561001057600080fd5b506004361061007d5760003560e01c8063b0fa84441161005b578063b0fa8444146100da578063e21f37ce146100f8578063eec7faa114610116578063f307c509146101345761007d565b8063116191b6146100825780631c6ffa46146100a057806349160658146100be575b600080fd5b61008a610152565b6040516100979190610690565b60405180910390f35b6100a8610176565b6040516100b5919061073b565b60405180910390f35b6100d860048036038101906100d39190610862565b610204565b005b6100e26102f9565b6040516100ef919061073b565b60405180910390f35b610100610387565b60405161010d919061073b565b60405180910390f35b61011e610415565b60405161012b9190610944565b60405180910390f35b61013c61041b565b604051610149919061073b565b60405180910390f35b7f000000000000000000000000000000000000000000000000000000000000000081565b600080546101839061098e565b80601f01602080910402602001604051908101604052809291908181526020018280546101af9061098e565b80156101fc5780601f106101d1576101008083540402835291602001916101fc565b820191906000526020600020905b8154815290600101906020018083116101df57829003601f168201915b505050505081565b7f000000000000000000000000000000000000000000000000000000000000000073ffffffffffffffffffffffffffffffffffffffff16635fc9eb28888888888888886040518863ffffffff1660e01b81526004016102699796959493929190610a48565b6020604051808303816000875af1158015610288573d6000803e3d6000fd5b505050506040513d601f19601f820116820180604052508101906102ac9190610ae0565b6102e2576040517f500c44b400000000000000000000000000000000000000000000000000000000815260040160405180910390fd5b6102f08686868686866104a9565b50505050505050565b600180546103069061098e565b80601f01602080910402602001604051908101604052809291908181526020018280546103329061098e565b801561037f5780601f106103545761010080835404028352916020019161037f565b820191906000526020600020905b81548152906001019060200180831161036257829003601f168201915b505050505081565b600280546103949061098e565b80601f01602080910402602001604051908101604052809291908181526020018280546103c09061098e565b801561040d5780601f106103e25761010080835404028352916020019161040d565b820191906000526020600020905b8154815290600101906020018083116103f057829003601f168201915b505050505081565b60045481565b600380546104289061098e565b80601f01602080910402602001604051908101604052809291908181526020018280546104549061098e565b80156104a15780601f10610476576101008083540402835291602001916104a1565b820191906000526020600020905b81548152906001019060200180831161048457829003601f168201915b505050505081565b606082828101906104ba9190610cfb565b600360006004600084975085919050558491905090816104da9190610f28565b50505050808060200190518101906104f2919061106a565b600290816105009190610f28565b508686600091826105129291906110be565b508484600191826105249291906110be565b507fef02410bc88d0062fef8f23932b97e4580b53fe2177a4e16c3d35fac352952166000600160027f000000000000000000000000000000000000000000000000000000000000000073ffffffffffffffffffffffffffffffffffffffff1663aacde5c760036040518263ffffffff1660e01b81526004016105a69190611212565b600060405180830381865afa1580156105c3573d6000803e3d6000fd5b505050506040513d6000823e3d601f19601f820116820180604052508101906105ec919061106a565b600454604051610600959493929190611234565b60405180910390a150505050505050565b600073ffffffffffffffffffffffffffffffffffffffff82169050919050565b6000819050919050565b600061065661065161064c84610611565b610631565b610611565b9050919050565b60006106688261063b565b9050919050565b600061067a8261065d565b9050919050565b61068a8161066f565b82525050565b60006020820190506106a56000830184610681565b92915050565b600081519050919050565b600082825260208201905092915050565b60005b838110156106e55780820151818401526020810190506106ca565b60008484015250505050565b6000601f19601f8301169050919050565b600061070d826106ab565b61071781856106b6565b93506107278185602086016106c7565b610730816106f1565b840191505092915050565b600060208201905081810360008301526107558184610702565b905092915050565b6000604051905090565b600080fd5b600080fd5b6000819050919050565b61078481610771565b811461078f57600080fd5b50565b6000813590506107a18161077b565b92915050565b600080fd5b600080fd5b600080fd5b60008083601f8401126107cc576107cb6107a7565b5b8235905067ffffffffffffffff8111156107e9576107e86107ac565b5b602083019150836001820283011115610805576108046107b1565b5b9250929050565b60008083601f840112610822576108216107a7565b5b8235905067ffffffffffffffff81111561083f5761083e6107ac565b5b60208301915083600182028301111561085b5761085a6107b1565b5b9250929050565b60008060008060008060006080888a03121561088157610880610767565b5b600061088f8a828b01610792565b975050602088013567ffffffffffffffff8111156108b0576108af61076c565b5b6108bc8a828b016107b6565b9650965050604088013567ffffffffffffffff8111156108df576108de61076c565b5b6108eb8a828b016107b6565b9450945050606088013567ffffffffffffffff81111561090e5761090d61076c565b5b61091a8a828b0161080c565b925092505092959891949750929550565b6000819050919050565b61093e8161092b565b82525050565b60006020820190506109596000830184610935565b92915050565b7f4e487b7100000000000000000000000000000000000000000000000000000000600052602260045260246000fd5b600060028204905060018216806109a657607f821691505b6020821081036109b9576109b861095f565b5b50919050565b6109c881610771565b82525050565b82818337600083830152505050565b60006109e983856106b6565b93506109f68385846109ce565b6109ff836106f1565b840190509392505050565b600082825260208201905092915050565b6000610a278385610a0a565b9350610a348385846109ce565b610a3d836106f1565b840190509392505050565b6000608082019050610a5d600083018a6109bf565b8181036020830152610a7081888a6109dd565b90508181036040830152610a858186886109dd565b90508181036060830152610a9a818486610a1b565b905098975050505050505050565b60008115159050919050565b610abd81610aa8565b8114610ac857600080fd5b50565b600081519050610ada81610ab4565b92915050565b600060208284031215610af657610af5610767565b5b6000610b0484828501610acb565b91505092915050565b600080fd5b7f4e487b7100000000000000000000000000000000000000000000000000000000600052604160045260246000fd5b610b4a826106f1565b810181811067ffffffffffffffff82111715610b6957610b68610b12565b5b80604052505050565b6000610b7c61075d565b9050610b888282610b41565b919050565b600067ffffffffffffffff821115610ba857610ba7610b12565b5b610bb1826106f1565b9050602081019050919050565b6000610bd1610bcc84610b8d565b610b72565b905082815260208101848484011115610bed57610bec610b0d565b5b610bf88482856109ce565b509392505050565b600082601f830112610c1557610c146107a7565b5b8135610c25848260208601610bbe565b91505092915050565b610c378161092b565b8114610c4257600080fd5b50565b600081359050610c5481610c2e565b92915050565b600067ffffffffffffffff821115610c7557610c74610b12565b5b610c7e826106f1565b9050602081019050919050565b6000610c9e610c9984610c5a565b610b72565b905082815260208101848484011115610cba57610cb9610b0d565b5b610cc58482856109ce565b509392505050565b600082601f830112610ce257610ce16107a7565b5b8135610cf2848260208601610c8b565b91505092915050565b600080600060608486031215610d1457610d13610767565b5b600084013567ffffffffffffffff811115610d3257610d3161076c565b5b610d3e86828701610c00565b9350506020610d4f86828701610c45565b925050604084013567ffffffffffffffff811115610d7057610d6f61076c565b5b610d7c86828701610ccd565b9150509250925092565b60008190508160005260206000209050919050565b60006020601f8301049050919050565b600082821b905092915050565b600060088302610de87fffffffffffffffffffffffffffffffffffffffffffffffffffffffffffffffff82610dab565b610df28683610dab565b95508019841693508086168417925050509392505050565b6000610e25610e20610e1b8461092b565b610631565b61092b565b9050919050565b6000819050919050565b610e3f83610e0a565b610e53610e4b82610e2c565b848454610db8565b825550505050565b600090565b610e68610e5b565b610e73818484610e36565b505050565b5b81811015610e9757610e8c600082610e60565b600181019050610e79565b5050565b601f821115610edc57610ead81610d86565b610eb684610d9b565b81016020851015610ec5578190505b610ed9610ed185610d9b565b830182610e78565b50505b505050565b600082821c905092915050565b6000610eff60001984600802610ee1565b1980831691505092915050565b6000610f188383610eee565b9150826002028217905092915050565b610f31826106ab565b67ffffffffffffffff811115610f4a57610f49610b12565b5b610f54825461098e565b610f5f828285610e9b565b600060209050601f831160018114610f925760008415610f80578287015190505b610f8a8582610f0c565b865550610ff2565b601f198416610fa086610d86565b60005b82811015610fc857848901518255600182019150602085019450602081019050610fa3565b86831015610fe55784890151610fe1601f891682610eee565b8355505b6001600288020188555050505b505050505050565b600061100d61100884610b8d565b610b72565b90508281526020810184848401111561102957611028610b0d565b5b6110348482856106c7565b509392505050565b600082601f830112611051576110506107a7565b5b8151611061848260208601610ffa565b91505092915050565b6000602082840312156110805761107f610767565b5b600082015167ffffffffffffffff81111561109e5761109d61076c565b5b6110aa8482850161103c565b91505092915050565b600082905092915050565b6110c883836110b3565b67ffffffffffffffff8111156110e1576110e0610b12565b5b6110eb825461098e565b6110f6828285610e9b565b6000601f8311600181146111255760008415611113578287013590505b61111d8582610f0c565b865550611185565b601f19841661113386610d86565b60005b8281101561115b57848901358255600182019150602085019450602081019050611136565b868310156111785784890135611174601f891682610eee565b8355505b6001600288020188555050505b50505050505050565b6000815461119b8161098e565b6111a581866106b6565b945060018216600081146111c057600181146111d657611209565b60ff198316865281151560200286019350611209565b6111df85610d86565b60005b83811015611201578154818901526001820191506020810190506111e2565b808801955050505b50505092915050565b6000602082019050818103600083015261122c818461118e565b905092915050565b600060a082019050818103600083015261124e818861118e565b90508181036020830152611262818761118e565b90508181036040830152611276818661118e565b9050818103606083015261128a8185610702565b90506112996080830184610935565b969550505050505056fea2646970667358221220ef9b30e98c780ebed18a9e1b755b57a78404c89e80df81d1ad95dca263cb08d664736f6c63430008140033","opcodes":"PUSH1 0xA0 PUSH1 0x40 MSTORE CALLVALUE DUP1 ISZERO PUSH3 0x11 JUMPI PUSH1 0x0 DUP1 REVERT JUMPDEST POP PUSH1 0x40 MLOAD PUSH3 0x147A CODESIZE SUB DUP1 PUSH3 0x147A DUP4 CODECOPY DUP2 DUP2 ADD PUSH1 0x40 MSTORE DUP2 ADD SWAP1 PUSH3 0x37 SWAP2 SWAP1 PUSH3 0x145 JUMP JUMPDEST DUP1 PUSH1 0x0 PUSH20 0xFFFFFFFFFFFFFFFFFFFFFFFFFFFFFFFFFFFFFFFF AND DUP2 PUSH20 0xFFFFFFFFFFFFFFFFFFFFFFFFFFFFFFFFFFFFFFFF AND SUB PUSH3 0x9F JUMPI PUSH1 0x40 MLOAD PUSH32 0xE6C4247B00000000000000000000000000000000000000000000000000000000 DUP2 MSTORE PUSH1 0x4 ADD PUSH1 0x40 MLOAD DUP1 SWAP2 SUB SWAP1 REVERT JUMPDEST DUP1 PUSH20 0xFFFFFFFFFFFFFFFFFFFFFFFFFFFFFFFFFFFFFFFF AND PUSH1 0x80 DUP2 PUSH20 0xFFFFFFFFFFFFFFFFFFFFFFFFFFFFFFFFFFFFFFFF AND DUP2 MSTORE POP POP POP POP PUSH3 0x177 JUMP JUMPDEST PUSH1 0x0 DUP1 REVERT JUMPDEST PUSH1 0x0 PUSH20 0xFFFFFFFFFFFFFFFFFFFFFFFFFFFFFFFFFFFFFFFF DUP3 AND SWAP1 POP SWAP2 SWAP1 POP JUMP JUMPDEST PUSH1 0x0 PUSH3 0x10D DUP3 PUSH3 0xE0 JUMP JUMPDEST SWAP1 POP SWAP2 SWAP1 POP JUMP JUMPDEST PUSH3 0x11F DUP2 PUSH3 0x100 JUMP JUMPDEST DUP2 EQ PUSH3 0x12B JUMPI PUSH1 0x0 DUP1 REVERT JUMPDEST POP JUMP JUMPDEST PUSH1 0x0 DUP2 MLOAD SWAP1 POP PUSH3 0x13F DUP2 PUSH3 0x114 JUMP JUMPDEST SWAP3 SWAP2 POP POP JUMP JUMPDEST PUSH1 0x0 PUSH1 0x20 DUP3 DUP5 SUB SLT ISZERO PUSH3 0x15E JUMPI PUSH3 0x15D PUSH3 0xDB JUMP JUMPDEST JUMPDEST PUSH1 0x0 PUSH3 0x16E DUP5 DUP3 DUP6 ADD PUSH3 0x12E JUMP JUMPDEST SWAP2 POP POP SWAP3 SWAP2 POP POP JUMP JUMPDEST PUSH1 0x80 MLOAD PUSH2 0x12D9 PUSH3 0x1A1 PUSH1 0x0 CODECOPY PUSH1 0x0 DUP2 DUP2 PUSH2 0x154 ADD MSTORE DUP2 DUP2 PUSH2 0x206 ADD MSTORE PUSH2 0x54E ADD MSTORE PUSH2 0x12D9 PUSH1 0x0 RETURN INVALID PUSH1 0x80 PUSH1 0x40 MSTORE CALLVALUE DUP1 ISZERO PUSH2 0x10 JUMPI PUSH1 0x0 DUP1 REVERT JUMPDEST POP PUSH1 0x4 CALLDATASIZE LT PUSH2 0x7D JUMPI PUSH1 0x0 CALLDATALOAD PUSH1 0xE0 SHR DUP1 PUSH4 0xB0FA8444 GT PUSH2 0x5B JUMPI DUP1 PUSH4 0xB0FA8444 EQ PUSH2 0xDA JUMPI DUP1 PUSH4 0xE21F37CE EQ PUSH2 0xF8 JUMPI DUP1 PUSH4 0xEEC7FAA1 EQ PUSH2 0x116 JUMPI DUP1 PUSH4 0xF307C509 EQ PUSH2 0x134 JUMPI PUSH2 0x7D JUMP JUMPDEST DUP1 PUSH4 0x116191B6 EQ PUSH2 0x82 JUMPI DUP1 PUSH4 0x1C6FFA46 EQ PUSH2 0xA0 JUMPI DUP1 PUSH4 0x49160658 EQ PUSH2 0xBE JUMPI JUMPDEST PUSH1 0x0 DUP1 REVERT JUMPDEST PUSH2 0x8A PUSH2 0x152 JUMP JUMPDEST PUSH1 0x40 MLOAD PUSH2 0x97 SWAP2 SWAP1 PUSH2 0x690 JUMP JUMPDEST PUSH1 0x40 MLOAD DUP1 SWAP2 SUB SWAP1 RETURN JUMPDEST PUSH2 0xA8 PUSH2 0x176 JUMP JUMPDEST PUSH1 0x40 MLOAD PUSH2 0xB5 SWAP2 SWAP1 PUSH2 0x73B JUMP JUMPDEST PUSH1 0x40 MLOAD DUP1 SWAP2 SUB SWAP1 RETURN JUMPDEST PUSH2 0xD8 PUSH1 0x4 DUP1 CALLDATASIZE SUB DUP2 ADD SWAP1 PUSH2 0xD3 SWAP2 SWAP1 PUSH2 0x862 JUMP JUMPDEST PUSH2 0x204 JUMP JUMPDEST STOP JUMPDEST PUSH2 0xE2 PUSH2 0x2F9 JUMP JUMPDEST PUSH1 0x40 MLOAD PUSH2 0xEF SWAP2 SWAP1 PUSH2 0x73B JUMP JUMPDEST PUSH1 0x40 MLOAD DUP1 SWAP2 SUB SWAP1 RETURN JUMPDEST PUSH2 0x100 PUSH2 0x387 JUMP JUMPDEST PUSH1 0x40 MLOAD PUSH2 0x10D SWAP2 SWAP1 PUSH2 0x73B JUMP JUMPDEST PUSH1 0x40 MLOAD DUP1 SWAP2 SUB SWAP1 RETURN JUMPDEST PUSH2 0x11E PUSH2 0x415 JUMP JUMPDEST PUSH1 0x40 MLOAD PUSH2 0x12B SWAP2 SWAP1 PUSH2 0x944 JUMP JUMPDEST PUSH1 0x40 MLOAD DUP1 SWAP2 SUB SWAP1 RETURN JUMPDEST PUSH2 0x13C PUSH2 0x41B JUMP JUMPDEST PUSH1 0x40 MLOAD PUSH2 0x149 SWAP2 SWAP1 PUSH2 0x73B JUMP JUMPDEST PUSH1 0x40 MLOAD DUP1 SWAP2 SUB SWAP1 RETURN JUMPDEST PUSH32 0x0 DUP2 JUMP JUMPDEST PUSH1 0x0 DUP1 SLOAD PUSH2 0x183 SWAP1 PUSH2 0x98E JUMP JUMPDEST DUP1 PUSH1 0x1F ADD PUSH1 0x20 DUP1 SWAP2 DIV MUL PUSH1 0x20 ADD PUSH1 0x40 MLOAD SWAP1 DUP2 ADD PUSH1 0x40 MSTORE DUP1 SWAP3 SWAP2 SWAP1 DUP2 DUP2 MSTORE PUSH1 0x20 ADD DUP3 DUP1 SLOAD PUSH2 0x1AF SWAP1 PUSH2 0x98E JUMP JUMPDEST DUP1 ISZERO PUSH2 0x1FC JUMPI DUP1 PUSH1 0x1F LT PUSH2 0x1D1 JUMPI PUSH2 0x100 DUP1 DUP4 SLOAD DIV MUL DUP4 MSTORE SWAP2 PUSH1 0x20 ADD SWAP2 PUSH2 0x1FC JUMP JUMPDEST DUP3 ADD SWAP2 SWAP1 PUSH1 0x0 MSTORE PUSH1 0x20 PUSH1 0x0 KECCAK256 SWAP1 JUMPDEST DUP2 SLOAD DUP2 MSTORE SWAP1 PUSH1 0x1 ADD SWAP1 PUSH1 0x20 ADD DUP1 DUP4 GT PUSH2 0x1DF JUMPI DUP3 SWAP1 SUB PUSH1 0x1F AND DUP3 ADD SWAP2 JUMPDEST POP POP POP POP POP DUP2 JUMP JUMPDEST PUSH32 0x0 PUSH20 0xFFFFFFFFFFFFFFFFFFFFFFFFFFFFFFFFFFFFFFFF AND PUSH4 0x5FC9EB28 DUP9 DUP9 DUP9 DUP9 DUP9 DUP9 DUP9 PUSH1 0x40 MLOAD DUP9 PUSH4 0xFFFFFFFF AND PUSH1 0xE0 SHL DUP2 MSTORE PUSH1 0x4 ADD PUSH2 0x269 SWAP8 SWAP7 SWAP6 SWAP5 SWAP4 SWAP3 SWAP2 SWAP1 PUSH2 0xA48 JUMP JUMPDEST PUSH1 0x20 PUSH1 0x40 MLOAD DUP1 DUP4 SUB DUP2 PUSH1 0x0 DUP8 GAS CALL ISZERO DUP1 ISZERO PUSH2 0x288 JUMPI RETURNDATASIZE PUSH1 0x0 DUP1 RETURNDATACOPY RETURNDATASIZE PUSH1 0x0 REVERT JUMPDEST POP POP POP POP PUSH1 0x40 MLOAD RETURNDATASIZE PUSH1 0x1F NOT PUSH1 0x1F DUP3 ADD AND DUP3 ADD DUP1 PUSH1 0x40 MSTORE POP DUP2 ADD SWAP1 PUSH2 0x2AC SWAP2 SWAP1 PUSH2 0xAE0 JUMP JUMPDEST PUSH2 0x2E2 JUMPI PUSH1 0x40 MLOAD PUSH32 0x500C44B400000000000000000000000000000000000000000000000000000000 DUP2 MSTORE PUSH1 0x4 ADD PUSH1 0x40 MLOAD DUP1 SWAP2 SUB SWAP1 REVERT JUMPDEST PUSH2 0x2F0 DUP7 DUP7 DUP7 DUP7 DUP7 DUP7 PUSH2 0x4A9 JUMP JUMPDEST POP POP POP POP POP POP POP JUMP JUMPDEST PUSH1 0x1 DUP1 SLOAD PUSH2 0x306 SWAP1 PUSH2 0x98E JUMP JUMPDEST DUP1 PUSH1 0x1F ADD PUSH1 0x20 DUP1 SWAP2 DIV MUL PUSH1 0x20 ADD PUSH1 0x40 MLOAD SWAP1 DUP2 ADD PUSH1 0x40 MSTORE DUP1 SWAP3 SWAP2 SWAP1 DUP2 DUP2 MSTORE PUSH1 0x20 ADD DUP3 DUP1 SLOAD PUSH2 0x332 SWAP1 PUSH2 0x98E JUMP JUMPDEST DUP1 ISZERO PUSH2 0x37F JUMPI DUP1 PUSH1 0x1F LT PUSH2 0x354 JUMPI PUSH2 0x100 DUP1 DUP4 SLOAD DIV MUL DUP4 MSTORE SWAP2 PUSH1 0x20 ADD SWAP2 PUSH2 0x37F JUMP JUMPDEST DUP3 ADD SWAP2 SWAP1 PUSH1 0x0 MSTORE PUSH1 0x20 PUSH1 0x0 KECCAK256 SWAP1 JUMPDEST DUP2 SLOAD DUP2 MSTORE SWAP1 PUSH1 0x1 ADD SWAP1 PUSH1 0x20 ADD DUP1 DUP4 GT PUSH2 0x362 JUMPI DUP3 SWAP1 SUB PUSH1 0x1F AND DUP3 ADD SWAP2 JUMPDEST POP POP POP POP POP DUP2 JUMP JUMPDEST PUSH1 0x2 DUP1 SLOAD PUSH2 0x394 SWAP1 PUSH2 0x98E JUMP JUMPDEST DUP1 PUSH1 0x1F ADD PUSH1 0x20 DUP1 SWAP2 DIV MUL PUSH1 0x20 ADD PUSH1 0x40 MLOAD SWAP1 DUP2 ADD PUSH1 0x40 MSTORE DUP1 SWAP3 SWAP2 SWAP1 DUP2 DUP2 MSTORE PUSH1 0x20 ADD DUP3 DUP1 SLOAD PUSH2 0x3C0 SWAP1 PUSH2 0x98E JUMP JUMPDEST DUP1 ISZERO PUSH2 0x40D JUMPI DUP1 PUSH1 0x1F LT PUSH2 0x3E2 JUMPI PUSH2 0x100 DUP1 DUP4 SLOAD DIV MUL DUP4 MSTORE SWAP2 PUSH1 0x20 ADD SWAP2 PUSH2 0x40D JUMP JUMPDEST DUP3 ADD SWAP2 SWAP1 PUSH1 0x0 MSTORE PUSH1 0x20 PUSH1 0x0 KECCAK256 SWAP1 JUMPDEST DUP2 SLOAD DUP2 MSTORE SWAP1 PUSH1 0x1 ADD SWAP1 PUSH1 0x20 ADD DUP1 DUP4 GT PUSH2 0x3F0 JUMPI DUP3 SWAP1 SUB PUSH1 0x1F AND DUP3 ADD SWAP2 JUMPDEST POP POP POP POP POP DUP2 JUMP JUMPDEST PUSH1 0x4 SLOAD DUP2 JUMP JUMPDEST PUSH1 0x3 DUP1 SLOAD PUSH2 0x428 SWAP1 PUSH2 0x98E JUMP JUMPDEST DUP1 PUSH1 0x1F ADD PUSH1 0x20 DUP1 SWAP2 DIV MUL PUSH1 0x20 ADD PUSH1 0x40 MLOAD SWAP1 DUP2 ADD PUSH1 0x40 MSTORE DUP1 SWAP3 SWAP2 SWAP1 DUP2 DUP2 MSTORE PUSH1 0x20 ADD DUP3 DUP1 SLOAD PUSH2 0x454 SWAP1 PUSH2 0x98E JUMP JUMPDEST DUP1 ISZERO PUSH2 0x4A1 JUMPI DUP1 PUSH1 0x1F LT PUSH2 0x476 JUMPI PUSH2 0x100 DUP1 DUP4 SLOAD DIV MUL DUP4 MSTORE SWAP2 PUSH1 0x20 ADD SWAP2 PUSH2 0x4A1 JUMP JUMPDEST DUP3 ADD SWAP2 SWAP1 PUSH1 0x0 MSTORE PUSH1 0x20 PUSH1 0x0 KECCAK256 SWAP1 JUMPDEST DUP2 SLOAD DUP2 MSTORE SWAP1 PUSH1 0x1 ADD SWAP1 PUSH1 0x20 ADD DUP1 DUP4 GT PUSH2 0x484 JUMPI DUP3 SWAP1 SUB PUSH1 0x1F AND DUP3 ADD SWAP2 JUMPDEST POP POP POP POP POP DUP2 JUMP JUMPDEST PUSH1 0x60 DUP3 DUP3 DUP2 ADD SWAP1 PUSH2 0x4BA SWAP2 SWAP1 PUSH2 0xCFB JUMP JUMPDEST PUSH1 0x3 PUSH1 0x0 PUSH1 0x4 PUSH1 0x0 DUP5 SWAP8 POP DUP6 SWAP2 SWAP1 POP SSTORE DUP5 SWAP2 SWAP1 POP SWAP1 DUP2 PUSH2 0x4DA SWAP2 SWAP1 PUSH2 0xF28 JUMP JUMPDEST POP POP POP POP DUP1 DUP1 PUSH1 0x20 ADD SWAP1 MLOAD DUP2 ADD SWAP1 PUSH2 0x4F2 SWAP2 SWAP1 PUSH2 0x106A JUMP JUMPDEST PUSH1 0x2 SWAP1 DUP2 PUSH2 0x500 SWAP2 SWAP1 PUSH2 0xF28 JUMP JUMPDEST POP DUP7 DUP7 PUSH1 0x0 SWAP2 DUP3 PUSH2 0x512 SWAP3 SWAP2 SWAP1 PUSH2 0x10BE JUMP JUMPDEST POP DUP5 DUP5 PUSH1 0x1 SWAP2 DUP3 PUSH2 0x524 SWAP3 SWAP2 SWAP1 PUSH2 0x10BE JUMP JUMPDEST POP PUSH32 0xEF02410BC88D0062FEF8F23932B97E4580B53FE2177A4E16C3D35FAC35295216 PUSH1 0x0 PUSH1 0x1 PUSH1 0x2 PUSH32 0x0 PUSH20 0xFFFFFFFFFFFFFFFFFFFFFFFFFFFFFFFFFFFFFFFF AND PUSH4 0xAACDE5C7 PUSH1 0x3 PUSH1 0x40 MLOAD DUP3 PUSH4 0xFFFFFFFF AND PUSH1 0xE0 SHL DUP2 MSTORE PUSH1 0x4 ADD PUSH2 0x5A6 SWAP2 SWAP1 PUSH2 0x1212 JUMP JUMPDEST PUSH1 0x0 PUSH1 0x40 MLOAD DUP1 DUP4 SUB DUP2 DUP7 GAS STATICCALL ISZERO DUP1 ISZERO PUSH2 0x5C3 JUMPI RETURNDATASIZE PUSH1 0x0 DUP1 RETURNDATACOPY RETURNDATASIZE PUSH1 0x0 REVERT JUMPDEST POP POP POP POP PUSH1 0x40 MLOAD RETURNDATASIZE PUSH1 0x0 DUP3 RETURNDATACOPY RETURNDATASIZE PUSH1 0x1F NOT PUSH1 0x1F DUP3 ADD AND DUP3 ADD DUP1 PUSH1 0x40 MSTORE POP DUP2 ADD SWAP1 PUSH2 0x5EC SWAP2 SWAP1 PUSH2 0x106A JUMP JUMPDEST PUSH1 0x4 SLOAD PUSH1 0x40 MLOAD PUSH2 0x600 SWAP6 SWAP5 SWAP4 SWAP3 SWAP2 SWAP1 PUSH2 0x1234 JUMP JUMPDEST PUSH1 0x40 MLOAD DUP1 SWAP2 SUB SWAP1 LOG1 POP POP POP POP POP POP POP JUMP JUMPDEST PUSH1 0x0 PUSH20 0xFFFFFFFFFFFFFFFFFFFFFFFFFFFFFFFFFFFFFFFF DUP3 AND SWAP1 POP SWAP2 SWAP1 POP JUMP JUMPDEST PUSH1 0x0 DUP2 SWAP1 POP SWAP2 SWAP1 POP JUMP JUMPDEST PUSH1 0x0 PUSH2 0x656 PUSH2 0x651 PUSH2 0x64C DUP5 PUSH2 0x611 JUMP JUMPDEST PUSH2 0x631 JUMP JUMPDEST PUSH2 0x611 JUMP JUMPDEST SWAP1 POP SWAP2 SWAP1 POP JUMP JUMPDEST PUSH1 0x0 PUSH2 0x668 DUP3 PUSH2 0x63B JUMP JUMPDEST SWAP1 POP SWAP2 SWAP1 POP JUMP JUMPDEST PUSH1 0x0 PUSH2 0x67A DUP3 PUSH2 0x65D JUMP JUMPDEST SWAP1 POP SWAP2 SWAP1 POP JUMP JUMPDEST PUSH2 0x68A DUP2 PUSH2 0x66F JUMP JUMPDEST DUP3 MSTORE POP POP JUMP JUMPDEST PUSH1 0x0 PUSH1 0x20 DUP3 ADD SWAP1 POP PUSH2 0x6A5 PUSH1 0x0 DUP4 ADD DUP5 PUSH2 0x681 JUMP JUMPDEST SWAP3 SWAP2 POP POP JUMP JUMPDEST PUSH1 0x0 DUP2 MLOAD SWAP1 POP SWAP2 SWAP1 POP JUMP JUMPDEST PUSH1 0x0 DUP3 DUP3 MSTORE PUSH1 0x20 DUP3 ADD SWAP1 POP SWAP3 SWAP2 POP POP JUMP JUMPDEST PUSH1 0x0 JUMPDEST DUP4 DUP2 LT ISZERO PUSH2 0x6E5 JUMPI DUP1 DUP3 ADD MLOAD DUP2 DUP5 ADD MSTORE PUSH1 0x20 DUP2 ADD SWAP1 POP PUSH2 0x6CA JUMP JUMPDEST PUSH1 0x0 DUP5 DUP5 ADD MSTORE POP POP POP POP JUMP JUMPDEST PUSH1 0x0 PUSH1 0x1F NOT PUSH1 0x1F DUP4 ADD AND SWAP1 POP SWAP2 SWAP1 POP JUMP JUMPDEST PUSH1 0x0 PUSH2 0x70D DUP3 PUSH2 0x6AB JUMP JUMPDEST PUSH2 0x717 DUP2 DUP6 PUSH2 0x6B6 JUMP JUMPDEST SWAP4 POP PUSH2 0x727 DUP2 DUP6 PUSH1 0x20 DUP7 ADD PUSH2 0x6C7 JUMP JUMPDEST PUSH2 0x730 DUP2 PUSH2 0x6F1 JUMP JUMPDEST DUP5 ADD SWAP2 POP POP SWAP3 SWAP2 POP POP JUMP JUMPDEST PUSH1 0x0 PUSH1 0x20 DUP3 ADD SWAP1 POP DUP2 DUP2 SUB PUSH1 0x0 DUP4 ADD MSTORE PUSH2 0x755 DUP2 DUP5 PUSH2 0x702 JUMP JUMPDEST SWAP1 POP SWAP3 SWAP2 POP POP JUMP JUMPDEST PUSH1 0x0 PUSH1 0x40 MLOAD SWAP1 POP SWAP1 JUMP JUMPDEST PUSH1 0x0 DUP1 REVERT JUMPDEST PUSH1 0x0 DUP1 REVERT JUMPDEST PUSH1 0x0 DUP2 SWAP1 POP SWAP2 SWAP1 POP JUMP JUMPDEST PUSH2 0x784 DUP2 PUSH2 0x771 JUMP JUMPDEST DUP2 EQ PUSH2 0x78F JUMPI PUSH1 0x0 DUP1 REVERT JUMPDEST POP JUMP JUMPDEST PUSH1 0x0 DUP2 CALLDATALOAD SWAP1 POP PUSH2 0x7A1 DUP2 PUSH2 0x77B JUMP JUMPDEST SWAP3 SWAP2 POP POP JUMP JUMPDEST PUSH1 0x0 DUP1 REVERT JUMPDEST PUSH1 0x0 DUP1 REVERT JUMPDEST PUSH1 0x0 DUP1 REVERT JUMPDEST PUSH1 0x0 DUP1 DUP4 PUSH1 0x1F DUP5 ADD SLT PUSH2 0x7CC JUMPI PUSH2 0x7CB PUSH2 0x7A7 JUMP JUMPDEST JUMPDEST DUP3 CALLDATALOAD SWAP1 POP PUSH8 0xFFFFFFFFFFFFFFFF DUP2 GT ISZERO PUSH2 0x7E9 JUMPI PUSH2 0x7E8 PUSH2 0x7AC JUMP JUMPDEST JUMPDEST PUSH1 0x20 DUP4 ADD SWAP2 POP DUP4 PUSH1 0x1 DUP3 MUL DUP4 ADD GT ISZERO PUSH2 0x805 JUMPI PUSH2 0x804 PUSH2 0x7B1 JUMP JUMPDEST JUMPDEST SWAP3 POP SWAP3 SWAP1 POP JUMP JUMPDEST PUSH1 0x0 DUP1 DUP4 PUSH1 0x1F DUP5 ADD SLT PUSH2 0x822 JUMPI PUSH2 0x821 PUSH2 0x7A7 JUMP JUMPDEST JUMPDEST DUP3 CALLDATALOAD SWAP1 POP PUSH8 0xFFFFFFFFFFFFFFFF DUP2 GT ISZERO PUSH2 0x83F JUMPI PUSH2 0x83E PUSH2 0x7AC JUMP JUMPDEST JUMPDEST PUSH1 0x20 DUP4 ADD SWAP2 POP DUP4 PUSH1 0x1 DUP3 MUL DUP4 ADD GT ISZERO PUSH2 0x85B JUMPI PUSH2 0x85A PUSH2 0x7B1 JUMP JUMPDEST JUMPDEST SWAP3 POP SWAP3 SWAP1 POP JUMP JUMPDEST PUSH1 0x0 DUP1 PUSH1 0x0 DUP1 PUSH1 0x0 DUP1 PUSH1 0x0 PUSH1 0x80 DUP9 DUP11 SUB SLT ISZERO PUSH2 0x881 JUMPI PUSH2 0x880 PUSH2 0x767 JUMP JUMPDEST JUMPDEST PUSH1 0x0 PUSH2 0x88F DUP11 DUP3 DUP12 ADD PUSH2 0x792 JUMP JUMPDEST SWAP8 POP POP PUSH1 0x20 DUP9 ADD CALLDATALOAD PUSH8 0xFFFFFFFFFFFFFFFF DUP2 GT ISZERO PUSH2 0x8B0 JUMPI PUSH2 0x8AF PUSH2 0x76C JUMP JUMPDEST JUMPDEST PUSH2 0x8BC DUP11 DUP3 DUP12 ADD PUSH2 0x7B6 JUMP JUMPDEST SWAP7 POP SWAP7 POP POP PUSH1 0x40 DUP9 ADD CALLDATALOAD PUSH8 0xFFFFFFFFFFFFFFFF DUP2 GT ISZERO PUSH2 0x8DF JUMPI PUSH2 0x8DE PUSH2 0x76C JUMP JUMPDEST JUMPDEST PUSH2 0x8EB DUP11 DUP3 DUP12 ADD PUSH2 0x7B6 JUMP JUMPDEST SWAP5 POP SWAP5 POP POP PUSH1 0x60 DUP9 ADD CALLDATALOAD PUSH8 0xFFFFFFFFFFFFFFFF DUP2 GT ISZERO PUSH2 0x90E JUMPI PUSH2 0x90D PUSH2 0x76C JUMP JUMPDEST JUMPDEST PUSH2 0x91A DUP11 DUP3 DUP12 ADD PUSH2 0x80C JUMP JUMPDEST SWAP3 POP SWAP3 POP POP SWAP3 SWAP6 SWAP9 SWAP2 SWAP5 SWAP8 POP SWAP3 SWAP6 POP JUMP JUMPDEST PUSH1 0x0 DUP2 SWAP1 POP SWAP2 SWAP1 POP JUMP JUMPDEST PUSH2 0x93E DUP2 PUSH2 0x92B JUMP JUMPDEST DUP3 MSTORE POP POP JUMP JUMPDEST PUSH1 0x0 PUSH1 0x20 DUP3 ADD SWAP1 POP PUSH2 0x959 PUSH1 0x0 DUP4 ADD DUP5 PUSH2 0x935 JUMP JUMPDEST SWAP3 SWAP2 POP POP JUMP JUMPDEST PUSH32 0x4E487B7100000000000000000000000000000000000000000000000000000000 PUSH1 0x0 MSTORE PUSH1 0x22 PUSH1 0x4 MSTORE PUSH1 0x24 PUSH1 0x0 REVERT JUMPDEST PUSH1 0x0 PUSH1 0x2 DUP3 DIV SWAP1 POP PUSH1 0x1 DUP3 AND DUP1 PUSH2 0x9A6 JUMPI PUSH1 0x7F DUP3 AND SWAP2 POP JUMPDEST PUSH1 0x20 DUP3 LT DUP2 SUB PUSH2 0x9B9 JUMPI PUSH2 0x9B8 PUSH2 0x95F JUMP JUMPDEST JUMPDEST POP SWAP2 SWAP1 POP JUMP JUMPDEST PUSH2 0x9C8 DUP2 PUSH2 0x771 JUMP JUMPDEST DUP3 MSTORE POP POP JUMP JUMPDEST DUP3 DUP2 DUP4 CALLDATACOPY PUSH1 0x0 DUP4 DUP4 ADD MSTORE POP POP POP JUMP JUMPDEST PUSH1 0x0 PUSH2 0x9E9 DUP4 DUP6 PUSH2 0x6B6 JUMP JUMPDEST SWAP4 POP PUSH2 0x9F6 DUP4 DUP6 DUP5 PUSH2 0x9CE JUMP JUMPDEST PUSH2 0x9FF DUP4 PUSH2 0x6F1 JUMP JUMPDEST DUP5 ADD SWAP1 POP SWAP4 SWAP3 POP POP POP JUMP JUMPDEST PUSH1 0x0 DUP3 DUP3 MSTORE PUSH1 0x20 DUP3 ADD SWAP1 POP SWAP3 SWAP2 POP POP JUMP JUMPDEST PUSH1 0x0 PUSH2 0xA27 DUP4 DUP6 PUSH2 0xA0A JUMP JUMPDEST SWAP4 POP PUSH2 0xA34 DUP4 DUP6 DUP5 PUSH2 0x9CE JUMP JUMPDEST PUSH2 0xA3D DUP4 PUSH2 0x6F1 JUMP JUMPDEST DUP5 ADD SWAP1 POP SWAP4 SWAP3 POP POP POP JUMP JUMPDEST PUSH1 0x0 PUSH1 0x80 DUP3 ADD SWAP1 POP PUSH2 0xA5D PUSH1 0x0 DUP4 ADD DUP11 PUSH2 0x9BF JUMP JUMPDEST DUP2 DUP2 SUB PUSH1 0x20 DUP4 ADD MSTORE PUSH2 0xA70 DUP2 DUP9 DUP11 PUSH2 0x9DD JUMP JUMPDEST SWAP1 POP DUP2 DUP2 SUB PUSH1 0x40 DUP4 ADD MSTORE PUSH2 0xA85 DUP2 DUP7 DUP9 PUSH2 0x9DD JUMP JUMPDEST SWAP1 POP DUP2 DUP2 SUB PUSH1 0x60 DUP4 ADD MSTORE PUSH2 0xA9A DUP2 DUP5 DUP7 PUSH2 0xA1B JUMP JUMPDEST SWAP1 POP SWAP9 SWAP8 POP POP POP POP POP POP POP POP JUMP JUMPDEST PUSH1 0x0 DUP2 ISZERO ISZERO SWAP1 POP SWAP2 SWAP1 POP JUMP JUMPDEST PUSH2 0xABD DUP2 PUSH2 0xAA8 JUMP JUMPDEST DUP2 EQ PUSH2 0xAC8 JUMPI PUSH1 0x0 DUP1 REVERT JUMPDEST POP JUMP JUMPDEST PUSH1 0x0 DUP2 MLOAD SWAP1 POP PUSH2 0xADA DUP2 PUSH2 0xAB4 JUMP JUMPDEST SWAP3 SWAP2 POP POP JUMP JUMPDEST PUSH1 0x0 PUSH1 0x20 DUP3 DUP5 SUB SLT ISZERO PUSH2 0xAF6 JUMPI PUSH2 0xAF5 PUSH2 0x767 JUMP JUMPDEST JUMPDEST PUSH1 0x0 PUSH2 0xB04 DUP5 DUP3 DUP6 ADD PUSH2 0xACB JUMP JUMPDEST SWAP2 POP POP SWAP3 SWAP2 POP POP JUMP JUMPDEST PUSH1 0x0 DUP1 REVERT JUMPDEST PUSH32 0x4E487B7100000000000000000000000000000000000000000000000000000000 PUSH1 0x0 MSTORE PUSH1 0x41 PUSH1 0x4 MSTORE PUSH1 0x24 PUSH1 0x0 REVERT JUMPDEST PUSH2 0xB4A DUP3 PUSH2 0x6F1 JUMP JUMPDEST DUP2 ADD DUP2 DUP2 LT PUSH8 0xFFFFFFFFFFFFFFFF DUP3 GT OR ISZERO PUSH2 0xB69 JUMPI PUSH2 0xB68 PUSH2 0xB12 JUMP JUMPDEST JUMPDEST DUP1 PUSH1 0x40 MSTORE POP POP POP JUMP JUMPDEST PUSH1 0x0 PUSH2 0xB7C PUSH2 0x75D JUMP JUMPDEST SWAP1 POP PUSH2 0xB88 DUP3 DUP3 PUSH2 0xB41 JUMP JUMPDEST SWAP2 SWAP1 POP JUMP JUMPDEST PUSH1 0x0 PUSH8 0xFFFFFFFFFFFFFFFF DUP3 GT ISZERO PUSH2 0xBA8 JUMPI PUSH2 0xBA7 PUSH2 0xB12 JUMP JUMPDEST JUMPDEST PUSH2 0xBB1 DUP3 PUSH2 0x6F1 JUMP JUMPDEST SWAP1 POP PUSH1 0x20 DUP2 ADD SWAP1 POP SWAP2 SWAP1 POP JUMP JUMPDEST PUSH1 0x0 PUSH2 0xBD1 PUSH2 0xBCC DUP5 PUSH2 0xB8D JUMP JUMPDEST PUSH2 0xB72 JUMP JUMPDEST SWAP1 POP DUP3 DUP2 MSTORE PUSH1 0x20 DUP2 ADD DUP5 DUP5 DUP5 ADD GT ISZERO PUSH2 0xBED JUMPI PUSH2 0xBEC PUSH2 0xB0D JUMP JUMPDEST JUMPDEST PUSH2 0xBF8 DUP5 DUP3 DUP6 PUSH2 0x9CE JUMP JUMPDEST POP SWAP4 SWAP3 POP POP POP JUMP JUMPDEST PUSH1 0x0 DUP3 PUSH1 0x1F DUP4 ADD SLT PUSH2 0xC15 JUMPI PUSH2 0xC14 PUSH2 0x7A7 JUMP JUMPDEST JUMPDEST DUP2 CALLDATALOAD PUSH2 0xC25 DUP5 DUP3 PUSH1 0x20 DUP7 ADD PUSH2 0xBBE JUMP JUMPDEST SWAP2 POP POP SWAP3 SWAP2 POP POP JUMP JUMPDEST PUSH2 0xC37 DUP2 PUSH2 0x92B JUMP JUMPDEST DUP2 EQ PUSH2 0xC42 JUMPI PUSH1 0x0 DUP1 REVERT JUMPDEST POP JUMP JUMPDEST PUSH1 0x0 DUP2 CALLDATALOAD SWAP1 POP PUSH2 0xC54 DUP2 PUSH2 0xC2E JUMP JUMPDEST SWAP3 SWAP2 POP POP JUMP JUMPDEST PUSH1 0x0 PUSH8 0xFFFFFFFFFFFFFFFF DUP3 GT ISZERO PUSH2 0xC75 JUMPI PUSH2 0xC74 PUSH2 0xB12 JUMP JUMPDEST JUMPDEST PUSH2 0xC7E DUP3 PUSH2 0x6F1 JUMP JUMPDEST SWAP1 POP PUSH1 0x20 DUP2 ADD SWAP1 POP SWAP2 SWAP1 POP JUMP JUMPDEST PUSH1 0x0 PUSH2 0xC9E PUSH2 0xC99 DUP5 PUSH2 0xC5A JUMP JUMPDEST PUSH2 0xB72 JUMP JUMPDEST SWAP1 POP DUP3 DUP2 MSTORE PUSH1 0x20 DUP2 ADD DUP5 DUP5 DUP5 ADD GT ISZERO PUSH2 0xCBA JUMPI PUSH2 0xCB9 PUSH2 0xB0D JUMP JUMPDEST JUMPDEST PUSH2 0xCC5 DUP5 DUP3 DUP6 PUSH2 0x9CE JUMP JUMPDEST POP SWAP4 SWAP3 POP POP POP JUMP JUMPDEST PUSH1 0x0 DUP3 PUSH1 0x1F DUP4 ADD SLT PUSH2 0xCE2 JUMPI PUSH2 0xCE1 PUSH2 0x7A7 JUMP JUMPDEST JUMPDEST DUP2 CALLDATALOAD PUSH2 0xCF2 DUP5 DUP3 PUSH1 0x20 DUP7 ADD PUSH2 0xC8B JUMP JUMPDEST SWAP2 POP POP SWAP3 SWAP2 POP POP JUMP JUMPDEST PUSH1 0x0 DUP1 PUSH1 0x0 PUSH1 0x60 DUP5 DUP7 SUB SLT ISZERO PUSH2 0xD14 JUMPI PUSH2 0xD13 PUSH2 0x767 JUMP JUMPDEST JUMPDEST PUSH1 0x0 DUP5 ADD CALLDATALOAD PUSH8 0xFFFFFFFFFFFFFFFF DUP2 GT ISZERO PUSH2 0xD32 JUMPI PUSH2 0xD31 PUSH2 0x76C JUMP JUMPDEST JUMPDEST PUSH2 0xD3E DUP7 DUP3 DUP8 ADD PUSH2 0xC00 JUMP JUMPDEST SWAP4 POP POP PUSH1 0x20 PUSH2 0xD4F DUP7 DUP3 DUP8 ADD PUSH2 0xC45 JUMP JUMPDEST SWAP3 POP POP PUSH1 0x40 DUP5 ADD CALLDATALOAD PUSH8 0xFFFFFFFFFFFFFFFF DUP2 GT ISZERO PUSH2 0xD70 JUMPI PUSH2 0xD6F PUSH2 0x76C JUMP JUMPDEST JUMPDEST PUSH2 0xD7C DUP7 DUP3 DUP8 ADD PUSH2 0xCCD JUMP JUMPDEST SWAP2 POP POP SWAP3 POP SWAP3 POP SWAP3 JUMP JUMPDEST PUSH1 0x0 DUP2 SWAP1 POP DUP2 PUSH1 0x0 MSTORE PUSH1 0x20 PUSH1 0x0 KECCAK256 SWAP1 POP SWAP2 SWAP1 POP JUMP JUMPDEST PUSH1 0x0 PUSH1 0x20 PUSH1 0x1F DUP4 ADD DIV SWAP1 POP SWAP2 SWAP1 POP JUMP JUMPDEST PUSH1 0x0 DUP3 DUP3 SHL SWAP1 POP SWAP3 SWAP2 POP POP JUMP JUMPDEST PUSH1 0x0 PUSH1 0x8 DUP4 MUL PUSH2 0xDE8 PUSH32 0xFFFFFFFFFFFFFFFFFFFFFFFFFFFFFFFFFFFFFFFFFFFFFFFFFFFFFFFFFFFFFFFF DUP3 PUSH2 0xDAB JUMP JUMPDEST PUSH2 0xDF2 DUP7 DUP4 PUSH2 0xDAB JUMP JUMPDEST SWAP6 POP DUP1 NOT DUP5 AND SWAP4 POP DUP1 DUP7 AND DUP5 OR SWAP3 POP POP POP SWAP4 SWAP3 POP POP POP JUMP JUMPDEST PUSH1 0x0 PUSH2 0xE25 PUSH2 0xE20 PUSH2 0xE1B DUP5 PUSH2 0x92B JUMP JUMPDEST PUSH2 0x631 JUMP JUMPDEST PUSH2 0x92B JUMP JUMPDEST SWAP1 POP SWAP2 SWAP1 POP JUMP JUMPDEST PUSH1 0x0 DUP2 SWAP1 POP SWAP2 SWAP1 POP JUMP JUMPDEST PUSH2 0xE3F DUP4 PUSH2 0xE0A JUMP JUMPDEST PUSH2 0xE53 PUSH2 0xE4B DUP3 PUSH2 0xE2C JUMP JUMPDEST DUP5 DUP5 SLOAD PUSH2 0xDB8 JUMP JUMPDEST DUP3 SSTORE POP POP POP POP JUMP JUMPDEST PUSH1 0x0 SWAP1 JUMP JUMPDEST PUSH2 0xE68 PUSH2 0xE5B JUMP JUMPDEST PUSH2 0xE73 DUP2 DUP5 DUP5 PUSH2 0xE36 JUMP JUMPDEST POP POP POP JUMP JUMPDEST JUMPDEST DUP2 DUP2 LT ISZERO PUSH2 0xE97 JUMPI PUSH2 0xE8C PUSH1 0x0 DUP3 PUSH2 0xE60 JUMP JUMPDEST PUSH1 0x1 DUP2 ADD SWAP1 POP PUSH2 0xE79 JUMP JUMPDEST POP POP JUMP JUMPDEST PUSH1 0x1F DUP3 GT ISZERO PUSH2 0xEDC JUMPI PUSH2 0xEAD DUP2 PUSH2 0xD86 JUMP JUMPDEST PUSH2 0xEB6 DUP5 PUSH2 0xD9B JUMP JUMPDEST DUP2 ADD PUSH1 0x20 DUP6 LT ISZERO PUSH2 0xEC5 JUMPI DUP2 SWAP1 POP JUMPDEST PUSH2 0xED9 PUSH2 0xED1 DUP6 PUSH2 0xD9B JUMP JUMPDEST DUP4 ADD DUP3 PUSH2 0xE78 JUMP JUMPDEST POP POP JUMPDEST POP POP POP JUMP JUMPDEST PUSH1 0x0 DUP3 DUP3 SHR SWAP1 POP SWAP3 SWAP2 POP POP JUMP JUMPDEST PUSH1 0x0 PUSH2 0xEFF PUSH1 0x0 NOT DUP5 PUSH1 0x8 MUL PUSH2 0xEE1 JUMP JUMPDEST NOT DUP1 DUP4 AND SWAP2 POP POP SWAP3 SWAP2 POP POP JUMP JUMPDEST PUSH1 0x0 PUSH2 0xF18 DUP4 DUP4 PUSH2 0xEEE JUMP JUMPDEST SWAP2 POP DUP3 PUSH1 0x2 MUL DUP3 OR SWAP1 POP SWAP3 SWAP2 POP POP JUMP JUMPDEST PUSH2 0xF31 DUP3 PUSH2 0x6AB JUMP JUMPDEST PUSH8 0xFFFFFFFFFFFFFFFF DUP2 GT ISZERO PUSH2 0xF4A JUMPI PUSH2 0xF49 PUSH2 0xB12 JUMP JUMPDEST JUMPDEST PUSH2 0xF54 DUP3 SLOAD PUSH2 0x98E JUMP JUMPDEST PUSH2 0xF5F DUP3 DUP3 DUP6 PUSH2 0xE9B JUMP JUMPDEST PUSH1 0x0 PUSH1 0x20 SWAP1 POP PUSH1 0x1F DUP4 GT PUSH1 0x1 DUP2 EQ PUSH2 0xF92 JUMPI PUSH1 0x0 DUP5 ISZERO PUSH2 0xF80 JUMPI DUP3 DUP8 ADD MLOAD SWAP1 POP JUMPDEST PUSH2 0xF8A DUP6 DUP3 PUSH2 0xF0C JUMP JUMPDEST DUP7 SSTORE POP PUSH2 0xFF2 JUMP JUMPDEST PUSH1 0x1F NOT DUP5 AND PUSH2 0xFA0 DUP7 PUSH2 0xD86 JUMP JUMPDEST PUSH1 0x0 JUMPDEST DUP3 DUP2 LT ISZERO PUSH2 0xFC8 JUMPI DUP5 DUP10 ADD MLOAD DUP3 SSTORE PUSH1 0x1 DUP3 ADD SWAP2 POP PUSH1 0x20 DUP6 ADD SWAP5 POP PUSH1 0x20 DUP2 ADD SWAP1 POP PUSH2 0xFA3 JUMP JUMPDEST DUP7 DUP4 LT ISZERO PUSH2 0xFE5 JUMPI DUP5 DUP10 ADD MLOAD PUSH2 0xFE1 PUSH1 0x1F DUP10 AND DUP3 PUSH2 0xEEE JUMP JUMPDEST DUP4 SSTORE POP JUMPDEST PUSH1 0x1 PUSH1 0x2 DUP9 MUL ADD DUP9 SSTORE POP POP POP JUMPDEST POP POP POP POP POP POP JUMP JUMPDEST PUSH1 0x0 PUSH2 0x100D PUSH2 0x1008 DUP5 PUSH2 0xB8D JUMP JUMPDEST PUSH2 0xB72 JUMP JUMPDEST SWAP1 POP DUP3 DUP2 MSTORE PUSH1 0x20 DUP2 ADD DUP5 DUP5 DUP5 ADD GT ISZERO PUSH2 0x1029 JUMPI PUSH2 0x1028 PUSH2 0xB0D JUMP JUMPDEST JUMPDEST PUSH2 0x1034 DUP5 DUP3 DUP6 PUSH2 0x6C7 JUMP JUMPDEST POP SWAP4 SWAP3 POP POP POP JUMP JUMPDEST PUSH1 0x0 DUP3 PUSH1 0x1F DUP4 ADD SLT PUSH2 0x1051 JUMPI PUSH2 0x1050 PUSH2 0x7A7 JUMP JUMPDEST JUMPDEST DUP2 MLOAD PUSH2 0x1061 DUP5 DUP3 PUSH1 0x20 DUP7 ADD PUSH2 0xFFA JUMP JUMPDEST SWAP2 POP POP SWAP3 SWAP2 POP POP JUMP JUMPDEST PUSH1 0x0 PUSH1 0x20 DUP3 DUP5 SUB SLT ISZERO PUSH2 0x1080 JUMPI PUSH2 0x107F PUSH2 0x767 JUMP JUMPDEST JUMPDEST PUSH1 0x0 DUP3 ADD MLOAD PUSH8 0xFFFFFFFFFFFFFFFF DUP2 GT ISZERO PUSH2 0x109E JUMPI PUSH2 0x109D PUSH2 0x76C JUMP JUMPDEST JUMPDEST PUSH2 0x10AA DUP5 DUP3 DUP6 ADD PUSH2 0x103C JUMP JUMPDEST SWAP2 POP POP SWAP3 SWAP2 POP POP JUMP JUMPDEST PUSH1 0x0 DUP3 SWAP1 POP SWAP3 SWAP2 POP POP JUMP JUMPDEST PUSH2 0x10C8 DUP4 DUP4 PUSH2 0x10B3 JUMP JUMPDEST PUSH8 0xFFFFFFFFFFFFFFFF DUP2 GT ISZERO PUSH2 0x10E1 JUMPI PUSH2 0x10E0 PUSH2 0xB12 JUMP JUMPDEST JUMPDEST PUSH2 0x10EB DUP3 SLOAD PUSH2 0x98E JUMP JUMPDEST PUSH2 0x10F6 DUP3 DUP3 DUP6 PUSH2 0xE9B JUMP JUMPDEST PUSH1 0x0 PUSH1 0x1F DUP4 GT PUSH1 0x1 DUP2 EQ PUSH2 0x1125 JUMPI PUSH1 0x0 DUP5 ISZERO PUSH2 0x1113 JUMPI DUP3 DUP8 ADD CALLDATALOAD SWAP1 POP JUMPDEST PUSH2 0x111D DUP6 DUP3 PUSH2 0xF0C JUMP JUMPDEST DUP7 SSTORE POP PUSH2 0x1185 JUMP JUMPDEST PUSH1 0x1F NOT DUP5 AND PUSH2 0x1133 DUP7 PUSH2 0xD86 JUMP JUMPDEST PUSH1 0x0 JUMPDEST DUP3 DUP2 LT ISZERO PUSH2 0x115B JUMPI DUP5 DUP10 ADD CALLDATALOAD DUP3 SSTORE PUSH1 0x1 DUP3 ADD SWAP2 POP PUSH1 0x20 DUP6 ADD SWAP5 POP PUSH1 0x20 DUP2 ADD SWAP1 POP PUSH2 0x1136 JUMP JUMPDEST DUP7 DUP4 LT ISZERO PUSH2 0x1178 JUMPI DUP5 DUP10 ADD CALLDATALOAD PUSH2 0x1174 PUSH1 0x1F DUP10 AND DUP3 PUSH2 0xEEE JUMP JUMPDEST DUP4 SSTORE POP JUMPDEST PUSH1 0x1 PUSH1 0x2 DUP9 MUL ADD DUP9 SSTORE POP POP POP JUMPDEST POP POP POP POP POP POP POP JUMP JUMPDEST PUSH1 0x0 DUP2 SLOAD PUSH2 0x119B DUP2 PUSH2 0x98E JUMP JUMPDEST PUSH2 0x11A5 DUP2 DUP7 PUSH2 0x6B6 JUMP JUMPDEST SWAP5 POP PUSH1 0x1 DUP3 AND PUSH1 0x0 DUP2 EQ PUSH2 0x11C0 JUMPI PUSH1 0x1 DUP2 EQ PUSH2 0x11D6 JUMPI PUSH2 0x1209 JUMP JUMPDEST PUSH1 0xFF NOT DUP4 AND DUP7 MSTORE DUP2 ISZERO ISZERO PUSH1 0x20 MUL DUP7 ADD SWAP4 POP PUSH2 0x1209 JUMP JUMPDEST PUSH2 0x11DF DUP6 PUSH2 0xD86 JUMP JUMPDEST PUSH1 0x0 JUMPDEST DUP4 DUP2 LT ISZERO PUSH2 0x1201 JUMPI DUP2 SLOAD DUP2 DUP10 ADD MSTORE PUSH1 0x1 DUP3 ADD SWAP2 POP PUSH1 0x20 DUP2 ADD SWAP1 POP PUSH2 0x11E2 JUMP JUMPDEST DUP1 DUP9 ADD SWAP6 POP POP POP JUMPDEST POP POP POP SWAP3 SWAP2 POP POP JUMP JUMPDEST PUSH1 0x0 PUSH1 0x20 DUP3 ADD SWAP1 POP DUP2 DUP2 SUB PUSH1 0x0 DUP4 ADD MSTORE PUSH2 0x122C DUP2 DUP5 PUSH2 0x118E JUMP JUMPDEST SWAP1 POP SWAP3 SWAP2 POP POP JUMP JUMPDEST PUSH1 0x0 PUSH1 0xA0 DUP3 ADD SWAP1 POP DUP2 DUP2 SUB PUSH1 0x0 DUP4 ADD MSTORE PUSH2 0x124E DUP2 DUP9 PUSH2 0x118E JUMP JUMPDEST SWAP1 POP DUP2 DUP2 SUB PUSH1 0x20 DUP4 ADD MSTORE PUSH2 0x1262 DUP2 DUP8 PUSH2 0x118E JUMP JUMPDEST SWAP1 POP DUP2 DUP2 SUB PUSH1 0x40 DUP4 ADD MSTORE PUSH2 0x1276 DUP2 DUP7 PUSH2 0x118E JUMP JUMPDEST SWAP1 POP DUP2 DUP2 SUB PUSH1 0x60 DUP4 ADD MSTORE PUSH2 0x128A DUP2 DUP6 PUSH2 0x702 JUMP JUMPDEST SWAP1 POP PUSH2 0x1299 PUSH1 0x80 DUP4 ADD DUP5 PUSH2 0x935 JUMP JUMPDEST SWAP7 SWAP6 POP POP POP POP POP POP JUMP INVALID LOG2 PUSH5 0x6970667358 0x22 SLT KECCAK256 0xEF SWAP12 ADDRESS 0xE9 DUP13 PUSH25 0xEBED18A9E1B755B57A78404C89E80DF81D1AD95DCA263CB08 0xD6 PUSH5 0x736F6C6343 STOP ADDMOD EQ STOP CALLER "},"methodIdentifiers":{"execute(bytes32,string,string,bytes)":"49160658","gateway()":"116191b6","message()":"e21f37ce","sourceAddress()":"b0fa8444","sourceChain()":"1c6ffa46","tokenAmount()":"eec7faa1","tokenDenom()":"f307c509"}}}}}