{"contracts/Emit.sol":{"Emit":{"abi":[{"anonymous":false,"inputs":[{"indexed":false,"internalType":"string","name":"message","type":"string"}],"name":"MessageEmitted","type":"event"},{"inputs":[{"internalType":"string","name":"_message","type":"string"}],"name":"emitMessage","outputs":[],"stateMutability":"nonpayable","type":"function"}],"evm":{"bytecode":{"linkReferences":{},"object":"608060405234801561001057600080fd5b506101fd806100206000396000f3fe608060405234801561001057600080fd5b506004361061002b5760003560e01c80632ac0df2614610030575b600080fd5b61004a600480360381019061004591906100f8565b61004c565b005b7f50ede1f15a65bab9edf83cef0d1ffb1f21234653b3e58170594c3d8685d30e7a828260405161007d9291906101a3565b60405180910390a15050565b600080fd5b600080fd5b600080fd5b600080fd5b600080fd5b60008083601f8401126100b8576100b7610093565b5b8235905067ffffffffffffffff8111156100d5576100d4610098565b5b6020830191508360018202830111156100f1576100f061009d565b5b9250929050565b6000806020838503121561010f5761010e610089565b5b600083013567ffffffffffffffff81111561012d5761012c61008e565b5b610139858286016100a2565b92509250509250929050565b600082825260208201905092915050565b82818337600083830152505050565b6000601f19601f8301169050919050565b60006101828385610145565b935061018f838584610156565b61019883610165565b840190509392505050565b600060208201905081810360008301526101be818486610176565b9050939250505056fea26469706673582212208e940612b7a67dae040d3c962f97571aa194a5c4d126c22e6d09174a5afbb29a64736f6c63430008140033","opcodes":"PUSH1 0x80 PUSH1 0x40 MSTORE CALLVALUE DUP1 ISZERO PUSH2 0x10 JUMPI PUSH1 0x0 DUP1 REVERT JUMPDEST POP PUSH2 0x1FD DUP1 PUSH2 0x20 PUSH1 0x0 CODECOPY PUSH1 0x0 RETURN INVALID PUSH1 0x80 PUSH1 0x40 MSTORE CALLVALUE DUP1 ISZERO PUSH2 0x10 JUMPI PUSH1 0x0 DUP1 REVERT JUMPDEST POP PUSH1 0x4 CALLDATASIZE LT PUSH2 0x2B JUMPI PUSH1 0x0 CALLDATALOAD PUSH1 0xE0 SHR DUP1 PUSH4 0x2AC0DF26 EQ PUSH2 0x30 JUMPI JUMPDEST PUSH1 0x0 DUP1 REVERT JUMPDEST PUSH2 0x4A PUSH1 0x4 DUP1 CALLDATASIZE SUB DUP2 ADD SWAP1 PUSH2 0x45 SWAP2 SWAP1 PUSH2 0xF8 JUMP JUMPDEST PUSH2 0x4C JUMP JUMPDEST STOP JUMPDEST PUSH32 0x50EDE1F15A65BAB9EDF83CEF0D1FFB1F21234653B3E58170594C3D8685D30E7A DUP3 DUP3 PUSH1 0x40 MLOAD PUSH2 0x7D SWAP3 SWAP2 SWAP1 PUSH2 0x1A3 JUMP JUMPDEST PUSH1 0x40 MLOAD DUP1 SWAP2 SUB SWAP1 LOG1 POP POP JUMP JUMPDEST PUSH1 0x0 DUP1 REVERT JUMPDEST PUSH1 0x0 DUP1 REVERT JUMPDEST PUSH1 0x0 DUP1 REVERT JUMPDEST PUSH1 0x0 DUP1 REVERT JUMPDEST PUSH1 0x0 DUP1 REVERT JUMPDEST PUSH1 0x0 DUP1 DUP4 PUSH1 0x1F DUP5 ADD SLT PUSH2 0xB8 JUMPI PUSH2 0xB7 PUSH2 0x93 JUMP JUMPDEST JUMPDEST DUP3 CALLDATALOAD SWAP1 POP PUSH8 0xFFFFFFFFFFFFFFFF DUP2 GT ISZERO PUSH2 0xD5 JUMPI PUSH2 0xD4 PUSH2 0x98 JUMP JUMPDEST JUMPDEST PUSH1 0x20 DUP4 ADD SWAP2 POP DUP4 PUSH1 0x1 DUP3 MUL DUP4 ADD GT ISZERO PUSH2 0xF1 JUMPI PUSH2 0xF0 PUSH2 0x9D JUMP JUMPDEST JUMPDEST SWAP3 POP SWAP3 SWAP1 POP JUMP JUMPDEST PUSH1 0x0 DUP1 PUSH1 0x20 DUP4 DUP6 SUB SLT ISZERO PUSH2 0x10F JUMPI PUSH2 0x10E PUSH2 0x89 JUMP JUMPDEST JUMPDEST PUSH1 0x0 DUP4 ADD CALLDATALOAD PUSH8 0xFFFFFFFFFFFFFFFF DUP2 GT ISZERO PUSH2 0x12D JUMPI PUSH2 0x12C PUSH2 0x8E JUMP JUMPDEST JUMPDEST PUSH2 0x139 DUP6 DUP3 DUP7 ADD PUSH2 0xA2 JUMP JUMPDEST SWAP3 POP SWAP3 POP POP SWAP3 POP SWAP3 SWAP1 POP JUMP JUMPDEST PUSH1 0x0 DUP3 DUP3 MSTORE PUSH1 0x20 DUP3 ADD SWAP1 POP SWAP3 SWAP2 POP POP JUMP JUMPDEST DUP3 DUP2 DUP4 CALLDATACOPY PUSH1 0x0 DUP4 DUP4 ADD MSTORE POP POP POP JUMP JUMPDEST PUSH1 0x0 PUSH1 0x1F NOT PUSH1 0x1F DUP4 ADD AND SWAP1 POP SWAP2 SWAP1 POP JUMP JUMPDEST PUSH1 0x0 PUSH2 0x182 DUP4 DUP6 PUSH2 0x145 JUMP JUMPDEST SWAP4 POP PUSH2 0x18F DUP4 DUP6 DUP5 PUSH2 0x156 JUMP JUMPDEST PUSH2 0x198 DUP4 PUSH2 0x165 JUMP JUMPDEST DUP5 ADD SWAP1 POP SWAP4 SWAP3 POP POP POP JUMP JUMPDEST PUSH1 0x0 PUSH1 0x20 DUP3 ADD SWAP1 POP DUP2 DUP2 SUB PUSH1 0x0 DUP4 ADD MSTORE PUSH2 0x1BE DUP2 DUP5 DUP7 PUSH2 0x176 JUMP JUMPDEST SWAP1 POP SWAP4 SWAP3 POP POP POP JUMP INVALID LOG2 PUSH5 0x6970667358 0x22 SLT KECCAK256 DUP15 SWAP5 MOD SLT 0xB7 0xA6 PUSH30 0xAE040D3C962F97571AA194A5C4D126C22E6D09174A5AFBB29A64736F6C63 NUMBER STOP ADDMOD EQ STOP CALLER "},"methodIdentifiers":{"emitMessage(string)":"2ac0df26"}}}}}