{
  "contracts/pledge/XrpLendingPool.sol": {
    "XrpLendingPoolV2": {
      "abi": [
        {
          "inputs": [
            {
              "internalType": "address",
              "name": "gateway_",
              "type": "address"
            },
            {
              "internalType": "address",
              "name": "priceOracle_",
              "type": "address"
            },
            {
              "internalType": "uint256",
              "name": "dailyInterestFactorE18_",
              "type": "uint256"
            }
          ],
          "stateMutability": "nonpayable",
          "type": "constructor"
        },
        {
          "inputs": [],
          "name": "InvalidAddress",
          "type": "error"
        },
        {
          "inputs": [],
          "name": "NotApprovedByGateway",
          "type": "error"
        },
        {
          "inputs": [
            {
              "internalType": "uint256",
              "name": "x",
              "type": "uint256"
            }
          ],
          "name": "PRBMathUD60x18__Exp2InputTooBig",
          "type": "error"
        },
        {
          "inputs": [
            {
              "internalType": "uint256",
              "name": "x",
              "type": "uint256"
            }
          ],
          "name": "PRBMathUD60x18__LogInputTooSmall",
          "type": "error"
        },
        {
          "inputs": [
            {
              "internalType": "uint256",
              "name": "prod1",
              "type": "uint256"
            }
          ],
          "name": "PRBMath__MulDivFixedPointOverflow",
          "type": "error"
        },
        {
          "anonymous": false,
          "inputs": [
            {
              "indexed": true,
              "internalType": "string",
              "name": "user",
              "type": "string"
            },
            {
              "indexed": false,
              "internalType": "uint256",
              "name": "amount",
              "type": "uint256"
            },
            {
              "indexed": false,
              "internalType": "uint256",
              "name": "confirmedRewards",
              "type": "uint256"
            },
            {
              "indexed": false,
              "internalType": "uint256",
              "name": "contributionBalance",
              "type": "uint256"
            },
            {
              "indexed": false,
              "internalType": "uint256",
              "name": "rewardDebt",
              "type": "uint256"
            }
          ],
          "name": "LiquidityAdded",
          "type": "event"
        },
        {
          "anonymous": false,
          "inputs": [
            {
              "indexed": true,
              "internalType": "string",
              "name": "user",
              "type": "string"
            },
            {
              "indexed": false,
              "internalType": "uint256",
              "name": "amount",
              "type": "uint256"
            },
            {
              "indexed": false,
              "internalType": "uint256",
              "name": "confirmedRewards",
              "type": "uint256"
            },
            {
              "indexed": false,
              "internalType": "uint256",
              "name": "contributionBalance",
              "type": "uint256"
            },
            {
              "indexed": false,
              "internalType": "uint256",
              "name": "rewardDebt",
              "type": "uint256"
            }
          ],
          "name": "LiquidityWithdrawn",
          "type": "event"
        },
        {
          "anonymous": false,
          "inputs": [
            {
              "indexed": true,
              "internalType": "uint256",
              "name": "loanId",
              "type": "uint256"
            },
            {
              "indexed": true,
              "internalType": "string",
              "name": "borrower",
              "type": "string"
            },
            {
              "indexed": false,
              "internalType": "uint256",
              "name": "borrowAmountUSD",
              "type": "uint256"
            },
            {
              "indexed": false,
              "internalType": "uint256",
              "name": "collateralAmountXRP",
              "type": "uint256"
            },
            {
              "indexed": false,
              "internalType": "uint256",
              "name": "lastInterestUpdateTime",
              "type": "uint256"
            }
          ],
          "name": "LoanCreated",
          "type": "event"
        },
        {
          "anonymous": false,
          "inputs": [
            {
              "indexed": true,
              "internalType": "uint256",
              "name": "loanId",
              "type": "uint256"
            },
            {
              "indexed": false,
              "internalType": "uint256",
              "name": "collateralValueUSD",
              "type": "uint256"
            },
            {
              "indexed": false,
              "internalType": "uint256",
              "name": "amountPayableUSD",
              "type": "uint256"
            },
            {
              "indexed": false,
              "internalType": "uint256",
              "name": "currentPriceUSD",
              "type": "uint256"
            }
          ],
          "name": "LoanLiquidated",
          "type": "event"
        },
        {
          "anonymous": false,
          "inputs": [
            {
              "indexed": true,
              "internalType": "uint256",
              "name": "loanId",
              "type": "uint256"
            },
            {
              "indexed": false,
              "internalType": "uint256",
              "name": "repaidAmountUSD",
              "type": "uint256"
            },
            {
              "indexed": false,
              "internalType": "uint256",
              "name": "remainingAmountPayableUSD",
              "type": "uint256"
            }
          ],
          "name": "LoanRepaid",
          "type": "event"
        },
        {
          "anonymous": false,
          "inputs": [
            {
              "indexed": true,
              "internalType": "uint256",
              "name": "loanId",
              "type": "uint256"
            },
            {
              "indexed": true,
              "internalType": "string",
              "name": "borrower",
              "type": "string"
            },
            {
              "indexed": false,
              "internalType": "uint256",
              "name": "borrowAmountUSD",
              "type": "uint256"
            },
            {
              "indexed": false,
              "internalType": "uint256",
              "name": "collateralAmountXRP",
              "type": "uint256"
            },
            {
              "indexed": false,
              "internalType": "uint256",
              "name": "lastInterestUpdateTime",
              "type": "uint256"
            }
          ],
          "name": "LoanUpdated",
          "type": "event"
        },
        {
          "anonymous": false,
          "inputs": [
            {
              "indexed": true,
              "internalType": "string",
              "name": "user",
              "type": "string"
            },
            {
              "indexed": false,
              "internalType": "uint256",
              "name": "rewardsToClaim",
              "type": "uint256"
            },
            {
              "indexed": false,
              "internalType": "uint256",
              "name": "confirmedRewards",
              "type": "uint256"
            },
            {
              "indexed": false,
              "internalType": "uint256",
              "name": "contributionBalance",
              "type": "uint256"
            },
            {
              "indexed": false,
              "internalType": "uint256",
              "name": "rewardDebt",
              "type": "uint256"
            }
          ],
          "name": "RewardsClaimed",
          "type": "event"
        },
        {
          "anonymous": false,
          "inputs": [
            {
              "indexed": false,
              "internalType": "uint256",
              "name": "rewardAmount",
              "type": "uint256"
            },
            {
              "indexed": false,
              "internalType": "uint256",
              "name": "accRewardPerShareE18",
              "type": "uint256"
            }
          ],
          "name": "RewardsDistributed",
          "type": "event"
        },
        {
          "inputs": [],
          "name": "SELECTOR_BORROW",
          "outputs": [
            {
              "internalType": "bytes32",
              "name": "",
              "type": "bytes32"
            }
          ],
          "stateMutability": "view",
          "type": "function"
        },
        {
          "inputs": [],
          "name": "SELECTOR_CLAIM_REWARD",
          "outputs": [
            {
              "internalType": "bytes32",
              "name": "",
              "type": "bytes32"
            }
          ],
          "stateMutability": "view",
          "type": "function"
        },
        {
          "inputs": [],
          "name": "SELECTOR_LEND",
          "outputs": [
            {
              "internalType": "bytes32",
              "name": "",
              "type": "bytes32"
            }
          ],
          "stateMutability": "view",
          "type": "function"
        },
        {
          "inputs": [],
          "name": "SELECTOR_LIQUIDATE_LOAN",
          "outputs": [
            {
              "internalType": "bytes32",
              "name": "",
              "type": "bytes32"
            }
          ],
          "stateMutability": "view",
          "type": "function"
        },
        {
          "inputs": [],
          "name": "SELECTOR_REPAY_LOAN",
          "outputs": [
            {
              "internalType": "bytes32",
              "name": "",
              "type": "bytes32"
            }
          ],
          "stateMutability": "view",
          "type": "function"
        },
        {
          "inputs": [],
          "name": "SELECTOR_WITHDRAW",
          "outputs": [
            {
              "internalType": "bytes32",
              "name": "",
              "type": "bytes32"
            }
          ],
          "stateMutability": "view",
          "type": "function"
        },
        {
          "inputs": [],
          "name": "SUPPORTED_SOURCE_CHAIN_HASH",
          "outputs": [
            {
              "internalType": "bytes32",
              "name": "",
              "type": "bytes32"
            }
          ],
          "stateMutability": "view",
          "type": "function"
        },
        {
          "inputs": [],
          "name": "accRewardPerShareE18",
          "outputs": [
            {
              "internalType": "uint256",
              "name": "",
              "type": "uint256"
            }
          ],
          "stateMutability": "view",
          "type": "function"
        },
        {
          "inputs": [],
          "name": "collateralRatioPc",
          "outputs": [
            {
              "internalType": "uint256",
              "name": "",
              "type": "uint256"
            }
          ],
          "stateMutability": "view",
          "type": "function"
        },
        {
          "inputs": [],
          "name": "currentXRPPriceUSDE4",
          "outputs": [
            {
              "internalType": "uint256",
              "name": "",
              "type": "uint256"
            }
          ],
          "stateMutability": "view",
          "type": "function"
        },
        {
          "inputs": [],
          "name": "dailyInterestFactorE18",
          "outputs": [
            {
              "internalType": "uint256",
              "name": "",
              "type": "uint256"
            }
          ],
          "stateMutability": "view",
          "type": "function"
        },
        {
          "inputs": [
            {
              "internalType": "bytes32",
              "name": "commandId",
              "type": "bytes32"
            },
            {
              "internalType": "string",
              "name": "sourceChain",
              "type": "string"
            },
            {
              "internalType": "string",
              "name": "sourceAddress",
              "type": "string"
            },
            {
              "internalType": "bytes",
              "name": "payload",
              "type": "bytes"
            }
          ],
          "name": "execute",
          "outputs": [],
          "stateMutability": "nonpayable",
          "type": "function"
        },
        {
          "inputs": [
            {
              "internalType": "bytes32",
              "name": "commandId",
              "type": "bytes32"
            },
            {
              "internalType": "string",
              "name": "sourceChain",
              "type": "string"
            },
            {
              "internalType": "string",
              "name": "sourceAddress",
              "type": "string"
            },
            {
              "internalType": "bytes",
              "name": "payload",
              "type": "bytes"
            },
            {
              "internalType": "string",
              "name": "tokenSymbol",
              "type": "string"
            },
            {
              "internalType": "uint256",
              "name": "amount",
              "type": "uint256"
            }
          ],
          "name": "executeWithToken",
          "outputs": [],
          "stateMutability": "nonpayable",
          "type": "function"
        },
        {
          "inputs": [],
          "name": "gateway",
          "outputs": [
            {
              "internalType": "contract IMyAxelarGateway",
              "name": "",
              "type": "address"
            }
          ],
          "stateMutability": "view",
          "type": "function"
        },
        {
          "inputs": [
            {
              "internalType": "uint256",
              "name": "_loanId",
              "type": "uint256"
            }
          ],
          "name": "getLoanDetails",
          "outputs": [
            {
              "components": [
                {
                  "internalType": "string",
                  "name": "borrower",
                  "type": "string"
                },
                {
                  "internalType": "uint256",
                  "name": "borrowAmountUSD",
                  "type": "uint256"
                },
                {
                  "internalType": "uint256",
                  "name": "amountPayableUSD",
                  "type": "uint256"
                },
                {
                  "internalType": "uint256",
                  "name": "collateralAmountXRP",
                  "type": "uint256"
                },
                {
                  "internalType": "uint256",
                  "name": "lastPayableUpdateTime",
                  "type": "uint256"
                },
                {
                  "internalType": "uint256",
                  "name": "repaidUSD",
                  "type": "uint256"
                },
                {
                  "internalType": "bool",
                  "name": "isLiquidated",
                  "type": "bool"
                }
              ],
              "internalType": "struct XrpLendingPoolV2.Loan",
              "name": "",
              "type": "tuple"
            }
          ],
          "stateMutability": "view",
          "type": "function"
        },
        {
          "inputs": [
            {
              "internalType": "string",
              "name": "_user",
              "type": "string"
            }
          ],
          "name": "getUserInfo",
          "outputs": [
            {
              "components": [
                {
                  "internalType": "uint256",
                  "name": "contributionBalance",
                  "type": "uint256"
                },
                {
                  "internalType": "uint256",
                  "name": "rewardDebt",
                  "type": "uint256"
                },
                {
                  "internalType": "uint256",
                  "name": "confirmedRewards",
                  "type": "uint256"
                }
              ],
              "internalType": "struct XrpLendingPoolV2.UserInfo",
              "name": "",
              "type": "tuple"
            }
          ],
          "stateMutability": "view",
          "type": "function"
        },
        {
          "inputs": [
            {
              "internalType": "string",
              "name": "_user",
              "type": "string"
            }
          ],
          "name": "getUserLoan",
          "outputs": [
            {
              "internalType": "uint256",
              "name": "",
              "type": "uint256"
            }
          ],
          "stateMutability": "view",
          "type": "function"
        },
        {
          "inputs": [],
          "name": "interestRatePc",
          "outputs": [
            {
              "internalType": "uint256",
              "name": "",
              "type": "uint256"
            }
          ],
          "stateMutability": "view",
          "type": "function"
        },
        {
          "inputs": [],
          "name": "lastPriceUpdateTimestamp",
          "outputs": [
            {
              "internalType": "uint256",
              "name": "",
              "type": "uint256"
            }
          ],
          "stateMutability": "view",
          "type": "function"
        },
        {
          "inputs": [],
          "name": "lastRewardTimeStamp",
          "outputs": [
            {
              "internalType": "uint256",
              "name": "",
              "type": "uint256"
            }
          ],
          "stateMutability": "view",
          "type": "function"
        },
        {
          "inputs": [],
          "name": "liquidationThresholdPc",
          "outputs": [
            {
              "internalType": "uint256",
              "name": "",
              "type": "uint256"
            }
          ],
          "stateMutability": "view",
          "type": "function"
        },
        {
          "inputs": [],
          "name": "loanCounter",
          "outputs": [
            {
              "internalType": "uint256",
              "name": "",
              "type": "uint256"
            }
          ],
          "stateMutability": "view",
          "type": "function"
        },
        {
          "inputs": [
            {
              "internalType": "uint256",
              "name": "",
              "type": "uint256"
            }
          ],
          "name": "loans",
          "outputs": [
            {
              "internalType": "string",
              "name": "borrower",
              "type": "string"
            },
            {
              "internalType": "uint256",
              "name": "borrowAmountUSD",
              "type": "uint256"
            },
            {
              "internalType": "uint256",
              "name": "amountPayableUSD",
              "type": "uint256"
            },
            {
              "internalType": "uint256",
              "name": "collateralAmountXRP",
              "type": "uint256"
            },
            {
              "internalType": "uint256",
              "name": "lastPayableUpdateTime",
              "type": "uint256"
            },
            {
              "internalType": "uint256",
              "name": "repaidUSD",
              "type": "uint256"
            },
            {
              "internalType": "bool",
              "name": "isLiquidated",
              "type": "bool"
            }
          ],
          "stateMutability": "view",
          "type": "function"
        },
        {
          "inputs": [],
          "name": "retainedEarning",
          "outputs": [
            {
              "internalType": "uint256",
              "name": "",
              "type": "uint256"
            }
          ],
          "stateMutability": "view",
          "type": "function"
        },
        {
          "inputs": [],
          "name": "rewardInterval",
          "outputs": [
            {
              "internalType": "uint256",
              "name": "",
              "type": "uint256"
            }
          ],
          "stateMutability": "view",
          "type": "function"
        },
        {
          "inputs": [
            {
              "internalType": "address",
              "name": "_priceOracle",
              "type": "address"
            }
          ],
          "name": "setPriceOracle",
          "outputs": [],
          "stateMutability": "nonpayable",
          "type": "function"
        },
        {
          "inputs": [],
          "name": "supportedSourceChain",
          "outputs": [
            {
              "internalType": "string",
              "name": "",
              "type": "string"
            }
          ],
          "stateMutability": "view",
          "type": "function"
        },
        {
          "inputs": [],
          "name": "totalLiquidity",
          "outputs": [
            {
              "internalType": "uint256",
              "name": "",
              "type": "uint256"
            }
          ],
          "stateMutability": "view",
          "type": "function"
        },
        {
          "inputs": [
            {
              "internalType": "string",
              "name": "",
              "type": "string"
            }
          ],
          "name": "userInfo",
          "outputs": [
            {
              "internalType": "uint256",
              "name": "contributionBalance",
              "type": "uint256"
            },
            {
              "internalType": "uint256",
              "name": "rewardDebt",
              "type": "uint256"
            },
            {
              "internalType": "uint256",
              "name": "confirmedRewards",
              "type": "uint256"
            }
          ],
          "stateMutability": "view",
          "type": "function"
        },
        {
          "inputs": [
            {
              "internalType": "string",
              "name": "",
              "type": "string"
            }
          ],
          "name": "userLoan",
          "outputs": [
            {
              "internalType": "uint256",
              "name": "",
              "type": "uint256"
            }
          ],
          "stateMutability": "view",
          "type": "function"
        }
      ],
      "evm": {
        "bytecode": {
          "linkReferences": {},
          "object": "60a03461010257601f612f0238819003918201601f19168301916001600160401b0383118484101761010757808492606094604052833981010312610102576100478161011d565b9060406100566020830161011d565b910151916001600160a01b038116156100f15760805260006003556096600555600a6006556078600755620151806009556000600a556000600b556000600c556000600d5560018060a01b031660018060a01b03196000541617600055600455426008553360018060a01b03196001541617600155604051612dd0908161013282396080518181816107b001528181610e000152611d0b0152f35b63e6c4247b60e01b60005260046000fd5b600080fd5b634e487b7160e01b600052604160045260246000fd5b51906001600160a01b03821682036101025756fe608080604052600436101561001357600080fd5b600090813560e01c9081630bc82cf314611d3a57508063116191b614611cf557806315770f9214611cd75780631a98b2e014610d3957806323b1f8e414610d1b57806331f59c5514610ce057806334d9289e14610cc2578063356c728414610ca4578063370477ff14610c86578063440cf15a14610c4f578063485449d614610c31578063491606581461070d578063530e784f14610691578063550b9997146106735780636277fc0d14610655578063650a145f1461063757806366877b8d14610523578063691a87f9146104b7578063752329ec1461049957806378f2c2c3146104705780637c9b7fdd146103c0578063a43f2b9214610385578063bad2716914610351578063bec4de3f14610333578063c5fa955214610315578063d8988068146102da578063e1ec3c6814610240578063f1fd4ccb14610205578063f64f7857146101ca5763fc4dd9fa1461016b57600080fd5b346101c75760203660031901126101c757600435906001600160401b0382116101c75760206101b4816101a13660048701611e54565b8160405193828580945193849201611e72565b8101600f81520301902054604051908152f35b80fd5b50346101c757806003193601126101c75760206040517f2c260ca563e3b0491b45b463c200c724bc55ac058701ee1a0151cdeeb87eaf5a8152f35b50346101c757806003193601126101c75760206040517f855511cc3694f64379908437d6d64458dc76d02482052bfb8a5b33a72c054c778152f35b50346101c75760203660031901126101c75760406102b5916004358152600e602052206040519061027c826102758184611f1e565b0383611ded565b600181015490600281015490600381015460048201549060ff60066005850154940154169360405197889760e0895260e0890190611e95565b95602088015260408701526060860152608085015260a0840152151560c08301520390f35b50346101c757806003193601126101c75760206040517f4f943907ef0ef6f9d2e2408b05e520a66daaf74293dbf665e5a20b117676170e8152f35b50346101c757806003193601126101c7576020600254604051908152f35b50346101c757806003193601126101c7576020600954604051908152f35b50346101c757806003193601126101c75761038161036d611eba565b604051918291602083526020830190611e95565b0390f35b50346101c757806003193601126101c75760206040517f9982a092a6e4ed71c78f9619841a31a676df9098c2ec526ad2647af4f8aa674b8152f35b50346101c75760203660031901126101c7576004356001600160401b03811161046c5760206060926103f9610424933690600401611e54565b906040805161040781611dd2565b828152828582015201528160405193828580945193849201611e72565b8101601081520301902060405161043a81611dd2565b815491828252604060026001830154926020850193845201549201918252604051928352516020830152516040820152f35b5080fd5b50346101c757806003193601126101c757602061048b611eba565b818151910120604051908152f35b50346101c757806003193601126101c7576020600a54604051908152f35b50346101c75760203660031901126101c757600435906001600160401b0382116101c7576104ed60206101a13660048601611e54565b81016010815203019020805461038160026001840154930154604051938493846040919493926060820195825260208201520152565b50346101c75760203660031901126101c75760408161060c9260c0835161054981611da1565b6060815282602082015282858201528260608201528260808201528260a082015201526004358152600e602052206040519061058482611da1565b60405161059c816105958185611f1e565b0382611ded565b825260018101549060208301918252600281015490604084019182526003810154606085019081526004820154906080860191825260ff600660058501549460a089019586520154169360c087019415158552604051978897602089525160e060208a0152610100890190611e95565b955160408801525160608701525160808601525160a08501525160c084015251151560e08301520390f35b50346101c757806003193601126101c7576020600554604051908152f35b50346101c757806003193601126101c7576020600b54604051908152f35b50346101c757806003193601126101c7576020600754604051908152f35b50346101c75760203660031901126101c7576004356001600160a01b0381169081900361046c576001546001600160a01b031633036106dc5781546001600160a01b03191617815580f35b60405162461bcd60e51b81526020600482015260096024820152682737ba1037bbb732b960b91b6044820152606490fd5b50346101c75760803660031901126101c7576024356001600160401b03811161046c5761073e903690600401611d74565b906044356001600160401b0381116109d25761075e903690600401611d74565b6064356001600160401b0381116109ce5761077d903690600401611d74565b949061078a368783611e0e565b8051602091820120604051635f6970c360e01b81526004803590820152608060248201527f00000000000000000000000000000000000000000000000000000000000000006001600160a01b031698929091829081906108046107f1608484018a8e611fb9565b8381036003190160448501528a8c611fb9565b90606483015203818c8c5af1908115610c26578991610bf7575b5015610be8579061085b9161085361083736868a611e0e565b60208151910120610846611eba565b6020815191012014611fda565b81019061201d565b9060405161088a602082816108798183019687815193849201611e72565b81010301601f198101835282611ded565b5190207f2c260ca563e3b0491b45b463c200c724bc55ac058701ee1a0151cdeeb87eaf5a8103610a115750506108be612a97565b604051828482376020818481016010815203019020946108dd86612b29565b600286019485549081156109d6578289933b156109d257859484889361091b8296604051998a97889687956326ef699d60e01b875260048701612187565b03925af191826109b9575b50506109495760405162461bcd60e51b815280610945600482016121c3565b0390fd5b84937f1af01a942698710a64fdbe7f2e5fe738ef43c0e0c0ae3ac1015aa57f11d67ab1916109b285549160018454940154958160405192839283378101600081520390209460405193838594859094939260609260808301968352602083015260408201520152565b0390a25580f35b816109c391611ded565b6109ce578538610926565b8580fd5b8380fd5b60405162461bcd60e51b81526020600482015260136024820152724e6f207265776172647320746f20636c61696d60681b6044820152606490fd5b7f855511cc3694f64379908437d6d64458dc76d02482052bfb8a5b33a72c054c779096929495939614600014610bb1578051602080830192600092810103126101c757505191610a5f612a97565b60405186868237602081888101601081520301902093610a7e85612b29565b83855410610b75578791833b15610b715787938392838993610ab789604051998a97889687956326ef699d60e01b875260048701612187565b03925af19182610b5c575b5050610ae15760405162461bcd60e51b815280610945600482016121c3565b610b567fa00f0e8908ada83b11e8068b0dbfa9c93ba003d1bbbcf5c3ead087dedd0a49b893610b11838554612076565b95868555600160028601549501549181604051928392833781016000815203902095604051948594859094939260609260808301968352602083015260408201520152565b0390a280f35b81610b6691611ded565b6109ce578538610ac2565b8280fd5b60405162461bcd60e51b8152602060048201526014602482015273496e73756666696369656e742062616c616e636560601b6044820152606490fd5b60405162461bcd60e51b815260206004820152600f60248201526e125b9d985b1a590818dbdb5b585b99608a1b6044820152606490fd5b631403112d60e21b8852600488fd5b610c19915060203d602011610c1f575b610c118183611ded565b810190611fa1565b3861081e565b503d610c07565b6040513d8b823e3d90fd5b50346101c757806003193601126101c7576020600654604051908152f35b50346101c75760203660031901126101c757600435906001600160401b0382116101c75760206101b4816101a13660048701611e54565b50346101c757806003193601126101c7576020600454604051908152f35b50346101c757806003193601126101c7576020600854604051908152f35b50346101c757806003193601126101c7576020600c54604051908152f35b50346101c757806003193601126101c75760206040517f4a469cefcbed9a88178fc34579047173d00d4643d65873018db1ec410f46e00d8152f35b50346101c757806003193601126101c7576020600354604051908152f35b50346101c75760c03660031901126101c7576024356001600160401b03811161046c57610d6a903690600401611d74565b906044356001600160401b0381116109d257610d8a903690600401611d74565b9091846064356001600160401b03811161046c57610dac903690600401611d74565b919092608435926001600160401b038411610b7157610e7794866020610e4e8b9686610ddd8d9a3690600401611d74565b9b819f918d610ded368c8c611e0e565b88815191012091610e6060018060a01b037f0000000000000000000000000000000000000000000000000000000000000000169f6040519b8c9a8b998a99631876eed960e01b8b5260043560048c015260c060248c015260c48b0191611fb9565b8881036003190160448a015291611fb9565b926064860152600319858403016084860152611fb9565b60a43560a483015203918a5af1908115611ccc578b91611cad575b5015611c9e5760a43515611c6857610eb291610853610837368787611e0e565b90604051610ed0602082816108798183019687815193849201611e72565b5190207f9982a092a6e4ed71c78f9619841a31a676df9098c2ec526ad2647af4f8aa674b8103610fcd575050505050610f307f8eaf203a8199d5994e67000062af8fc0759378a6a085da0f5ff326cfbb1353839394610f4c923691611e0e565b60208151910120610f3f6120cc565b60208151910120146120ed565b610f54612a97565b604051818482376020818381016010815203019020610f7281612b29565b610b56610f8260a435835461217a565b9283835560016002840154930154958160405192839283378101600081520390209460405193849360a435859094939260609260808301968352602083015260408201520152565b80f35b7f4f943907ef0ef6f9d2e2408b05e520a66daaf74293dbf665e5a20b117676170e8199939794989599146000146114fa57508051602080830192600092810103126101c75750906110219151943691611e0e565b6020815191012095611053604097600360208a5161103f8c82611ded565b828152016205852560ec1b815220146120ed565b61105f60055485612099565b6064810290808204606414901517156114e65760025461107e916120ac565b60a435106114a25787875183858237600f8482019081528190036020019020549687156111b757878252600e602052888220966110ba886121fb565b833b15610b7157849383928388936110e88b8f51998a97889687956326ef699d60e01b875260048701612187565b03925af1918261119e575b505061111157855162461bcd60e51b815280610945600482016121c3565b8392916111929161114860017f5f96a5d1a64b9c1bc759b3b519f1435e82066dbb895fccba43a68fe499c0cbc0970194855461217a565b8094556002600386019561115f60a435885461217a565b80975501549181895192839283378101600081520390209651938493846040919493926060820195825260208201520152565b0390a35b610fca612a97565b816111a891611ded565b6111b35787386110f3565b8780fd5b918094975095909294953b15610b7157849383928389936111ee8a8d51998a97889687956326ef699d60e01b875260048701612187565b03925af1918261148d575b505061121757835162461bcd60e51b815280610945600482016121c3565b600c5460001981146114795760010180600c5584519061123682611da1565b611241368487611e0e565b8252836020830152838683015260a43560608301524260808301528660a08301528660c08301528652600e60205284862081518051906001600160401b0382116114655761128f8354611ee4565b601f8111611424575b5060209089601f84116001146113945793837faa9b37700bf84cf4312a950e6b2b49c0f5555908b5a463eb0d2598d389c09c5798969460c0946006946113819a9892611389575b50508160011b916000199060031b1c19161781555b60208401516001820155898401516002820155606084015160038201556080840151600482015560a0840151600582015501910151151560ff80198354169116179055600c549485875183838237602081858101600f8152030190205581875192839283376000908201908152039020945190815260a43560208201524260408201529081906060820190565b0390a3611196565b0151905038806112df565b50838a52818a209190601f1984168b5b81811061140c57508460c0946006946113819a98947faa9b37700bf84cf4312a950e6b2b49c0f5555908b5a463eb0d2598d389c09c579c9a98600195106113f3575b505050811b0181556112f4565b015160001960f88460031b161c191690553880806113e6565b929360206001819287860151815501950193016113a4565b838a5260208a20601f840160051c81016020851061145e575b601f830160051c82018110611453575050611298565b8b815560010161143d565b508061143d565b634e487b7160e01b89526041600452602489fd5b634e487b7160e01b86526011600452602486fd5b8161149791611ded565b6109ce5785386111f9565b865162461bcd60e51b815260206004820152601760248201527f496e73756666696369656e7420636f6c6c61746572616c0000000000000000006044820152606490fd5b634e487b7160e01b89526011600452602489fd5b949795947f7bd15d6b2d182a804b2a36c079625580f8a960afa839087ccb184e9db92b9a0381036117bb5750602081519181808201938492010103126117b65761154b91610f309151983691611e0e565b858752600e60205260408720604051611568816105958185611f1e565b6020815191012061157a368486611e0e565b602081519101200361177c57600681019560ff875416611737578860058301966115a760a435895461217a565b88556115b2846121fb565b600284019687548060a43510156000146116f45750828855895460ff19166001178a55600385015491803b156109d25786948489936116098296604051998a97889687956326ef699d60e01b875260048701612130565b03925af191826116db575b505061165f5760405162461bcd60e51b815260206004820152601a60248201527f4661696c656420746f2073656e642058525020746f20757365720000000000006044820152606490fd5b6001604095896116b89460206116c0977fd9cfbcfb9ae5d65b8d34072de4575f602ee25cf3715bc05c291701fe9e258f9a9b8660ff19825416179055828b5193849283378101600f815203019020555491015490612076565b600a5461217a565b600a555b5481519060a43582526020820152a2610fca612a97565b816116e591611ded565b6116f0578838611614565b8880fd5b955050505050507fd9cfbcfb9ae5d65b8d34072de4575f602ee25cf3715bc05c291701fe9e258f9a945060409350611730915060a43590612076565b81556116c4565b60405162461bcd60e51b815260206004820152601a60248201527f4c6f616e20697320616c7265616479206c6971756964617465640000000000006044820152606490fd5b60405162461bcd60e51b81526020600482015260126024820152712737ba103a3432903637b0b71037bbb732b960711b6044820152606490fd5b600080fd5b7f4a469cefcbed9a88178fc34579047173d00d4643d65873018db1ec410f46e00d909896949792959814600014611b7557602081519181808201938492010103126117b6575196878952600e6020526040892096600688019460ff865416611b3057610e1061182c60035442612076565b1015611ab3575b61183c896121fb565b60038901549361271061185160025487612099565b049860028b0198895491606461186960075485612099565b048c1015611a775761188091610f30913691611e0e565b60a43510611a19578b94823b156109ce5785946118b58692604051998a97889687956326ef699d60e01b875260048701612130565b03925af19182611a00575b505061190b5760405162461bcd60e51b815260206004820152601a60248201527f4661696c656420746f2073656e642058525020746f20757365720000000000006044820152606490fd5b61191b6116b8835460a435612076565b600a55600160ff1982541617905584604051819480549061193b82611ee4565b91600181169081156119e857506001146119b0575b505060208186600f7ff2d932763377b0d691487ba847e159565f9926361b9c719edd77508949f8d91c9852030190205554906119a5600254604051938493846040919493926060820195825260208201520152565b0390a2610fca612a97565b90955082526020822082905b8682106119d157505093840193602081611950565b8054828401528893506020909101906001016119bc565b60ff1916845250508015150281019450602081611950565b81611a0a91611ded565b611a155786386118c0565b8680fd5b60405162461bcd60e51b815260206004820152603060248201527f52657061796d656e7420616d6f756e74206d757374206265206772656174657260448201526f081d1a185b881d1bdd185b081bddd95960821b6064820152608490fd5b60405162461bcd60e51b815260206004820152601460248201527310d85b9b9bdd081b1a5c5d5a59185d19481e595d60621b6044820152606490fd5b8a54604051638183f10f60e01b815290602090829060049082906001600160a01b03165afa908115611b25578c91611af3575b5060025542600355611833565b90506020813d602011611b1d575b81611b0e60209383611ded565b810103126117b6575138611ae6565b3d9150611b01565b6040513d8e823e3d90fd5b60405162461bcd60e51b815260206004820152601760248201527f4c6f616e20616c7265616479206c6971756964617465640000000000000000006044820152606490fd5b5093879596919460001960a4350160a4358111611c54578798859897983b156111b357611bca968894611bdc611bee936040519c8d9b8c9a8b996326ef699d60e01b8b52608060048c015260848b0191611fb9565b8881036003190160248a015291611fb9565b85810360031901604487015291611fb9565b90606483015203925af18015611c4957611c395760405162461bcd60e51b815260206004820152600f60248201526e125b9d985b1a590818dbdb5b585b99608a1b6044820152606490fd5b81611c4391611ded565b81610bb1565b6040513d84823e3d90fd5b634e487b7160e01b88526011600452602488fd5b60405162461bcd60e51b815260206004820152600e60248201526d125b9d985b1a5908185b5bdd5b9d60921b6044820152606490fd5b631403112d60e21b8a5260048afd5b611cc6915060203d602011610c1f57610c118183611ded565b38610e92565b6040513d8d823e3d90fd5b50346101c757806003193601126101c7576020600d54604051908152f35b50346101c757806003193601126101c7576040517f00000000000000000000000000000000000000000000000000000000000000006001600160a01b03168152602090f35b90503461046c578160031936011261046c57807f7bd15d6b2d182a804b2a36c079625580f8a960afa839087ccb184e9db92b9a0360209252f35b9181601f840112156117b6578235916001600160401b0383116117b657602083818601950101116117b657565b60e081019081106001600160401b03821117611dbc57604052565b634e487b7160e01b600052604160045260246000fd5b606081019081106001600160401b03821117611dbc57604052565b90601f801991011681019081106001600160401b03821117611dbc57604052565b9291926001600160401b038211611dbc5760405191611e37601f8201601f191660200184611ded565b8294818452818301116117b6578281602093846000960137010152565b9080601f830112156117b657816020611e6f93359101611e0e565b90565b60005b838110611e855750506000910152565b8181015183820152602001611e75565b90602091611eae81518092818552858086019101611e72565b601f01601f1916010190565b60405190611ec9604083611ded565b600c82526b1614941317dd195cdd1b995d60a21b6020830152565b90600182811c92168015611f14575b6020831014611efe57565b634e487b7160e01b600052602260045260246000fd5b91607f1691611ef3565b60009291815491611f2e83611ee4565b8083529260018116908115611f845750600114611f4a57505050565b60009081526020812093945091925b838310611f6a575060209250010190565b600181602092949394548385870101520191019190611f59565b915050602093945060ff929192191683830152151560051b010190565b908160209103126117b6575180151581036117b65790565b908060209392818452848401376000828201840152601f01601f1916010190565b15611fe157565b60405162461bcd60e51b815260206004820152601460248201527324b73b30b634b21039b7bab931b29031b430b4b760611b6044820152606490fd5b91906040838203126117b65782356001600160401b0381116117b65781612045918501611e54565b926020810135906001600160401b0382116117b657019080601f830112156117b657816020611e6f93359101611e0e565b9190820391821161208357565b634e487b7160e01b600052601160045260246000fd5b8181029291811591840414171561208357565b81156120b6570490565b634e487b7160e01b600052601260045260246000fd5b604051906120db604083611ded565b60038252621554d160ea1b6020830152565b156120f457565b60405162461bcd60e51b8152602060048201526014602482015273125b9d985b1a59081d1bdad95b881cde5b589bdb60621b6044820152606490fd5b9594939260609361214f61215d9360409560808b5260808b0191611fb9565b9188830360208a0152611fb9565b85810382870152600381526205852560ec1b602082015201930152565b9190820180921161208357565b9594939260609361214f6121a69360409560808b5260808b0191611fb9565b8581038287015260038152621554d160ea1b602082015201930152565b60609060208152601a60208201527f4661696c656420746f2073656e642055534420746f207573657200000000000060408201520190565b60ff600682015416612a945760048101906201518061221b835442612076565b048015612a8f576004549081612250575050670de0b6b3a764000061224860026000935b01928354612cfc565b049055429055565b61225c61226192612b66565b612cfc565b680a688906bd8b000000811015612a7b576122486002670de0b6b3a7640000809360401b04600160bf1b6780000000000000008216612a68575b84906740000000000000008316612a55575b6720000000000000008316612a42575b6710000000000000008316612a2f575b6708000000000000008316612a1c575b6704000000000000008316612a09575b67020000000000000083166129f6575b67010000000000000083166129e3575b668000000000000083166129d0575b664000000000000083166129bd575b662000000000000083166129aa575b66100000000000008316612997575b66080000000000008316612984575b66040000000000008316612971575b6602000000000000831661295e575b6601000000000000831661294b575b658000000000008316612938575b654000000000008316612925575b652000000000008316612912575b6510000000000083166128ff575b6508000000000083166128ec575b6504000000000083166128d9575b6502000000000083166128c6575b6501000000000083166128b3575b64800000000083166128a0575b644000000000831661288d575b642000000000831661287a575b6410000000008316612867575b6408000000008316612854575b6404000000008316612841575b640200000000831661282e575b640100000000831661281b575b63800000008316612808575b634000000083166127f5575b632000000083166127e2575b631000000083166127cf575b630800000083166127bc575b630400000083166127a9575b63020000008316612796575b63010000008316612783575b628000008316612770575b62400000831661275d575b62200000831661274a575b621000008316612737575b620800008316612724575b620400008316612711575b6202000083166126fe575b6201000083166126eb575b61800083166126d8575b61400083166126c5575b61200083166126b2575b611000831661269f575b610800831661268c575b6104008316612679575b6102008316612666575b6101008316612653575b60808316612640575b6040831661262d575b6020831661261a575b60108316612607575b600883166125f4575b600483166125e1575b8383166125ce575b600183166125bb575b029060401c60bf031c9361223f565b680100000000000000010260401c6125ac565b680100000000000000010260401c6125a3565b680100000000000000030260401c61259b565b680100000000000000060260401c612592565b6801000000000000000b0260401c612589565b680100000000000000160260401c612580565b6801000000000000002c0260401c612577565b680100000000000000590260401c61256e565b680100000000000000b10260401c612565565b680100000000000001630260401c61255b565b680100000000000002c60260401c612551565b6801000000000000058c0260401c612547565b68010000000000000b170260401c61253d565b6801000000000000162e0260401c612533565b68010000000000002c5d0260401c612529565b680100000000000058b90260401c61251f565b6801000000000000b1720260401c612515565b680100000000000162e40260401c61250a565b6801000000000002c5c80260401c6124ff565b68010000000000058b910260401c6124f4565b680100000000000b17210260401c6124e9565b68010000000000162e430260401c6124de565b680100000000002c5c860260401c6124d3565b6801000000000058b90c0260401c6124c8565b68010000000000b172180260401c6124bd565b6801000000000162e4300260401c6124b1565b68010000000002c5c8600260401c6124a5565b680100000000058b90c00260401c612499565b6801000000000b17217f0260401c61248d565b680100000000162e42ff0260401c612481565b6801000000002c5c85fe0260401c612475565b68010000000058b90bfc0260401c612469565b680100000000b17217f80260401c61245d565b68010000000162e42ff10260401c612450565b680100000002c5c85fe30260401c612443565b6801000000058b90bfce0260401c612436565b68010000000b17217fbb0260401c612429565b6801000000162e42fff00260401c61241c565b68010000002c5c8601cc0260401c61240f565b680100000058b90c0b490260401c612402565b6801000000b1721835510260401c6123f5565b680100000162e430e5a20260401c6123e7565b6801000002c5c863b73f0260401c6123d9565b68010000058b90cf1e6e0260401c6123cb565b680100000b1721bcfc9a0260401c6123bd565b68010000162e43f4f8310260401c6123af565b680100002c5c89d5ec6d0260401c6123a1565b6801000058b91b5bc9ae0260401c612393565b68010000b17255775c040260401c612385565b6801000162e525ee05470260401c612376565b68010002c5cc37da94920260401c612367565b680100058ba01fb9f96d0260401c612358565b6801000b175effdc76ba0260401c612349565b680100162f3904051fa10260401c61233a565b6801002c605e2e8cec500260401c61232b565b68010058c86da1c09ea20260401c61231c565b680100b1afa5abcbed610260401c61230d565b68010163da9fb33356d80260401c6122fd565b680102c9a3e778060ee70260401c6122ed565b6801059b0d31585743ae0260401c6122dd565b68010b5586cf9890f62a0260401c6122cd565b6801172b83c7d517adce0260401c6122bd565b6801306fe0a31b7152df0260401c6122ad565b5068016a09e667f3bcc909607f1b61229b565b634a4f26f160e01b60005260045260246000fd5b505050565b50565b612aa66008546009549061217a565b4210612b2757600a548015612a9457670de0b6b3a76400008102818104670de0b6b3a764000003612083577f29e98ba00d07f171959c4ddcd2f3020debc7c52cf537a034d7e664340d098c6c91612b0d612b05604093600d54906120ac565b600b5461217a565b80600b556000600a554260085582519182526020820152a1565b565b612b626002670de0b6b3a7640000612b458454600b5490612099565b04926001810193612b57855482612076565b94550191825461217a565b9055565b90670de0b6b3a76400008210612ce757600091670de0b6b3a76400008104600160801b811015612cdc575b68010000000000000000811015612cc7575b640100000000811015612cb2575b62010000811015612c9d575b610100811015612c88575b6010811015612c73575b6004811015612c5e575b60021115612c4c575b670de0b6b3a76400008302921c670de0b6b3a76400008114612a94576706f05b59d3b2000090815b612c15575050565b80670de0b6b3a764000091020490671bc16d674ec80000821015612c3e575b60011c9081612c0d565b809193019260011c90612c34565b91600181018091116120835791612be5565b60021c92600281018091116120835792612bdc565b60041c92600481018091116120835792612bd2565b60081c92600881018091116120835792612bc8565b60101c92601081018091116120835792612bbd565b60201c92602081018091116120835792612bb1565b60401c92604081018091116120835792612ba3565b60809350831c612b91565b50633621413760e21b60005260045260246000fd5b600019828209828202908180821091039381850393670de0b6b3a7640000851015612d855790670de0b6b3a76400009109906706f05b59d3b1ffff82119414612d74577faccb18165bd6fe31ae1cf318dc5b51eee0e1ba569b88cd74c1773b91fac1066992828211900360ee1b910360121c17020190565b50670de0b6b3a76400009150040190565b8463698d9a0160e11b60005260045260246000fdfea264697066735822122045344981034932f069a9bd69fe24d27e8580c7eae8941496916fcaf0fcf799e264736f6c634300081c0033",
          "opcodes": "PUSH1 0xA0 CALLVALUE PUSH2 0x102 JUMPI PUSH1 0x1F PUSH2 0x2F02 CODESIZE DUP2 SWAP1 SUB SWAP2 DUP3 ADD PUSH1 0x1F NOT AND DUP4 ADD SWAP2 PUSH1 0x1 PUSH1 0x1 PUSH1 0x40 SHL SUB DUP4 GT DUP5 DUP5 LT OR PUSH2 0x107 JUMPI DUP1 DUP5 SWAP3 PUSH1 0x60 SWAP5 PUSH1 0x40 MSTORE DUP4 CODECOPY DUP2 ADD SUB SLT PUSH2 0x102 JUMPI PUSH2 0x47 DUP2 PUSH2 0x11D JUMP JUMPDEST SWAP1 PUSH1 0x40 PUSH2 0x56 PUSH1 0x20 DUP4 ADD PUSH2 0x11D JUMP JUMPDEST SWAP2 ADD MLOAD SWAP2 PUSH1 0x1 PUSH1 0x1 PUSH1 0xA0 SHL SUB DUP2 AND ISZERO PUSH2 0xF1 JUMPI PUSH1 0x80 MSTORE PUSH1 0x0 PUSH1 0x3 SSTORE PUSH1 0x96 PUSH1 0x5 SSTORE PUSH1 0xA PUSH1 0x6 SSTORE PUSH1 0x78 PUSH1 0x7 SSTORE PUSH3 0x15180 PUSH1 0x9 SSTORE PUSH1 0x0 PUSH1 0xA SSTORE PUSH1 0x0 PUSH1 0xB SSTORE PUSH1 0x0 PUSH1 0xC SSTORE PUSH1 0x0 PUSH1 0xD SSTORE PUSH1 0x1 DUP1 PUSH1 0xA0 SHL SUB AND PUSH1 0x1 DUP1 PUSH1 0xA0 SHL SUB NOT PUSH1 0x0 SLOAD AND OR PUSH1 0x0 SSTORE PUSH1 0x4 SSTORE TIMESTAMP PUSH1 0x8 SSTORE CALLER PUSH1 0x1 DUP1 PUSH1 0xA0 SHL SUB NOT PUSH1 0x1 SLOAD AND OR PUSH1 0x1 SSTORE PUSH1 0x40 MLOAD PUSH2 0x2DD0 SWAP1 DUP2 PUSH2 0x132 DUP3 CODECOPY PUSH1 0x80 MLOAD DUP2 DUP2 DUP2 PUSH2 0x7B0 ADD MSTORE DUP2 DUP2 PUSH2 0xE00 ADD MSTORE PUSH2 0x1D0B ADD MSTORE RETURN JUMPDEST PUSH4 0xE6C4247B PUSH1 0xE0 SHL PUSH1 0x0 MSTORE PUSH1 0x4 PUSH1 0x0 REVERT JUMPDEST PUSH1 0x0 DUP1 REVERT JUMPDEST PUSH4 0x4E487B71 PUSH1 0xE0 SHL PUSH1 0x0 MSTORE PUSH1 0x41 PUSH1 0x4 MSTORE PUSH1 0x24 PUSH1 0x0 REVERT JUMPDEST MLOAD SWAP1 PUSH1 0x1 PUSH1 0x1 PUSH1 0xA0 SHL SUB DUP3 AND DUP3 SUB PUSH2 0x102 JUMPI JUMP INVALID PUSH1 0x80 DUP1 PUSH1 0x40 MSTORE PUSH1 0x4 CALLDATASIZE LT ISZERO PUSH2 0x13 JUMPI PUSH1 0x0 DUP1 REVERT JUMPDEST PUSH1 0x0 SWAP1 DUP2 CALLDATALOAD PUSH1 0xE0 SHR SWAP1 DUP2 PUSH4 0xBC82CF3 EQ PUSH2 0x1D3A JUMPI POP DUP1 PUSH4 0x116191B6 EQ PUSH2 0x1CF5 JUMPI DUP1 PUSH4 0x15770F92 EQ PUSH2 0x1CD7 JUMPI DUP1 PUSH4 0x1A98B2E0 EQ PUSH2 0xD39 JUMPI DUP1 PUSH4 0x23B1F8E4 EQ PUSH2 0xD1B JUMPI DUP1 PUSH4 0x31F59C55 EQ PUSH2 0xCE0 JUMPI DUP1 PUSH4 0x34D9289E EQ PUSH2 0xCC2 JUMPI DUP1 PUSH4 0x356C7284 EQ PUSH2 0xCA4 JUMPI DUP1 PUSH4 0x370477FF EQ PUSH2 0xC86 JUMPI DUP1 PUSH4 0x440CF15A EQ PUSH2 0xC4F JUMPI DUP1 PUSH4 0x485449D6 EQ PUSH2 0xC31 JUMPI DUP1 PUSH4 0x49160658 EQ PUSH2 0x70D JUMPI DUP1 PUSH4 0x530E784F EQ PUSH2 0x691 JUMPI DUP1 PUSH4 0x550B9997 EQ PUSH2 0x673 JUMPI DUP1 PUSH4 0x6277FC0D EQ PUSH2 0x655 JUMPI DUP1 PUSH4 0x650A145F EQ PUSH2 0x637 JUMPI DUP1 PUSH4 0x66877B8D EQ PUSH2 0x523 JUMPI DUP1 PUSH4 0x691A87F9 EQ PUSH2 0x4B7 JUMPI DUP1 PUSH4 0x752329EC EQ PUSH2 0x499 JUMPI DUP1 PUSH4 0x78F2C2C3 EQ PUSH2 0x470 JUMPI DUP1 PUSH4 0x7C9B7FDD EQ PUSH2 0x3C0 JUMPI DUP1 PUSH4 0xA43F2B92 EQ PUSH2 0x385 JUMPI DUP1 PUSH4 0xBAD27169 EQ PUSH2 0x351 JUMPI DUP1 PUSH4 0xBEC4DE3F EQ PUSH2 0x333 JUMPI DUP1 PUSH4 0xC5FA9552 EQ PUSH2 0x315 JUMPI DUP1 PUSH4 0xD8988068 EQ PUSH2 0x2DA JUMPI DUP1 PUSH4 0xE1EC3C68 EQ PUSH2 0x240 JUMPI DUP1 PUSH4 0xF1FD4CCB EQ PUSH2 0x205 JUMPI DUP1 PUSH4 0xF64F7857 EQ PUSH2 0x1CA JUMPI PUSH4 0xFC4DD9FA EQ PUSH2 0x16B JUMPI PUSH1 0x0 DUP1 REVERT JUMPDEST CALLVALUE PUSH2 0x1C7 JUMPI PUSH1 0x20 CALLDATASIZE PUSH1 0x3 NOT ADD SLT PUSH2 0x1C7 JUMPI PUSH1 0x4 CALLDATALOAD SWAP1 PUSH1 0x1 PUSH1 0x1 PUSH1 0x40 SHL SUB DUP3 GT PUSH2 0x1C7 JUMPI PUSH1 0x20 PUSH2 0x1B4 DUP2 PUSH2 0x1A1 CALLDATASIZE PUSH1 0x4 DUP8 ADD PUSH2 0x1E54 JUMP JUMPDEST DUP2 PUSH1 0x40 MLOAD SWAP4 DUP3 DUP6 DUP1 SWAP5 MLOAD SWAP4 DUP5 SWAP3 ADD PUSH2 0x1E72 JUMP JUMPDEST DUP2 ADD PUSH1 0xF DUP2 MSTORE SUB ADD SWAP1 KECCAK256 SLOAD PUSH1 0x40 MLOAD SWAP1 DUP2 MSTORE RETURN JUMPDEST DUP1 REVERT JUMPDEST POP CALLVALUE PUSH2 0x1C7 JUMPI DUP1 PUSH1 0x3 NOT CALLDATASIZE ADD SLT PUSH2 0x1C7 JUMPI PUSH1 0x20 PUSH1 0x40 MLOAD PUSH32 0x2C260CA563E3B0491B45B463C200C724BC55AC058701EE1A0151CDEEB87EAF5A DUP2 MSTORE RETURN JUMPDEST POP CALLVALUE PUSH2 0x1C7 JUMPI DUP1 PUSH1 0x3 NOT CALLDATASIZE ADD SLT PUSH2 0x1C7 JUMPI PUSH1 0x20 PUSH1 0x40 MLOAD PUSH32 0x855511CC3694F64379908437D6D64458DC76D02482052BFB8A5B33A72C054C77 DUP2 MSTORE RETURN JUMPDEST POP CALLVALUE PUSH2 0x1C7 JUMPI PUSH1 0x20 CALLDATASIZE PUSH1 0x3 NOT ADD SLT PUSH2 0x1C7 JUMPI PUSH1 0x40 PUSH2 0x2B5 SWAP2 PUSH1 0x4 CALLDATALOAD DUP2 MSTORE PUSH1 0xE PUSH1 0x20 MSTORE KECCAK256 PUSH1 0x40 MLOAD SWAP1 PUSH2 0x27C DUP3 PUSH2 0x275 DUP2 DUP5 PUSH2 0x1F1E JUMP JUMPDEST SUB DUP4 PUSH2 0x1DED JUMP JUMPDEST PUSH1 0x1 DUP2 ADD SLOAD SWAP1 PUSH1 0x2 DUP2 ADD SLOAD SWAP1 PUSH1 0x3 DUP2 ADD SLOAD PUSH1 0x4 DUP3 ADD SLOAD SWAP1 PUSH1 0xFF PUSH1 0x6 PUSH1 0x5 DUP6 ADD SLOAD SWAP5 ADD SLOAD AND SWAP4 PUSH1 0x40 MLOAD SWAP8 DUP9 SWAP8 PUSH1 0xE0 DUP10 MSTORE PUSH1 0xE0 DUP10 ADD SWAP1 PUSH2 0x1E95 JUMP JUMPDEST SWAP6 PUSH1 0x20 DUP9 ADD MSTORE PUSH1 0x40 DUP8 ADD MSTORE PUSH1 0x60 DUP7 ADD MSTORE PUSH1 0x80 DUP6 ADD MSTORE PUSH1 0xA0 DUP5 ADD MSTORE ISZERO ISZERO PUSH1 0xC0 DUP4 ADD MSTORE SUB SWAP1 RETURN JUMPDEST POP CALLVALUE PUSH2 0x1C7 JUMPI DUP1 PUSH1 0x3 NOT CALLDATASIZE ADD SLT PUSH2 0x1C7 JUMPI PUSH1 0x20 PUSH1 0x40 MLOAD PUSH32 0x4F943907EF0EF6F9D2E2408B05E520A66DAAF74293DBF665E5A20B117676170E DUP2 MSTORE RETURN JUMPDEST POP CALLVALUE PUSH2 0x1C7 JUMPI DUP1 PUSH1 0x3 NOT CALLDATASIZE ADD SLT PUSH2 0x1C7 JUMPI PUSH1 0x20 PUSH1 0x2 SLOAD PUSH1 0x40 MLOAD SWAP1 DUP2 MSTORE RETURN JUMPDEST POP CALLVALUE PUSH2 0x1C7 JUMPI DUP1 PUSH1 0x3 NOT CALLDATASIZE ADD SLT PUSH2 0x1C7 JUMPI PUSH1 0x20 PUSH1 0x9 SLOAD PUSH1 0x40 MLOAD SWAP1 DUP2 MSTORE RETURN JUMPDEST POP CALLVALUE PUSH2 0x1C7 JUMPI DUP1 PUSH1 0x3 NOT CALLDATASIZE ADD SLT PUSH2 0x1C7 JUMPI PUSH2 0x381 PUSH2 0x36D PUSH2 0x1EBA JUMP JUMPDEST PUSH1 0x40 MLOAD SWAP2 DUP3 SWAP2 PUSH1 0x20 DUP4 MSTORE PUSH1 0x20 DUP4 ADD SWAP1 PUSH2 0x1E95 JUMP JUMPDEST SUB SWAP1 RETURN JUMPDEST POP CALLVALUE PUSH2 0x1C7 JUMPI DUP1 PUSH1 0x3 NOT CALLDATASIZE ADD SLT PUSH2 0x1C7 JUMPI PUSH1 0x20 PUSH1 0x40 MLOAD PUSH32 0x9982A092A6E4ED71C78F9619841A31A676DF9098C2EC526AD2647AF4F8AA674B DUP2 MSTORE RETURN JUMPDEST POP CALLVALUE PUSH2 0x1C7 JUMPI PUSH1 0x20 CALLDATASIZE PUSH1 0x3 NOT ADD SLT PUSH2 0x1C7 JUMPI PUSH1 0x4 CALLDATALOAD PUSH1 0x1 PUSH1 0x1 PUSH1 0x40 SHL SUB DUP2 GT PUSH2 0x46C JUMPI PUSH1 0x20 PUSH1 0x60 SWAP3 PUSH2 0x3F9 PUSH2 0x424 SWAP4 CALLDATASIZE SWAP1 PUSH1 0x4 ADD PUSH2 0x1E54 JUMP JUMPDEST SWAP1 PUSH1 0x40 DUP1 MLOAD PUSH2 0x407 DUP2 PUSH2 0x1DD2 JUMP JUMPDEST DUP3 DUP2 MSTORE DUP3 DUP6 DUP3 ADD MSTORE ADD MSTORE DUP2 PUSH1 0x40 MLOAD SWAP4 DUP3 DUP6 DUP1 SWAP5 MLOAD SWAP4 DUP5 SWAP3 ADD PUSH2 0x1E72 JUMP JUMPDEST DUP2 ADD PUSH1 0x10 DUP2 MSTORE SUB ADD SWAP1 KECCAK256 PUSH1 0x40 MLOAD PUSH2 0x43A DUP2 PUSH2 0x1DD2 JUMP JUMPDEST DUP2 SLOAD SWAP2 DUP3 DUP3 MSTORE PUSH1 0x40 PUSH1 0x2 PUSH1 0x1 DUP4 ADD SLOAD SWAP3 PUSH1 0x20 DUP6 ADD SWAP4 DUP5 MSTORE ADD SLOAD SWAP3 ADD SWAP2 DUP3 MSTORE PUSH1 0x40 MLOAD SWAP3 DUP4 MSTORE MLOAD PUSH1 0x20 DUP4 ADD MSTORE MLOAD PUSH1 0x40 DUP3 ADD MSTORE RETURN JUMPDEST POP DUP1 REVERT JUMPDEST POP CALLVALUE PUSH2 0x1C7 JUMPI DUP1 PUSH1 0x3 NOT CALLDATASIZE ADD SLT PUSH2 0x1C7 JUMPI PUSH1 0x20 PUSH2 0x48B PUSH2 0x1EBA JUMP JUMPDEST DUP2 DUP2 MLOAD SWAP2 ADD KECCAK256 PUSH1 0x40 MLOAD SWAP1 DUP2 MSTORE RETURN JUMPDEST POP CALLVALUE PUSH2 0x1C7 JUMPI DUP1 PUSH1 0x3 NOT CALLDATASIZE ADD SLT PUSH2 0x1C7 JUMPI PUSH1 0x20 PUSH1 0xA SLOAD PUSH1 0x40 MLOAD SWAP1 DUP2 MSTORE RETURN JUMPDEST POP CALLVALUE PUSH2 0x1C7 JUMPI PUSH1 0x20 CALLDATASIZE PUSH1 0x3 NOT ADD SLT PUSH2 0x1C7 JUMPI PUSH1 0x4 CALLDATALOAD SWAP1 PUSH1 0x1 PUSH1 0x1 PUSH1 0x40 SHL SUB DUP3 GT PUSH2 0x1C7 JUMPI PUSH2 0x4ED PUSH1 0x20 PUSH2 0x1A1 CALLDATASIZE PUSH1 0x4 DUP7 ADD PUSH2 0x1E54 JUMP JUMPDEST DUP2 ADD PUSH1 0x10 DUP2 MSTORE SUB ADD SWAP1 KECCAK256 DUP1 SLOAD PUSH2 0x381 PUSH1 0x2 PUSH1 0x1 DUP5 ADD SLOAD SWAP4 ADD SLOAD PUSH1 0x40 MLOAD SWAP4 DUP5 SWAP4 DUP5 PUSH1 0x40 SWAP2 SWAP5 SWAP4 SWAP3 PUSH1 0x60 DUP3 ADD SWAP6 DUP3 MSTORE PUSH1 0x20 DUP3 ADD MSTORE ADD MSTORE JUMP JUMPDEST POP CALLVALUE PUSH2 0x1C7 JUMPI PUSH1 0x20 CALLDATASIZE PUSH1 0x3 NOT ADD SLT PUSH2 0x1C7 JUMPI PUSH1 0x40 DUP2 PUSH2 0x60C SWAP3 PUSH1 0xC0 DUP4 MLOAD PUSH2 0x549 DUP2 PUSH2 0x1DA1 JUMP JUMPDEST PUSH1 0x60 DUP2 MSTORE DUP3 PUSH1 0x20 DUP3 ADD MSTORE DUP3 DUP6 DUP3 ADD MSTORE DUP3 PUSH1 0x60 DUP3 ADD MSTORE DUP3 PUSH1 0x80 DUP3 ADD MSTORE DUP3 PUSH1 0xA0 DUP3 ADD MSTORE ADD MSTORE PUSH1 0x4 CALLDATALOAD DUP2 MSTORE PUSH1 0xE PUSH1 0x20 MSTORE KECCAK256 PUSH1 0x40 MLOAD SWAP1 PUSH2 0x584 DUP3 PUSH2 0x1DA1 JUMP JUMPDEST PUSH1 0x40 MLOAD PUSH2 0x59C DUP2 PUSH2 0x595 DUP2 DUP6 PUSH2 0x1F1E JUMP JUMPDEST SUB DUP3 PUSH2 0x1DED JUMP JUMPDEST DUP3 MSTORE PUSH1 0x1 DUP2 ADD SLOAD SWAP1 PUSH1 0x20 DUP4 ADD SWAP2 DUP3 MSTORE PUSH1 0x2 DUP2 ADD SLOAD SWAP1 PUSH1 0x40 DUP5 ADD SWAP2 DUP3 MSTORE PUSH1 0x3 DUP2 ADD SLOAD PUSH1 0x60 DUP6 ADD SWAP1 DUP2 MSTORE PUSH1 0x4 DUP3 ADD SLOAD SWAP1 PUSH1 0x80 DUP7 ADD SWAP2 DUP3 MSTORE PUSH1 0xFF PUSH1 0x6 PUSH1 0x5 DUP6 ADD SLOAD SWAP5 PUSH1 0xA0 DUP10 ADD SWAP6 DUP7 MSTORE ADD SLOAD AND SWAP4 PUSH1 0xC0 DUP8 ADD SWAP5 ISZERO ISZERO DUP6 MSTORE PUSH1 0x40 MLOAD SWAP8 DUP9 SWAP8 PUSH1 0x20 DUP10 MSTORE MLOAD PUSH1 0xE0 PUSH1 0x20 DUP11 ADD MSTORE PUSH2 0x100 DUP10 ADD SWAP1 PUSH2 0x1E95 JUMP JUMPDEST SWAP6 MLOAD PUSH1 0x40 DUP9 ADD MSTORE MLOAD PUSH1 0x60 DUP8 ADD MSTORE MLOAD PUSH1 0x80 DUP7 ADD MSTORE MLOAD PUSH1 0xA0 DUP6 ADD MSTORE MLOAD PUSH1 0xC0 DUP5 ADD MSTORE MLOAD ISZERO ISZERO PUSH1 0xE0 DUP4 ADD MSTORE SUB SWAP1 RETURN JUMPDEST POP CALLVALUE PUSH2 0x1C7 JUMPI DUP1 PUSH1 0x3 NOT CALLDATASIZE ADD SLT PUSH2 0x1C7 JUMPI PUSH1 0x20 PUSH1 0x5 SLOAD PUSH1 0x40 MLOAD SWAP1 DUP2 MSTORE RETURN JUMPDEST POP CALLVALUE PUSH2 0x1C7 JUMPI DUP1 PUSH1 0x3 NOT CALLDATASIZE ADD SLT PUSH2 0x1C7 JUMPI PUSH1 0x20 PUSH1 0xB SLOAD PUSH1 0x40 MLOAD SWAP1 DUP2 MSTORE RETURN JUMPDEST POP CALLVALUE PUSH2 0x1C7 JUMPI DUP1 PUSH1 0x3 NOT CALLDATASIZE ADD SLT PUSH2 0x1C7 JUMPI PUSH1 0x20 PUSH1 0x7 SLOAD PUSH1 0x40 MLOAD SWAP1 DUP2 MSTORE RETURN JUMPDEST POP CALLVALUE PUSH2 0x1C7 JUMPI PUSH1 0x20 CALLDATASIZE PUSH1 0x3 NOT ADD SLT PUSH2 0x1C7 JUMPI PUSH1 0x4 CALLDATALOAD PUSH1 0x1 PUSH1 0x1 PUSH1 0xA0 SHL SUB DUP2 AND SWAP1 DUP2 SWAP1 SUB PUSH2 0x46C JUMPI PUSH1 0x1 SLOAD PUSH1 0x1 PUSH1 0x1 PUSH1 0xA0 SHL SUB AND CALLER SUB PUSH2 0x6DC JUMPI DUP2 SLOAD PUSH1 0x1 PUSH1 0x1 PUSH1 0xA0 SHL SUB NOT AND OR DUP2 SSTORE DUP1 RETURN JUMPDEST PUSH1 0x40 MLOAD PUSH3 0x461BCD PUSH1 0xE5 SHL DUP2 MSTORE PUSH1 0x20 PUSH1 0x4 DUP3 ADD MSTORE PUSH1 0x9 PUSH1 0x24 DUP3 ADD MSTORE PUSH9 0x2737BA1037BBB732B9 PUSH1 0xB9 SHL PUSH1 0x44 DUP3 ADD MSTORE PUSH1 0x64 SWAP1 REVERT JUMPDEST POP CALLVALUE PUSH2 0x1C7 JUMPI PUSH1 0x80 CALLDATASIZE PUSH1 0x3 NOT ADD SLT PUSH2 0x1C7 JUMPI PUSH1 0x24 CALLDATALOAD PUSH1 0x1 PUSH1 0x1 PUSH1 0x40 SHL SUB DUP2 GT PUSH2 0x46C JUMPI PUSH2 0x73E SWAP1 CALLDATASIZE SWAP1 PUSH1 0x4 ADD PUSH2 0x1D74 JUMP JUMPDEST SWAP1 PUSH1 0x44 CALLDATALOAD PUSH1 0x1 PUSH1 0x1 PUSH1 0x40 SHL SUB DUP2 GT PUSH2 0x9D2 JUMPI PUSH2 0x75E SWAP1 CALLDATASIZE SWAP1 PUSH1 0x4 ADD PUSH2 0x1D74 JUMP JUMPDEST PUSH1 0x64 CALLDATALOAD PUSH1 0x1 PUSH1 0x1 PUSH1 0x40 SHL SUB DUP2 GT PUSH2 0x9CE JUMPI PUSH2 0x77D SWAP1 CALLDATASIZE SWAP1 PUSH1 0x4 ADD PUSH2 0x1D74 JUMP JUMPDEST SWAP5 SWAP1 PUSH2 0x78A CALLDATASIZE DUP8 DUP4 PUSH2 0x1E0E JUMP JUMPDEST DUP1 MLOAD PUSH1 0x20 SWAP2 DUP3 ADD KECCAK256 PUSH1 0x40 MLOAD PUSH4 0x5F6970C3 PUSH1 0xE0 SHL DUP2 MSTORE PUSH1 0x4 DUP1 CALLDATALOAD SWAP1 DUP3 ADD MSTORE PUSH1 0x80 PUSH1 0x24 DUP3 ADD MSTORE PUSH32 0x0 PUSH1 0x1 PUSH1 0x1 PUSH1 0xA0 SHL SUB AND SWAP9 SWAP3 SWAP1 SWAP2 DUP3 SWAP1 DUP2 SWAP1 PUSH2 0x804 PUSH2 0x7F1 PUSH1 0x84 DUP5 ADD DUP11 DUP15 PUSH2 0x1FB9 JUMP JUMPDEST DUP4 DUP2 SUB PUSH1 0x3 NOT ADD PUSH1 0x44 DUP6 ADD MSTORE DUP11 DUP13 PUSH2 0x1FB9 JUMP JUMPDEST SWAP1 PUSH1 0x64 DUP4 ADD MSTORE SUB DUP2 DUP13 DUP13 GAS CALL SWAP1 DUP2 ISZERO PUSH2 0xC26 JUMPI DUP10 SWAP2 PUSH2 0xBF7 JUMPI JUMPDEST POP ISZERO PUSH2 0xBE8 JUMPI SWAP1 PUSH2 0x85B SWAP2 PUSH2 0x853 PUSH2 0x837 CALLDATASIZE DUP7 DUP11 PUSH2 0x1E0E JUMP JUMPDEST PUSH1 0x20 DUP2 MLOAD SWAP2 ADD KECCAK256 PUSH2 0x846 PUSH2 0x1EBA JUMP JUMPDEST PUSH1 0x20 DUP2 MLOAD SWAP2 ADD KECCAK256 EQ PUSH2 0x1FDA JUMP JUMPDEST DUP2 ADD SWAP1 PUSH2 0x201D JUMP JUMPDEST SWAP1 PUSH1 0x40 MLOAD PUSH2 0x88A PUSH1 0x20 DUP3 DUP2 PUSH2 0x879 DUP2 DUP4 ADD SWAP7 DUP8 DUP2 MLOAD SWAP4 DUP5 SWAP3 ADD PUSH2 0x1E72 JUMP JUMPDEST DUP2 ADD SUB ADD PUSH1 0x1F NOT DUP2 ADD DUP4 MSTORE DUP3 PUSH2 0x1DED JUMP JUMPDEST MLOAD SWAP1 KECCAK256 PUSH32 0x2C260CA563E3B0491B45B463C200C724BC55AC058701EE1A0151CDEEB87EAF5A DUP2 SUB PUSH2 0xA11 JUMPI POP POP PUSH2 0x8BE PUSH2 0x2A97 JUMP JUMPDEST PUSH1 0x40 MLOAD DUP3 DUP5 DUP3 CALLDATACOPY PUSH1 0x20 DUP2 DUP5 DUP2 ADD PUSH1 0x10 DUP2 MSTORE SUB ADD SWAP1 KECCAK256 SWAP5 PUSH2 0x8DD DUP7 PUSH2 0x2B29 JUMP JUMPDEST PUSH1 0x2 DUP7 ADD SWAP5 DUP6 SLOAD SWAP1 DUP2 ISZERO PUSH2 0x9D6 JUMPI DUP3 DUP10 SWAP4 EXTCODESIZE ISZERO PUSH2 0x9D2 JUMPI DUP6 SWAP5 DUP5 DUP9 SWAP4 PUSH2 0x91B DUP3 SWAP7 PUSH1 0x40 MLOAD SWAP10 DUP11 SWAP8 DUP9 SWAP7 DUP8 SWAP6 PUSH4 0x26EF699D PUSH1 0xE0 SHL DUP8 MSTORE PUSH1 0x4 DUP8 ADD PUSH2 0x2187 JUMP JUMPDEST SUB SWAP3 GAS CALL SWAP2 DUP3 PUSH2 0x9B9 JUMPI JUMPDEST POP POP PUSH2 0x949 JUMPI PUSH1 0x40 MLOAD PUSH3 0x461BCD PUSH1 0xE5 SHL DUP2 MSTORE DUP1 PUSH2 0x945 PUSH1 0x4 DUP3 ADD PUSH2 0x21C3 JUMP JUMPDEST SUB SWAP1 REVERT JUMPDEST DUP5 SWAP4 PUSH32 0x1AF01A942698710A64FDBE7F2E5FE738EF43C0E0C0AE3AC1015AA57F11D67AB1 SWAP2 PUSH2 0x9B2 DUP6 SLOAD SWAP2 PUSH1 0x1 DUP5 SLOAD SWAP5 ADD SLOAD SWAP6 DUP2 PUSH1 0x40 MLOAD SWAP3 DUP4 SWAP3 DUP4 CALLDATACOPY DUP2 ADD PUSH1 0x0 DUP2 MSTORE SUB SWAP1 KECCAK256 SWAP5 PUSH1 0x40 MLOAD SWAP4 DUP4 DUP6 SWAP5 DUP6 SWAP1 SWAP5 SWAP4 SWAP3 PUSH1 0x60 SWAP3 PUSH1 0x80 DUP4 ADD SWAP7 DUP4 MSTORE PUSH1 0x20 DUP4 ADD MSTORE PUSH1 0x40 DUP3 ADD MSTORE ADD MSTORE JUMP JUMPDEST SUB SWAP1 LOG2 SSTORE DUP1 RETURN JUMPDEST DUP2 PUSH2 0x9C3 SWAP2 PUSH2 0x1DED JUMP JUMPDEST PUSH2 0x9CE JUMPI DUP6 CODESIZE PUSH2 0x926 JUMP JUMPDEST DUP6 DUP1 REVERT JUMPDEST DUP4 DUP1 REVERT JUMPDEST PUSH1 0x40 MLOAD PUSH3 0x461BCD PUSH1 0xE5 SHL DUP2 MSTORE PUSH1 0x20 PUSH1 0x4 DUP3 ADD MSTORE PUSH1 0x13 PUSH1 0x24 DUP3 ADD MSTORE PUSH19 0x4E6F207265776172647320746F20636C61696D PUSH1 0x68 SHL PUSH1 0x44 DUP3 ADD MSTORE PUSH1 0x64 SWAP1 REVERT JUMPDEST PUSH32 0x855511CC3694F64379908437D6D64458DC76D02482052BFB8A5B33A72C054C77 SWAP1 SWAP7 SWAP3 SWAP5 SWAP6 SWAP4 SWAP7 EQ PUSH1 0x0 EQ PUSH2 0xBB1 JUMPI DUP1 MLOAD PUSH1 0x20 DUP1 DUP4 ADD SWAP3 PUSH1 0x0 SWAP3 DUP2 ADD SUB SLT PUSH2 0x1C7 JUMPI POP MLOAD SWAP2 PUSH2 0xA5F PUSH2 0x2A97 JUMP JUMPDEST PUSH1 0x40 MLOAD DUP7 DUP7 DUP3 CALLDATACOPY PUSH1 0x20 DUP2 DUP9 DUP2 ADD PUSH1 0x10 DUP2 MSTORE SUB ADD SWAP1 KECCAK256 SWAP4 PUSH2 0xA7E DUP6 PUSH2 0x2B29 JUMP JUMPDEST DUP4 DUP6 SLOAD LT PUSH2 0xB75 JUMPI DUP8 SWAP2 DUP4 EXTCODESIZE ISZERO PUSH2 0xB71 JUMPI DUP8 SWAP4 DUP4 SWAP3 DUP4 DUP10 SWAP4 PUSH2 0xAB7 DUP10 PUSH1 0x40 MLOAD SWAP10 DUP11 SWAP8 DUP9 SWAP7 DUP8 SWAP6 PUSH4 0x26EF699D PUSH1 0xE0 SHL DUP8 MSTORE PUSH1 0x4 DUP8 ADD PUSH2 0x2187 JUMP JUMPDEST SUB SWAP3 GAS CALL SWAP2 DUP3 PUSH2 0xB5C JUMPI JUMPDEST POP POP PUSH2 0xAE1 JUMPI PUSH1 0x40 MLOAD PUSH3 0x461BCD PUSH1 0xE5 SHL DUP2 MSTORE DUP1 PUSH2 0x945 PUSH1 0x4 DUP3 ADD PUSH2 0x21C3 JUMP JUMPDEST PUSH2 0xB56 PUSH32 0xA00F0E8908ADA83B11E8068B0DBFA9C93BA003D1BBBCF5C3EAD087DEDD0A49B8 SWAP4 PUSH2 0xB11 DUP4 DUP6 SLOAD PUSH2 0x2076 JUMP JUMPDEST SWAP6 DUP7 DUP6 SSTORE PUSH1 0x1 PUSH1 0x2 DUP7 ADD SLOAD SWAP6 ADD SLOAD SWAP2 DUP2 PUSH1 0x40 MLOAD SWAP3 DUP4 SWAP3 DUP4 CALLDATACOPY DUP2 ADD PUSH1 0x0 DUP2 MSTORE SUB SWAP1 KECCAK256 SWAP6 PUSH1 0x40 MLOAD SWAP5 DUP6 SWAP5 DUP6 SWAP1 SWAP5 SWAP4 SWAP3 PUSH1 0x60 SWAP3 PUSH1 0x80 DUP4 ADD SWAP7 DUP4 MSTORE PUSH1 0x20 DUP4 ADD MSTORE PUSH1 0x40 DUP3 ADD MSTORE ADD MSTORE JUMP JUMPDEST SUB SWAP1 LOG2 DUP1 RETURN JUMPDEST DUP2 PUSH2 0xB66 SWAP2 PUSH2 0x1DED JUMP JUMPDEST PUSH2 0x9CE JUMPI DUP6 CODESIZE PUSH2 0xAC2 JUMP JUMPDEST DUP3 DUP1 REVERT JUMPDEST PUSH1 0x40 MLOAD PUSH3 0x461BCD PUSH1 0xE5 SHL DUP2 MSTORE PUSH1 0x20 PUSH1 0x4 DUP3 ADD MSTORE PUSH1 0x14 PUSH1 0x24 DUP3 ADD MSTORE PUSH20 0x496E73756666696369656E742062616C616E6365 PUSH1 0x60 SHL PUSH1 0x44 DUP3 ADD MSTORE PUSH1 0x64 SWAP1 REVERT JUMPDEST PUSH1 0x40 MLOAD PUSH3 0x461BCD PUSH1 0xE5 SHL DUP2 MSTORE PUSH1 0x20 PUSH1 0x4 DUP3 ADD MSTORE PUSH1 0xF PUSH1 0x24 DUP3 ADD MSTORE PUSH15 0x125B9D985B1A590818DBDB5B585B99 PUSH1 0x8A SHL PUSH1 0x44 DUP3 ADD MSTORE PUSH1 0x64 SWAP1 REVERT JUMPDEST PUSH4 0x1403112D PUSH1 0xE2 SHL DUP9 MSTORE PUSH1 0x4 DUP9 REVERT JUMPDEST PUSH2 0xC19 SWAP2 POP PUSH1 0x20 RETURNDATASIZE PUSH1 0x20 GT PUSH2 0xC1F JUMPI JUMPDEST PUSH2 0xC11 DUP2 DUP4 PUSH2 0x1DED JUMP JUMPDEST DUP2 ADD SWAP1 PUSH2 0x1FA1 JUMP JUMPDEST CODESIZE PUSH2 0x81E JUMP JUMPDEST POP RETURNDATASIZE PUSH2 0xC07 JUMP JUMPDEST PUSH1 0x40 MLOAD RETURNDATASIZE DUP12 DUP3 RETURNDATACOPY RETURNDATASIZE SWAP1 REVERT JUMPDEST POP CALLVALUE PUSH2 0x1C7 JUMPI DUP1 PUSH1 0x3 NOT CALLDATASIZE ADD SLT PUSH2 0x1C7 JUMPI PUSH1 0x20 PUSH1 0x6 SLOAD PUSH1 0x40 MLOAD SWAP1 DUP2 MSTORE RETURN JUMPDEST POP CALLVALUE PUSH2 0x1C7 JUMPI PUSH1 0x20 CALLDATASIZE PUSH1 0x3 NOT ADD SLT PUSH2 0x1C7 JUMPI PUSH1 0x4 CALLDATALOAD SWAP1 PUSH1 0x1 PUSH1 0x1 PUSH1 0x40 SHL SUB DUP3 GT PUSH2 0x1C7 JUMPI PUSH1 0x20 PUSH2 0x1B4 DUP2 PUSH2 0x1A1 CALLDATASIZE PUSH1 0x4 DUP8 ADD PUSH2 0x1E54 JUMP JUMPDEST POP CALLVALUE PUSH2 0x1C7 JUMPI DUP1 PUSH1 0x3 NOT CALLDATASIZE ADD SLT PUSH2 0x1C7 JUMPI PUSH1 0x20 PUSH1 0x4 SLOAD PUSH1 0x40 MLOAD SWAP1 DUP2 MSTORE RETURN JUMPDEST POP CALLVALUE PUSH2 0x1C7 JUMPI DUP1 PUSH1 0x3 NOT CALLDATASIZE ADD SLT PUSH2 0x1C7 JUMPI PUSH1 0x20 PUSH1 0x8 SLOAD PUSH1 0x40 MLOAD SWAP1 DUP2 MSTORE RETURN JUMPDEST POP CALLVALUE PUSH2 0x1C7 JUMPI DUP1 PUSH1 0x3 NOT CALLDATASIZE ADD SLT PUSH2 0x1C7 JUMPI PUSH1 0x20 PUSH1 0xC SLOAD PUSH1 0x40 MLOAD SWAP1 DUP2 MSTORE RETURN JUMPDEST POP CALLVALUE PUSH2 0x1C7 JUMPI DUP1 PUSH1 0x3 NOT CALLDATASIZE ADD SLT PUSH2 0x1C7 JUMPI PUSH1 0x20 PUSH1 0x40 MLOAD PUSH32 0x4A469CEFCBED9A88178FC34579047173D00D4643D65873018DB1EC410F46E00D DUP2 MSTORE RETURN JUMPDEST POP CALLVALUE PUSH2 0x1C7 JUMPI DUP1 PUSH1 0x3 NOT CALLDATASIZE ADD SLT PUSH2 0x1C7 JUMPI PUSH1 0x20 PUSH1 0x3 SLOAD PUSH1 0x40 MLOAD SWAP1 DUP2 MSTORE RETURN JUMPDEST POP CALLVALUE PUSH2 0x1C7 JUMPI PUSH1 0xC0 CALLDATASIZE PUSH1 0x3 NOT ADD SLT PUSH2 0x1C7 JUMPI PUSH1 0x24 CALLDATALOAD PUSH1 0x1 PUSH1 0x1 PUSH1 0x40 SHL SUB DUP2 GT PUSH2 0x46C JUMPI PUSH2 0xD6A SWAP1 CALLDATASIZE SWAP1 PUSH1 0x4 ADD PUSH2 0x1D74 JUMP JUMPDEST SWAP1 PUSH1 0x44 CALLDATALOAD PUSH1 0x1 PUSH1 0x1 PUSH1 0x40 SHL SUB DUP2 GT PUSH2 0x9D2 JUMPI PUSH2 0xD8A SWAP1 CALLDATASIZE SWAP1 PUSH1 0x4 ADD PUSH2 0x1D74 JUMP JUMPDEST SWAP1 SWAP2 DUP5 PUSH1 0x64 CALLDATALOAD PUSH1 0x1 PUSH1 0x1 PUSH1 0x40 SHL SUB DUP2 GT PUSH2 0x46C JUMPI PUSH2 0xDAC SWAP1 CALLDATASIZE SWAP1 PUSH1 0x4 ADD PUSH2 0x1D74 JUMP JUMPDEST SWAP2 SWAP1 SWAP3 PUSH1 0x84 CALLDATALOAD SWAP3 PUSH1 0x1 PUSH1 0x1 PUSH1 0x40 SHL SUB DUP5 GT PUSH2 0xB71 JUMPI PUSH2 0xE77 SWAP5 DUP7 PUSH1 0x20 PUSH2 0xE4E DUP12 SWAP7 DUP7 PUSH2 0xDDD DUP14 SWAP11 CALLDATASIZE SWAP1 PUSH1 0x4 ADD PUSH2 0x1D74 JUMP JUMPDEST SWAP12 DUP2 SWAP16 SWAP2 DUP14 PUSH2 0xDED CALLDATASIZE DUP13 DUP13 PUSH2 0x1E0E JUMP JUMPDEST DUP9 DUP2 MLOAD SWAP2 ADD KECCAK256 SWAP2 PUSH2 0xE60 PUSH1 0x1 DUP1 PUSH1 0xA0 SHL SUB PUSH32 0x0 AND SWAP16 PUSH1 0x40 MLOAD SWAP12 DUP13 SWAP11 DUP12 SWAP10 DUP11 SWAP10 PUSH4 0x1876EED9 PUSH1 0xE0 SHL DUP12 MSTORE PUSH1 0x4 CALLDATALOAD PUSH1 0x4 DUP13 ADD MSTORE PUSH1 0xC0 PUSH1 0x24 DUP13 ADD MSTORE PUSH1 0xC4 DUP12 ADD SWAP2 PUSH2 0x1FB9 JUMP JUMPDEST DUP9 DUP2 SUB PUSH1 0x3 NOT ADD PUSH1 0x44 DUP11 ADD MSTORE SWAP2 PUSH2 0x1FB9 JUMP JUMPDEST SWAP3 PUSH1 0x64 DUP7 ADD MSTORE PUSH1 0x3 NOT DUP6 DUP5 SUB ADD PUSH1 0x84 DUP7 ADD MSTORE PUSH2 0x1FB9 JUMP JUMPDEST PUSH1 0xA4 CALLDATALOAD PUSH1 0xA4 DUP4 ADD MSTORE SUB SWAP2 DUP11 GAS CALL SWAP1 DUP2 ISZERO PUSH2 0x1CCC JUMPI DUP12 SWAP2 PUSH2 0x1CAD JUMPI JUMPDEST POP ISZERO PUSH2 0x1C9E JUMPI PUSH1 0xA4 CALLDATALOAD ISZERO PUSH2 0x1C68 JUMPI PUSH2 0xEB2 SWAP2 PUSH2 0x853 PUSH2 0x837 CALLDATASIZE DUP8 DUP8 PUSH2 0x1E0E JUMP JUMPDEST SWAP1 PUSH1 0x40 MLOAD PUSH2 0xED0 PUSH1 0x20 DUP3 DUP2 PUSH2 0x879 DUP2 DUP4 ADD SWAP7 DUP8 DUP2 MLOAD SWAP4 DUP5 SWAP3 ADD PUSH2 0x1E72 JUMP JUMPDEST MLOAD SWAP1 KECCAK256 PUSH32 0x9982A092A6E4ED71C78F9619841A31A676DF9098C2EC526AD2647AF4F8AA674B DUP2 SUB PUSH2 0xFCD JUMPI POP POP POP POP POP PUSH2 0xF30 PUSH32 0x8EAF203A8199D5994E67000062AF8FC0759378A6A085DA0F5FF326CFBB135383 SWAP4 SWAP5 PUSH2 0xF4C SWAP3 CALLDATASIZE SWAP2 PUSH2 0x1E0E JUMP JUMPDEST PUSH1 0x20 DUP2 MLOAD SWAP2 ADD KECCAK256 PUSH2 0xF3F PUSH2 0x20CC JUMP JUMPDEST PUSH1 0x20 DUP2 MLOAD SWAP2 ADD KECCAK256 EQ PUSH2 0x20ED JUMP JUMPDEST PUSH2 0xF54 PUSH2 0x2A97 JUMP JUMPDEST PUSH1 0x40 MLOAD DUP2 DUP5 DUP3 CALLDATACOPY PUSH1 0x20 DUP2 DUP4 DUP2 ADD PUSH1 0x10 DUP2 MSTORE SUB ADD SWAP1 KECCAK256 PUSH2 0xF72 DUP2 PUSH2 0x2B29 JUMP JUMPDEST PUSH2 0xB56 PUSH2 0xF82 PUSH1 0xA4 CALLDATALOAD DUP4 SLOAD PUSH2 0x217A JUMP JUMPDEST SWAP3 DUP4 DUP4 SSTORE PUSH1 0x1 PUSH1 0x2 DUP5 ADD SLOAD SWAP4 ADD SLOAD SWAP6 DUP2 PUSH1 0x40 MLOAD SWAP3 DUP4 SWAP3 DUP4 CALLDATACOPY DUP2 ADD PUSH1 0x0 DUP2 MSTORE SUB SWAP1 KECCAK256 SWAP5 PUSH1 0x40 MLOAD SWAP4 DUP5 SWAP4 PUSH1 0xA4 CALLDATALOAD DUP6 SWAP1 SWAP5 SWAP4 SWAP3 PUSH1 0x60 SWAP3 PUSH1 0x80 DUP4 ADD SWAP7 DUP4 MSTORE PUSH1 0x20 DUP4 ADD MSTORE PUSH1 0x40 DUP3 ADD MSTORE ADD MSTORE JUMP JUMPDEST DUP1 RETURN JUMPDEST PUSH32 0x4F943907EF0EF6F9D2E2408B05E520A66DAAF74293DBF665E5A20B117676170E DUP2 SWAP10 SWAP4 SWAP8 SWAP5 SWAP9 SWAP6 SWAP10 EQ PUSH1 0x0 EQ PUSH2 0x14FA JUMPI POP DUP1 MLOAD PUSH1 0x20 DUP1 DUP4 ADD SWAP3 PUSH1 0x0 SWAP3 DUP2 ADD SUB SLT PUSH2 0x1C7 JUMPI POP SWAP1 PUSH2 0x1021 SWAP2 MLOAD SWAP5 CALLDATASIZE SWAP2 PUSH2 0x1E0E JUMP JUMPDEST PUSH1 0x20 DUP2 MLOAD SWAP2 ADD KECCAK256 SWAP6 PUSH2 0x1053 PUSH1 0x40 SWAP8 PUSH1 0x3 PUSH1 0x20 DUP11 MLOAD PUSH2 0x103F DUP13 DUP3 PUSH2 0x1DED JUMP JUMPDEST DUP3 DUP2 MSTORE ADD PUSH3 0x58525 PUSH1 0xEC SHL DUP2 MSTORE KECCAK256 EQ PUSH2 0x20ED JUMP JUMPDEST PUSH2 0x105F PUSH1 0x5 SLOAD DUP6 PUSH2 0x2099 JUMP JUMPDEST PUSH1 0x64 DUP2 MUL SWAP1 DUP1 DUP3 DIV PUSH1 0x64 EQ SWAP1 ISZERO OR ISZERO PUSH2 0x14E6 JUMPI PUSH1 0x2 SLOAD PUSH2 0x107E SWAP2 PUSH2 0x20AC JUMP JUMPDEST PUSH1 0xA4 CALLDATALOAD LT PUSH2 0x14A2 JUMPI DUP8 DUP8 MLOAD DUP4 DUP6 DUP3 CALLDATACOPY PUSH1 0xF DUP5 DUP3 ADD SWAP1 DUP2 MSTORE DUP2 SWAP1 SUB PUSH1 0x20 ADD SWAP1 KECCAK256 SLOAD SWAP7 DUP8 ISZERO PUSH2 0x11B7 JUMPI DUP8 DUP3 MSTORE PUSH1 0xE PUSH1 0x20 MSTORE DUP9 DUP3 KECCAK256 SWAP7 PUSH2 0x10BA DUP9 PUSH2 0x21FB JUMP JUMPDEST DUP4 EXTCODESIZE ISZERO PUSH2 0xB71 JUMPI DUP5 SWAP4 DUP4 SWAP3 DUP4 DUP9 SWAP4 PUSH2 0x10E8 DUP12 DUP16 MLOAD SWAP10 DUP11 SWAP8 DUP9 SWAP7 DUP8 SWAP6 PUSH4 0x26EF699D PUSH1 0xE0 SHL DUP8 MSTORE PUSH1 0x4 DUP8 ADD PUSH2 0x2187 JUMP JUMPDEST SUB SWAP3 GAS CALL SWAP2 DUP3 PUSH2 0x119E JUMPI JUMPDEST POP POP PUSH2 0x1111 JUMPI DUP6 MLOAD PUSH3 0x461BCD PUSH1 0xE5 SHL DUP2 MSTORE DUP1 PUSH2 0x945 PUSH1 0x4 DUP3 ADD PUSH2 0x21C3 JUMP JUMPDEST DUP4 SWAP3 SWAP2 PUSH2 0x1192 SWAP2 PUSH2 0x1148 PUSH1 0x1 PUSH32 0x5F96A5D1A64B9C1BC759B3B519F1435E82066DBB895FCCBA43A68FE499C0CBC0 SWAP8 ADD SWAP5 DUP6 SLOAD PUSH2 0x217A JUMP JUMPDEST DUP1 SWAP5 SSTORE PUSH1 0x2 PUSH1 0x3 DUP7 ADD SWAP6 PUSH2 0x115F PUSH1 0xA4 CALLDATALOAD DUP9 SLOAD PUSH2 0x217A JUMP JUMPDEST DUP1 SWAP8 SSTORE ADD SLOAD SWAP2 DUP2 DUP10 MLOAD SWAP3 DUP4 SWAP3 DUP4 CALLDATACOPY DUP2 ADD PUSH1 0x0 DUP2 MSTORE SUB SWAP1 KECCAK256 SWAP7 MLOAD SWAP4 DUP5 SWAP4 DUP5 PUSH1 0x40 SWAP2 SWAP5 SWAP4 SWAP3 PUSH1 0x60 DUP3 ADD SWAP6 DUP3 MSTORE PUSH1 0x20 DUP3 ADD MSTORE ADD MSTORE JUMP JUMPDEST SUB SWAP1 LOG3 JUMPDEST PUSH2 0xFCA PUSH2 0x2A97 JUMP JUMPDEST DUP2 PUSH2 0x11A8 SWAP2 PUSH2 0x1DED JUMP JUMPDEST PUSH2 0x11B3 JUMPI DUP8 CODESIZE PUSH2 0x10F3 JUMP JUMPDEST DUP8 DUP1 REVERT JUMPDEST SWAP2 DUP1 SWAP5 SWAP8 POP SWAP6 SWAP1 SWAP3 SWAP5 SWAP6 EXTCODESIZE ISZERO PUSH2 0xB71 JUMPI DUP5 SWAP4 DUP4 SWAP3 DUP4 DUP10 SWAP4 PUSH2 0x11EE DUP11 DUP14 MLOAD SWAP10 DUP11 SWAP8 DUP9 SWAP7 DUP8 SWAP6 PUSH4 0x26EF699D PUSH1 0xE0 SHL DUP8 MSTORE PUSH1 0x4 DUP8 ADD PUSH2 0x2187 JUMP JUMPDEST SUB SWAP3 GAS CALL SWAP2 DUP3 PUSH2 0x148D JUMPI JUMPDEST POP POP PUSH2 0x1217 JUMPI DUP4 MLOAD PUSH3 0x461BCD PUSH1 0xE5 SHL DUP2 MSTORE DUP1 PUSH2 0x945 PUSH1 0x4 DUP3 ADD PUSH2 0x21C3 JUMP JUMPDEST PUSH1 0xC SLOAD PUSH1 0x0 NOT DUP2 EQ PUSH2 0x1479 JUMPI PUSH1 0x1 ADD DUP1 PUSH1 0xC SSTORE DUP5 MLOAD SWAP1 PUSH2 0x1236 DUP3 PUSH2 0x1DA1 JUMP JUMPDEST PUSH2 0x1241 CALLDATASIZE DUP5 DUP8 PUSH2 0x1E0E JUMP JUMPDEST DUP3 MSTORE DUP4 PUSH1 0x20 DUP4 ADD MSTORE DUP4 DUP7 DUP4 ADD MSTORE PUSH1 0xA4 CALLDATALOAD PUSH1 0x60 DUP4 ADD MSTORE TIMESTAMP PUSH1 0x80 DUP4 ADD MSTORE DUP7 PUSH1 0xA0 DUP4 ADD MSTORE DUP7 PUSH1 0xC0 DUP4 ADD MSTORE DUP7 MSTORE PUSH1 0xE PUSH1 0x20 MSTORE DUP5 DUP7 KECCAK256 DUP2 MLOAD DUP1 MLOAD SWAP1 PUSH1 0x1 PUSH1 0x1 PUSH1 0x40 SHL SUB DUP3 GT PUSH2 0x1465 JUMPI PUSH2 0x128F DUP4 SLOAD PUSH2 0x1EE4 JUMP JUMPDEST PUSH1 0x1F DUP2 GT PUSH2 0x1424 JUMPI JUMPDEST POP PUSH1 0x20 SWAP1 DUP10 PUSH1 0x1F DUP5 GT PUSH1 0x1 EQ PUSH2 0x1394 JUMPI SWAP4 DUP4 PUSH32 0xAA9B37700BF84CF4312A950E6B2B49C0F5555908B5A463EB0D2598D389C09C57 SWAP9 SWAP7 SWAP5 PUSH1 0xC0 SWAP5 PUSH1 0x6 SWAP5 PUSH2 0x1381 SWAP11 SWAP9 SWAP3 PUSH2 0x1389 JUMPI JUMPDEST POP POP DUP2 PUSH1 0x1 SHL SWAP2 PUSH1 0x0 NOT SWAP1 PUSH1 0x3 SHL SHR NOT AND OR DUP2 SSTORE JUMPDEST PUSH1 0x20 DUP5 ADD MLOAD PUSH1 0x1 DUP3 ADD SSTORE DUP10 DUP5 ADD MLOAD PUSH1 0x2 DUP3 ADD SSTORE PUSH1 0x60 DUP5 ADD MLOAD PUSH1 0x3 DUP3 ADD SSTORE PUSH1 0x80 DUP5 ADD MLOAD PUSH1 0x4 DUP3 ADD SSTORE PUSH1 0xA0 DUP5 ADD MLOAD PUSH1 0x5 DUP3 ADD SSTORE ADD SWAP2 ADD MLOAD ISZERO ISZERO PUSH1 0xFF DUP1 NOT DUP4 SLOAD AND SWAP2 AND OR SWAP1 SSTORE PUSH1 0xC SLOAD SWAP5 DUP6 DUP8 MLOAD DUP4 DUP4 DUP3 CALLDATACOPY PUSH1 0x20 DUP2 DUP6 DUP2 ADD PUSH1 0xF DUP2 MSTORE SUB ADD SWAP1 KECCAK256 SSTORE DUP2 DUP8 MLOAD SWAP3 DUP4 SWAP3 DUP4 CALLDATACOPY PUSH1 0x0 SWAP1 DUP3 ADD SWAP1 DUP2 MSTORE SUB SWAP1 KECCAK256 SWAP5 MLOAD SWAP1 DUP2 MSTORE PUSH1 0xA4 CALLDATALOAD PUSH1 0x20 DUP3 ADD MSTORE TIMESTAMP PUSH1 0x40 DUP3 ADD MSTORE SWAP1 DUP2 SWAP1 PUSH1 0x60 DUP3 ADD SWAP1 JUMP JUMPDEST SUB SWAP1 LOG3 PUSH2 0x1196 JUMP JUMPDEST ADD MLOAD SWAP1 POP CODESIZE DUP1 PUSH2 0x12DF JUMP JUMPDEST POP DUP4 DUP11 MSTORE DUP2 DUP11 KECCAK256 SWAP2 SWAP1 PUSH1 0x1F NOT DUP5 AND DUP12 JUMPDEST DUP2 DUP2 LT PUSH2 0x140C JUMPI POP DUP5 PUSH1 0xC0 SWAP5 PUSH1 0x6 SWAP5 PUSH2 0x1381 SWAP11 SWAP9 SWAP5 PUSH32 0xAA9B37700BF84CF4312A950E6B2B49C0F5555908B5A463EB0D2598D389C09C57 SWAP13 SWAP11 SWAP9 PUSH1 0x1 SWAP6 LT PUSH2 0x13F3 JUMPI JUMPDEST POP POP POP DUP2 SHL ADD DUP2 SSTORE PUSH2 0x12F4 JUMP JUMPDEST ADD MLOAD PUSH1 0x0 NOT PUSH1 0xF8 DUP5 PUSH1 0x3 SHL AND SHR NOT AND SWAP1 SSTORE CODESIZE DUP1 DUP1 PUSH2 0x13E6 JUMP JUMPDEST SWAP3 SWAP4 PUSH1 0x20 PUSH1 0x1 DUP2 SWAP3 DUP8 DUP7 ADD MLOAD DUP2 SSTORE ADD SWAP6 ADD SWAP4 ADD PUSH2 0x13A4 JUMP JUMPDEST DUP4 DUP11 MSTORE PUSH1 0x20 DUP11 KECCAK256 PUSH1 0x1F DUP5 ADD PUSH1 0x5 SHR DUP2 ADD PUSH1 0x20 DUP6 LT PUSH2 0x145E JUMPI JUMPDEST PUSH1 0x1F DUP4 ADD PUSH1 0x5 SHR DUP3 ADD DUP2 LT PUSH2 0x1453 JUMPI POP POP PUSH2 0x1298 JUMP JUMPDEST DUP12 DUP2 SSTORE PUSH1 0x1 ADD PUSH2 0x143D JUMP JUMPDEST POP DUP1 PUSH2 0x143D JUMP JUMPDEST PUSH4 0x4E487B71 PUSH1 0xE0 SHL DUP10 MSTORE PUSH1 0x41 PUSH1 0x4 MSTORE PUSH1 0x24 DUP10 REVERT JUMPDEST PUSH4 0x4E487B71 PUSH1 0xE0 SHL DUP7 MSTORE PUSH1 0x11 PUSH1 0x4 MSTORE PUSH1 0x24 DUP7 REVERT JUMPDEST DUP2 PUSH2 0x1497 SWAP2 PUSH2 0x1DED JUMP JUMPDEST PUSH2 0x9CE JUMPI DUP6 CODESIZE PUSH2 0x11F9 JUMP JUMPDEST DUP7 MLOAD PUSH3 0x461BCD PUSH1 0xE5 SHL DUP2 MSTORE PUSH1 0x20 PUSH1 0x4 DUP3 ADD MSTORE PUSH1 0x17 PUSH1 0x24 DUP3 ADD MSTORE PUSH32 0x496E73756666696369656E7420636F6C6C61746572616C000000000000000000 PUSH1 0x44 DUP3 ADD MSTORE PUSH1 0x64 SWAP1 REVERT JUMPDEST PUSH4 0x4E487B71 PUSH1 0xE0 SHL DUP10 MSTORE PUSH1 0x11 PUSH1 0x4 MSTORE PUSH1 0x24 DUP10 REVERT JUMPDEST SWAP5 SWAP8 SWAP6 SWAP5 PUSH32 0x7BD15D6B2D182A804B2A36C079625580F8A960AFA839087CCB184E9DB92B9A03 DUP2 SUB PUSH2 0x17BB JUMPI POP PUSH1 0x20 DUP2 MLOAD SWAP2 DUP2 DUP1 DUP3 ADD SWAP4 DUP5 SWAP3 ADD ADD SUB SLT PUSH2 0x17B6 JUMPI PUSH2 0x154B SWAP2 PUSH2 0xF30 SWAP2 MLOAD SWAP9 CALLDATASIZE SWAP2 PUSH2 0x1E0E JUMP JUMPDEST DUP6 DUP8 MSTORE PUSH1 0xE PUSH1 0x20 MSTORE PUSH1 0x40 DUP8 KECCAK256 PUSH1 0x40 MLOAD PUSH2 0x1568 DUP2 PUSH2 0x595 DUP2 DUP6 PUSH2 0x1F1E JUMP JUMPDEST PUSH1 0x20 DUP2 MLOAD SWAP2 ADD KECCAK256 PUSH2 0x157A CALLDATASIZE DUP5 DUP7 PUSH2 0x1E0E JUMP JUMPDEST PUSH1 0x20 DUP2 MLOAD SWAP2 ADD KECCAK256 SUB PUSH2 0x177C JUMPI PUSH1 0x6 DUP2 ADD SWAP6 PUSH1 0xFF DUP8 SLOAD AND PUSH2 0x1737 JUMPI DUP9 PUSH1 0x5 DUP4 ADD SWAP7 PUSH2 0x15A7 PUSH1 0xA4 CALLDATALOAD DUP10 SLOAD PUSH2 0x217A JUMP JUMPDEST DUP9 SSTORE PUSH2 0x15B2 DUP5 PUSH2 0x21FB JUMP JUMPDEST PUSH1 0x2 DUP5 ADD SWAP7 DUP8 SLOAD DUP1 PUSH1 0xA4 CALLDATALOAD LT ISZERO PUSH1 0x0 EQ PUSH2 0x16F4 JUMPI POP DUP3 DUP9 SSTORE DUP10 SLOAD PUSH1 0xFF NOT AND PUSH1 0x1 OR DUP11 SSTORE PUSH1 0x3 DUP6 ADD SLOAD SWAP2 DUP1 EXTCODESIZE ISZERO PUSH2 0x9D2 JUMPI DUP7 SWAP5 DUP5 DUP10 SWAP4 PUSH2 0x1609 DUP3 SWAP7 PUSH1 0x40 MLOAD SWAP10 DUP11 SWAP8 DUP9 SWAP7 DUP8 SWAP6 PUSH4 0x26EF699D PUSH1 0xE0 SHL DUP8 MSTORE PUSH1 0x4 DUP8 ADD PUSH2 0x2130 JUMP JUMPDEST SUB SWAP3 GAS CALL SWAP2 DUP3 PUSH2 0x16DB JUMPI JUMPDEST POP POP PUSH2 0x165F JUMPI PUSH1 0x40 MLOAD PUSH3 0x461BCD PUSH1 0xE5 SHL DUP2 MSTORE PUSH1 0x20 PUSH1 0x4 DUP3 ADD MSTORE PUSH1 0x1A PUSH1 0x24 DUP3 ADD MSTORE PUSH32 0x4661696C656420746F2073656E642058525020746F2075736572000000000000 PUSH1 0x44 DUP3 ADD MSTORE PUSH1 0x64 SWAP1 REVERT JUMPDEST PUSH1 0x1 PUSH1 0x40 SWAP6 DUP10 PUSH2 0x16B8 SWAP5 PUSH1 0x20 PUSH2 0x16C0 SWAP8 PUSH32 0xD9CFBCFB9AE5D65B8D34072DE4575F602EE25CF3715BC05C291701FE9E258F9A SWAP12 DUP7 PUSH1 0xFF NOT DUP3 SLOAD AND OR SWAP1 SSTORE DUP3 DUP12 MLOAD SWAP4 DUP5 SWAP3 DUP4 CALLDATACOPY DUP2 ADD PUSH1 0xF DUP2 MSTORE SUB ADD SWAP1 KECCAK256 SSTORE SLOAD SWAP2 ADD SLOAD SWAP1 PUSH2 0x2076 JUMP JUMPDEST PUSH1 0xA SLOAD PUSH2 0x217A JUMP JUMPDEST PUSH1 0xA SSTORE JUMPDEST SLOAD DUP2 MLOAD SWAP1 PUSH1 0xA4 CALLDATALOAD DUP3 MSTORE PUSH1 0x20 DUP3 ADD MSTORE LOG2 PUSH2 0xFCA PUSH2 0x2A97 JUMP JUMPDEST DUP2 PUSH2 0x16E5 SWAP2 PUSH2 0x1DED JUMP JUMPDEST PUSH2 0x16F0 JUMPI DUP9 CODESIZE PUSH2 0x1614 JUMP JUMPDEST DUP9 DUP1 REVERT JUMPDEST SWAP6 POP POP POP POP POP POP PUSH32 0xD9CFBCFB9AE5D65B8D34072DE4575F602EE25CF3715BC05C291701FE9E258F9A SWAP5 POP PUSH1 0x40 SWAP4 POP PUSH2 0x1730 SWAP2 POP PUSH1 0xA4 CALLDATALOAD SWAP1 PUSH2 0x2076 JUMP JUMPDEST DUP2 SSTORE PUSH2 0x16C4 JUMP JUMPDEST PUSH1 0x40 MLOAD PUSH3 0x461BCD PUSH1 0xE5 SHL DUP2 MSTORE PUSH1 0x20 PUSH1 0x4 DUP3 ADD MSTORE PUSH1 0x1A PUSH1 0x24 DUP3 ADD MSTORE PUSH32 0x4C6F616E20697320616C7265616479206C697175696461746564000000000000 PUSH1 0x44 DUP3 ADD MSTORE PUSH1 0x64 SWAP1 REVERT JUMPDEST PUSH1 0x40 MLOAD PUSH3 0x461BCD PUSH1 0xE5 SHL DUP2 MSTORE PUSH1 0x20 PUSH1 0x4 DUP3 ADD MSTORE PUSH1 0x12 PUSH1 0x24 DUP3 ADD MSTORE PUSH18 0x2737BA103A3432903637B0B71037BBB732B9 PUSH1 0x71 SHL PUSH1 0x44 DUP3 ADD MSTORE PUSH1 0x64 SWAP1 REVERT JUMPDEST PUSH1 0x0 DUP1 REVERT JUMPDEST PUSH32 0x4A469CEFCBED9A88178FC34579047173D00D4643D65873018DB1EC410F46E00D SWAP1 SWAP9 SWAP7 SWAP5 SWAP8 SWAP3 SWAP6 SWAP9 EQ PUSH1 0x0 EQ PUSH2 0x1B75 JUMPI PUSH1 0x20 DUP2 MLOAD SWAP2 DUP2 DUP1 DUP3 ADD SWAP4 DUP5 SWAP3 ADD ADD SUB SLT PUSH2 0x17B6 JUMPI MLOAD SWAP7 DUP8 DUP10 MSTORE PUSH1 0xE PUSH1 0x20 MSTORE PUSH1 0x40 DUP10 KECCAK256 SWAP7 PUSH1 0x6 DUP9 ADD SWAP5 PUSH1 0xFF DUP7 SLOAD AND PUSH2 0x1B30 JUMPI PUSH2 0xE10 PUSH2 0x182C PUSH1 0x3 SLOAD TIMESTAMP PUSH2 0x2076 JUMP JUMPDEST LT ISZERO PUSH2 0x1AB3 JUMPI JUMPDEST PUSH2 0x183C DUP10 PUSH2 0x21FB JUMP JUMPDEST PUSH1 0x3 DUP10 ADD SLOAD SWAP4 PUSH2 0x2710 PUSH2 0x1851 PUSH1 0x2 SLOAD DUP8 PUSH2 0x2099 JUMP JUMPDEST DIV SWAP9 PUSH1 0x2 DUP12 ADD SWAP9 DUP10 SLOAD SWAP2 PUSH1 0x64 PUSH2 0x1869 PUSH1 0x7 SLOAD DUP6 PUSH2 0x2099 JUMP JUMPDEST DIV DUP13 LT ISZERO PUSH2 0x1A77 JUMPI PUSH2 0x1880 SWAP2 PUSH2 0xF30 SWAP2 CALLDATASIZE SWAP2 PUSH2 0x1E0E JUMP JUMPDEST PUSH1 0xA4 CALLDATALOAD LT PUSH2 0x1A19 JUMPI DUP12 SWAP5 DUP3 EXTCODESIZE ISZERO PUSH2 0x9CE JUMPI DUP6 SWAP5 PUSH2 0x18B5 DUP7 SWAP3 PUSH1 0x40 MLOAD SWAP10 DUP11 SWAP8 DUP9 SWAP7 DUP8 SWAP6 PUSH4 0x26EF699D PUSH1 0xE0 SHL DUP8 MSTORE PUSH1 0x4 DUP8 ADD PUSH2 0x2130 JUMP JUMPDEST SUB SWAP3 GAS CALL SWAP2 DUP3 PUSH2 0x1A00 JUMPI JUMPDEST POP POP PUSH2 0x190B JUMPI PUSH1 0x40 MLOAD PUSH3 0x461BCD PUSH1 0xE5 SHL DUP2 MSTORE PUSH1 0x20 PUSH1 0x4 DUP3 ADD MSTORE PUSH1 0x1A PUSH1 0x24 DUP3 ADD MSTORE PUSH32 0x4661696C656420746F2073656E642058525020746F2075736572000000000000 PUSH1 0x44 DUP3 ADD MSTORE PUSH1 0x64 SWAP1 REVERT JUMPDEST PUSH2 0x191B PUSH2 0x16B8 DUP4 SLOAD PUSH1 0xA4 CALLDATALOAD PUSH2 0x2076 JUMP JUMPDEST PUSH1 0xA SSTORE PUSH1 0x1 PUSH1 0xFF NOT DUP3 SLOAD AND OR SWAP1 SSTORE DUP5 PUSH1 0x40 MLOAD DUP2 SWAP5 DUP1 SLOAD SWAP1 PUSH2 0x193B DUP3 PUSH2 0x1EE4 JUMP JUMPDEST SWAP2 PUSH1 0x1 DUP2 AND SWAP1 DUP2 ISZERO PUSH2 0x19E8 JUMPI POP PUSH1 0x1 EQ PUSH2 0x19B0 JUMPI JUMPDEST POP POP PUSH1 0x20 DUP2 DUP7 PUSH1 0xF PUSH32 0xF2D932763377B0D691487BA847E159565F9926361B9C719EDD77508949F8D91C SWAP9 MSTORE SUB ADD SWAP1 KECCAK256 SSTORE SLOAD SWAP1 PUSH2 0x19A5 PUSH1 0x2 SLOAD PUSH1 0x40 MLOAD SWAP4 DUP5 SWAP4 DUP5 PUSH1 0x40 SWAP2 SWAP5 SWAP4 SWAP3 PUSH1 0x60 DUP3 ADD SWAP6 DUP3 MSTORE PUSH1 0x20 DUP3 ADD MSTORE ADD MSTORE JUMP JUMPDEST SUB SWAP1 LOG2 PUSH2 0xFCA PUSH2 0x2A97 JUMP JUMPDEST SWAP1 SWAP6 POP DUP3 MSTORE PUSH1 0x20 DUP3 KECCAK256 DUP3 SWAP1 JUMPDEST DUP7 DUP3 LT PUSH2 0x19D1 JUMPI POP POP SWAP4 DUP5 ADD SWAP4 PUSH1 0x20 DUP2 PUSH2 0x1950 JUMP JUMPDEST DUP1 SLOAD DUP3 DUP5 ADD MSTORE DUP9 SWAP4 POP PUSH1 0x20 SWAP1 SWAP2 ADD SWAP1 PUSH1 0x1 ADD PUSH2 0x19BC JUMP JUMPDEST PUSH1 0xFF NOT AND DUP5 MSTORE POP POP DUP1 ISZERO ISZERO MUL DUP2 ADD SWAP5 POP PUSH1 0x20 DUP2 PUSH2 0x1950 JUMP JUMPDEST DUP2 PUSH2 0x1A0A SWAP2 PUSH2 0x1DED JUMP JUMPDEST PUSH2 0x1A15 JUMPI DUP7 CODESIZE PUSH2 0x18C0 JUMP JUMPDEST DUP7 DUP1 REVERT JUMPDEST PUSH1 0x40 MLOAD PUSH3 0x461BCD PUSH1 0xE5 SHL DUP2 MSTORE PUSH1 0x20 PUSH1 0x4 DUP3 ADD MSTORE PUSH1 0x30 PUSH1 0x24 DUP3 ADD MSTORE PUSH32 0x52657061796D656E7420616D6F756E74206D7573742062652067726561746572 PUSH1 0x44 DUP3 ADD MSTORE PUSH16 0x81D1A185B881D1BDD185B081BDDD959 PUSH1 0x82 SHL PUSH1 0x64 DUP3 ADD MSTORE PUSH1 0x84 SWAP1 REVERT JUMPDEST PUSH1 0x40 MLOAD PUSH3 0x461BCD PUSH1 0xE5 SHL DUP2 MSTORE PUSH1 0x20 PUSH1 0x4 DUP3 ADD MSTORE PUSH1 0x14 PUSH1 0x24 DUP3 ADD MSTORE PUSH20 0x10D85B9B9BDD081B1A5C5D5A59185D19481E595D PUSH1 0x62 SHL PUSH1 0x44 DUP3 ADD MSTORE PUSH1 0x64 SWAP1 REVERT JUMPDEST DUP11 SLOAD PUSH1 0x40 MLOAD PUSH4 0x8183F10F PUSH1 0xE0 SHL DUP2 MSTORE SWAP1 PUSH1 0x20 SWAP1 DUP3 SWAP1 PUSH1 0x4 SWAP1 DUP3 SWAP1 PUSH1 0x1 PUSH1 0x1 PUSH1 0xA0 SHL SUB AND GAS STATICCALL SWAP1 DUP2 ISZERO PUSH2 0x1B25 JUMPI DUP13 SWAP2 PUSH2 0x1AF3 JUMPI JUMPDEST POP PUSH1 0x2 SSTORE TIMESTAMP PUSH1 0x3 SSTORE PUSH2 0x1833 JUMP JUMPDEST SWAP1 POP PUSH1 0x20 DUP2 RETURNDATASIZE PUSH1 0x20 GT PUSH2 0x1B1D JUMPI JUMPDEST DUP2 PUSH2 0x1B0E PUSH1 0x20 SWAP4 DUP4 PUSH2 0x1DED JUMP JUMPDEST DUP2 ADD SUB SLT PUSH2 0x17B6 JUMPI MLOAD CODESIZE PUSH2 0x1AE6 JUMP JUMPDEST RETURNDATASIZE SWAP2 POP PUSH2 0x1B01 JUMP JUMPDEST PUSH1 0x40 MLOAD RETURNDATASIZE DUP15 DUP3 RETURNDATACOPY RETURNDATASIZE SWAP1 REVERT JUMPDEST PUSH1 0x40 MLOAD PUSH3 0x461BCD PUSH1 0xE5 SHL DUP2 MSTORE PUSH1 0x20 PUSH1 0x4 DUP3 ADD MSTORE PUSH1 0x17 PUSH1 0x24 DUP3 ADD MSTORE PUSH32 0x4C6F616E20616C7265616479206C697175696461746564000000000000000000 PUSH1 0x44 DUP3 ADD MSTORE PUSH1 0x64 SWAP1 REVERT JUMPDEST POP SWAP4 DUP8 SWAP6 SWAP7 SWAP2 SWAP5 PUSH1 0x0 NOT PUSH1 0xA4 CALLDATALOAD ADD PUSH1 0xA4 CALLDATALOAD DUP2 GT PUSH2 0x1C54 JUMPI DUP8 SWAP9 DUP6 SWAP9 SWAP8 SWAP9 EXTCODESIZE ISZERO PUSH2 0x11B3 JUMPI PUSH2 0x1BCA SWAP7 DUP9 SWAP5 PUSH2 0x1BDC PUSH2 0x1BEE SWAP4 PUSH1 0x40 MLOAD SWAP13 DUP14 SWAP12 DUP13 SWAP11 DUP12 SWAP10 PUSH4 0x26EF699D PUSH1 0xE0 SHL DUP12 MSTORE PUSH1 0x80 PUSH1 0x4 DUP13 ADD MSTORE PUSH1 0x84 DUP12 ADD SWAP2 PUSH2 0x1FB9 JUMP JUMPDEST DUP9 DUP2 SUB PUSH1 0x3 NOT ADD PUSH1 0x24 DUP11 ADD MSTORE SWAP2 PUSH2 0x1FB9 JUMP JUMPDEST DUP6 DUP2 SUB PUSH1 0x3 NOT ADD PUSH1 0x44 DUP8 ADD MSTORE SWAP2 PUSH2 0x1FB9 JUMP JUMPDEST SWAP1 PUSH1 0x64 DUP4 ADD MSTORE SUB SWAP3 GAS CALL DUP1 ISZERO PUSH2 0x1C49 JUMPI PUSH2 0x1C39 JUMPI PUSH1 0x40 MLOAD PUSH3 0x461BCD PUSH1 0xE5 SHL DUP2 MSTORE PUSH1 0x20 PUSH1 0x4 DUP3 ADD MSTORE PUSH1 0xF PUSH1 0x24 DUP3 ADD MSTORE PUSH15 0x125B9D985B1A590818DBDB5B585B99 PUSH1 0x8A SHL PUSH1 0x44 DUP3 ADD MSTORE PUSH1 0x64 SWAP1 REVERT JUMPDEST DUP2 PUSH2 0x1C43 SWAP2 PUSH2 0x1DED JUMP JUMPDEST DUP2 PUSH2 0xBB1 JUMP JUMPDEST PUSH1 0x40 MLOAD RETURNDATASIZE DUP5 DUP3 RETURNDATACOPY RETURNDATASIZE SWAP1 REVERT JUMPDEST PUSH4 0x4E487B71 PUSH1 0xE0 SHL DUP9 MSTORE PUSH1 0x11 PUSH1 0x4 MSTORE PUSH1 0x24 DUP9 REVERT JUMPDEST PUSH1 0x40 MLOAD PUSH3 0x461BCD PUSH1 0xE5 SHL DUP2 MSTORE PUSH1 0x20 PUSH1 0x4 DUP3 ADD MSTORE PUSH1 0xE PUSH1 0x24 DUP3 ADD MSTORE PUSH14 0x125B9D985B1A5908185B5BDD5B9D PUSH1 0x92 SHL PUSH1 0x44 DUP3 ADD MSTORE PUSH1 0x64 SWAP1 REVERT JUMPDEST PUSH4 0x1403112D PUSH1 0xE2 SHL DUP11 MSTORE PUSH1 0x4 DUP11 REVERT JUMPDEST PUSH2 0x1CC6 SWAP2 POP PUSH1 0x20 RETURNDATASIZE PUSH1 0x20 GT PUSH2 0xC1F JUMPI PUSH2 0xC11 DUP2 DUP4 PUSH2 0x1DED JUMP JUMPDEST CODESIZE PUSH2 0xE92 JUMP JUMPDEST PUSH1 0x40 MLOAD RETURNDATASIZE DUP14 DUP3 RETURNDATACOPY RETURNDATASIZE SWAP1 REVERT JUMPDEST POP CALLVALUE PUSH2 0x1C7 JUMPI DUP1 PUSH1 0x3 NOT CALLDATASIZE ADD SLT PUSH2 0x1C7 JUMPI PUSH1 0x20 PUSH1 0xD SLOAD PUSH1 0x40 MLOAD SWAP1 DUP2 MSTORE RETURN JUMPDEST POP CALLVALUE PUSH2 0x1C7 JUMPI DUP1 PUSH1 0x3 NOT CALLDATASIZE ADD SLT PUSH2 0x1C7 JUMPI PUSH1 0x40 MLOAD PUSH32 0x0 PUSH1 0x1 PUSH1 0x1 PUSH1 0xA0 SHL SUB AND DUP2 MSTORE PUSH1 0x20 SWAP1 RETURN JUMPDEST SWAP1 POP CALLVALUE PUSH2 0x46C JUMPI DUP2 PUSH1 0x3 NOT CALLDATASIZE ADD SLT PUSH2 0x46C JUMPI DUP1 PUSH32 0x7BD15D6B2D182A804B2A36C079625580F8A960AFA839087CCB184E9DB92B9A03 PUSH1 0x20 SWAP3 MSTORE RETURN JUMPDEST SWAP2 DUP2 PUSH1 0x1F DUP5 ADD SLT ISZERO PUSH2 0x17B6 JUMPI DUP3 CALLDATALOAD SWAP2 PUSH1 0x1 PUSH1 0x1 PUSH1 0x40 SHL SUB DUP4 GT PUSH2 0x17B6 JUMPI PUSH1 0x20 DUP4 DUP2 DUP7 ADD SWAP6 ADD ADD GT PUSH2 0x17B6 JUMPI JUMP JUMPDEST PUSH1 0xE0 DUP2 ADD SWAP1 DUP2 LT PUSH1 0x1 PUSH1 0x1 PUSH1 0x40 SHL SUB DUP3 GT OR PUSH2 0x1DBC JUMPI PUSH1 0x40 MSTORE JUMP JUMPDEST PUSH4 0x4E487B71 PUSH1 0xE0 SHL PUSH1 0x0 MSTORE PUSH1 0x41 PUSH1 0x4 MSTORE PUSH1 0x24 PUSH1 0x0 REVERT JUMPDEST PUSH1 0x60 DUP2 ADD SWAP1 DUP2 LT PUSH1 0x1 PUSH1 0x1 PUSH1 0x40 SHL SUB DUP3 GT OR PUSH2 0x1DBC JUMPI PUSH1 0x40 MSTORE JUMP JUMPDEST SWAP1 PUSH1 0x1F DUP1 NOT SWAP2 ADD AND DUP2 ADD SWAP1 DUP2 LT PUSH1 0x1 PUSH1 0x1 PUSH1 0x40 SHL SUB DUP3 GT OR PUSH2 0x1DBC JUMPI PUSH1 0x40 MSTORE JUMP JUMPDEST SWAP3 SWAP2 SWAP3 PUSH1 0x1 PUSH1 0x1 PUSH1 0x40 SHL SUB DUP3 GT PUSH2 0x1DBC JUMPI PUSH1 0x40 MLOAD SWAP2 PUSH2 0x1E37 PUSH1 0x1F DUP3 ADD PUSH1 0x1F NOT AND PUSH1 0x20 ADD DUP5 PUSH2 0x1DED JUMP JUMPDEST DUP3 SWAP5 DUP2 DUP5 MSTORE DUP2 DUP4 ADD GT PUSH2 0x17B6 JUMPI DUP3 DUP2 PUSH1 0x20 SWAP4 DUP5 PUSH1 0x0 SWAP7 ADD CALLDATACOPY ADD ADD MSTORE JUMP JUMPDEST SWAP1 DUP1 PUSH1 0x1F DUP4 ADD SLT ISZERO PUSH2 0x17B6 JUMPI DUP2 PUSH1 0x20 PUSH2 0x1E6F SWAP4 CALLDATALOAD SWAP2 ADD PUSH2 0x1E0E JUMP JUMPDEST SWAP1 JUMP JUMPDEST PUSH1 0x0 JUMPDEST DUP4 DUP2 LT PUSH2 0x1E85 JUMPI POP POP PUSH1 0x0 SWAP2 ADD MSTORE JUMP JUMPDEST DUP2 DUP2 ADD MLOAD DUP4 DUP3 ADD MSTORE PUSH1 0x20 ADD PUSH2 0x1E75 JUMP JUMPDEST SWAP1 PUSH1 0x20 SWAP2 PUSH2 0x1EAE DUP2 MLOAD DUP1 SWAP3 DUP2 DUP6 MSTORE DUP6 DUP1 DUP7 ADD SWAP2 ADD PUSH2 0x1E72 JUMP JUMPDEST PUSH1 0x1F ADD PUSH1 0x1F NOT AND ADD ADD SWAP1 JUMP JUMPDEST PUSH1 0x40 MLOAD SWAP1 PUSH2 0x1EC9 PUSH1 0x40 DUP4 PUSH2 0x1DED JUMP JUMPDEST PUSH1 0xC DUP3 MSTORE PUSH12 0x1614941317DD195CDD1B995D PUSH1 0xA2 SHL PUSH1 0x20 DUP4 ADD MSTORE JUMP JUMPDEST SWAP1 PUSH1 0x1 DUP3 DUP2 SHR SWAP3 AND DUP1 ISZERO PUSH2 0x1F14 JUMPI JUMPDEST PUSH1 0x20 DUP4 LT EQ PUSH2 0x1EFE JUMPI JUMP JUMPDEST PUSH4 0x4E487B71 PUSH1 0xE0 SHL PUSH1 0x0 MSTORE PUSH1 0x22 PUSH1 0x4 MSTORE PUSH1 0x24 PUSH1 0x0 REVERT JUMPDEST SWAP2 PUSH1 0x7F AND SWAP2 PUSH2 0x1EF3 JUMP JUMPDEST PUSH1 0x0 SWAP3 SWAP2 DUP2 SLOAD SWAP2 PUSH2 0x1F2E DUP4 PUSH2 0x1EE4 JUMP JUMPDEST DUP1 DUP4 MSTORE SWAP3 PUSH1 0x1 DUP2 AND SWAP1 DUP2 ISZERO PUSH2 0x1F84 JUMPI POP PUSH1 0x1 EQ PUSH2 0x1F4A JUMPI POP POP POP JUMP JUMPDEST PUSH1 0x0 SWAP1 DUP2 MSTORE PUSH1 0x20 DUP2 KECCAK256 SWAP4 SWAP5 POP SWAP2 SWAP3 JUMPDEST DUP4 DUP4 LT PUSH2 0x1F6A JUMPI POP PUSH1 0x20 SWAP3 POP ADD ADD SWAP1 JUMP JUMPDEST PUSH1 0x1 DUP2 PUSH1 0x20 SWAP3 SWAP5 SWAP4 SWAP5 SLOAD DUP4 DUP6 DUP8 ADD ADD MSTORE ADD SWAP2 ADD SWAP2 SWAP1 PUSH2 0x1F59 JUMP JUMPDEST SWAP2 POP POP PUSH1 0x20 SWAP4 SWAP5 POP PUSH1 0xFF SWAP3 SWAP2 SWAP3 NOT AND DUP4 DUP4 ADD MSTORE ISZERO ISZERO PUSH1 0x5 SHL ADD ADD SWAP1 JUMP JUMPDEST SWAP1 DUP2 PUSH1 0x20 SWAP2 SUB SLT PUSH2 0x17B6 JUMPI MLOAD DUP1 ISZERO ISZERO DUP2 SUB PUSH2 0x17B6 JUMPI SWAP1 JUMP JUMPDEST SWAP1 DUP1 PUSH1 0x20 SWAP4 SWAP3 DUP2 DUP5 MSTORE DUP5 DUP5 ADD CALLDATACOPY PUSH1 0x0 DUP3 DUP3 ADD DUP5 ADD MSTORE PUSH1 0x1F ADD PUSH1 0x1F NOT AND ADD ADD SWAP1 JUMP JUMPDEST ISZERO PUSH2 0x1FE1 JUMPI JUMP JUMPDEST PUSH1 0x40 MLOAD PUSH3 0x461BCD PUSH1 0xE5 SHL DUP2 MSTORE PUSH1 0x20 PUSH1 0x4 DUP3 ADD MSTORE PUSH1 0x14 PUSH1 0x24 DUP3 ADD MSTORE PUSH20 0x24B73B30B634B21039B7BAB931B29031B430B4B7 PUSH1 0x61 SHL PUSH1 0x44 DUP3 ADD MSTORE PUSH1 0x64 SWAP1 REVERT JUMPDEST SWAP2 SWAP1 PUSH1 0x40 DUP4 DUP3 SUB SLT PUSH2 0x17B6 JUMPI DUP3 CALLDATALOAD PUSH1 0x1 PUSH1 0x1 PUSH1 0x40 SHL SUB DUP2 GT PUSH2 0x17B6 JUMPI DUP2 PUSH2 0x2045 SWAP2 DUP6 ADD PUSH2 0x1E54 JUMP JUMPDEST SWAP3 PUSH1 0x20 DUP2 ADD CALLDATALOAD SWAP1 PUSH1 0x1 PUSH1 0x1 PUSH1 0x40 SHL SUB DUP3 GT PUSH2 0x17B6 JUMPI ADD SWAP1 DUP1 PUSH1 0x1F DUP4 ADD SLT ISZERO PUSH2 0x17B6 JUMPI DUP2 PUSH1 0x20 PUSH2 0x1E6F SWAP4 CALLDATALOAD SWAP2 ADD PUSH2 0x1E0E JUMP JUMPDEST SWAP2 SWAP1 DUP3 SUB SWAP2 DUP3 GT PUSH2 0x2083 JUMPI JUMP JUMPDEST PUSH4 0x4E487B71 PUSH1 0xE0 SHL PUSH1 0x0 MSTORE PUSH1 0x11 PUSH1 0x4 MSTORE PUSH1 0x24 PUSH1 0x0 REVERT JUMPDEST DUP2 DUP2 MUL SWAP3 SWAP2 DUP2 ISZERO SWAP2 DUP5 DIV EQ OR ISZERO PUSH2 0x2083 JUMPI JUMP JUMPDEST DUP2 ISZERO PUSH2 0x20B6 JUMPI DIV SWAP1 JUMP JUMPDEST PUSH4 0x4E487B71 PUSH1 0xE0 SHL PUSH1 0x0 MSTORE PUSH1 0x12 PUSH1 0x4 MSTORE PUSH1 0x24 PUSH1 0x0 REVERT JUMPDEST PUSH1 0x40 MLOAD SWAP1 PUSH2 0x20DB PUSH1 0x40 DUP4 PUSH2 0x1DED JUMP JUMPDEST PUSH1 0x3 DUP3 MSTORE PUSH3 0x1554D1 PUSH1 0xEA SHL PUSH1 0x20 DUP4 ADD MSTORE JUMP JUMPDEST ISZERO PUSH2 0x20F4 JUMPI JUMP JUMPDEST PUSH1 0x40 MLOAD PUSH3 0x461BCD PUSH1 0xE5 SHL DUP2 MSTORE PUSH1 0x20 PUSH1 0x4 DUP3 ADD MSTORE PUSH1 0x14 PUSH1 0x24 DUP3 ADD MSTORE PUSH20 0x125B9D985B1A59081D1BDAD95B881CDE5B589BDB PUSH1 0x62 SHL PUSH1 0x44 DUP3 ADD MSTORE PUSH1 0x64 SWAP1 REVERT JUMPDEST SWAP6 SWAP5 SWAP4 SWAP3 PUSH1 0x60 SWAP4 PUSH2 0x214F PUSH2 0x215D SWAP4 PUSH1 0x40 SWAP6 PUSH1 0x80 DUP12 MSTORE PUSH1 0x80 DUP12 ADD SWAP2 PUSH2 0x1FB9 JUMP JUMPDEST SWAP2 DUP9 DUP4 SUB PUSH1 0x20 DUP11 ADD MSTORE PUSH2 0x1FB9 JUMP JUMPDEST DUP6 DUP2 SUB DUP3 DUP8 ADD MSTORE PUSH1 0x3 DUP2 MSTORE PUSH3 0x58525 PUSH1 0xEC SHL PUSH1 0x20 DUP3 ADD MSTORE ADD SWAP4 ADD MSTORE JUMP JUMPDEST SWAP2 SWAP1 DUP3 ADD DUP1 SWAP3 GT PUSH2 0x2083 JUMPI JUMP JUMPDEST SWAP6 SWAP5 SWAP4 SWAP3 PUSH1 0x60 SWAP4 PUSH2 0x214F PUSH2 0x21A6 SWAP4 PUSH1 0x40 SWAP6 PUSH1 0x80 DUP12 MSTORE PUSH1 0x80 DUP12 ADD SWAP2 PUSH2 0x1FB9 JUMP JUMPDEST DUP6 DUP2 SUB DUP3 DUP8 ADD MSTORE PUSH1 0x3 DUP2 MSTORE PUSH3 0x1554D1 PUSH1 0xEA SHL PUSH1 0x20 DUP3 ADD MSTORE ADD SWAP4 ADD MSTORE JUMP JUMPDEST PUSH1 0x60 SWAP1 PUSH1 0x20 DUP2 MSTORE PUSH1 0x1A PUSH1 0x20 DUP3 ADD MSTORE PUSH32 0x4661696C656420746F2073656E642055534420746F2075736572000000000000 PUSH1 0x40 DUP3 ADD MSTORE ADD SWAP1 JUMP JUMPDEST PUSH1 0xFF PUSH1 0x6 DUP3 ADD SLOAD AND PUSH2 0x2A94 JUMPI PUSH1 0x4 DUP2 ADD SWAP1 PUSH3 0x15180 PUSH2 0x221B DUP4 SLOAD TIMESTAMP PUSH2 0x2076 JUMP JUMPDEST DIV DUP1 ISZERO PUSH2 0x2A8F JUMPI PUSH1 0x4 SLOAD SWAP1 DUP2 PUSH2 0x2250 JUMPI POP POP PUSH8 0xDE0B6B3A7640000 PUSH2 0x2248 PUSH1 0x2 PUSH1 0x0 SWAP4 JUMPDEST ADD SWAP3 DUP4 SLOAD PUSH2 0x2CFC JUMP JUMPDEST DIV SWAP1 SSTORE TIMESTAMP SWAP1 SSTORE JUMP JUMPDEST PUSH2 0x225C PUSH2 0x2261 SWAP3 PUSH2 0x2B66 JUMP JUMPDEST PUSH2 0x2CFC JUMP JUMPDEST PUSH9 0xA688906BD8B000000 DUP2 LT ISZERO PUSH2 0x2A7B JUMPI PUSH2 0x2248 PUSH1 0x2 PUSH8 0xDE0B6B3A7640000 DUP1 SWAP4 PUSH1 0x40 SHL DIV PUSH1 0x1 PUSH1 0xBF SHL PUSH8 0x8000000000000000 DUP3 AND PUSH2 0x2A68 JUMPI JUMPDEST DUP5 SWAP1 PUSH8 0x4000000000000000 DUP4 AND PUSH2 0x2A55 JUMPI JUMPDEST PUSH8 0x2000000000000000 DUP4 AND PUSH2 0x2A42 JUMPI JUMPDEST PUSH8 0x1000000000000000 DUP4 AND PUSH2 0x2A2F JUMPI JUMPDEST PUSH8 0x800000000000000 DUP4 AND PUSH2 0x2A1C JUMPI JUMPDEST PUSH8 0x400000000000000 DUP4 AND PUSH2 0x2A09 JUMPI JUMPDEST PUSH8 0x200000000000000 DUP4 AND PUSH2 0x29F6 JUMPI JUMPDEST PUSH8 0x100000000000000 DUP4 AND PUSH2 0x29E3 JUMPI JUMPDEST PUSH7 0x80000000000000 DUP4 AND PUSH2 0x29D0 JUMPI JUMPDEST PUSH7 0x40000000000000 DUP4 AND PUSH2 0x29BD JUMPI JUMPDEST PUSH7 0x20000000000000 DUP4 AND PUSH2 0x29AA JUMPI JUMPDEST PUSH7 0x10000000000000 DUP4 AND PUSH2 0x2997 JUMPI JUMPDEST PUSH7 0x8000000000000 DUP4 AND PUSH2 0x2984 JUMPI JUMPDEST PUSH7 0x4000000000000 DUP4 AND PUSH2 0x2971 JUMPI JUMPDEST PUSH7 0x2000000000000 DUP4 AND PUSH2 0x295E JUMPI JUMPDEST PUSH7 0x1000000000000 DUP4 AND PUSH2 0x294B JUMPI JUMPDEST PUSH6 0x800000000000 DUP4 AND PUSH2 0x2938 JUMPI JUMPDEST PUSH6 0x400000000000 DUP4 AND PUSH2 0x2925 JUMPI JUMPDEST PUSH6 0x200000000000 DUP4 AND PUSH2 0x2912 JUMPI JUMPDEST PUSH6 0x100000000000 DUP4 AND PUSH2 0x28FF JUMPI JUMPDEST PUSH6 0x80000000000 DUP4 AND PUSH2 0x28EC JUMPI JUMPDEST PUSH6 0x40000000000 DUP4 AND PUSH2 0x28D9 JUMPI JUMPDEST PUSH6 0x20000000000 DUP4 AND PUSH2 0x28C6 JUMPI JUMPDEST PUSH6 0x10000000000 DUP4 AND PUSH2 0x28B3 JUMPI JUMPDEST PUSH5 0x8000000000 DUP4 AND PUSH2 0x28A0 JUMPI JUMPDEST PUSH5 0x4000000000 DUP4 AND PUSH2 0x288D JUMPI JUMPDEST PUSH5 0x2000000000 DUP4 AND PUSH2 0x287A JUMPI JUMPDEST PUSH5 0x1000000000 DUP4 AND PUSH2 0x2867 JUMPI JUMPDEST PUSH5 0x800000000 DUP4 AND PUSH2 0x2854 JUMPI JUMPDEST PUSH5 0x400000000 DUP4 AND PUSH2 0x2841 JUMPI JUMPDEST PUSH5 0x200000000 DUP4 AND PUSH2 0x282E JUMPI JUMPDEST PUSH5 0x100000000 DUP4 AND PUSH2 0x281B JUMPI JUMPDEST PUSH4 0x80000000 DUP4 AND PUSH2 0x2808 JUMPI JUMPDEST PUSH4 0x40000000 DUP4 AND PUSH2 0x27F5 JUMPI JUMPDEST PUSH4 0x20000000 DUP4 AND PUSH2 0x27E2 JUMPI JUMPDEST PUSH4 0x10000000 DUP4 AND PUSH2 0x27CF JUMPI JUMPDEST PUSH4 0x8000000 DUP4 AND PUSH2 0x27BC JUMPI JUMPDEST PUSH4 0x4000000 DUP4 AND PUSH2 0x27A9 JUMPI JUMPDEST PUSH4 0x2000000 DUP4 AND PUSH2 0x2796 JUMPI JUMPDEST PUSH4 0x1000000 DUP4 AND PUSH2 0x2783 JUMPI JUMPDEST PUSH3 0x800000 DUP4 AND PUSH2 0x2770 JUMPI JUMPDEST PUSH3 0x400000 DUP4 AND PUSH2 0x275D JUMPI JUMPDEST PUSH3 0x200000 DUP4 AND PUSH2 0x274A JUMPI JUMPDEST PUSH3 0x100000 DUP4 AND PUSH2 0x2737 JUMPI JUMPDEST PUSH3 0x80000 DUP4 AND PUSH2 0x2724 JUMPI JUMPDEST PUSH3 0x40000 DUP4 AND PUSH2 0x2711 JUMPI JUMPDEST PUSH3 0x20000 DUP4 AND PUSH2 0x26FE JUMPI JUMPDEST PUSH3 0x10000 DUP4 AND PUSH2 0x26EB JUMPI JUMPDEST PUSH2 0x8000 DUP4 AND PUSH2 0x26D8 JUMPI JUMPDEST PUSH2 0x4000 DUP4 AND PUSH2 0x26C5 JUMPI JUMPDEST PUSH2 0x2000 DUP4 AND PUSH2 0x26B2 JUMPI JUMPDEST PUSH2 0x1000 DUP4 AND PUSH2 0x269F JUMPI JUMPDEST PUSH2 0x800 DUP4 AND PUSH2 0x268C JUMPI JUMPDEST PUSH2 0x400 DUP4 AND PUSH2 0x2679 JUMPI JUMPDEST PUSH2 0x200 DUP4 AND PUSH2 0x2666 JUMPI JUMPDEST PUSH2 0x100 DUP4 AND PUSH2 0x2653 JUMPI JUMPDEST PUSH1 0x80 DUP4 AND PUSH2 0x2640 JUMPI JUMPDEST PUSH1 0x40 DUP4 AND PUSH2 0x262D JUMPI JUMPDEST PUSH1 0x20 DUP4 AND PUSH2 0x261A JUMPI JUMPDEST PUSH1 0x10 DUP4 AND PUSH2 0x2607 JUMPI JUMPDEST PUSH1 0x8 DUP4 AND PUSH2 0x25F4 JUMPI JUMPDEST PUSH1 0x4 DUP4 AND PUSH2 0x25E1 JUMPI JUMPDEST DUP4 DUP4 AND PUSH2 0x25CE JUMPI JUMPDEST PUSH1 0x1 DUP4 AND PUSH2 0x25BB JUMPI JUMPDEST MUL SWAP1 PUSH1 0x40 SHR PUSH1 0xBF SUB SHR SWAP4 PUSH2 0x223F JUMP JUMPDEST PUSH9 0x10000000000000001 MUL PUSH1 0x40 SHR PUSH2 0x25AC JUMP JUMPDEST PUSH9 0x10000000000000001 MUL PUSH1 0x40 SHR PUSH2 0x25A3 JUMP JUMPDEST PUSH9 0x10000000000000003 MUL PUSH1 0x40 SHR PUSH2 0x259B JUMP JUMPDEST PUSH9 0x10000000000000006 MUL PUSH1 0x40 SHR PUSH2 0x2592 JUMP JUMPDEST PUSH9 0x1000000000000000B MUL PUSH1 0x40 SHR PUSH2 0x2589 JUMP JUMPDEST PUSH9 0x10000000000000016 MUL PUSH1 0x40 SHR PUSH2 0x2580 JUMP JUMPDEST PUSH9 0x1000000000000002C MUL PUSH1 0x40 SHR PUSH2 0x2577 JUMP JUMPDEST PUSH9 0x10000000000000059 MUL PUSH1 0x40 SHR PUSH2 0x256E JUMP JUMPDEST PUSH9 0x100000000000000B1 MUL PUSH1 0x40 SHR PUSH2 0x2565 JUMP JUMPDEST PUSH9 0x10000000000000163 MUL PUSH1 0x40 SHR PUSH2 0x255B JUMP JUMPDEST PUSH9 0x100000000000002C6 MUL PUSH1 0x40 SHR PUSH2 0x2551 JUMP JUMPDEST PUSH9 0x1000000000000058C MUL PUSH1 0x40 SHR PUSH2 0x2547 JUMP JUMPDEST PUSH9 0x10000000000000B17 MUL PUSH1 0x40 SHR PUSH2 0x253D JUMP JUMPDEST PUSH9 0x1000000000000162E MUL PUSH1 0x40 SHR PUSH2 0x2533 JUMP JUMPDEST PUSH9 0x10000000000002C5D MUL PUSH1 0x40 SHR PUSH2 0x2529 JUMP JUMPDEST PUSH9 0x100000000000058B9 MUL PUSH1 0x40 SHR PUSH2 0x251F JUMP JUMPDEST PUSH9 0x1000000000000B172 MUL PUSH1 0x40 SHR PUSH2 0x2515 JUMP JUMPDEST PUSH9 0x100000000000162E4 MUL PUSH1 0x40 SHR PUSH2 0x250A JUMP JUMPDEST PUSH9 0x1000000000002C5C8 MUL PUSH1 0x40 SHR PUSH2 0x24FF JUMP JUMPDEST PUSH9 0x10000000000058B91 MUL PUSH1 0x40 SHR PUSH2 0x24F4 JUMP JUMPDEST PUSH9 0x100000000000B1721 MUL PUSH1 0x40 SHR PUSH2 0x24E9 JUMP JUMPDEST PUSH9 0x10000000000162E43 MUL PUSH1 0x40 SHR PUSH2 0x24DE JUMP JUMPDEST PUSH9 0x100000000002C5C86 MUL PUSH1 0x40 SHR PUSH2 0x24D3 JUMP JUMPDEST PUSH9 0x1000000000058B90C MUL PUSH1 0x40 SHR PUSH2 0x24C8 JUMP JUMPDEST PUSH9 0x10000000000B17218 MUL PUSH1 0x40 SHR PUSH2 0x24BD JUMP JUMPDEST PUSH9 0x1000000000162E430 MUL PUSH1 0x40 SHR PUSH2 0x24B1 JUMP JUMPDEST PUSH9 0x10000000002C5C860 MUL PUSH1 0x40 SHR PUSH2 0x24A5 JUMP JUMPDEST PUSH9 0x100000000058B90C0 MUL PUSH1 0x40 SHR PUSH2 0x2499 JUMP JUMPDEST PUSH9 0x1000000000B17217F MUL PUSH1 0x40 SHR PUSH2 0x248D JUMP JUMPDEST PUSH9 0x100000000162E42FF MUL PUSH1 0x40 SHR PUSH2 0x2481 JUMP JUMPDEST PUSH9 0x1000000002C5C85FE MUL PUSH1 0x40 SHR PUSH2 0x2475 JUMP JUMPDEST PUSH9 0x10000000058B90BFC MUL PUSH1 0x40 SHR PUSH2 0x2469 JUMP JUMPDEST PUSH9 0x100000000B17217F8 MUL PUSH1 0x40 SHR PUSH2 0x245D JUMP JUMPDEST PUSH9 0x10000000162E42FF1 MUL PUSH1 0x40 SHR PUSH2 0x2450 JUMP JUMPDEST PUSH9 0x100000002C5C85FE3 MUL PUSH1 0x40 SHR PUSH2 0x2443 JUMP JUMPDEST PUSH9 0x1000000058B90BFCE MUL PUSH1 0x40 SHR PUSH2 0x2436 JUMP JUMPDEST PUSH9 0x10000000B17217FBB MUL PUSH1 0x40 SHR PUSH2 0x2429 JUMP JUMPDEST PUSH9 0x1000000162E42FFF0 MUL PUSH1 0x40 SHR PUSH2 0x241C JUMP JUMPDEST PUSH9 0x10000002C5C8601CC MUL PUSH1 0x40 SHR PUSH2 0x240F JUMP JUMPDEST PUSH9 0x100000058B90C0B49 MUL PUSH1 0x40 SHR PUSH2 0x2402 JUMP JUMPDEST PUSH9 0x1000000B172183551 MUL PUSH1 0x40 SHR PUSH2 0x23F5 JUMP JUMPDEST PUSH9 0x100000162E430E5A2 MUL PUSH1 0x40 SHR PUSH2 0x23E7 JUMP JUMPDEST PUSH9 0x1000002C5C863B73F MUL PUSH1 0x40 SHR PUSH2 0x23D9 JUMP JUMPDEST PUSH9 0x10000058B90CF1E6E MUL PUSH1 0x40 SHR PUSH2 0x23CB JUMP JUMPDEST PUSH9 0x100000B1721BCFC9A MUL PUSH1 0x40 SHR PUSH2 0x23BD JUMP JUMPDEST PUSH9 0x10000162E43F4F831 MUL PUSH1 0x40 SHR PUSH2 0x23AF JUMP JUMPDEST PUSH9 0x100002C5C89D5EC6D MUL PUSH1 0x40 SHR PUSH2 0x23A1 JUMP JUMPDEST PUSH9 0x1000058B91B5BC9AE MUL PUSH1 0x40 SHR PUSH2 0x2393 JUMP JUMPDEST PUSH9 0x10000B17255775C04 MUL PUSH1 0x40 SHR PUSH2 0x2385 JUMP JUMPDEST PUSH9 0x1000162E525EE0547 MUL PUSH1 0x40 SHR PUSH2 0x2376 JUMP JUMPDEST PUSH9 0x10002C5CC37DA9492 MUL PUSH1 0x40 SHR PUSH2 0x2367 JUMP JUMPDEST PUSH9 0x100058BA01FB9F96D MUL PUSH1 0x40 SHR PUSH2 0x2358 JUMP JUMPDEST PUSH9 0x1000B175EFFDC76BA MUL PUSH1 0x40 SHR PUSH2 0x2349 JUMP JUMPDEST PUSH9 0x100162F3904051FA1 MUL PUSH1 0x40 SHR PUSH2 0x233A JUMP JUMPDEST PUSH9 0x1002C605E2E8CEC50 MUL PUSH1 0x40 SHR PUSH2 0x232B JUMP JUMPDEST PUSH9 0x10058C86DA1C09EA2 MUL PUSH1 0x40 SHR PUSH2 0x231C JUMP JUMPDEST PUSH9 0x100B1AFA5ABCBED61 MUL PUSH1 0x40 SHR PUSH2 0x230D JUMP JUMPDEST PUSH9 0x10163DA9FB33356D8 MUL PUSH1 0x40 SHR PUSH2 0x22FD JUMP JUMPDEST PUSH9 0x102C9A3E778060EE7 MUL PUSH1 0x40 SHR PUSH2 0x22ED JUMP JUMPDEST PUSH9 0x1059B0D31585743AE MUL PUSH1 0x40 SHR PUSH2 0x22DD JUMP JUMPDEST PUSH9 0x10B5586CF9890F62A MUL PUSH1 0x40 SHR PUSH2 0x22CD JUMP JUMPDEST PUSH9 0x1172B83C7D517ADCE MUL PUSH1 0x40 SHR PUSH2 0x22BD JUMP JUMPDEST PUSH9 0x1306FE0A31B7152DF MUL PUSH1 0x40 SHR PUSH2 0x22AD JUMP JUMPDEST POP PUSH9 0x16A09E667F3BCC909 PUSH1 0x7F SHL PUSH2 0x229B JUMP JUMPDEST PUSH4 0x4A4F26F1 PUSH1 0xE0 SHL PUSH1 0x0 MSTORE PUSH1 0x4 MSTORE PUSH1 0x24 PUSH1 0x0 REVERT JUMPDEST POP POP POP JUMP JUMPDEST POP JUMP JUMPDEST PUSH2 0x2AA6 PUSH1 0x8 SLOAD PUSH1 0x9 SLOAD SWAP1 PUSH2 0x217A JUMP JUMPDEST TIMESTAMP LT PUSH2 0x2B27 JUMPI PUSH1 0xA SLOAD DUP1 ISZERO PUSH2 0x2A94 JUMPI PUSH8 0xDE0B6B3A7640000 DUP2 MUL DUP2 DUP2 DIV PUSH8 0xDE0B6B3A7640000 SUB PUSH2 0x2083 JUMPI PUSH32 0x29E98BA00D07F171959C4DDCD2F3020DEBC7C52CF537A034D7E664340D098C6C SWAP2 PUSH2 0x2B0D PUSH2 0x2B05 PUSH1 0x40 SWAP4 PUSH1 0xD SLOAD SWAP1 PUSH2 0x20AC JUMP JUMPDEST PUSH1 0xB SLOAD PUSH2 0x217A JUMP JUMPDEST DUP1 PUSH1 0xB SSTORE PUSH1 0x0 PUSH1 0xA SSTORE TIMESTAMP PUSH1 0x8 SSTORE DUP3 MLOAD SWAP2 DUP3 MSTORE PUSH1 0x20 DUP3 ADD MSTORE LOG1 JUMP JUMPDEST JUMP JUMPDEST PUSH2 0x2B62 PUSH1 0x2 PUSH8 0xDE0B6B3A7640000 PUSH2 0x2B45 DUP5 SLOAD PUSH1 0xB SLOAD SWAP1 PUSH2 0x2099 JUMP JUMPDEST DIV SWAP3 PUSH1 0x1 DUP2 ADD SWAP4 PUSH2 0x2B57 DUP6 SLOAD DUP3 PUSH2 0x2076 JUMP JUMPDEST SWAP5 SSTORE ADD SWAP2 DUP3 SLOAD PUSH2 0x217A JUMP JUMPDEST SWAP1 SSTORE JUMP JUMPDEST SWAP1 PUSH8 0xDE0B6B3A7640000 DUP3 LT PUSH2 0x2CE7 JUMPI PUSH1 0x0 SWAP2 PUSH8 0xDE0B6B3A7640000 DUP2 DIV PUSH1 0x1 PUSH1 0x80 SHL DUP2 LT ISZERO PUSH2 0x2CDC JUMPI JUMPDEST PUSH9 0x10000000000000000 DUP2 LT ISZERO PUSH2 0x2CC7 JUMPI JUMPDEST PUSH5 0x100000000 DUP2 LT ISZERO PUSH2 0x2CB2 JUMPI JUMPDEST PUSH3 0x10000 DUP2 LT ISZERO PUSH2 0x2C9D JUMPI JUMPDEST PUSH2 0x100 DUP2 LT ISZERO PUSH2 0x2C88 JUMPI JUMPDEST PUSH1 0x10 DUP2 LT ISZERO PUSH2 0x2C73 JUMPI JUMPDEST PUSH1 0x4 DUP2 LT ISZERO PUSH2 0x2C5E JUMPI JUMPDEST PUSH1 0x2 GT ISZERO PUSH2 0x2C4C JUMPI JUMPDEST PUSH8 0xDE0B6B3A7640000 DUP4 MUL SWAP3 SHR PUSH8 0xDE0B6B3A7640000 DUP2 EQ PUSH2 0x2A94 JUMPI PUSH8 0x6F05B59D3B20000 SWAP1 DUP2 JUMPDEST PUSH2 0x2C15 JUMPI POP POP JUMP JUMPDEST DUP1 PUSH8 0xDE0B6B3A7640000 SWAP2 MUL DIV SWAP1 PUSH8 0x1BC16D674EC80000 DUP3 LT ISZERO PUSH2 0x2C3E JUMPI JUMPDEST PUSH1 0x1 SHR SWAP1 DUP2 PUSH2 0x2C0D JUMP JUMPDEST DUP1 SWAP2 SWAP4 ADD SWAP3 PUSH1 0x1 SHR SWAP1 PUSH2 0x2C34 JUMP JUMPDEST SWAP2 PUSH1 0x1 DUP2 ADD DUP1 SWAP2 GT PUSH2 0x2083 JUMPI SWAP2 PUSH2 0x2BE5 JUMP JUMPDEST PUSH1 0x2 SHR SWAP3 PUSH1 0x2 DUP2 ADD DUP1 SWAP2 GT PUSH2 0x2083 JUMPI SWAP3 PUSH2 0x2BDC JUMP JUMPDEST PUSH1 0x4 SHR SWAP3 PUSH1 0x4 DUP2 ADD DUP1 SWAP2 GT PUSH2 0x2083 JUMPI SWAP3 PUSH2 0x2BD2 JUMP JUMPDEST PUSH1 0x8 SHR SWAP3 PUSH1 0x8 DUP2 ADD DUP1 SWAP2 GT PUSH2 0x2083 JUMPI SWAP3 PUSH2 0x2BC8 JUMP JUMPDEST PUSH1 0x10 SHR SWAP3 PUSH1 0x10 DUP2 ADD DUP1 SWAP2 GT PUSH2 0x2083 JUMPI SWAP3 PUSH2 0x2BBD JUMP JUMPDEST PUSH1 0x20 SHR SWAP3 PUSH1 0x20 DUP2 ADD DUP1 SWAP2 GT PUSH2 0x2083 JUMPI SWAP3 PUSH2 0x2BB1 JUMP JUMPDEST PUSH1 0x40 SHR SWAP3 PUSH1 0x40 DUP2 ADD DUP1 SWAP2 GT PUSH2 0x2083 JUMPI SWAP3 PUSH2 0x2BA3 JUMP JUMPDEST PUSH1 0x80 SWAP4 POP DUP4 SHR PUSH2 0x2B91 JUMP JUMPDEST POP PUSH4 0x36214137 PUSH1 0xE2 SHL PUSH1 0x0 MSTORE PUSH1 0x4 MSTORE PUSH1 0x24 PUSH1 0x0 REVERT JUMPDEST PUSH1 0x0 NOT DUP3 DUP3 MULMOD DUP3 DUP3 MUL SWAP1 DUP2 DUP1 DUP3 LT SWAP2 SUB SWAP4 DUP2 DUP6 SUB SWAP4 PUSH8 0xDE0B6B3A7640000 DUP6 LT ISZERO PUSH2 0x2D85 JUMPI SWAP1 PUSH8 0xDE0B6B3A7640000 SWAP2 MULMOD SWAP1 PUSH8 0x6F05B59D3B1FFFF DUP3 GT SWAP5 EQ PUSH2 0x2D74 JUMPI PUSH32 0xACCB18165BD6FE31AE1CF318DC5B51EEE0E1BA569B88CD74C1773B91FAC10669 SWAP3 DUP3 DUP3 GT SWAP1 SUB PUSH1 0xEE SHL SWAP2 SUB PUSH1 0x12 SHR OR MUL ADD SWAP1 JUMP JUMPDEST POP PUSH8 0xDE0B6B3A7640000 SWAP2 POP DIV ADD SWAP1 JUMP JUMPDEST DUP5 PUSH4 0x698D9A01 PUSH1 0xE1 SHL PUSH1 0x0 MSTORE PUSH1 0x4 MSTORE PUSH1 0x24 PUSH1 0x0 REVERT INVALID LOG2 PUSH5 0x6970667358 0x22 SLT KECCAK256 GASLIMIT CALLVALUE BLOBHASH DUP2 SUB BLOBHASH ORIGIN CREATE PUSH10 0xA9BD69FE24D27E8580C7 0xEA 0xE8 SWAP5 EQ SWAP7 SWAP2 PUSH16 0xCAF0FCF799E264736F6C634300081C00 CALLER "
        },
        "methodIdentifiers": {
          "SELECTOR_BORROW()": "d8988068",
          "SELECTOR_CLAIM_REWARD()": "f64f7857",
          "SELECTOR_LEND()": "a43f2b92",
          "SELECTOR_LIQUIDATE_LOAN()": "31f59c55",
          "SELECTOR_REPAY_LOAN()": "0bc82cf3",
          "SELECTOR_WITHDRAW()": "f1fd4ccb",
          "SUPPORTED_SOURCE_CHAIN_HASH()": "78f2c2c3",
          "accRewardPerShareE18()": "6277fc0d",
          "collateralRatioPc()": "650a145f",
          "currentXRPPriceUSDE4()": "c5fa9552",
          "dailyInterestFactorE18()": "370477ff",
          "execute(bytes32,string,string,bytes)": "49160658",
          "executeWithToken(bytes32,string,string,bytes,string,uint256)": "1a98b2e0",
          "gateway()": "116191b6",
          "getLoanDetails(uint256)": "66877b8d",
          "getUserInfo(string)": "7c9b7fdd",
          "getUserLoan(string)": "fc4dd9fa",
          "interestRatePc()": "485449d6",
          "lastPriceUpdateTimestamp()": "23b1f8e4",
          "lastRewardTimeStamp()": "356c7284",
          "liquidationThresholdPc()": "550b9997",
          "loanCounter()": "34d9289e",
          "loans(uint256)": "e1ec3c68",
          "retainedEarning()": "752329ec",
          "rewardInterval()": "bec4de3f",
          "setPriceOracle(address)": "530e784f",
          "supportedSourceChain()": "bad27169",
          "totalLiquidity()": "15770f92",
          "userInfo(string)": "691a87f9",
          "userLoan(string)": "440cf15a"
        }
      }
    }
  }
}