{
  "_format": "hh-sol-artifact-1",
  "contractName": "Emit",
  "sourceName": "contracts/Emit.sol",
  "abi": [
    {
      "anonymous": false,
      "inputs": [
        {
          "indexed": false,
          "internalType": "string",
          "name": "message",
          "type": "string"
        }
      ],
      "name": "MessageEmitted",
      "type": "event"
    },
    {
      "inputs": [
        {
          "internalType": "string",
          "name": "_message",
          "type": "string"
        }
      ],
      "name": "emitMessage",
      "outputs": [],
      "stateMutability": "nonpayable",
      "type": "function"
    }
  ],
  "bytecode": "0x608060405234801561001057600080fd5b506101fd806100206000396000f3fe608060405234801561001057600080fd5b506004361061002b5760003560e01c80632ac0df2614610030575b600080fd5b61004a600480360381019061004591906100f8565b61004c565b005b7f50ede1f15a65bab9edf83cef0d1ffb1f21234653b3e58170594c3d8685d30e7a828260405161007d9291906101a3565b60405180910390a15050565b600080fd5b600080fd5b600080fd5b600080fd5b600080fd5b60008083601f8401126100b8576100b7610093565b5b8235905067ffffffffffffffff8111156100d5576100d4610098565b5b6020830191508360018202830111156100f1576100f061009d565b5b9250929050565b6000806020838503121561010f5761010e610089565b5b600083013567ffffffffffffffff81111561012d5761012c61008e565b5b610139858286016100a2565b92509250509250929050565b600082825260208201905092915050565b82818337600083830152505050565b6000601f19601f8301169050919050565b60006101828385610145565b935061018f838584610156565b61019883610165565b840190509392505050565b600060208201905081810360008301526101be818486610176565b9050939250505056fea26469706673582212208e940612b7a67dae040d3c962f97571aa194a5c4d126c22e6d09174a5afbb29a64736f6c63430008140033",
  "linkReferences": {},
  "deployedLinkReferences": {}
}