{
  "_format": "hh-sol-artifact-1",
  "contractName": "MyAxelarGatewayImpl",
  "sourceName": "contracts/gateway/MyAxelarGatewayImpl.sol",
  "abi": [
    {
      "inputs": [
        {
          "internalType": "address",
          "name": "authModule_",
          "type": "address"
        }
      ],
      "stateMutability": "nonpayable",
      "type": "constructor"
    },
    {
      "inputs": [],
      "name": "InsufficientBalance",
      "type": "error"
    },
    {
      "inputs": [],
      "name": "InvalidCommands",
      "type": "error"
    },
    {
      "inputs": [],
      "name": "InvalidTokenSymbol",
      "type": "error"
    },
    {
      "anonymous": false,
      "inputs": [
        {
          "indexed": true,
          "internalType": "bytes32",
          "name": "commandId",
          "type": "bytes32"
        },
        {
          "indexed": false,
          "internalType": "string",
          "name": "sourceChain",
          "type": "string"
        },
        {
          "indexed": false,
          "internalType": "string",
          "name": "sourceAddress",
          "type": "string"
        },
        {
          "indexed": true,
          "internalType": "address",
          "name": "contractAddress",
          "type": "address"
        },
        {
          "indexed": true,
          "internalType": "bytes32",
          "name": "payloadHash",
          "type": "bytes32"
        },
        {
          "indexed": false,
          "internalType": "bytes32",
          "name": "sourceTxHash",
          "type": "bytes32"
        },
        {
          "indexed": false,
          "internalType": "uint256",
          "name": "sourceEventIndex",
          "type": "uint256"
        }
      ],
      "name": "ContractCallApproved",
      "type": "event"
    },
    {
      "anonymous": false,
      "inputs": [
        {
          "indexed": true,
          "internalType": "bytes32",
          "name": "commandId",
          "type": "bytes32"
        },
        {
          "indexed": false,
          "internalType": "string",
          "name": "sourceChain",
          "type": "string"
        },
        {
          "indexed": false,
          "internalType": "string",
          "name": "sourceAddress",
          "type": "string"
        },
        {
          "indexed": true,
          "internalType": "address",
          "name": "contractAddress",
          "type": "address"
        },
        {
          "indexed": true,
          "internalType": "bytes32",
          "name": "payloadHash",
          "type": "bytes32"
        },
        {
          "indexed": false,
          "internalType": "string",
          "name": "symbol",
          "type": "string"
        },
        {
          "indexed": false,
          "internalType": "uint256",
          "name": "amount",
          "type": "uint256"
        },
        {
          "indexed": false,
          "internalType": "bytes32",
          "name": "sourceTxHash",
          "type": "bytes32"
        },
        {
          "indexed": false,
          "internalType": "uint256",
          "name": "sourceEventIndex",
          "type": "uint256"
        }
      ],
      "name": "ContractCallApprovedWithMint",
      "type": "event"
    },
    {
      "anonymous": false,
      "inputs": [
        {
          "indexed": true,
          "internalType": "bytes32",
          "name": "commandId",
          "type": "bytes32"
        }
      ],
      "name": "ContractCallExecuted",
      "type": "event"
    },
    {
      "anonymous": false,
      "inputs": [
        {
          "indexed": true,
          "internalType": "bytes32",
          "name": "commandId",
          "type": "bytes32"
        }
      ],
      "name": "Executed",
      "type": "event"
    },
    {
      "anonymous": false,
      "inputs": [
        {
          "indexed": true,
          "internalType": "address",
          "name": "sender",
          "type": "address"
        },
        {
          "indexed": false,
          "internalType": "string",
          "name": "destinationChain",
          "type": "string"
        },
        {
          "indexed": false,
          "internalType": "string",
          "name": "destinationAddress",
          "type": "string"
        },
        {
          "indexed": false,
          "internalType": "string",
          "name": "symbol",
          "type": "string"
        },
        {
          "indexed": false,
          "internalType": "uint256",
          "name": "amount",
          "type": "uint256"
        }
      ],
      "name": "TokenSent",
      "type": "event"
    },
    {
      "inputs": [
        {
          "internalType": "bytes",
          "name": "params",
          "type": "bytes"
        },
        {
          "internalType": "bytes32",
          "name": "commandId",
          "type": "bytes32"
        }
      ],
      "name": "approveContractCall",
      "outputs": [],
      "stateMutability": "nonpayable",
      "type": "function"
    },
    {
      "inputs": [
        {
          "internalType": "bytes",
          "name": "params",
          "type": "bytes"
        },
        {
          "internalType": "bytes32",
          "name": "commandId",
          "type": "bytes32"
        }
      ],
      "name": "approveContractCallWithMint",
      "outputs": [],
      "stateMutability": "nonpayable",
      "type": "function"
    },
    {
      "inputs": [],
      "name": "authModule",
      "outputs": [
        {
          "internalType": "address",
          "name": "",
          "type": "address"
        }
      ],
      "stateMutability": "view",
      "type": "function"
    },
    {
      "inputs": [
        {
          "internalType": "bytes",
          "name": "input",
          "type": "bytes"
        }
      ],
      "name": "execute",
      "outputs": [],
      "stateMutability": "nonpayable",
      "type": "function"
    },
    {
      "inputs": [
        {
          "internalType": "bytes32",
          "name": "key",
          "type": "bytes32"
        }
      ],
      "name": "getAddress",
      "outputs": [
        {
          "internalType": "address",
          "name": "",
          "type": "address"
        }
      ],
      "stateMutability": "view",
      "type": "function"
    },
    {
      "inputs": [
        {
          "internalType": "bytes32",
          "name": "key",
          "type": "bytes32"
        }
      ],
      "name": "getBool",
      "outputs": [
        {
          "internalType": "bool",
          "name": "",
          "type": "bool"
        }
      ],
      "stateMutability": "view",
      "type": "function"
    },
    {
      "inputs": [
        {
          "internalType": "bytes32",
          "name": "key",
          "type": "bytes32"
        }
      ],
      "name": "getBytes",
      "outputs": [
        {
          "internalType": "bytes",
          "name": "",
          "type": "bytes"
        }
      ],
      "stateMutability": "view",
      "type": "function"
    },
    {
      "inputs": [
        {
          "internalType": "bytes32",
          "name": "key",
          "type": "bytes32"
        }
      ],
      "name": "getInt",
      "outputs": [
        {
          "internalType": "int256",
          "name": "",
          "type": "int256"
        }
      ],
      "stateMutability": "view",
      "type": "function"
    },
    {
      "inputs": [
        {
          "internalType": "bytes32",
          "name": "key",
          "type": "bytes32"
        }
      ],
      "name": "getString",
      "outputs": [
        {
          "internalType": "string",
          "name": "",
          "type": "string"
        }
      ],
      "stateMutability": "view",
      "type": "function"
    },
    {
      "inputs": [
        {
          "internalType": "bytes32",
          "name": "key",
          "type": "bytes32"
        }
      ],
      "name": "getUint",
      "outputs": [
        {
          "internalType": "uint256",
          "name": "",
          "type": "uint256"
        }
      ],
      "stateMutability": "view",
      "type": "function"
    },
    {
      "inputs": [
        {
          "internalType": "bytes32",
          "name": "commandId",
          "type": "bytes32"
        }
      ],
      "name": "isCommandExecuted",
      "outputs": [
        {
          "internalType": "bool",
          "name": "",
          "type": "bool"
        }
      ],
      "stateMutability": "view",
      "type": "function"
    },
    {
      "inputs": [
        {
          "internalType": "bytes32",
          "name": "commandId",
          "type": "bytes32"
        },
        {
          "internalType": "string",
          "name": "sourceChain",
          "type": "string"
        },
        {
          "internalType": "string",
          "name": "sourceAddress",
          "type": "string"
        },
        {
          "internalType": "address",
          "name": "contractAddress",
          "type": "address"
        },
        {
          "internalType": "bytes32",
          "name": "payloadHash",
          "type": "bytes32"
        },
        {
          "internalType": "string",
          "name": "symbol",
          "type": "string"
        },
        {
          "internalType": "uint256",
          "name": "amount",
          "type": "uint256"
        }
      ],
      "name": "isContractCallAndMintApproved",
      "outputs": [
        {
          "internalType": "bool",
          "name": "",
          "type": "bool"
        }
      ],
      "stateMutability": "view",
      "type": "function"
    },
    {
      "inputs": [
        {
          "internalType": "bytes32",
          "name": "commandId",
          "type": "bytes32"
        },
        {
          "internalType": "string",
          "name": "sourceChain",
          "type": "string"
        },
        {
          "internalType": "string",
          "name": "sourceAddress",
          "type": "string"
        },
        {
          "internalType": "address",
          "name": "contractAddress",
          "type": "address"
        },
        {
          "internalType": "bytes32",
          "name": "payloadHash",
          "type": "bytes32"
        }
      ],
      "name": "isContractCallApproved",
      "outputs": [
        {
          "internalType": "bool",
          "name": "",
          "type": "bool"
        }
      ],
      "stateMutability": "view",
      "type": "function"
    },
    {
      "inputs": [
        {
          "internalType": "address",
          "name": "",
          "type": "address"
        }
      ],
      "name": "mockMintedUsdTokens",
      "outputs": [
        {
          "internalType": "uint256",
          "name": "",
          "type": "uint256"
        }
      ],
      "stateMutability": "view",
      "type": "function"
    },
    {
      "inputs": [
        {
          "internalType": "address",
          "name": "",
          "type": "address"
        }
      ],
      "name": "mockMintedXrpTokens",
      "outputs": [
        {
          "internalType": "uint256",
          "name": "",
          "type": "uint256"
        }
      ],
      "stateMutability": "view",
      "type": "function"
    },
    {
      "inputs": [
        {
          "internalType": "string",
          "name": "destinationChain",
          "type": "string"
        },
        {
          "internalType": "string",
          "name": "destinationAddress",
          "type": "string"
        },
        {
          "internalType": "string",
          "name": "symbol",
          "type": "string"
        },
        {
          "internalType": "uint256",
          "name": "amount",
          "type": "uint256"
        }
      ],
      "name": "sendToken",
      "outputs": [],
      "stateMutability": "nonpayable",
      "type": "function"
    },
    {
      "inputs": [
        {
          "internalType": "bytes32",
          "name": "commandId",
          "type": "bytes32"
        },
        {
          "internalType": "string",
          "name": "sourceChain",
          "type": "string"
        },
        {
          "internalType": "string",
          "name": "sourceAddress",
          "type": "string"
        },
        {
          "internalType": "bytes32",
          "name": "payloadHash",
          "type": "bytes32"
        }
      ],
      "name": "validateContractCall",
      "outputs": [
        {
          "internalType": "bool",
          "name": "valid",
          "type": "bool"
        }
      ],
      "stateMutability": "nonpayable",
      "type": "function"
    },
    {
      "inputs": [
        {
          "internalType": "bytes32",
          "name": "commandId",
          "type": "bytes32"
        },
        {
          "internalType": "string",
          "name": "sourceChain",
          "type": "string"
        },
        {
          "internalType": "string",
          "name": "sourceAddress",
          "type": "string"
        },
        {
          "internalType": "bytes32",
          "name": "payloadHash",
          "type": "bytes32"
        },
        {
          "internalType": "string",
          "name": "symbol",
          "type": "string"
        },
        {
          "internalType": "uint256",
          "name": "amount",
          "type": "uint256"
        }
      ],
      "name": "validateContractCallAndMint",
      "outputs": [
        {
          "internalType": "bool",
          "name": "valid",
          "type": "bool"
        }
      ],
      "stateMutability": "nonpayable",
      "type": "function"
    }
  ],
  "bytecode": "0x60a06040526040518060400160405280600381526020017f5553440000000000000000000000000000000000000000000000000000000000815250600690816100489190610346565b506040518060400160405280600381526020017f58525000000000000000000000000000000000000000000000000000000000008152506007908161008d9190610346565b5034801561009a57600080fd5b5060405161331a38038061331a83398181016040528101906100bc919061047b565b8073ffffffffffffffffffffffffffffffffffffffff1660808173ffffffffffffffffffffffffffffffffffffffff1681525050506104a8565b600081519050919050565b7f4e487b7100000000000000000000000000000000000000000000000000000000600052604160045260246000fd5b7f4e487b7100000000000000000000000000000000000000000000000000000000600052602260045260246000fd5b6000600282049050600182168061017757607f821691505b60208210810361018a57610189610130565b5b50919050565b60008190508160005260206000209050919050565b60006020601f8301049050919050565b600082821b905092915050565b6000600883026101f27fffffffffffffffffffffffffffffffffffffffffffffffffffffffffffffffff826101b5565b6101fc86836101b5565b95508019841693508086168417925050509392505050565b6000819050919050565b6000819050919050565b600061024361023e61023984610214565b61021e565b610214565b9050919050565b6000819050919050565b61025d83610228565b6102716102698261024a565b8484546101c2565b825550505050565b600090565b610286610279565b610291818484610254565b505050565b5b818110156102b5576102aa60008261027e565b600181019050610297565b5050565b601f8211156102fa576102cb81610190565b6102d4846101a5565b810160208510156102e3578190505b6102f76102ef856101a5565b830182610296565b50505b505050565b600082821c905092915050565b600061031d600019846008026102ff565b1980831691505092915050565b6000610336838361030c565b9150826002028217905092915050565b61034f826100f6565b67ffffffffffffffff81111561036857610367610101565b5b610372825461015f565b61037d8282856102b9565b600060209050601f8311600181146103b0576000841561039e578287015190505b6103a8858261032a565b865550610410565b601f1984166103be86610190565b60005b828110156103e6578489015182556001820191506020850194506020810190506103c1565b8683101561040357848901516103ff601f89168261030c565b8355505b6001600288020188555050505b505050505050565b600080fd5b600073ffffffffffffffffffffffffffffffffffffffff82169050919050565b60006104488261041d565b9050919050565b6104588161043d565b811461046357600080fd5b50565b6000815190506104758161044f565b92915050565b60006020828403121561049157610490610418565b5b600061049f84828501610466565b91505092915050565b608051612e506104ca6000396000818161041b0152610c070152612e506000f3fe608060405234801561001057600080fd5b50600436106101165760003560e01c8063986e791a116100a2578063d26ff21011610071578063d26ff2101461033d578063dc97d9621461036d578063eca079781461039d578063f6a5f9f5146103cd578063fbe0a31b146103fd57610116565b8063986e791a1461027d578063bc00c216146102ad578063bd02d0f5146102dd578063c031a1801461030d57610116565b8063585a9fd4116100e9578063585a9fd4146101b35780635f6970c3146101cf57806364940c56146101ff5780637ae1cfca1461021d57806390d2e3aa1461024d57610116565b806309c5eabe1461011b5780631876eed91461013757806321f8a7211461016757806326ef699d14610197575b600080fd5b610135600480360381019061013091906116f1565b610419565b005b610151600480360381019061014c9190611800565b610791565b60405161015e919061190a565b60405180910390f35b610181600480360381019061017c9190611925565b610918565b60405161018e9190611993565b60405180910390f35b6101b160048036038101906101ac91906119ae565b610955565b005b6101cd60048036038101906101c89190611a77565b610a07565b005b6101e960048036038101906101e49190611ad7565b610b16565b6040516101f6919061190a565b60405180910390f35b610207610c05565b6040516102149190611993565b60405180910390f35b61023760048036038101906102329190611925565b610c29565b604051610244919061190a565b60405180910390f35b61026760048036038101906102629190611baa565b610c53565b6040516102749190611be6565b60405180910390f35b61029760048036038101906102929190611925565b610c6b565b6040516102a49190611c91565b60405180910390f35b6102c760048036038101906102c29190611cb3565b610d10565b6040516102d4919061190a565b60405180910390f35b6102f760048036038101906102f29190611925565b610e05565b6040516103049190611be6565b60405180910390f35b61032760048036038101906103229190611925565b610e21565b6040516103349190611e0b565b60405180910390f35b61035760048036038101906103529190611925565b610ec6565b604051610364919061190a565b60405180910390f35b61038760048036038101906103829190611925565b610ee0565b6040516103949190611e46565b60405180910390f35b6103b760048036038101906103b29190611baa565b610efd565b6040516103c49190611be6565b60405180910390f35b6103e760048036038101906103e29190611e61565b610f15565b6040516103f4919061190a565b60405180910390f35b61041760048036038101906104129190611a77565b610fc1565b005b7f000000000000000000000000000000000000000000000000000000000000000073ffffffffffffffffffffffffffffffffffffffff163373ffffffffffffffffffffffffffffffffffffffff16146104a7576040517f08c379a000000000000000000000000000000000000000000000000000000000815260040161049e90611f69565b60405180910390fd5b60008083838101906104b991906120b9565b9150915060006060806060858060200190518101906104d891906124f1565b809450819550829650839750505050506000835190508251811415806104ff575081518114155b15610536576040517fca9a28f500000000000000000000000000000000000000000000000000000000815260040160405180910390fd5b60005b81811015610785576000858281518110610556576105556125ac565b5b6020026020010151905061056981610ec6565b15610574575061077a565b60008086848151811061058a576105896125ac565b5b60200260200101516040516020016105a29190612617565b6040516020818303038152906040528051906020012090507f37ac16aabc4d87540e53151b2b716265cfd6b195db96a9daf8e893c829bbd23381036105f05763fbe0a31b60e01b915061062f565b7ff41504255b911b3042ee4f8786fdf7cf4bcf24ace033fa16af3c8574e025e43681036106265763585a9fd460e01b915061062e565b50505061077a565b5b61063a8360016110c1565b60003073ffffffffffffffffffffffffffffffffffffffff1683888781518110610667576106666125ac565b5b60200260200101518660405160240161068192919061263d565b604051602081830303815290604052907bffffffffffffffffffffffffffffffffffffffffffffffffffffffff19166020820180517bffffffffffffffffffffffffffffffffffffffffffffffffffffffff83818316178352505050506040516106eb91906126a9565b6000604051808303816000865af19150503d8060008114610728576040519150601f19603f3d011682016040523d82523d6000602084013e61072d565b606091505b50509050801561076957837fa74c8847d513feba22a0f0cb38d53081abf97562cdb293926ba243689e7c41ca60405160405180910390a2610775565b6107748460006110c1565b5b505050505b806001019050610539565b50505050505050505050565b60008061086f8b8b8b8080601f016020809104026020016040519081016040528093929190818152602001838380828437600081840152601f19601f820116905080830192505050505050508a8a8080601f016020809104026020016040519081016040528093929190818152602001838380828437600081840152601f19601f82011690508083019250505050505050338a8a8a8080601f016020809104026020016040519081016040528093929190818152602001838380828437600081840152601f19601f82011690508083019250505050505050896110d7565b905061087a81610c29565b9150811561090a5761088d81600061113b565b8a7f91057b069763121972ce22b18b2f319b1520dd4c72f1f94a6395e81ceaf63f4160405160405180910390a261090985858080601f016020809104026020016040519081016040528093929190818152602001838380828437600081840152601f19601f82011690508083019250505050505050338561116a565b5b509998505050505050505050565b60006002600083815260200190815260200160002060009054906101000a900473ffffffffffffffffffffffffffffffffffffffff169050919050565b6109a43384848080601f016020809104026020016040519081016040528093929190818152602001838380828437600081840152601f19601f8201169050808301925050505050505083611300565b3373ffffffffffffffffffffffffffffffffffffffff167f651d93f66c4329630e8d0f62488eff599e3be484da587335e8dc0fcf46062726888888888888886040516109f697969594939291906126ed565b60405180910390a250505050505050565b3073ffffffffffffffffffffffffffffffffffffffff163373ffffffffffffffffffffffffffffffffffffffff1614610a75576040517f08c379a0000000000000000000000000000000000000000000000000000000008152600401610a6c906127bf565b60405180910390fd5b6000806000806000806000808a8a810190610a90919061288d565b97509750975097509750975097509750610aaf89898989898989611588565b848673ffffffffffffffffffffffffffffffffffffffff168a7f9991faa1f435675159ffae64b66d7ecfdb55c29755869a18db8497b4392347e08b8b89898989604051610b0196959493929190612997565b60405180910390a45050505050505050505050565b600080610bae8888888080601f016020809104026020016040519081016040528093929190818152602001838380828437600081840152601f19601f8201169050808301925050505050505087878080601f016020809104026020016040519081016040528093929190818152602001838380828437600081840152601f19601f8201169050808301925050505050505033876115aa565b9050610bb981610c29565b91508115610bfa57610bcc81600061113b565b877f91057b069763121972ce22b18b2f319b1520dd4c72f1f94a6395e81ceaf63f4160405160405180910390a25b509695505050505050565b7f000000000000000000000000000000000000000000000000000000000000000081565b60006004600083815260200190815260200160002060009054906101000a900460ff169050919050565b60096020528060005260406000206000915090505481565b6060600160008381526020019081526020016000208054610c8b90612a3c565b80601f0160208091040260200160405190810160405280929190818152602001828054610cb790612a3c565b8015610d045780601f10610cd957610100808354040283529160200191610d04565b820191906000526020600020905b815481529060010190602001808311610ce757829003601f168201915b50505050509050919050565b6000610df5610df08c8c8c8080601f016020809104026020016040519081016040528093929190818152602001838380828437600081840152601f19601f820116905080830192505050505050508b8b8080601f016020809104026020016040519081016040528093929190818152602001838380828437600081840152601f19601f820116905080830192505050505050508a8a8a8a8080601f016020809104026020016040519081016040528093929190818152602001838380828437600081840152601f19601f82011690508083019250505050505050896110d7565b610c29565b90509a9950505050505050505050565b6000806000838152602001908152602001600020549050919050565b6060600360008381526020019081526020016000208054610e4190612a3c565b80601f0160208091040260200160405190810160405280929190818152602001828054610e6d90612a3c565b8015610eba5780601f10610e8f57610100808354040283529160200191610eba565b820191906000526020600020905b815481529060010190602001808311610e9d57829003601f168201915b50505050509050919050565b6000610ed9610ed483611608565b610c29565b9050919050565b600060056000838152602001908152602001600020549050919050565b60086020528060005260406000206000915090505481565b6000610fb4610faf8989898080601f016020809104026020016040519081016040528093929190818152602001838380828437600081840152601f19601f8201169050808301925050505050505088888080601f016020809104026020016040519081016040528093929190818152602001838380828437600081840152601f19601f8201169050808301925050505050505087876115aa565b610c29565b9050979650505050505050565b3073ffffffffffffffffffffffffffffffffffffffff163373ffffffffffffffffffffffffffffffffffffffff161461102f576040517f08c379a0000000000000000000000000000000000000000000000000000000008152600401611026906127bf565b60405180910390fd5b60008060008060008088888101906110479190612a6d565b955095509550955095509550611060878787878761165a565b828473ffffffffffffffffffffffffffffffffffffffff16887f44e4f8f6bd682c5a3aeba93601ab07cb4d1f21b2aab1ae4880d9577919309aa4898987876040516110ae9493929190612b32565b60405180910390a4505050505050505050565b6110d36110cd83611608565b8261113b565b5050565b60007fb7ad972b71475860613db3ba1fe699b886c878f9002a09250dc25e769eb19a1088888888888888604051602001611118989796959493929190612b85565b604051602081830303815290604052805190602001209050979650505050505050565b806004600084815260200190815260200160002060006101000a81548160ff0219169083151502179055505050565b600660405160200161117c9190612cb0565b60405160208183030381529060405280519060200120836040516020016111a39190612617565b60405160208183030381529060405280519060200120036112195780600860008473ffffffffffffffffffffffffffffffffffffffff1673ffffffffffffffffffffffffffffffffffffffff168152602001908152602001600020600082825461120d9190612cf6565b925050819055506112fb565b600760405160200161122b9190612cb0565b60405160208183030381529060405280519060200120836040516020016112529190612617565b60405160208183030381529060405280519060200120036112c85780600960008473ffffffffffffffffffffffffffffffffffffffff1673ffffffffffffffffffffffffffffffffffffffff16815260200190815260200160002060008282546112bc9190612cf6565b925050819055506112fa565b6040517f220839c900000000000000000000000000000000000000000000000000000000815260040160405180910390fd5b5b505050565b60066040516020016113129190612cb0565b60405160208183030381529060405280519060200120826040516020016113399190612617565b60405160208183030381529060405280519060200120036114285780600860008573ffffffffffffffffffffffffffffffffffffffff1673ffffffffffffffffffffffffffffffffffffffff1681526020019081526020016000205410156113cd576040517ff4d678b800000000000000000000000000000000000000000000000000000000815260040160405180910390fd5b80600860008573ffffffffffffffffffffffffffffffffffffffff1673ffffffffffffffffffffffffffffffffffffffff168152602001908152602001600020600082825461141c9190612d2a565b92505081905550611583565b600760405160200161143a9190612cb0565b60405160208183030381529060405280519060200120826040516020016114619190612617565b60405160208183030381529060405280519060200120036115505780600960008573ffffffffffffffffffffffffffffffffffffffff1673ffffffffffffffffffffffffffffffffffffffff1681526020019081526020016000205410156114f5576040517ff4d678b800000000000000000000000000000000000000000000000000000000815260040160405180910390fd5b80600960008573ffffffffffffffffffffffffffffffffffffffff1673ffffffffffffffffffffffffffffffffffffffff16815260200190815260200160002060008282546115449190612d2a565b92505081905550611582565b6040517f220839c900000000000000000000000000000000000000000000000000000000815260040160405180910390fd5b5b505050565b6115a161159a888888888888886110d7565b600161113b565b50505050505050565b60007f07b0d4304f82012bd3b70b1d531c160e326067c90829e2a3d386722ad10b89c386868686866040516020016115e796959493929190612d5e565b60405160208183030381529060405280519060200120905095945050505050565b60007f957705a374326b30f4a1069c936d736cc9993ed6c820b4e0e2fd94a8beca0d1d8260405160200161163d929190612dee565b604051602081830303815290604052805190602001209050919050565b61167161166a86868686866115aa565b600161113b565b5050505050565b6000604051905090565b600080fd5b600080fd5b600080fd5b600080fd5b600080fd5b60008083601f8401126116b1576116b061168c565b5b8235905067ffffffffffffffff8111156116ce576116cd611691565b5b6020830191508360018202830111156116ea576116e9611696565b5b9250929050565b6000806020838503121561170857611707611682565b5b600083013567ffffffffffffffff81111561172657611725611687565b5b6117328582860161169b565b92509250509250929050565b6000819050919050565b6117518161173e565b811461175c57600080fd5b50565b60008135905061176e81611748565b92915050565b60008083601f84011261178a5761178961168c565b5b8235905067ffffffffffffffff8111156117a7576117a6611691565b5b6020830191508360018202830111156117c3576117c2611696565b5b9250929050565b6000819050919050565b6117dd816117ca565b81146117e857600080fd5b50565b6000813590506117fa816117d4565b92915050565b600080600080600080600080600060c08a8c03121561182257611821611682565b5b60006118308c828d0161175f565b99505060208a013567ffffffffffffffff81111561185157611850611687565b5b61185d8c828d01611774565b985098505060408a013567ffffffffffffffff8111156118805761187f611687565b5b61188c8c828d01611774565b9650965050606061189f8c828d0161175f565b94505060808a013567ffffffffffffffff8111156118c0576118bf611687565b5b6118cc8c828d01611774565b935093505060a06118df8c828d016117eb565b9150509295985092959850929598565b60008115159050919050565b611904816118ef565b82525050565b600060208201905061191f60008301846118fb565b92915050565b60006020828403121561193b5761193a611682565b5b60006119498482850161175f565b91505092915050565b600073ffffffffffffffffffffffffffffffffffffffff82169050919050565b600061197d82611952565b9050919050565b61198d81611972565b82525050565b60006020820190506119a86000830184611984565b92915050565b60008060008060008060006080888a0312156119cd576119cc611682565b5b600088013567ffffffffffffffff8111156119eb576119ea611687565b5b6119f78a828b01611774565b9750975050602088013567ffffffffffffffff811115611a1a57611a19611687565b5b611a268a828b01611774565b9550955050604088013567ffffffffffffffff811115611a4957611a48611687565b5b611a558a828b01611774565b93509350506060611a688a828b016117eb565b91505092959891949750929550565b600080600060408486031215611a9057611a8f611682565b5b600084013567ffffffffffffffff811115611aae57611aad611687565b5b611aba8682870161169b565b93509350506020611acd8682870161175f565b9150509250925092565b60008060008060008060808789031215611af457611af3611682565b5b6000611b0289828a0161175f565b965050602087013567ffffffffffffffff811115611b2357611b22611687565b5b611b2f89828a01611774565b9550955050604087013567ffffffffffffffff811115611b5257611b51611687565b5b611b5e89828a01611774565b93509350506060611b7189828a0161175f565b9150509295509295509295565b611b8781611972565b8114611b9257600080fd5b50565b600081359050611ba481611b7e565b92915050565b600060208284031215611bc057611bbf611682565b5b6000611bce84828501611b95565b91505092915050565b611be0816117ca565b82525050565b6000602082019050611bfb6000830184611bd7565b92915050565b600081519050919050565b600082825260208201905092915050565b60005b83811015611c3b578082015181840152602081019050611c20565b60008484015250505050565b6000601f19601f8301169050919050565b6000611c6382611c01565b611c6d8185611c0c565b9350611c7d818560208601611c1d565b611c8681611c47565b840191505092915050565b60006020820190508181036000830152611cab8184611c58565b905092915050565b60008060008060008060008060008060e08b8d031215611cd657611cd5611682565b5b6000611ce48d828e0161175f565b9a505060208b013567ffffffffffffffff811115611d0557611d04611687565b5b611d118d828e01611774565b995099505060408b013567ffffffffffffffff811115611d3457611d33611687565b5b611d408d828e01611774565b97509750506060611d538d828e01611b95565b9550506080611d648d828e0161175f565b94505060a08b013567ffffffffffffffff811115611d8557611d84611687565b5b611d918d828e01611774565b935093505060c0611da48d828e016117eb565b9150509295989b9194979a5092959850565b600081519050919050565b600082825260208201905092915050565b6000611ddd82611db6565b611de78185611dc1565b9350611df7818560208601611c1d565b611e0081611c47565b840191505092915050565b60006020820190508181036000830152611e258184611dd2565b905092915050565b6000819050919050565b611e4081611e2d565b82525050565b6000602082019050611e5b6000830184611e37565b92915050565b600080600080600080600060a0888a031215611e8057611e7f611682565b5b6000611e8e8a828b0161175f565b975050602088013567ffffffffffffffff811115611eaf57611eae611687565b5b611ebb8a828b01611774565b9650965050604088013567ffffffffffffffff811115611ede57611edd611687565b5b611eea8a828b01611774565b94509450506060611efd8a828b01611b95565b9250506080611f0e8a828b0161175f565b91505092959891949750929550565b7f43616c6c6572206973206e6f74207468652061757468206d6f64756c65000000600082015250565b6000611f53601d83611c0c565b9150611f5e82611f1d565b602082019050919050565b60006020820190508181036000830152611f8281611f46565b9050919050565b600080fd5b7f4e487b7100000000000000000000000000000000000000000000000000000000600052604160045260246000fd5b611fc682611c47565b810181811067ffffffffffffffff82111715611fe557611fe4611f8e565b5b80604052505050565b6000611ff8611678565b90506120048282611fbd565b919050565b600067ffffffffffffffff82111561202457612023611f8e565b5b61202d82611c47565b9050602081019050919050565b82818337600083830152505050565b600061205c61205784612009565b611fee565b90508281526020810184848401111561207857612077611f89565b5b61208384828561203a565b509392505050565b600082601f8301126120a05761209f61168c565b5b81356120b0848260208601612049565b91505092915050565b600080604083850312156120d0576120cf611682565b5b600083013567ffffffffffffffff8111156120ee576120ed611687565b5b6120fa8582860161208b565b925050602083013567ffffffffffffffff81111561211b5761211a611687565b5b6121278582860161208b565b9150509250929050565b600081519050612140816117d4565b92915050565b600067ffffffffffffffff82111561216157612160611f8e565b5b602082029050602081019050919050565b60008151905061218181611748565b92915050565b600061219a61219584612146565b611fee565b905080838252602082019050602084028301858111156121bd576121bc611696565b5b835b818110156121e657806121d28882612172565b8452602084019350506020810190506121bf565b5050509392505050565b600082601f8301126122055761220461168c565b5b8151612215848260208601612187565b91505092915050565b600067ffffffffffffffff82111561223957612238611f8e565b5b602082029050602081019050919050565b600067ffffffffffffffff82111561226557612264611f8e565b5b61226e82611c47565b9050602081019050919050565b600061228e6122898461224a565b611fee565b9050828152602081018484840111156122aa576122a9611f89565b5b6122b5848285611c1d565b509392505050565b600082601f8301126122d2576122d161168c565b5b81516122e284826020860161227b565b91505092915050565b60006122fe6122f98461221e565b611fee565b9050808382526020820190506020840283018581111561232157612320611696565b5b835b8181101561236857805167ffffffffffffffff8111156123465761234561168c565b5b80860161235389826122bd565b85526020850194505050602081019050612323565b5050509392505050565b600082601f8301126123875761238661168c565b5b81516123978482602086016122eb565b91505092915050565b600067ffffffffffffffff8211156123bb576123ba611f8e565b5b602082029050602081019050919050565b60006123df6123da84612009565b611fee565b9050828152602081018484840111156123fb576123fa611f89565b5b612406848285611c1d565b509392505050565b600082601f8301126124235761242261168c565b5b81516124338482602086016123cc565b91505092915050565b600061244f61244a846123a0565b611fee565b9050808382526020820190506020840283018581111561247257612471611696565b5b835b818110156124b957805167ffffffffffffffff8111156124975761249661168c565b5b8086016124a4898261240e565b85526020850194505050602081019050612474565b5050509392505050565b600082601f8301126124d8576124d761168c565b5b81516124e884826020860161243c565b91505092915050565b6000806000806080858703121561250b5761250a611682565b5b600061251987828801612131565b945050602085015167ffffffffffffffff81111561253a57612539611687565b5b612546878288016121f0565b935050604085015167ffffffffffffffff81111561256757612566611687565b5b61257387828801612372565b925050606085015167ffffffffffffffff81111561259457612593611687565b5b6125a0878288016124c3565b91505092959194509250565b7f4e487b7100000000000000000000000000000000000000000000000000000000600052603260045260246000fd5b600081905092915050565b60006125f182611c01565b6125fb81856125db565b935061260b818560208601611c1d565b80840191505092915050565b600061262382846125e6565b915081905092915050565b6126378161173e565b82525050565b600060408201905081810360008301526126578185611dd2565b9050612666602083018461262e565b9392505050565b600081905092915050565b600061268382611db6565b61268d818561266d565b935061269d818560208601611c1d565b80840191505092915050565b60006126b58284612678565b915081905092915050565b60006126cc8385611c0c565b93506126d983858461203a565b6126e283611c47565b840190509392505050565b6000608082019050818103600083015261270881898b6126c0565b9050818103602083015261271d8187896126c0565b905081810360408301526127328185876126c0565b90506127416060830184611bd7565b98975050505050505050565b7f43616c6c6572206973206e6f742074686520636f6e747261637420697473656c60008201527f6600000000000000000000000000000000000000000000000000000000000000602082015250565b60006127a9602183611c0c565b91506127b48261274d565b604082019050919050565b600060208201905081810360008301526127d88161279c565b9050919050565b60006127f26127ed8461224a565b611fee565b90508281526020810184848401111561280e5761280d611f89565b5b61281984828561203a565b509392505050565b600082601f8301126128365761283561168c565b5b81356128468482602086016127df565b91505092915050565b600061285a82611952565b9050919050565b61286a8161284f565b811461287557600080fd5b50565b60008135905061288781612861565b92915050565b600080600080600080600080610100898b0312156128ae576128ad611682565b5b600089013567ffffffffffffffff8111156128cc576128cb611687565b5b6128d88b828c01612821565b985050602089013567ffffffffffffffff8111156128f9576128f8611687565b5b6129058b828c01612821565b97505060406129168b828c01612878565b96505060606129278b828c0161175f565b955050608089013567ffffffffffffffff81111561294857612947611687565b5b6129548b828c01612821565b94505060a06129658b828c016117eb565b93505060c06129768b828c0161175f565b92505060e06129878b828c016117eb565b9150509295985092959890939650565b600060c08201905081810360008301526129b18189611c58565b905081810360208301526129c58188611c58565b905081810360408301526129d98187611c58565b90506129e86060830186611bd7565b6129f5608083018561262e565b612a0260a0830184611bd7565b979650505050505050565b7f4e487b7100000000000000000000000000000000000000000000000000000000600052602260045260246000fd5b60006002820490506001821680612a5457607f821691505b602082108103612a6757612a66612a0d565b5b50919050565b60008060008060008060c08789031215612a8a57612a89611682565b5b600087013567ffffffffffffffff811115612aa857612aa7611687565b5b612ab489828a01612821565b965050602087013567ffffffffffffffff811115612ad557612ad4611687565b5b612ae189828a01612821565b9550506040612af289828a01612878565b9450506060612b0389828a0161175f565b9350506080612b1489828a0161175f565b92505060a0612b2589828a016117eb565b9150509295509295509295565b60006080820190508181036000830152612b4c8187611c58565b90508181036020830152612b608186611c58565b9050612b6f604083018561262e565b612b7c6060830184611bd7565b95945050505050565b600061010082019050612b9b600083018b61262e565b612ba8602083018a61262e565b8181036040830152612bba8189611c58565b90508181036060830152612bce8188611c58565b9050612bdd6080830187611984565b612bea60a083018661262e565b81810360c0830152612bfc8185611c58565b9050612c0b60e0830184611bd7565b9998505050505050505050565b60008190508160005260206000209050919050565b60008154612c3a81612a3c565b612c4481866125db565b94506001821660008114612c5f5760018114612c7457612ca7565b60ff1983168652811515820286019350612ca7565b612c7d85612c18565b60005b83811015612c9f57815481890152600182019150602081019050612c80565b838801955050505b50505092915050565b6000612cbc8284612c2d565b915081905092915050565b7f4e487b7100000000000000000000000000000000000000000000000000000000600052601160045260246000fd5b6000612d01826117ca565b9150612d0c836117ca565b9250828201905080821115612d2457612d23612cc7565b5b92915050565b6000612d35826117ca565b9150612d40836117ca565b9250828203905081811115612d5857612d57612cc7565b5b92915050565b600060c082019050612d73600083018961262e565b612d80602083018861262e565b8181036040830152612d928187611c58565b90508181036060830152612da68186611c58565b9050612db56080830185611984565b612dc260a083018461262e565b979650505050505050565b6000819050919050565b612de8612de38261173e565b612dcd565b82525050565b6000612dfa8285612dd7565b602082019150612e0a8284612dd7565b602082019150819050939250505056fea264697066735822122070dca4e3f8c978fbec5583abf809b9d9f95725475957f3f547c214740d95dd7b64736f6c634300081c0033",
  "linkReferences": {},
  "deployedLinkReferences": {}
}