{
  "_format": "hh-sol-artifact-1",
  "contractName": "OptionTrading",
  "sourceName": "contracts/option/option.sol",
  "abi": [
    {
      "inputs": [
        {
          "internalType": "address",
          "name": "gateway_",
          "type": "address"
        }
      ],
      "stateMutability": "nonpayable",
      "type": "constructor"
    },
    {
      "inputs": [],
      "name": "InvalidAddress",
      "type": "error"
    },
    {
      "inputs": [],
      "name": "NotApprovedByGateway",
      "type": "error"
    },
    {
      "anonymous": false,
      "inputs": [
        {
          "indexed": false,
          "internalType": "string",
          "name": "sourceAddress",
          "type": "string"
        },
        {
          "indexed": false,
          "internalType": "uint256",
          "name": "strikePrice",
          "type": "uint256"
        },
        {
          "indexed": false,
          "internalType": "uint256",
          "name": "expiryWeeks",
          "type": "uint256"
        },
        {
          "indexed": false,
          "internalType": "uint256",
          "name": "amount",
          "type": "uint256"
        },
        {
          "indexed": false,
          "internalType": "bool",
          "name": "isCall",
          "type": "bool"
        }
      ],
      "name": "OptionCollateralWithdrawn",
      "type": "event"
    },
    {
      "anonymous": false,
      "inputs": [
        {
          "indexed": false,
          "internalType": "string",
          "name": "sourceAddress",
          "type": "string"
        },
        {
          "indexed": false,
          "internalType": "uint256",
          "name": "strikePrice",
          "type": "uint256"
        },
        {
          "indexed": false,
          "internalType": "uint256",
          "name": "expiryWeeks",
          "type": "uint256"
        },
        {
          "indexed": false,
          "internalType": "uint256",
          "name": "amount",
          "type": "uint256"
        },
        {
          "indexed": false,
          "internalType": "bool",
          "name": "isCall",
          "type": "bool"
        }
      ],
      "name": "OptionExercised",
      "type": "event"
    },
    {
      "anonymous": false,
      "inputs": [
        {
          "indexed": false,
          "internalType": "string",
          "name": "sourceAddress",
          "type": "string"
        },
        {
          "indexed": false,
          "internalType": "uint256",
          "name": "strikePrice",
          "type": "uint256"
        },
        {
          "indexed": false,
          "internalType": "uint256",
          "name": "expiryWeeks",
          "type": "uint256"
        },
        {
          "indexed": false,
          "internalType": "uint256",
          "name": "amount",
          "type": "uint256"
        },
        {
          "indexed": false,
          "internalType": "bool",
          "name": "isCall",
          "type": "bool"
        }
      ],
      "name": "OptionIssued",
      "type": "event"
    },
    {
      "anonymous": false,
      "inputs": [
        {
          "indexed": false,
          "internalType": "uint256",
          "name": "orderId",
          "type": "uint256"
        },
        {
          "indexed": false,
          "internalType": "string",
          "name": "posterAddress",
          "type": "string"
        },
        {
          "indexed": false,
          "internalType": "uint256",
          "name": "strikePrice",
          "type": "uint256"
        },
        {
          "indexed": false,
          "internalType": "uint256",
          "name": "expiryWeeks",
          "type": "uint256"
        },
        {
          "indexed": false,
          "internalType": "uint256",
          "name": "amount",
          "type": "uint256"
        },
        {
          "indexed": false,
          "internalType": "int256",
          "name": "orderType",
          "type": "int256"
        }
      ],
      "name": "OptionOrderCancelled",
      "type": "event"
    },
    {
      "anonymous": false,
      "inputs": [
        {
          "indexed": false,
          "internalType": "uint256",
          "name": "orderId",
          "type": "uint256"
        },
        {
          "indexed": false,
          "internalType": "string",
          "name": "posterAddress",
          "type": "string"
        },
        {
          "indexed": false,
          "internalType": "uint256",
          "name": "strikePrice",
          "type": "uint256"
        },
        {
          "indexed": false,
          "internalType": "uint256",
          "name": "expiryWeeks",
          "type": "uint256"
        },
        {
          "indexed": false,
          "internalType": "uint256",
          "name": "price",
          "type": "uint256"
        },
        {
          "indexed": false,
          "internalType": "uint256",
          "name": "amount",
          "type": "uint256"
        },
        {
          "indexed": false,
          "internalType": "int256",
          "name": "orderType",
          "type": "int256"
        }
      ],
      "name": "OptionOrderPlaced",
      "type": "event"
    },
    {
      "anonymous": false,
      "inputs": [
        {
          "indexed": false,
          "internalType": "string",
          "name": "buyerAddress",
          "type": "string"
        },
        {
          "indexed": false,
          "internalType": "string",
          "name": "sellerAddress",
          "type": "string"
        },
        {
          "indexed": false,
          "internalType": "uint256",
          "name": "optionId",
          "type": "uint256"
        },
        {
          "indexed": false,
          "internalType": "uint256",
          "name": "strikePrice",
          "type": "uint256"
        },
        {
          "indexed": false,
          "internalType": "uint256",
          "name": "expiryWeeks",
          "type": "uint256"
        },
        {
          "indexed": false,
          "internalType": "uint256",
          "name": "price",
          "type": "uint256"
        },
        {
          "indexed": false,
          "internalType": "uint256",
          "name": "amount",
          "type": "uint256"
        },
        {
          "indexed": false,
          "internalType": "uint256",
          "name": "buyOrderId",
          "type": "uint256"
        },
        {
          "indexed": false,
          "internalType": "uint256",
          "name": "sellOrderId",
          "type": "uint256"
        }
      ],
      "name": "OptionTradeExecuted",
      "type": "event"
    },
    {
      "inputs": [],
      "name": "BUY_CALL_OPTION",
      "outputs": [
        {
          "internalType": "bytes32",
          "name": "",
          "type": "bytes32"
        }
      ],
      "stateMutability": "view",
      "type": "function"
    },
    {
      "inputs": [],
      "name": "BUY_PUT_OPTION",
      "outputs": [
        {
          "internalType": "bytes32",
          "name": "",
          "type": "bytes32"
        }
      ],
      "stateMutability": "view",
      "type": "function"
    },
    {
      "inputs": [],
      "name": "CANCEL_BUY_CALL_OPTION_ORDER",
      "outputs": [
        {
          "internalType": "bytes32",
          "name": "",
          "type": "bytes32"
        }
      ],
      "stateMutability": "view",
      "type": "function"
    },
    {
      "inputs": [],
      "name": "CANCEL_BUY_PUT_OPTION_ORDER",
      "outputs": [
        {
          "internalType": "bytes32",
          "name": "",
          "type": "bytes32"
        }
      ],
      "stateMutability": "view",
      "type": "function"
    },
    {
      "inputs": [],
      "name": "CANCEL_SELL_CALL_OPTION_ORDER",
      "outputs": [
        {
          "internalType": "bytes32",
          "name": "",
          "type": "bytes32"
        }
      ],
      "stateMutability": "view",
      "type": "function"
    },
    {
      "inputs": [],
      "name": "CANCEL_SELL_PUT_OPTION_ORDER",
      "outputs": [
        {
          "internalType": "bytes32",
          "name": "",
          "type": "bytes32"
        }
      ],
      "stateMutability": "view",
      "type": "function"
    },
    {
      "inputs": [
        {
          "internalType": "uint256",
          "name": "",
          "type": "uint256"
        },
        {
          "internalType": "uint256",
          "name": "",
          "type": "uint256"
        }
      ],
      "name": "CallOptionBuyOrderChainHead",
      "outputs": [
        {
          "internalType": "uint256",
          "name": "",
          "type": "uint256"
        }
      ],
      "stateMutability": "view",
      "type": "function"
    },
    {
      "inputs": [
        {
          "internalType": "uint256",
          "name": "",
          "type": "uint256"
        },
        {
          "internalType": "uint256",
          "name": "",
          "type": "uint256"
        }
      ],
      "name": "CallOptionSellOrderChainHead",
      "outputs": [
        {
          "internalType": "uint256",
          "name": "",
          "type": "uint256"
        }
      ],
      "stateMutability": "view",
      "type": "function"
    },
    {
      "inputs": [],
      "name": "EXERCISE_CALL_OPTION",
      "outputs": [
        {
          "internalType": "bytes32",
          "name": "",
          "type": "bytes32"
        }
      ],
      "stateMutability": "view",
      "type": "function"
    },
    {
      "inputs": [],
      "name": "EXERCISE_PUT_OPTION",
      "outputs": [
        {
          "internalType": "bytes32",
          "name": "",
          "type": "bytes32"
        }
      ],
      "stateMutability": "view",
      "type": "function"
    },
    {
      "inputs": [],
      "name": "ISSUE_CALL_OPTION",
      "outputs": [
        {
          "internalType": "bytes32",
          "name": "",
          "type": "bytes32"
        }
      ],
      "stateMutability": "view",
      "type": "function"
    },
    {
      "inputs": [],
      "name": "ISSUE_PUT_OPTION",
      "outputs": [
        {
          "internalType": "bytes32",
          "name": "",
          "type": "bytes32"
        }
      ],
      "stateMutability": "view",
      "type": "function"
    },
    {
      "inputs": [],
      "name": "MAX_ORDER_INDEX",
      "outputs": [
        {
          "internalType": "uint256",
          "name": "",
          "type": "uint256"
        }
      ],
      "stateMutability": "view",
      "type": "function"
    },
    {
      "inputs": [],
      "name": "MIN_ORDER_INDEX",
      "outputs": [
        {
          "internalType": "uint256",
          "name": "",
          "type": "uint256"
        }
      ],
      "stateMutability": "view",
      "type": "function"
    },
    {
      "inputs": [
        {
          "internalType": "uint256",
          "name": "",
          "type": "uint256"
        },
        {
          "internalType": "uint256",
          "name": "",
          "type": "uint256"
        }
      ],
      "name": "PutOptionBuyOrderChainHead",
      "outputs": [
        {
          "internalType": "uint256",
          "name": "",
          "type": "uint256"
        }
      ],
      "stateMutability": "view",
      "type": "function"
    },
    {
      "inputs": [
        {
          "internalType": "uint256",
          "name": "",
          "type": "uint256"
        },
        {
          "internalType": "uint256",
          "name": "",
          "type": "uint256"
        }
      ],
      "name": "PutOptionSellOrderChainHead",
      "outputs": [
        {
          "internalType": "uint256",
          "name": "",
          "type": "uint256"
        }
      ],
      "stateMutability": "view",
      "type": "function"
    },
    {
      "inputs": [],
      "name": "SECONDS_IN_WEEK",
      "outputs": [
        {
          "internalType": "uint256",
          "name": "",
          "type": "uint256"
        }
      ],
      "stateMutability": "view",
      "type": "function"
    },
    {
      "inputs": [],
      "name": "SELL_CALL_OPTION",
      "outputs": [
        {
          "internalType": "bytes32",
          "name": "",
          "type": "bytes32"
        }
      ],
      "stateMutability": "view",
      "type": "function"
    },
    {
      "inputs": [],
      "name": "SELL_PUT_OPTION",
      "outputs": [
        {
          "internalType": "bytes32",
          "name": "",
          "type": "bytes32"
        }
      ],
      "stateMutability": "view",
      "type": "function"
    },
    {
      "inputs": [],
      "name": "START_TIMESTAMP",
      "outputs": [
        {
          "internalType": "uint256",
          "name": "",
          "type": "uint256"
        }
      ],
      "stateMutability": "view",
      "type": "function"
    },
    {
      "inputs": [],
      "name": "SUPPORTED_SOURCE_CHAIN_HASH",
      "outputs": [
        {
          "internalType": "bytes32",
          "name": "",
          "type": "bytes32"
        }
      ],
      "stateMutability": "view",
      "type": "function"
    },
    {
      "inputs": [],
      "name": "TYPE_BUY_CALL",
      "outputs": [
        {
          "internalType": "int256",
          "name": "",
          "type": "int256"
        }
      ],
      "stateMutability": "view",
      "type": "function"
    },
    {
      "inputs": [],
      "name": "TYPE_BUY_PUT",
      "outputs": [
        {
          "internalType": "int256",
          "name": "",
          "type": "int256"
        }
      ],
      "stateMutability": "view",
      "type": "function"
    },
    {
      "inputs": [],
      "name": "TYPE_SELL_CALL",
      "outputs": [
        {
          "internalType": "int256",
          "name": "",
          "type": "int256"
        }
      ],
      "stateMutability": "view",
      "type": "function"
    },
    {
      "inputs": [],
      "name": "TYPE_SELL_PUT",
      "outputs": [
        {
          "internalType": "int256",
          "name": "",
          "type": "int256"
        }
      ],
      "stateMutability": "view",
      "type": "function"
    },
    {
      "inputs": [],
      "name": "WITHDRAW_CALL_OPTION_COLLATERAL",
      "outputs": [
        {
          "internalType": "bytes32",
          "name": "",
          "type": "bytes32"
        }
      ],
      "stateMutability": "view",
      "type": "function"
    },
    {
      "inputs": [],
      "name": "WITHDRAW_PUT_OPTION_COLLATERAL",
      "outputs": [
        {
          "internalType": "bytes32",
          "name": "",
          "type": "bytes32"
        }
      ],
      "stateMutability": "view",
      "type": "function"
    },
    {
      "inputs": [
        {
          "internalType": "string",
          "name": "",
          "type": "string"
        },
        {
          "internalType": "uint256",
          "name": "",
          "type": "uint256"
        },
        {
          "internalType": "uint256",
          "name": "",
          "type": "uint256"
        }
      ],
      "name": "callOptionIssuers",
      "outputs": [
        {
          "internalType": "uint256",
          "name": "",
          "type": "uint256"
        }
      ],
      "stateMutability": "view",
      "type": "function"
    },
    {
      "inputs": [
        {
          "internalType": "string",
          "name": "",
          "type": "string"
        },
        {
          "internalType": "uint256",
          "name": "",
          "type": "uint256"
        },
        {
          "internalType": "uint256",
          "name": "",
          "type": "uint256"
        }
      ],
      "name": "callOptionOwners",
      "outputs": [
        {
          "internalType": "uint256",
          "name": "",
          "type": "uint256"
        }
      ],
      "stateMutability": "view",
      "type": "function"
    },
    {
      "inputs": [
        {
          "internalType": "bytes32",
          "name": "commandId",
          "type": "bytes32"
        },
        {
          "internalType": "string",
          "name": "sourceChain",
          "type": "string"
        },
        {
          "internalType": "string",
          "name": "sourceAddress",
          "type": "string"
        },
        {
          "internalType": "bytes",
          "name": "payload",
          "type": "bytes"
        }
      ],
      "name": "execute",
      "outputs": [],
      "stateMutability": "nonpayable",
      "type": "function"
    },
    {
      "inputs": [
        {
          "internalType": "bytes32",
          "name": "commandId",
          "type": "bytes32"
        },
        {
          "internalType": "string",
          "name": "sourceChain",
          "type": "string"
        },
        {
          "internalType": "string",
          "name": "sourceAddress",
          "type": "string"
        },
        {
          "internalType": "bytes",
          "name": "payload",
          "type": "bytes"
        },
        {
          "internalType": "string",
          "name": "tokenSymbol",
          "type": "string"
        },
        {
          "internalType": "uint256",
          "name": "amount",
          "type": "uint256"
        }
      ],
      "name": "executeWithToken",
      "outputs": [],
      "stateMutability": "nonpayable",
      "type": "function"
    },
    {
      "inputs": [],
      "name": "gateway",
      "outputs": [
        {
          "internalType": "contract IMyAxelarGateway",
          "name": "",
          "type": "address"
        }
      ],
      "stateMutability": "view",
      "type": "function"
    },
    {
      "inputs": [],
      "name": "orderCount",
      "outputs": [
        {
          "internalType": "uint256",
          "name": "",
          "type": "uint256"
        }
      ],
      "stateMutability": "view",
      "type": "function"
    },
    {
      "inputs": [],
      "name": "orderCounter",
      "outputs": [
        {
          "internalType": "int256",
          "name": "",
          "type": "int256"
        }
      ],
      "stateMutability": "view",
      "type": "function"
    },
    {
      "inputs": [
        {
          "internalType": "uint256",
          "name": "",
          "type": "uint256"
        }
      ],
      "name": "orders",
      "outputs": [
        {
          "internalType": "uint256",
          "name": "prev",
          "type": "uint256"
        },
        {
          "internalType": "string",
          "name": "posterAddress",
          "type": "string"
        },
        {
          "internalType": "uint256",
          "name": "price",
          "type": "uint256"
        },
        {
          "internalType": "uint256",
          "name": "amount",
          "type": "uint256"
        },
        {
          "internalType": "uint256",
          "name": "strikePrice",
          "type": "uint256"
        },
        {
          "internalType": "uint256",
          "name": "expiryWeeks",
          "type": "uint256"
        },
        {
          "internalType": "int256",
          "name": "orderType",
          "type": "int256"
        },
        {
          "internalType": "uint256",
          "name": "next",
          "type": "uint256"
        }
      ],
      "stateMutability": "view",
      "type": "function"
    },
    {
      "inputs": [
        {
          "internalType": "string",
          "name": "",
          "type": "string"
        },
        {
          "internalType": "uint256",
          "name": "",
          "type": "uint256"
        },
        {
          "internalType": "uint256",
          "name": "",
          "type": "uint256"
        }
      ],
      "name": "putOptionIssuers",
      "outputs": [
        {
          "internalType": "uint256",
          "name": "",
          "type": "uint256"
        }
      ],
      "stateMutability": "view",
      "type": "function"
    },
    {
      "inputs": [
        {
          "internalType": "string",
          "name": "",
          "type": "string"
        },
        {
          "internalType": "uint256",
          "name": "",
          "type": "uint256"
        },
        {
          "internalType": "uint256",
          "name": "",
          "type": "uint256"
        }
      ],
      "name": "putOptionOwners",
      "outputs": [
        {
          "internalType": "uint256",
          "name": "",
          "type": "uint256"
        }
      ],
      "stateMutability": "view",
      "type": "function"
    },
    {
      "inputs": [],
      "name": "supportedSourceChain",
      "outputs": [
        {
          "internalType": "string",
          "name": "",
          "type": "string"
        }
      ],
      "stateMutability": "view",
      "type": "function"
    }
  ],
  "bytecode": "0x60a060405234610450576143536020813803918261001c81610475565b93849283398101031261045057516001600160a01b038116808203610450571561043f5760805260016005556002600655610055610455565b600081526100636020610475565b9060008252602081019182526040810160008152606082016103e78152608083016000815260a08401906000825260c08501926000845260e0860194600086526001600052600860205260406000209651875560018701975197885160018060401b038111610363578154600181811c91168015610435575b602082101461034357601f81116103ed575b506020601f821160011461038457819060079a9b600092610379575b50508160011b916000199060031b1c19161790555b51600288015551600387015551600486015551600585015551600684015551910155610149610455565b600081526101576020610475565b906000825260208101918252604081016000198152606082016103e78152608083016000815260a08401906000825260c08501926000845260e086019460008652600654600052600860205260406000209651875560018701975197885160018060401b038111610363578154600181811c91168015610359575b602082101461034357601f81116102fb575b506020601f821160011461029257819060079a9b600092610287575b50508160011b916000199060031b1c19161790555b51600288015551600387015551600486015551600585015551600684015551910155600360005560018055600280556003805560048055604051613eb8908161049b823960805181818161080d01528181611e6e015281816130c101528181613b7601528181613c2f0152613c930152f35b015190503880610200565b601f1982169a83600052816000209b60005b8181106102e357509160079b9c918460019594106102ca575b505050811b019055610215565b015160001960f88460031b161c191690553880806102bd565b838301518e556001909d019c602093840193016102a4565b826000526020600020601f830160051c81019160208410610339575b601f0160051c01905b81811061032d57506101e4565b60008155600101610320565b9091508190610317565b634e487b7160e01b600052602260045260246000fd5b90607f16906101d2565b634e487b7160e01b600052604160045260246000fd5b01519050388061010a565b601f1982169a83600052816000209b60005b8181106103d557509160079b9c918460019594106103bc575b505050811b01905561011f565b015160001960f88460031b161c191690553880806103af565b838301518e556001909d019c60209384019301610396565b826000526020600020601f830160051c8101916020841061042b575b601f0160051c01905b81811061041f57506100ee565b60008155600101610412565b9091508190610409565b90607f16906100dc565b63e6c4247b60e01b60005260046000fd5b600080fd5b6040519061010082016001600160401b0381118382101761036357604052565b6040519190601f01601f191682016001600160401b038111838210176103635760405256fe608080604052600436101561001357600080fd5b600090813560e01c908163039fbdba14613129575080630a639ef0146130f0578063116191b6146130ab5780631a98b2e014611db55780631c4cabf014611d97578063201056a914611d7957806320965bb914611d5b5780632402af3314611d3d5780632453ffa814611d1f57806327c1e68e14611ce4578063450083e914611ca95780634916065814610766578063532c45bc1461072d5780635f0447c1146106f25780636de5cb71146106c5578063735c422d146106a7578063781cd99d1461068857806378568f541461064d57806378f2c2c31461062457806378f97571146105eb57806382b22059146105b057806384ddb4c614610575578063872d7f781461053a5780638d7df0321461050d57806395080344146104d2578063a85c38ef14610431578063aa65921a146103f6578063b622e2ad146103a6578063b789bf5214610389578063b90854101461034e578063bad271691461031a578063bd7977fc146102fc578063cb6c1794146102c1578063cdf5e0b514610286578063e088b29e14610268578063ec4f3ede1461023b578063f6774687146102005763fb1095ba146101c357600080fd5b346101fd57806003193601126101fd5760206040517fb83a1072630fa510b821016d24c88d95b3b58801131a01b56e1654e931ccb46b8152f35b80fd5b50346101fd57806003193601126101fd5760206040517fdd3ec48d934aa74f1f48fb6d4e6c7eb2ce0d2ba33f52bd1b442079ce807ab2278152f35b50346101fd57604060209161024f36613153565b9082526009845282822090825283522054604051908152f35b50346101fd57806003193601126101fd57602060405162093a808152f35b50346101fd57806003193601126101fd5760206040517f89a84c2d5f6fa419b1d97940e867b50f47ee35eed4242b3f984981139903b12f8152f35b50346101fd57806003193601126101fd5760206040517fb722cb5d65e41b31467fb8dd593a21512aadcdb12d146845d67fb6e43280e4a18152f35b50346101fd57806003193601126101fd576020600254604051908152f35b50346101fd57806003193601126101fd5761034a610336613289565b604051918291602083526020830190613370565b0390f35b50346101fd57806003193601126101fd5760206040517f0b1cbc619885dd31b1b0dda325d718f60922a42fdbb827561693357d51372ebc8152f35b50346101fd57806003193601126101fd5760209054604051908152f35b50346101fd5760406020916103d5836103be36613204565b939183879492945193828580945193849201613239565b81016010815203019020908352845282822090825283522054604051908152f35b50346101fd57806003193601126101fd5760206040517f4c2de9c620d77d195f38cf9a5e3513d7525976b0283ec68a3423e5af1bc4c4028152f35b50346101fd5760203660031901126101fd57604090600435815260086020522080546040519161046f8361046881600185016132ed565b0384613169565b600281015490600381015490600481015460058201549060076006840154930154936104af604051988998895261010060208a0152610100890190613370565b9560408801526060870152608086015260a085015260c084015260e08301520390f35b50346101fd57806003193601126101fd5760206040517f5fa1480e2cc29e88ad5fa36ce691f60448f819ccd9bb4d9843a4f8aebfa491268152f35b50346101fd57604060209161052136613153565b908252600b845282822090825283522054604051908152f35b50346101fd57806003193601126101fd5760206040517f1c79f9505d40da7670b8ea814e7f75e03a68740323e8774c302d5b4edab090338152f35b50346101fd57806003193601126101fd5760206040517fdbaa1a39ee7167670398a0c8165e5f3dd80b156958d141bd9e1736e5713bb82b8152f35b50346101fd57806003193601126101fd5760206040517f8be0a9d7eecba638391b7d6c57d2a322bbf7c7087b368fee93da4b920d8f62d98152f35b50346101fd576040602091610603836103be36613204565b8101600f815203019020908352845282822090825283522054604051908152f35b50346101fd57806003193601126101fd57602061063f613289565b818151910120604051908152f35b50346101fd57806003193601126101fd5760206040517f49208de5811c6e2f3c327f2bd520168782da37f93c5d0e3f6d229d35f409b3a88152f35b50346101fd57806003193601126101fd576020604051636598bd808152f35b50346101fd57806003193601126101fd576020600654604051908152f35b50346101fd5760406020916106d936613153565b908252600c845282822090825283522054604051908152f35b50346101fd57806003193601126101fd5760206040517fee828d6c3056b7a7ff1b5aea204a0d6868e84f2216e6bd455c05efd99314854d8152f35b50346101fd576040602091610745836103be36613204565b8101600e815203019020908352845282822090825283522054604051908152f35b50346101fd5760803660031901126101fd576024356001600160401b038111611ca55761079790369060040161325c565b91906044356001600160401b038111611ca1576107b890369060040161325c565b9290936064356001600160401b038111611ca1576107da90369060040161325c565b93906107e73686836131a0565b8051602091820120604051635f6970c360e01b81526004803590820152608060248201527f00000000000000000000000000000000000000000000000000000000000000006001600160a01b031697929091829081906108628d8d610850608486018d8d6133ad565b858103600319016044870152916133ad565b9060648301520381898b5af1908115611c96578691611c67575b5015611c5857906108b9916108b16108953687876131a0565b602081519101206108a4613289565b60208151910120146133ce565b810190613411565b9290602081519101207fdd3ec48d934aa74f1f48fb6d4e6c7eb2ce0d2ba33f52bd1b442079ce807ab2278114600014610e38575050508060208061090293518301019101613480565b96909560409392935181838237602081838101600f8152030190208386526020526040852084865260205287604086205410610df35760405181838237602081838101600f815203019020838652602052604085208486526020526040852061096c8982546136a6565b905561097f6001548989878786886138bf565b908186526008602052600460408720015498828752600860205260056040882001549883885260086020526002604089200154998b8952600960205260408920818a5260205260408920548015610dd4575b5b808a526008602052600760408b20015415610dad57808a5260086020528b600260408c20015411610dad5789610a185760005260086020526007604060002001546109d2565b899b509b8c600080516020613e43833981519152999b9d60076040610ab3999a9b9d5b8381526008602052818120548c82526008602052828220558b815260086020522001558c5260086020528660408d2055868c52600860205260408c20541515600014610d91575050848a52600860205260408a20548a52600860205284600760408c2001555b888860015494604051988998896137d5565b0390a1808352600960205260408320828452602052604083205493818452600a602052604084208385526020526040842054905b600654808714159081610d86575b5015610d7e5785855260086020526040852082865260086020526040862090600281018054600284015491828211610d45579083929160038b950192610b5183855460038a019889549050808210600014610d3d5750926136a6565b92610b5a613289565b610b6883600189019361362b565b908a3b15610d2457610b97918f9184838e92604051968795869485936326ef699d60e01b855260048501613df6565b03925af18015610d1757908e91610d28575b5050610bb3613289565b610bc18360018b019661362b565b908a3b15610d2457610bf0918f9187838e92604051968795869485936326ef699d60e01b855260048501613df6565b03925af18015610d1757908e91610cfe575b50509181610c5593610c25600080516020613e23833981519152969488546136a6565b8755610c32828a546136a6565b8955610c63600489015493549160405196879661012088526101208801906132ed565b9086820360208801526132ed565b9260408501528c60608501528d608085015260a084015260c08301528960e08301528d6101008301520390a15415610cd1575b505415610ca4575b50610ae7565b610cb2919250600a90613d79565b50818452600a6020526040842083855260205260408420549038610c9e565b610cdf919850600990613d79565b5083865260096020526040862085875260205260408620549638610c96565b81610d0891613169565b610d13578c38610c02565b8c80fd5b8e604051903d90823e3d90fd5b8e80fd5b81610d3291613169565b610d13578c38610ba9565b9050926136a6565b50505050505092935b81855260096020526040852083865260205260408520558352600a60205260408320908352602052604082205580f35b509293610d4e565b905082141538610af5565b8b52600960205260408b20908b526020528460408b2055610aa1565b899b509b8c600080516020613e43833981519152999b9d60076040610ab3999a9b9d610a3b565b6006548d8b52600960205260408b20838c5260205260408b20556109d1565b60405162461bcd60e51b815260206004820152601d60248201527f4e6f7420656e6f7567682063616c6c206f7074696f6e73206f776e65640000006044820152606490fd5b7f5584595d2c67cbe77c504b4b0f23d2e93ea01619d09e7edccac5c129141a749981036113805750505080602080610e7593518301019101613480565b969095604093929351818382376020818381016010815203019020838652602052604085208486526020528760408620541061133b576040518183823760208183810160108152030190208386526020526040852084865260205260408520610edf8982546136a6565b9055610ef26003548989878786886138bf565b908186526008602052600460408720015498828752600860205260056040882001549883885260086020526002604089200154998b8952600b60205260408920818a526020526040892054801561131c575b5b808a526008602052600760408b200154156112f557808a5260086020528b600260408c200154116112f55789610f8b576000526008602052600760406000200154610f45565b899b509b8c600080516020613e43833981519152999b9d60076040611026999a9b9d5b8381526008602052818120548c82526008602052828220558b815260086020522001558c5260086020528660408d2055868c52600860205260408c205415156000146112d9575050848a52600860205260408a20548a52600860205284600760408c2001555b888860035494604051988998896137d5565b0390a1808352600b60205260408320828452602052604083205493818452600c602052604084208385526020526040842054905b6006548087141590816112ce575b50156112c6578585526008602052604085208286526008602052604086209060028101805460028401549182821161128d579083929160038b9501926110c483855460038a019889549050808210600014610d3d5750926136a6565b926110cd613289565b6110db83600189019361362b565b908a3b15610d245761110a918f9184838e92604051968795869485936326ef699d60e01b855260048501613df6565b03925af18015610d1757908e91611278575b5050611126613289565b6111348360018b019661362b565b908a3b15610d2457611163918f9187838e92604051968795869485936326ef699d60e01b855260048501613df6565b03925af18015610d1757908e91611263575b50509181610c5593611198600080516020613e23833981519152969488546136a6565b87556111a5828a546136a6565b89556111c8600489015493549160405196879661012088526101208801906132ed565b9260408501528c60608501528d608085015260a084015260c08301528960e08301528d6101008301520390a15415611236575b505415611209575b5061105a565b611217919250600c90613d79565b50818452600c6020526040842083855260205260408420549038611203565b611244919850600b90613d79565b50838652600b60205260408620858752602052604086205496386111fb565b8161126d91613169565b610d13578c38611175565b8161128291613169565b610d13578c3861111c565b50505050505092935b818552600b6020526040852083865260205260408520558352600c60205260408320908352602052604082205580f35b509293611296565b905082141538611068565b8b52600b60205260408b20908b526020528460408b2055611014565b899b509b8c600080516020613e43833981519152999b9d60076040611026999a9b9d610fae565b6006548d8b52600b60205260408b20838c5260205260408b2055610f44565b60405162461bcd60e51b815260206004820152601c60248201527f4e6f7420656e6f75676820707574206f7074696f6e73206f776e6564000000006044820152606490fd5b90919293969594507fb83a1072630fa510b821016d24c88d95b3b58801131a01b56e1654e931ccb46b81146000146115495750505060208151918180820193849201010312611544575190818452600860205260408420906114156040516113f6816113ef81600188016132ed565b0382613169565b602081519101206114083684886131a0565b6020815191012014613810565b6006820154600154036114ff5760206004830194600080516020613e6383398151915281600388549660058101978854825480156000146114e357506007830154918d526009885260408d20908d52875260408c20555b6007810154806114cf575b50015497549554966114956001548a8a8a8a6040519788978861385c565b0390a18260405193849283378101600f815203019020908452602052604083209083526020526114ca604083209182546136b3565b905580f35b8154908c526008875260408c205538611477565b9150506007820154908c5260088752600760408d20015561146c565b60405162461bcd60e51b815260206004820152601c60248201527f4e6f7420612073656c6c2063616c6c206f7074696f6e206f72646572000000006044820152606490fd5b600080fd5b7f1c79f9505d40da7670b8ea814e7f75e03a68740323e8774c302d5b4edab0903381036116d75750505060208151918180820193849201010312611544575190818452600860205260408420906115ad6040516113f6816113ef81600188016132ed565b6006820154600354036116925760206004830194600080516020613e63833981519152816003885496600581019788548254801560001461167657506007830154918d52600b885260408d20908d52875260408c20555b600781015480611662575b500154975495549661162d6003548a8a8a8a6040519788978861385c565b0390a182604051938492833781016010815203019020908452602052604083209083526020526114ca604083209182546136b3565b8154908c526008875260408c20553861160f565b9150506007820154908c5260088752600760408d200155611604565b60405162461bcd60e51b815260206004820152601b60248201527f4e6f7420612073656c6c20707574206f7074696f6e206f7264657200000000006044820152606490fd5b9394937fee828d6c3056b7a7ff1b5aea204a0d6868e84f2216e6bd455c05efd99314854d81036118495750505060208151918180820193849201010312611544575180845260086020526040842061174e60405161173c816113ef81600187016132ed565b602081519101206114083687876131a0565b60068101546002540361180457600080516020613e63833981519152936117cc916004810190600382549160058101928354825480156000146117e757506007830154918c52600a60205260408c20908c5260205260408b20555b6007810154806117d2575b5001549154905490600254936040519788978861385c565b0390a180f35b8154908b52600860205260408b2055386117b4565b9150506007820154908b526008602052600760408c2001556117a9565b60405162461bcd60e51b815260206004820152601b60248201527f4e6f742061206275792063616c6c206f7074696f6e206f7264657200000000006044820152606490fd5b7f4c2de9c620d77d195f38cf9a5e3513d7525976b0283ec68a3423e5af1bc4c40281036119a0575050506020815191818082019384920101031261154457518084526008602052604084206118ab60405161173c816113ef81600187016132ed565b60068101546004540361195b57600080516020613e63833981519152936117cc9160048101906003825491600581019283548254801560001461193e57506007830154918c52600c60205260408c20908c5260205260408b20555b600781015480611929575b5001549154905490600454936040519788978861385c565b8154908b52600860205260408b205538611911565b9150506007820154908b526008602052600760408c200155611906565b60405162461bcd60e51b815260206004820152601a60248201527f4e6f7420612062757920707574206f7074696f6e206f726465720000000000006044820152606490fd5b9194939290917f0b1cbc619885dd31b1b0dda325d718f60922a42fdbb827561693357d51372ebc8103611af85750806020806119e19351830101910161346a565b6119f26119ed82613891565b6135ea565b60405185858237602081878101600d815203019020828852602052604087208188526020526040872054918215611aba57611a83817f5604da02e8b737f3188927c2db80e38634e9bc8098d4ea56c49e8fe26d8de955988a868a8a6117cc9a8685526011602052604085208a86526020526040808620549588815260126020528181208c8252602052205495613b4d565b60405186868237602081888101600d81520301902081895260205260408820828952602052876040812055604051958695866136f0565b60405162461bcd60e51b8152602060048201526016602482015275139bc818d85b1b081bdc1d1a5bdb9cc81a5cdcdd595960521b6044820152606490fd5b7fdbaa1a39ee7167670398a0c8165e5f3dd80b156958d141bd9e1736e5713bb82b14611b27575b505050505080f35b80602080611b3a9351830101910161346a565b611b466119ed82613891565b60405185858237602081878101600e815203019020828852602052604087208188526020526040872054918215611c1b57611bd7817f5604da02e8b737f3188927c2db80e38634e9bc8098d4ea56c49e8fe26d8de955988a868a8a611c0e9a8685526013602052604085208a86526020526040808620549588815260146020528181208c8252602052205495613b4d565b60405186868237602081888101600e81520301902081895260205260408820828952602052876040812055604051958695866136c0565b0390a13880808080611b1f565b60405162461bcd60e51b8152602060048201526015602482015274139bc81c1d5d081bdc1d1a5bdb9cc81a5cdcdd5959605a1b6044820152606490fd5b631403112d60e21b8552600485fd5b611c89915060203d602011611c8f575b611c818183613169565b810190613395565b3861087c565b503d611c77565b6040513d88823e3d90fd5b8280fd5b5080fd5b50346101fd57806003193601126101fd5760206040517f5584595d2c67cbe77c504b4b0f23d2e93ea01619d09e7edccac5c129141a74998152f35b50346101fd57806003193601126101fd5760206040517fc9cfa251c9291912ef7870dbc42eafac4011b5487bcd933065db946fbaf8a5898152f35b50346101fd57806003193601126101fd576020600754604051908152f35b50346101fd57806003193601126101fd576020600454604051908152f35b50346101fd57806003193601126101fd576020600354604051908152f35b50346101fd57806003193601126101fd576020600554604051908152f35b50346101fd57806003193601126101fd576020600154604051908152f35b50346101fd5760c03660031901126101fd576024356001600160401b038111611ca557611de690369060040161325c565b6044356001600160401b038111612e4c57611e0590369060040161325c565b9390916064356001600160401b038111611ca157611e2790369060040161325c565b9390916084356001600160401b0381116130a757611e4990369060040161325c565b96909360a43592611e5b3689846131a0565b8051906020012097600160a01b600190037f0000000000000000000000000000000000000000000000000000000000000000169889878d8d6040519485938493631876eed960e01b855260043560048601526024850160c090528b8a60c4870190611ec5926133ad565b90600319868303016044870152611edb926133ad565b906064840152600319838203016084840152611ef7918d6133ad565b8960a483015203818c5a94602095f190811561309c57899161307d575b501561306e5784159283159361303857611f36916108b16108953686896131a0565b9390604051611f6660208281611f558183019687815193849201613239565b81010301601f198101835282613169565b5190207f8be0a9d7eecba638391b7d6c57d2a322bbf7c7087b368fee93da4b920d8f62d9810361248f575050505096611fbf9291611fb189602080611fdb9b9c518301019101613480565b9a92969197909b36916131a0565b60208151910120611fce61370c565b60208151910120146134c3565b611fe5888a61362b565b1161243f57611ffb600254888a878786886138bf565b9085978287526008602052600460408820015499838852600860205260056040892001549a8489526008602052600260408a2001549b818a52600a60205260408a20818b5260205260408a2054801561241a575b9c8c60408f916007925b81526008602052200154156123da578c818f829081936123fd575b5050506123da578060028f8f60409181526008602052200154106120b0578c9d8d52600860205260408d20600701549d60408f91600792612059565b5090859697999b61214e9692600080516020613e438339815191529a9c9e5b80835260086020526040832054858452600860205260408420558483526008602052806007604085200155825260086020528360408320558382526008602052604082205415156000146123c0575060079150808360409252600860205281812054815260086020522001555b888860025494604051988998896137d5565b0390a1808352600960205260408320828452602052604083205493818452600a602052604084208385526020526040842054905b6006548087141590816123b5575b5015610d7e5785855260086020526040852082865260086020526040862090600281018054600284015491828211610d45579083929160038b9501926121ec83855460038a019889549050808210600014610d3d5750926136a6565b926121f5613289565b61220383600189019361362b565b908a3b15610d2457612232918f9184838e92604051968795869485936326ef699d60e01b855260048501613df6565b03925af18015610d1757908e916123a0575b505061224e613289565b61225c8360018b019661362b565b908a3b15610d245761228b918f9187838e92604051968795869485936326ef699d60e01b855260048501613df6565b03925af18015610d1757908e9161238b575b50509181610c55936122c0600080516020613e23833981519152969488546136a6565b87556122cd828a546136a6565b89556122f0600489015493549160405196879661012088526101208801906132ed565b9260408501528c60608501528d608085015260a084015260c08301528960e08301528d6101008301520390a1541561235e575b505415612331575b50612182565b61233f919250600a90613d79565b50818452600a602052604084208385526020526040842054903861232b565b61236c919850600990613d79565b5083865260096020526040862085875260205260408620549638612323565b8161239591613169565b610d13578c3861229d565b816123aa91613169565b610d13578c38612244565b905082141538612190565b6040928252600a602052828220908252602052205561213c565b5090859697999b61214e9692600080516020613e438339815191529a9c9e6120cf565b6002929350906040918152600860205220015411818f8f90612074565b600554838c52600a60209081526040808e20858f529091528c2055999b508b9961204f565b60405162461bcd60e51b815260206004820152602260248201527f4e6f7420656e6f7567682055534420746f206275792063616c6c206f7074696f6044820152616e7360f01b6064820152608490fd5b7fc9cfa251c9291912ef7870dbc42eafac4011b5487bcd933065db946fbaf8a589810361298a575050505096611fbf9291611fb1896020806124d79b9c518301019101613480565b6124e1888a61362b565b1161293b576124f7600454888a878786886138bf565b9085978287526008602052600460408820015499838852600860205260056040892001549a8489526008602052600260408a2001549b818a52600c60205260408a20818b5260205260408a20548015612916575b9c8c60408f916007925b81526008602052200154156128d6578c818f829081936128f9575b5050506128d6578060028f8f60409181526008602052200154106125ac578c9d8d52600860205260408d20600701549d60408f91600792612555565b5090859697999b61264a9692600080516020613e438339815191529a9c9e5b80835260086020526040832054858452600860205260408420558483526008602052806007604085200155825260086020528360408320558382526008602052604082205415156000146128bc575060079150808360409252600860205281812054815260086020522001555b888860045494604051988998896137d5565b0390a1808352600b60205260408320828452602052604083205493818452600c602052604084208385526020526040842054905b6006548087141590816128b1575b50156112c6578585526008602052604085208286526008602052604086209060028101805460028401549182821161128d579083929160038b9501926126e883855460038a019889549050808210600014610d3d5750926136a6565b926126f1613289565b6126ff83600189019361362b565b908a3b15610d245761272e918f9184838e92604051968795869485936326ef699d60e01b855260048501613df6565b03925af18015610d1757908e9161289c575b505061274a613289565b6127588360018b019661362b565b908a3b15610d2457612787918f9187838e92604051968795869485936326ef699d60e01b855260048501613df6565b03925af18015610d1757908e91612887575b50509181610c55936127bc600080516020613e23833981519152969488546136a6565b87556127c9828a546136a6565b89556127ec600489015493549160405196879661012088526101208801906132ed565b9260408501528c60608501528d608085015260a084015260c08301528960e08301528d6101008301520390a1541561285a575b50541561282d575b5061267e565b61283b919250600c90613d79565b50818452600c6020526040842083855260205260408420549038612827565b612868919850600b90613d79565b50838652600b602052604086208587526020526040862054963861281f565b8161289191613169565b610d13578c38612799565b816128a691613169565b610d13578c38612740565b90508214153861268c565b6040928252600c6020528282209082526020522055612638565b5090859697999b61264a9692600080516020613e438339815191529a9c9e6125cb565b6002929350906040918152600860205220015411818f8f90612570565b600554838c52600c60209081526040808e20858f529091528c2055999b508b9961254b565b60405162461bcd60e51b815260206004820152602160248201527f4e6f7420656e6f7567682055534420746f2062757920707574206f7074696f6e6044820152607360f81b6064820152608490fd5b7fb722cb5d65e41b31467fb8dd593a21512aadcdb12d146845d67fb6e43280e4a1819c9a9496989b97999c14600014612ae8575050505091612a237ffa883b13d122b2daebf8ec828dabf0d08f850ca7cbd0b8c476dee04432526d4d9792612a1e612a0f612a05876020806117cc9b9a51830101910161346a565b96909536916131a0565b60208151910120611fce6134a2565b613506565b612a306064840615613552565b612a3b81151561359e565b612a4d612a4783613891565b15613789565b60405186868237602081888101600f8152030190208189526020526040882082895260205260408820612a818482546136b3565b905560405186868237602081888101600d8152030190208189526020526040882082895260205260408820612ab78482546136b3565b905580885260116020526040882082895260205260408820612ada8482546136b3565b9055604051958695866136f0565b7f89a84c2d5f6fa419b1d97940e867b50f47ee35eed4242b3f984981139903b12f8103612cad575050505090612a1e611fbf612b3084602080612b3a9751830101910161346a565b99909536916131a0565b80606402606481048203612c99578015612c85578206612c36577ffa883b13d122b2daebf8ec828dabf0d08f850ca7cbd0b8c476dee04432526d4d94612b9a826117cc94612b8982151561359e565b612b95612a4785613891565b61372d565b916040518686823760208188810160108152030190208189526020526040882082895260205260408820612bcf8482546136b3565b905560405186868237602081888101600e8152030190208189526020526040882082895260205260408820612c058482546136b3565b905580885260136020526040882082895260205260408820612c288482546136b3565b9055604051958695866136c0565b60405162461bcd60e51b815260206004820152602160248201527f436f6c6c61746572616c206d757374206d61746368206f7074696f6e2073697a6044820152606560f81b6064820152608490fd5b634e487b7160e01b87526012600452602487fd5b634e487b7160e01b87526011600452602487fd5b999a999294919390927f49208de5811c6e2f3c327f2bd520168782da37f93c5d0e3f6d229d35f409b3a88103612e585750899a9994939291612a1e611fbf612d0184602080612d0b9751830101910161346a565b9d909936916131a0565b612d1685151561359e565b612d28612d228a613891565b156135ea565b604051888882376020818a8101600f81520301902085855260205260408420898552602052612d5c8560408620549761372d565b95808711612e50575b50823b15612e4c5787928492838993612d958a604051988997889687956326ef699d60e01b87526004870161374d565b03925af18015612e4157612e24575b5050907f31223af7266f1d4eae0f3aa00d6ec496bed49bd3a37eb6da8ee1558d5d1b7285946117cc9260405186868237602081888101600f8152030190208189526020526040882082895260205260408820612e018482546136a6565b905580885260126020526040882082895260205260408820612ada8482546136b3565b81612e3191949394613169565b612e3d57908538612da4565b8580fd5b6040513d84823e3d90fd5b8380fd5b955038612d65565b7f5fa1480e2cc29e88ad5fa36ce691f60448f819ccd9bb4d9843a4f8aebfa491269097939495969714612e94575b505050505050505050905080f35b612a0f9594939291612a1e612eb583602080612ec19651830101910161346a565b98909d859a36916131a0565b612ece6064820615613552565b612ed98a151561359e565b612ee5612d2286613891565b604051888882376020818a810160108152030190208a8a5260205260408920858a526020526040892054809111613030575b50612f22898661362b565b833b1561302c57928892838893612f518b97604051988997889687956326ef699d60e01b875260048701613654565b03925af18015611c9657612ff2575b5090612fe0917f31223af7266f1d4eae0f3aa00d6ec496bed49bd3a37eb6da8ee1558d5d1b728595966040518686823760208188810160108152030190208189526020526040882082895260205260408820612fbd8482546136a6565b905580885260146020526040882082895260205260408820612c288482546136b3565b0390a180388080808080808080612e86565b90856130237f31223af7266f1d4eae0f3aa00d6ec496bed49bd3a37eb6da8ee1558d5d1b728597612fe09594613169565b95509091612f60565b8880fd5b945038612f17565b60405162461bcd60e51b815260206004820152600e60248201526d125b9d985b1a5908185b5bdd5b9d60921b6044820152606490fd5b631403112d60e21b8852600488fd5b613096915060203d602011611c8f57611c818183613169565b38611f14565b6040513d8b823e3d90fd5b8480fd5b50346101fd57806003193601126101fd576040517f00000000000000000000000000000000000000000000000000000000000000006001600160a01b03168152602090f35b50346101fd576040602091613108836103be36613204565b8101600d815203019020908352845282822090825283522054604051908152f35b905034611ca557604060209261313e36613153565b908252600a8552828220908252845220548152f35b6040906003190112611544576004359060243590565b90601f801991011681019081106001600160401b0382111761318a57604052565b634e487b7160e01b600052604160045260246000fd5b9291926001600160401b03821161318a57604051916131c9601f8201601f191660200184613169565b829481845281830111611544578281602093846000960137010152565b9080601f8301121561154457816020613201933591016131a0565b90565b606060031982011261154457600435906001600160401b0382116115445761322e916004016131e6565b906024359060443590565b60005b83811061324c5750506000910152565b818101518382015260200161323c565b9181601f84011215611544578235916001600160401b038311611544576020838186019501011161154457565b60405190613298604083613169565b600c82526b1614941317dd195cdd1b995d60a21b6020830152565b90600182811c921680156132e3575b60208310146132cd57565b634e487b7160e01b600052602260045260246000fd5b91607f16916132c2565b600092918154916132fd836132b3565b8083529260018116908115613353575060011461331957505050565b60009081526020812093945091925b838310613339575060209250010190565b600181602092949394548385870101520191019190613328565b915050602093945060ff929192191683830152151560051b010190565b9060209161338981518092818552858086019101613239565b601f01601f1916010190565b90816020910312611544575180151581036115445790565b908060209392818452848401376000828201840152601f01601f1916010190565b156133d557565b60405162461bcd60e51b815260206004820152601460248201527324b73b30b634b21039b7bab931b29031b430b4b760611b6044820152606490fd5b91906040838203126115445782356001600160401b03811161154457816134399185016131e6565b926020810135906001600160401b03821161154457019080601f8301121561154457816020613201933591016131a0565b9190826040910312611544576020825192015190565b9190826080910312611544578151916020810151916060604083015192015190565b604051906134b1604083613169565b600382526205852560ec1b6020830152565b156134ca57565b60405162461bcd60e51b8152602060048201526014602482015273125b9d985b1a59081d1bdad95b881cde5b589bdb60621b6044820152606490fd5b1561350d57565b60405162461bcd60e51b815260206004820152601760248201527f416d6f756e74206d75737420626520706f7369746976650000000000000000006044820152606490fd5b1561355957565b60405162461bcd60e51b815260206004820152601e60248201527f416d6f756e74206d757374206265206d756c7469706c65206f662031303000006044820152606490fd5b156135a557565b60405162461bcd60e51b815260206004820152601d60248201527f537472696b65207072696365206d75737420626520706f7369746976650000006044820152606490fd5b156135f157565b60405162461bcd60e51b815260206004820152601260248201527113dc1d1a5bdb881b9bdd08195e1c1a5c995960721b6044820152606490fd5b8181029291811591840414171561363e57565b634e487b7160e01b600052601160045260246000fd5b95949392606093613674613682936136a19560808b5260808b01916133ad565b9188830360208a01526133ad565b858103604087015260409060038152621554d160ea1b60208201520190565b930152565b9190820391821161363e57565b9190820180921161363e57565b91936136dc60809497969260009660a0865260a08601916133ad565b966020840152604083015260608201520152565b91936136dc60809497969260019660a0865260a08601916133ad565b6040519061371b604083613169565b60038252621554d160ea1b6020830152565b8115613737570490565b634e487b7160e01b600052601260045260246000fd5b9594939260609361367461376c9360409560808b5260808b01916133ad565b85810382870152600381526205852560ec1b602082015201930152565b1561379057565b60405162461bcd60e51b815260206004820152601860248201527f457870697279206d75737420626520696e2066757475726500000000000000006044820152606490fd5b949160c096936137f7929a9998959a875260e0602088015260e08701916133ad565b9760408501526060840152608083015260a08201520152565b1561381757565b60405162461bcd60e51b815260206004820152601a60248201527f4e6f7420746865206f776e6572206f6620746865206f726465720000000000006044820152606490fd5b93979695929160a0959261387d92865260c0602087015260c08601916133ad565b966040840152606083015260808201520152565b62093a8081029080820462093a80149015171561363e57636598bd800180636598bd801161363e5742101590565b939290949695918315613b0f5764e8d4a50fff841015613abe576138e4881515613506565b6138f16064890615613552565b600754600019811461363e576001019586600755604051956101008701918783106001600160401b0384111761318a57613933926040526000885236916131a0565b976020860198895260408601948552606086019081526080860191825260a0860192835260c0860193845260e086019460008652876000526008602052604060002096518755600187019951998a516001600160401b03811161318a5761399a82546132b3565b601f8111613a76575b506020601f8211600114613a0657819060079a9b9c9d6000926139fb575b50508160011b916000199060031b1c19161790555b5160028801555160038701555160048601555160058501555160068401555191015590565b0151905038806139c1565b601f1982169c83600052816000209d60005b818110613a5957509160079b9c9d9e91846001959410613a40575b505050811b0190556139d6565b015160001960f88460031b161c19169055388080613a33565b919e8f60016020928684930151815501940192019e91929e613a18565b826000526020600020601f830160051c81019160208410613ab4575b601f0160051c01905b818110613aa857506139a3565b60008155600101613a9b565b9091508190613a92565b60405162461bcd60e51b8152602060048201526024808201527f5072696365206d757374206265206c657373207468616e2039393939393939396044820152633939393960e01b6064820152608490fd5b60405162461bcd60e51b81526020600482015260166024820152755072696365206d75737420626520706f73697469766560501b6044820152606490fd5b919496909295966000978060021b811590828104600414821715613d6557831115613bf85750507f00000000000000000000000000000000000000000000000000000000000000006001600160a01b031694915050833b15613bf4578694939291613bd08692604051988997889687956326ef699d60e01b87526004870161374d565b03925af18015612e4157613be2575050565b613bed828092613169565b6101fd5750565b8680fd5b600582979597029182046005141715613d51578160021b9180830460041490151715613d51571115613c8757613c2d9161362b565b7f00000000000000000000000000000000000000000000000000000000000000006001600160a01b03169290833b15613bf4578694939291613bd08692604051988997889687956326ef699d60e01b875260048701613654565b613c91908261362b565b7f00000000000000000000000000000000000000000000000000000000000000006001600160a01b0316939060011c843b15613d4d5787613cea91604051809381926326ef699d60e01b83528b8b8a8960048701613654565b038183895af18015613d4257613d2e575b50833b15613bf4578694939291613bd08692604051988997889687956326ef699d60e01b875260011c936004870161374d565b87613d3b91989298613169565b9538613cfb565b6040513d8a823e3d90fd5b8780fd5b634e487b7160e01b89526011600452602489fd5b634e487b7160e01b8b52601160045260248bfd5b6004810154600582015482546003949080613dd657506007840154926000526020526040600020906000526020526040600020555b600781015480613dbf575b50015490565b815490600052600860205260406000205538613db9565b925050506007820154906000526008602052600760406000200155613dae565b9392916136826136a191613e14606094608089526080890190613370565b9087820360208901526132ed56feea9106123cc0d210da684db01d20fafb021011609e14ea6f18b23d3e022ccfd25c94271e5ee00a75b2e77c147122685f5363dcff0ad7e2646647ed88b4d59b63b71c3d44367a680d2ae7ca2f89edc621c8f04ac8793f42c32ee16991ed08a496a2646970667358221220dc9a4b9d86d0ba2798b1ad46ae4a54498b220ab7e57c61f04f2f3f2131060df164736f6c634300081c0033",
  "linkReferences": {},
  "deployedLinkReferences": {}
}