{
  "_format": "hh-sol-artifact-1",
  "contractName": "TestGMSExecutableV2",
  "sourceName": "contracts/poc/TestGMSExecutableV2.sol",
  "abi": [
    {
      "inputs": [
        {
          "internalType": "address",
          "name": "gateway_",
          "type": "address"
        }
      ],
      "stateMutability": "nonpayable",
      "type": "constructor"
    },
    {
      "inputs": [],
      "name": "InvalidAddress",
      "type": "error"
    },
    {
      "inputs": [],
      "name": "NotApprovedByGateway",
      "type": "error"
    },
    {
      "anonymous": false,
      "inputs": [
        {
          "indexed": false,
          "internalType": "string",
          "name": "_sourceChain",
          "type": "string"
        },
        {
          "indexed": false,
          "internalType": "string",
          "name": "_sourceAddress",
          "type": "string"
        },
        {
          "indexed": false,
          "internalType": "string",
          "name": "_tokenSymbol",
          "type": "string"
        },
        {
          "indexed": false,
          "internalType": "uint256",
          "name": "_tokenAmount",
          "type": "uint256"
        }
      ],
      "name": "Executed",
      "type": "event"
    },
    {
      "anonymous": false,
      "inputs": [
        {
          "indexed": false,
          "internalType": "string",
          "name": "_sourceChain",
          "type": "string"
        },
        {
          "indexed": false,
          "internalType": "string",
          "name": "_sourceAddress",
          "type": "string"
        },
        {
          "indexed": false,
          "internalType": "string",
          "name": "message",
          "type": "string"
        }
      ],
      "name": "ExecutedWithToken",
      "type": "event"
    },
    {
      "inputs": [
        {
          "internalType": "bytes32",
          "name": "commandId",
          "type": "bytes32"
        },
        {
          "internalType": "string",
          "name": "sourceChain",
          "type": "string"
        },
        {
          "internalType": "string",
          "name": "sourceAddress",
          "type": "string"
        },
        {
          "internalType": "bytes",
          "name": "payload",
          "type": "bytes"
        }
      ],
      "name": "execute",
      "outputs": [],
      "stateMutability": "nonpayable",
      "type": "function"
    },
    {
      "inputs": [
        {
          "internalType": "bytes32",
          "name": "commandId",
          "type": "bytes32"
        },
        {
          "internalType": "string",
          "name": "sourceChain",
          "type": "string"
        },
        {
          "internalType": "string",
          "name": "sourceAddress",
          "type": "string"
        },
        {
          "internalType": "bytes",
          "name": "payload",
          "type": "bytes"
        },
        {
          "internalType": "string",
          "name": "tokenSymbol",
          "type": "string"
        },
        {
          "internalType": "uint256",
          "name": "amount",
          "type": "uint256"
        }
      ],
      "name": "executeWithToken",
      "outputs": [],
      "stateMutability": "nonpayable",
      "type": "function"
    },
    {
      "inputs": [],
      "name": "gateway",
      "outputs": [
        {
          "internalType": "contract IMyAxelarGateway",
          "name": "",
          "type": "address"
        }
      ],
      "stateMutability": "view",
      "type": "function"
    }
  ],
  "bytecode": "0x60a060405234801561001057600080fd5b506040516111a43803806111a483398181016040528101906100329190610139565b8080600073ffffffffffffffffffffffffffffffffffffffff168173ffffffffffffffffffffffffffffffffffffffff160361009a576040517fe6c4247b00000000000000000000000000000000000000000000000000000000815260040160405180910390fd5b8073ffffffffffffffffffffffffffffffffffffffff1660808173ffffffffffffffffffffffffffffffffffffffff1681525050505050610166565b600080fd5b600073ffffffffffffffffffffffffffffffffffffffff82169050919050565b6000610106826100db565b9050919050565b610116816100fb565b811461012157600080fd5b50565b6000815190506101338161010d565b92915050565b60006020828403121561014f5761014e6100d6565b5b600061015d84828501610124565b91505092915050565b60805161101d6101876000396000818160a001526102c4015261101d6000f3fe608060405234801561001057600080fd5b50600436106100415760003560e01c8063116191b6146100465780631a98b2e0146100645780634916065814610080575b600080fd5b61004e61009c565b60405161005b91906105e3565b60405180910390f35b61007e60048036038101906100799190610739565b6100c4565b005b61009a60048036038101906100959190610849565b6101c8565b005b60007f0000000000000000000000000000000000000000000000000000000000000000905090565b600085856040516100d6929190610951565b604051809103902090506100e86102c0565b73ffffffffffffffffffffffffffffffffffffffff16631876eed98c8c8c8c8c878b8b8b6040518a63ffffffff1660e01b8152600401610130999897969594939291906109d7565b6020604051808303816000875af115801561014f573d6000803e3d6000fd5b505050506040513d601f19601f820116820180604052508101906101739190610a8b565b6101a9576040517f500c44b400000000000000000000000000000000000000000000000000000000815260040160405180910390fd5b6101bb8b8b8b8b8b8b8b8b8b8b6102e8565b5050505050505050505050565b600082826040516101da929190610951565b604051809103902090506101ec61009c565b73ffffffffffffffffffffffffffffffffffffffff16635f6970c38989898989876040518763ffffffff1660e01b815260040161022e96959493929190610ab8565b6020604051808303816000875af115801561024d573d6000803e3d6000fd5b505050506040513d601f19601f820116820180604052508101906102719190610a8b565b6102a7576040517f500c44b400000000000000000000000000000000000000000000000000000000815260040160405180910390fd5b6102b68888888888888861041d565b5050505050505050565b60007f0000000000000000000000000000000000000000000000000000000000000000905090565b600085858101906102f99190610c30565b9050600a8211156103d25761030c61009c565b73ffffffffffffffffffffffffffffffffffffffff166326ef699d8b8b8b8b898960018a61033a9190610ca8565b6040518863ffffffff1660e01b815260040161035c9796959493929190610cdc565b600060405180830381600087803b15801561037657600080fd5b505af115801561038a573d6000803e3d6000fd5b505050507feba040c739814a8e6cfff17fdc8990e3f7fe837ad1c68c7d8e98cdbd4a61cff28a8a8a8a856040516103c5959493929190610daa565b60405180910390a1610410565b7feba040c739814a8e6cfff17fdc8990e3f7fe837ad1c68c7d8e98cdbd4a61cff28a8a8a8a6040516104079493929190610e46565b60405180910390a15b5050505050505050505050565b600080838381019061042f9190610e94565b9150915060018111156105165761044461009c565b73ffffffffffffffffffffffffffffffffffffffff166326ef699d89898989876001886104719190610ca8565b6040518763ffffffff1660e01b815260040161049296959493929190610ef0565b600060405180830381600087803b1580156104ac57600080fd5b505af11580156104c0573d6000803e3d6000fd5b505050507fa8782926d367caccc6cfa4e064afd89e2663c5b33225647b485137a4f19a24d188888888866001876104f79190610ca8565b60405161050996959493929190610ef0565b60405180910390a1610559565b7fa8782926d367caccc6cfa4e064afd89e2663c5b33225647b485137a4f19a24d18888888886600060405161055096959493929190610f89565b60405180910390a15b505050505050505050565b600073ffffffffffffffffffffffffffffffffffffffff82169050919050565b6000819050919050565b60006105a96105a461059f84610564565b610584565b610564565b9050919050565b60006105bb8261058e565b9050919050565b60006105cd826105b0565b9050919050565b6105dd816105c2565b82525050565b60006020820190506105f860008301846105d4565b92915050565b6000604051905090565b600080fd5b600080fd5b6000819050919050565b61062581610612565b811461063057600080fd5b50565b6000813590506106428161061c565b92915050565b600080fd5b600080fd5b600080fd5b60008083601f84011261066d5761066c610648565b5b8235905067ffffffffffffffff81111561068a5761068961064d565b5b6020830191508360018202830111156106a6576106a5610652565b5b9250929050565b60008083601f8401126106c3576106c2610648565b5b8235905067ffffffffffffffff8111156106e0576106df61064d565b5b6020830191508360018202830111156106fc576106fb610652565b5b9250929050565b6000819050919050565b61071681610703565b811461072157600080fd5b50565b6000813590506107338161070d565b92915050565b60008060008060008060008060008060c08b8d03121561075c5761075b610608565b5b600061076a8d828e01610633565b9a505060208b013567ffffffffffffffff81111561078b5761078a61060d565b5b6107978d828e01610657565b995099505060408b013567ffffffffffffffff8111156107ba576107b961060d565b5b6107c68d828e01610657565b975097505060608b013567ffffffffffffffff8111156107e9576107e861060d565b5b6107f58d828e016106ad565b955095505060808b013567ffffffffffffffff8111156108185761081761060d565b5b6108248d828e01610657565b935093505060a06108378d828e01610724565b9150509295989b9194979a5092959850565b60008060008060008060006080888a03121561086857610867610608565b5b60006108768a828b01610633565b975050602088013567ffffffffffffffff8111156108975761089661060d565b5b6108a38a828b01610657565b9650965050604088013567ffffffffffffffff8111156108c6576108c561060d565b5b6108d28a828b01610657565b9450945050606088013567ffffffffffffffff8111156108f5576108f461060d565b5b6109018a828b016106ad565b925092505092959891949750929550565b600081905092915050565b82818337600083830152505050565b60006109388385610912565b935061094583858461091d565b82840190509392505050565b600061095e82848661092c565b91508190509392505050565b61097381610612565b82525050565b600082825260208201905092915050565b6000601f19601f8301169050919050565b60006109a78385610979565b93506109b483858461091d565b6109bd8361098a565b840190509392505050565b6109d181610703565b82525050565b600060c0820190506109ec600083018c61096a565b81810360208301526109ff818a8c61099b565b90508181036040830152610a1481888a61099b565b9050610a23606083018761096a565b8181036080830152610a3681858761099b565b9050610a4560a08301846109c8565b9a9950505050505050505050565b60008115159050919050565b610a6881610a53565b8114610a7357600080fd5b50565b600081519050610a8581610a5f565b92915050565b600060208284031215610aa157610aa0610608565b5b6000610aaf84828501610a76565b91505092915050565b6000608082019050610acd600083018961096a565b8181036020830152610ae081878961099b565b90508181036040830152610af581858761099b565b9050610b04606083018461096a565b979650505050505050565b600080fd5b7f4e487b7100000000000000000000000000000000000000000000000000000000600052604160045260246000fd5b610b4c8261098a565b810181811067ffffffffffffffff82111715610b6b57610b6a610b14565b5b80604052505050565b6000610b7e6105fe565b9050610b8a8282610b43565b919050565b600067ffffffffffffffff821115610baa57610ba9610b14565b5b610bb38261098a565b9050602081019050919050565b6000610bd3610bce84610b8f565b610b74565b905082815260208101848484011115610bef57610bee610b0f565b5b610bfa84828561091d565b509392505050565b600082601f830112610c1757610c16610648565b5b8135610c27848260208601610bc0565b91505092915050565b600060208284031215610c4657610c45610608565b5b600082013567ffffffffffffffff811115610c6457610c6361060d565b5b610c7084828501610c02565b91505092915050565b7f4e487b7100000000000000000000000000000000000000000000000000000000600052601160045260246000fd5b6000610cb382610703565b9150610cbe83610703565b9250828203905081811115610cd657610cd5610c79565b5b92915050565b60006080820190508181036000830152610cf781898b61099b565b90508181036020830152610d0c81878961099b565b90508181036040830152610d2181858761099b565b9050610d3060608301846109c8565b98975050505050505050565b600081519050919050565b60005b83811015610d65578082015181840152602081019050610d4a565b60008484015250505050565b6000610d7c82610d3c565b610d868185610979565b9350610d96818560208601610d47565b610d9f8161098a565b840191505092915050565b60006060820190508181036000830152610dc581878961099b565b90508181036020830152610dda81858761099b565b90508181036040830152610dee8184610d71565b90509695505050505050565b7f616d6f756e74206c657373207468616e20313000000000000000000000000000600082015250565b6000610e30601383610979565b9150610e3b82610dfa565b602082019050919050565b60006060820190508181036000830152610e6181868861099b565b90508181036020830152610e7681848661099b565b90508181036040830152610e8981610e23565b905095945050505050565b60008060408385031215610eab57610eaa610608565b5b600083013567ffffffffffffffff811115610ec957610ec861060d565b5b610ed585828601610c02565b9250506020610ee685828601610724565b9150509250929050565b60006080820190508181036000830152610f0b81888a61099b565b90508181036020830152610f2081868861099b565b90508181036040830152610f348185610d71565b9050610f4360608301846109c8565b979650505050505050565b6000819050919050565b6000610f73610f6e610f6984610f4e565b610584565b610703565b9050919050565b610f8381610f58565b82525050565b60006080820190508181036000830152610fa481888a61099b565b90508181036020830152610fb981868861099b565b90508181036040830152610fcd8185610d71565b9050610fdc6060830184610f7a565b97965050505050505056fea2646970667358221220ab1d65f771d7a42087172dae2f113eb79dc37699f84178816705ad8bf380e95364736f6c634300081c0033",
  "linkReferences": {},
  "deployedLinkReferences": {}
}