{
  "_format": "hh-sol-artifact-1",
  "contractName": "TestGMSExecutableV3",
  "sourceName": "contracts/poc/TestGMSExecutableV2.sol",
  "abi": [
    {
      "inputs": [
        {
          "internalType": "address",
          "name": "gateway_",
          "type": "address"
        }
      ],
      "stateMutability": "nonpayable",
      "type": "constructor"
    },
    {
      "inputs": [
        {
          "internalType": "uint256",
          "name": "amount",
          "type": "uint256"
        }
      ],
      "name": "AmountCheckFailed",
      "type": "error"
    },
    {
      "inputs": [
        {
          "internalType": "string",
          "name": "reason",
          "type": "string"
        }
      ],
      "name": "DecodingError",
      "type": "error"
    },
    {
      "inputs": [],
      "name": "InvalidAddress",
      "type": "error"
    },
    {
      "inputs": [],
      "name": "NotApprovedByGateway",
      "type": "error"
    },
    {
      "inputs": [
        {
          "internalType": "string",
          "name": "reason",
          "type": "string"
        }
      ],
      "name": "SendTokenFailed",
      "type": "error"
    },
    {
      "anonymous": false,
      "inputs": [
        {
          "indexed": false,
          "internalType": "string",
          "name": "_sourceChain",
          "type": "string"
        },
        {
          "indexed": false,
          "internalType": "string",
          "name": "_sourceAddress",
          "type": "string"
        },
        {
          "indexed": false,
          "internalType": "string",
          "name": "message",
          "type": "string"
        }
      ],
      "name": "Executed",
      "type": "event"
    },
    {
      "anonymous": false,
      "inputs": [
        {
          "indexed": false,
          "internalType": "string",
          "name": "_sourceChain",
          "type": "string"
        },
        {
          "indexed": false,
          "internalType": "string",
          "name": "_sourceAddress",
          "type": "string"
        },
        {
          "indexed": false,
          "internalType": "string",
          "name": "message",
          "type": "string"
        }
      ],
      "name": "ExecutedWithToken",
      "type": "event"
    },
    {
      "anonymous": false,
      "inputs": [
        {
          "indexed": false,
          "internalType": "string",
          "name": "_sourceChain",
          "type": "string"
        },
        {
          "indexed": false,
          "internalType": "string",
          "name": "_sourceAddress",
          "type": "string"
        },
        {
          "indexed": false,
          "internalType": "string",
          "name": "reason",
          "type": "string"
        }
      ],
      "name": "ExecutionFailed",
      "type": "event"
    },
    {
      "anonymous": false,
      "inputs": [
        {
          "indexed": false,
          "internalType": "string",
          "name": "_sourceChain",
          "type": "string"
        },
        {
          "indexed": false,
          "internalType": "string",
          "name": "_sourceAddress",
          "type": "string"
        },
        {
          "indexed": false,
          "internalType": "string",
          "name": "reason",
          "type": "string"
        }
      ],
      "name": "ExecutionWithTokenFailed",
      "type": "event"
    },
    {
      "inputs": [
        {
          "internalType": "bytes32",
          "name": "commandId",
          "type": "bytes32"
        },
        {
          "internalType": "string",
          "name": "sourceChain",
          "type": "string"
        },
        {
          "internalType": "string",
          "name": "sourceAddress",
          "type": "string"
        },
        {
          "internalType": "bytes",
          "name": "payload",
          "type": "bytes"
        }
      ],
      "name": "execute",
      "outputs": [],
      "stateMutability": "nonpayable",
      "type": "function"
    },
    {
      "inputs": [
        {
          "internalType": "bytes32",
          "name": "commandId",
          "type": "bytes32"
        },
        {
          "internalType": "string",
          "name": "sourceChain",
          "type": "string"
        },
        {
          "internalType": "string",
          "name": "sourceAddress",
          "type": "string"
        },
        {
          "internalType": "bytes",
          "name": "payload",
          "type": "bytes"
        },
        {
          "internalType": "string",
          "name": "tokenSymbol",
          "type": "string"
        },
        {
          "internalType": "uint256",
          "name": "amount",
          "type": "uint256"
        }
      ],
      "name": "executeWithToken",
      "outputs": [],
      "stateMutability": "nonpayable",
      "type": "function"
    },
    {
      "inputs": [],
      "name": "gateway",
      "outputs": [
        {
          "internalType": "contract IMyAxelarGateway",
          "name": "",
          "type": "address"
        }
      ],
      "stateMutability": "view",
      "type": "function"
    }
  ],
  "bytecode": "0x60a060405234801561001057600080fd5b506040516110c73803806110c783398181016040528101906100329190610139565b8080600073ffffffffffffffffffffffffffffffffffffffff168173ffffffffffffffffffffffffffffffffffffffff160361009a576040517fe6c4247b00000000000000000000000000000000000000000000000000000000815260040160405180910390fd5b8073ffffffffffffffffffffffffffffffffffffffff1660808173ffffffffffffffffffffffffffffffffffffffff1681525050505050610166565b600080fd5b600073ffffffffffffffffffffffffffffffffffffffff82169050919050565b6000610106826100db565b9050919050565b610116816100fb565b811461012157600080fd5b50565b6000815190506101338161010d565b92915050565b60006020828403121561014f5761014e6100d6565b5b600061015d84828501610124565b91505092915050565b608051610f406101876000396000818160a001526102c40152610f406000f3fe608060405234801561001057600080fd5b50600436106100415760003560e01c8063116191b6146100465780631a98b2e0146100645780634916065814610080575b600080fd5b61004e61009c565b60405161005b919061059f565b60405180910390f35b61007e600480360381019061007991906106f5565b6100c4565b005b61009a60048036038101906100959190610805565b6101c8565b005b60007f0000000000000000000000000000000000000000000000000000000000000000905090565b600085856040516100d692919061090d565b604051809103902090506100e86102c0565b73ffffffffffffffffffffffffffffffffffffffff16631876eed98c8c8c8c8c878b8b8b6040518a63ffffffff1660e01b815260040161013099989796959493929190610993565b6020604051808303816000875af115801561014f573d6000803e3d6000fd5b505050506040513d601f19601f820116820180604052508101906101739190610a47565b6101a9576040517f500c44b400000000000000000000000000000000000000000000000000000000815260040160405180910390fd5b6101bb8b8b8b8b8b8b8b8b8b8b6102e8565b5050505050505050505050565b600082826040516101da92919061090d565b604051809103902090506101ec61009c565b73ffffffffffffffffffffffffffffffffffffffff16635f6970c38989898989876040518763ffffffff1660e01b815260040161022e96959493929190610a74565b6020604051808303816000875af115801561024d573d6000803e3d6000fd5b505050506040513d601f19601f820116820180604052508101906102719190610a47565b6102a7576040517f500c44b400000000000000000000000000000000000000000000000000000000815260040160405180910390fd5b6102b6888888888888886104c4565b5050505050505050565b60007f0000000000000000000000000000000000000000000000000000000000000000905090565b600085858101906102f99190610bec565b9050600a8211156104795761030c61009c565b73ffffffffffffffffffffffffffffffffffffffff166326ef699d8b8b8b8b898960018a61033a9190610c64565b6040518863ffffffff1660e01b815260040161035c9796959493929190610c98565b600060405180830381600087803b15801561037657600080fd5b505af1925050508015610387575060015b610435573d80600081146103b7576040519150601f19603f3d011682016040523d82523d6000602084013e6103bc565b606091505b507fb15e16bed327adcc9a1405c6eee29d59f160afceb668bc364fcb7f9984e56d998b8b8b8b6040516103f29493929190610d44565b60405180910390a16040517fefc89e0600000000000000000000000000000000000000000000000000000000815260040161042c90610d92565b60405180910390fd5b7feba040c739814a8e6cfff17fdc8990e3f7fe837ad1c68c7d8e98cdbd4a61cff28a8a8a8a8560405161046c959493929190610e20565b60405180910390a16104b7565b7feba040c739814a8e6cfff17fdc8990e3f7fe837ad1c68c7d8e98cdbd4a61cff28a8a8a8a6040516104ae9493929190610ebc565b60405180910390a15b5050505050505050505050565b600082828101906104d59190610bec565b90507fa37ee88193b81a869cdfee8a1a42a0398ffaf485a149cb7ae120530cd9775c95878787878560405161050e959493929190610e20565b60405180910390a15050505050505050565b600073ffffffffffffffffffffffffffffffffffffffff82169050919050565b6000819050919050565b600061056561056061055b84610520565b610540565b610520565b9050919050565b60006105778261054a565b9050919050565b60006105898261056c565b9050919050565b6105998161057e565b82525050565b60006020820190506105b46000830184610590565b92915050565b6000604051905090565b600080fd5b600080fd5b6000819050919050565b6105e1816105ce565b81146105ec57600080fd5b50565b6000813590506105fe816105d8565b92915050565b600080fd5b600080fd5b600080fd5b60008083601f84011261062957610628610604565b5b8235905067ffffffffffffffff81111561064657610645610609565b5b6020830191508360018202830111156106625761066161060e565b5b9250929050565b60008083601f84011261067f5761067e610604565b5b8235905067ffffffffffffffff81111561069c5761069b610609565b5b6020830191508360018202830111156106b8576106b761060e565b5b9250929050565b6000819050919050565b6106d2816106bf565b81146106dd57600080fd5b50565b6000813590506106ef816106c9565b92915050565b60008060008060008060008060008060c08b8d031215610718576107176105c4565b5b60006107268d828e016105ef565b9a505060208b013567ffffffffffffffff811115610747576107466105c9565b5b6107538d828e01610613565b995099505060408b013567ffffffffffffffff811115610776576107756105c9565b5b6107828d828e01610613565b975097505060608b013567ffffffffffffffff8111156107a5576107a46105c9565b5b6107b18d828e01610669565b955095505060808b013567ffffffffffffffff8111156107d4576107d36105c9565b5b6107e08d828e01610613565b935093505060a06107f38d828e016106e0565b9150509295989b9194979a5092959850565b60008060008060008060006080888a031215610824576108236105c4565b5b60006108328a828b016105ef565b975050602088013567ffffffffffffffff811115610853576108526105c9565b5b61085f8a828b01610613565b9650965050604088013567ffffffffffffffff811115610882576108816105c9565b5b61088e8a828b01610613565b9450945050606088013567ffffffffffffffff8111156108b1576108b06105c9565b5b6108bd8a828b01610669565b925092505092959891949750929550565b600081905092915050565b82818337600083830152505050565b60006108f483856108ce565b93506109018385846108d9565b82840190509392505050565b600061091a8284866108e8565b91508190509392505050565b61092f816105ce565b82525050565b600082825260208201905092915050565b6000601f19601f8301169050919050565b60006109638385610935565b93506109708385846108d9565b61097983610946565b840190509392505050565b61098d816106bf565b82525050565b600060c0820190506109a8600083018c610926565b81810360208301526109bb818a8c610957565b905081810360408301526109d081888a610957565b90506109df6060830187610926565b81810360808301526109f2818587610957565b9050610a0160a0830184610984565b9a9950505050505050505050565b60008115159050919050565b610a2481610a0f565b8114610a2f57600080fd5b50565b600081519050610a4181610a1b565b92915050565b600060208284031215610a5d57610a5c6105c4565b5b6000610a6b84828501610a32565b91505092915050565b6000608082019050610a896000830189610926565b8181036020830152610a9c818789610957565b90508181036040830152610ab1818587610957565b9050610ac06060830184610926565b979650505050505050565b600080fd5b7f4e487b7100000000000000000000000000000000000000000000000000000000600052604160045260246000fd5b610b0882610946565b810181811067ffffffffffffffff82111715610b2757610b26610ad0565b5b80604052505050565b6000610b3a6105ba565b9050610b468282610aff565b919050565b600067ffffffffffffffff821115610b6657610b65610ad0565b5b610b6f82610946565b9050602081019050919050565b6000610b8f610b8a84610b4b565b610b30565b905082815260208101848484011115610bab57610baa610acb565b5b610bb68482856108d9565b509392505050565b600082601f830112610bd357610bd2610604565b5b8135610be3848260208601610b7c565b91505092915050565b600060208284031215610c0257610c016105c4565b5b600082013567ffffffffffffffff811115610c2057610c1f6105c9565b5b610c2c84828501610bbe565b91505092915050565b7f4e487b7100000000000000000000000000000000000000000000000000000000600052601160045260246000fd5b6000610c6f826106bf565b9150610c7a836106bf565b9250828203905081811115610c9257610c91610c35565b5b92915050565b60006080820190508181036000830152610cb381898b610957565b90508181036020830152610cc8818789610957565b90508181036040830152610cdd818587610957565b9050610cec6060830184610984565b98975050505050505050565b7f4661696c656420746f2073656e6420746f6b656e000000000000000000000000600082015250565b6000610d2e601483610935565b9150610d3982610cf8565b602082019050919050565b60006060820190508181036000830152610d5f818688610957565b90508181036020830152610d74818486610957565b90508181036040830152610d8781610d21565b905095945050505050565b60006020820190508181036000830152610dab81610d21565b9050919050565b600081519050919050565b60005b83811015610ddb578082015181840152602081019050610dc0565b60008484015250505050565b6000610df282610db2565b610dfc8185610935565b9350610e0c818560208601610dbd565b610e1581610946565b840191505092915050565b60006060820190508181036000830152610e3b818789610957565b90508181036020830152610e50818587610957565b90508181036040830152610e648184610de7565b90509695505050505050565b7f616d6f756e74206c657373207468616e20313000000000000000000000000000600082015250565b6000610ea6601383610935565b9150610eb182610e70565b602082019050919050565b60006060820190508181036000830152610ed7818688610957565b90508181036020830152610eec818486610957565b90508181036040830152610eff81610e99565b90509594505050505056fea26469706673582212203ff84bee64ac40aeaf47f350c33f8b53e732c47e0217da46f9a9834d48ff905d64736f6c634300081c0033",
  "linkReferences": {},
  "deployedLinkReferences": {}
}