{
  "_format": "hh-sol-artifact-1",
  "contractName": "XrpLendingP2PV5",
  "sourceName": "contracts/p2p/XrpLendingP2P.sol",
  "abi": [
    {
      "inputs": [
        {
          "internalType": "address",
          "name": "gateway_",
          "type": "address"
        },
        {
          "internalType": "address",
          "name": "priceOracle_",
          "type": "address"
        }
      ],
      "stateMutability": "nonpayable",
      "type": "constructor"
    },
    {
      "inputs": [],
      "name": "InvalidAddress",
      "type": "error"
    },
    {
      "inputs": [],
      "name": "NotApprovedByGateway",
      "type": "error"
    },
    {
      "anonymous": false,
      "inputs": [
        {
          "indexed": false,
          "internalType": "string",
          "name": "eventName",
          "type": "string"
        },
        {
          "indexed": false,
          "internalType": "uint256",
          "name": "requestId",
          "type": "uint256"
        },
        {
          "indexed": false,
          "internalType": "string",
          "name": "borrower",
          "type": "string"
        },
        {
          "indexed": false,
          "internalType": "uint256",
          "name": "amountToBorrowUSD",
          "type": "uint256"
        },
        {
          "indexed": false,
          "internalType": "uint256",
          "name": "amountBorrowedUSD",
          "type": "uint256"
        },
        {
          "indexed": false,
          "internalType": "uint256",
          "name": "initialCollateralAmountXRP",
          "type": "uint256"
        },
        {
          "indexed": false,
          "internalType": "uint256",
          "name": "existingCollateralAmountXRP",
          "type": "uint256"
        },
        {
          "indexed": false,
          "internalType": "uint256",
          "name": "maxCollateralRatio",
          "type": "uint256"
        },
        {
          "indexed": false,
          "internalType": "uint256",
          "name": "liquidationThreshold",
          "type": "uint256"
        },
        {
          "indexed": false,
          "internalType": "uint256",
          "name": "desiredInterestRate",
          "type": "uint256"
        },
        {
          "indexed": false,
          "internalType": "uint256",
          "name": "paymentDuration",
          "type": "uint256"
        },
        {
          "indexed": false,
          "internalType": "uint256",
          "name": "minimalPartialFill",
          "type": "uint256"
        },
        {
          "indexed": false,
          "internalType": "bool",
          "name": "canceled",
          "type": "bool"
        },
        {
          "indexed": false,
          "internalType": "bool",
          "name": "autoCanceled",
          "type": "bool"
        }
      ],
      "name": "BorrowingRequestEvent",
      "type": "event"
    },
    {
      "anonymous": false,
      "inputs": [
        {
          "indexed": false,
          "internalType": "string",
          "name": "eventName",
          "type": "string"
        },
        {
          "indexed": false,
          "internalType": "uint256",
          "name": "requestId",
          "type": "uint256"
        },
        {
          "indexed": false,
          "internalType": "string",
          "name": "lender",
          "type": "string"
        },
        {
          "indexed": false,
          "internalType": "uint256",
          "name": "amountToLendUSD",
          "type": "uint256"
        },
        {
          "indexed": false,
          "internalType": "uint256",
          "name": "amountLendedUSD",
          "type": "uint256"
        },
        {
          "indexed": false,
          "internalType": "uint256",
          "name": "minCollateralRatio",
          "type": "uint256"
        },
        {
          "indexed": false,
          "internalType": "uint256",
          "name": "liquidationThreshold",
          "type": "uint256"
        },
        {
          "indexed": false,
          "internalType": "uint256",
          "name": "desiredInterestRate",
          "type": "uint256"
        },
        {
          "indexed": false,
          "internalType": "uint256",
          "name": "paymentDuration",
          "type": "uint256"
        },
        {
          "indexed": false,
          "internalType": "uint256",
          "name": "minimalPartialFill",
          "type": "uint256"
        },
        {
          "indexed": false,
          "internalType": "bool",
          "name": "canceled",
          "type": "bool"
        },
        {
          "indexed": false,
          "internalType": "bool",
          "name": "autoCanceled",
          "type": "bool"
        }
      ],
      "name": "LendingRequestEvent",
      "type": "event"
    },
    {
      "anonymous": false,
      "inputs": [
        {
          "indexed": false,
          "internalType": "string",
          "name": "eventName",
          "type": "string"
        },
        {
          "indexed": false,
          "internalType": "uint256",
          "name": "amount1",
          "type": "uint256"
        },
        {
          "indexed": false,
          "internalType": "uint256",
          "name": "loanId",
          "type": "uint256"
        },
        {
          "indexed": false,
          "internalType": "string",
          "name": "lender",
          "type": "string"
        },
        {
          "indexed": false,
          "internalType": "string",
          "name": "borrower",
          "type": "string"
        },
        {
          "indexed": false,
          "internalType": "uint256",
          "name": "amountBorrowedUSD",
          "type": "uint256"
        },
        {
          "indexed": false,
          "internalType": "uint256",
          "name": "amountPayableToLender",
          "type": "uint256"
        },
        {
          "indexed": false,
          "internalType": "uint256",
          "name": "amountPayableToPlatform",
          "type": "uint256"
        },
        {
          "indexed": false,
          "internalType": "uint256",
          "name": "amountPaidUSD",
          "type": "uint256"
        },
        {
          "indexed": false,
          "internalType": "uint256",
          "name": "collateralAmountXRP",
          "type": "uint256"
        },
        {
          "indexed": false,
          "internalType": "uint256",
          "name": "repayBy",
          "type": "uint256"
        },
        {
          "indexed": false,
          "internalType": "uint256",
          "name": "liquidationThreshold",
          "type": "uint256"
        },
        {
          "indexed": false,
          "internalType": "bool",
          "name": "isLiquidated",
          "type": "bool"
        }
      ],
      "name": "LoanEvent",
      "type": "event"
    },
    {
      "anonymous": false,
      "inputs": [
        {
          "indexed": false,
          "internalType": "uint256",
          "name": "newPrice",
          "type": "uint256"
        }
      ],
      "name": "PriceUpdated",
      "type": "event"
    },
    {
      "inputs": [],
      "name": "PLATFORM_FEE_PERCENT",
      "outputs": [
        {
          "internalType": "uint256",
          "name": "",
          "type": "uint256"
        }
      ],
      "stateMutability": "view",
      "type": "function"
    },
    {
      "inputs": [],
      "name": "SELECTOR_ACCEPT_BORROWING_REQUEST",
      "outputs": [
        {
          "internalType": "bytes32",
          "name": "",
          "type": "bytes32"
        }
      ],
      "stateMutability": "view",
      "type": "function"
    },
    {
      "inputs": [],
      "name": "SELECTOR_ACCEPT_LENDING_REQUEST",
      "outputs": [
        {
          "internalType": "bytes32",
          "name": "",
          "type": "bytes32"
        }
      ],
      "stateMutability": "view",
      "type": "function"
    },
    {
      "inputs": [],
      "name": "SELECTOR_BORROWING_REQUEST",
      "outputs": [
        {
          "internalType": "bytes32",
          "name": "",
          "type": "bytes32"
        }
      ],
      "stateMutability": "view",
      "type": "function"
    },
    {
      "inputs": [],
      "name": "SELECTOR_CANCEL_BORROWING_REQUEST",
      "outputs": [
        {
          "internalType": "bytes32",
          "name": "",
          "type": "bytes32"
        }
      ],
      "stateMutability": "view",
      "type": "function"
    },
    {
      "inputs": [],
      "name": "SELECTOR_CANCEL_LENDING_REQUEST",
      "outputs": [
        {
          "internalType": "bytes32",
          "name": "",
          "type": "bytes32"
        }
      ],
      "stateMutability": "view",
      "type": "function"
    },
    {
      "inputs": [],
      "name": "SELECTOR_LENDING_REQUEST",
      "outputs": [
        {
          "internalType": "bytes32",
          "name": "",
          "type": "bytes32"
        }
      ],
      "stateMutability": "view",
      "type": "function"
    },
    {
      "inputs": [],
      "name": "SELECTOR_LIQUIDATE_LOAN",
      "outputs": [
        {
          "internalType": "bytes32",
          "name": "",
          "type": "bytes32"
        }
      ],
      "stateMutability": "view",
      "type": "function"
    },
    {
      "inputs": [],
      "name": "SELECTOR_REPAY_LOAN",
      "outputs": [
        {
          "internalType": "bytes32",
          "name": "",
          "type": "bytes32"
        }
      ],
      "stateMutability": "view",
      "type": "function"
    },
    {
      "inputs": [],
      "name": "SUPPORTED_SOURCE_CHAIN_HASH",
      "outputs": [
        {
          "internalType": "bytes32",
          "name": "",
          "type": "bytes32"
        }
      ],
      "stateMutability": "view",
      "type": "function"
    },
    {
      "inputs": [],
      "name": "borrowingRequestCounter",
      "outputs": [
        {
          "internalType": "uint256",
          "name": "",
          "type": "uint256"
        }
      ],
      "stateMutability": "view",
      "type": "function"
    },
    {
      "inputs": [
        {
          "internalType": "uint256",
          "name": "",
          "type": "uint256"
        }
      ],
      "name": "borrowingRequests",
      "outputs": [
        {
          "internalType": "string",
          "name": "borrower",
          "type": "string"
        },
        {
          "internalType": "uint256",
          "name": "amountToBorrowUSD",
          "type": "uint256"
        },
        {
          "internalType": "uint256",
          "name": "amountBorrowedUSD",
          "type": "uint256"
        },
        {
          "internalType": "uint256",
          "name": "initialCollateralAmountXRP",
          "type": "uint256"
        },
        {
          "internalType": "uint256",
          "name": "existingCollateralAmountXRP",
          "type": "uint256"
        },
        {
          "internalType": "uint256",
          "name": "maxCollateralRatio",
          "type": "uint256"
        },
        {
          "internalType": "uint256",
          "name": "liquidationThreshold",
          "type": "uint256"
        },
        {
          "internalType": "uint256",
          "name": "desiredInterestRate",
          "type": "uint256"
        },
        {
          "internalType": "uint256",
          "name": "paymentDuration",
          "type": "uint256"
        },
        {
          "internalType": "uint256",
          "name": "minimalPartialFill",
          "type": "uint256"
        },
        {
          "internalType": "bool",
          "name": "canceled",
          "type": "bool"
        },
        {
          "internalType": "bool",
          "name": "autoCanceled",
          "type": "bool"
        }
      ],
      "stateMutability": "view",
      "type": "function"
    },
    {
      "inputs": [],
      "name": "currentXRPPriceUSD",
      "outputs": [
        {
          "internalType": "uint256",
          "name": "",
          "type": "uint256"
        }
      ],
      "stateMutability": "view",
      "type": "function"
    },
    {
      "inputs": [
        {
          "internalType": "bytes32",
          "name": "commandId",
          "type": "bytes32"
        },
        {
          "internalType": "string",
          "name": "sourceChain",
          "type": "string"
        },
        {
          "internalType": "string",
          "name": "sourceAddress",
          "type": "string"
        },
        {
          "internalType": "bytes",
          "name": "payload",
          "type": "bytes"
        }
      ],
      "name": "execute",
      "outputs": [],
      "stateMutability": "nonpayable",
      "type": "function"
    },
    {
      "inputs": [
        {
          "internalType": "bytes32",
          "name": "commandId",
          "type": "bytes32"
        },
        {
          "internalType": "string",
          "name": "sourceChain",
          "type": "string"
        },
        {
          "internalType": "string",
          "name": "sourceAddress",
          "type": "string"
        },
        {
          "internalType": "bytes",
          "name": "payload",
          "type": "bytes"
        },
        {
          "internalType": "string",
          "name": "tokenSymbol",
          "type": "string"
        },
        {
          "internalType": "uint256",
          "name": "amount",
          "type": "uint256"
        }
      ],
      "name": "executeWithToken",
      "outputs": [],
      "stateMutability": "nonpayable",
      "type": "function"
    },
    {
      "inputs": [],
      "name": "gateway",
      "outputs": [
        {
          "internalType": "contract IMyAxelarGateway",
          "name": "",
          "type": "address"
        }
      ],
      "stateMutability": "view",
      "type": "function"
    },
    {
      "inputs": [
        {
          "internalType": "uint256",
          "name": "_requestId",
          "type": "uint256"
        }
      ],
      "name": "getBorrowingRequest",
      "outputs": [
        {
          "components": [
            {
              "internalType": "string",
              "name": "borrower",
              "type": "string"
            },
            {
              "internalType": "uint256",
              "name": "amountToBorrowUSD",
              "type": "uint256"
            },
            {
              "internalType": "uint256",
              "name": "amountBorrowedUSD",
              "type": "uint256"
            },
            {
              "internalType": "uint256",
              "name": "initialCollateralAmountXRP",
              "type": "uint256"
            },
            {
              "internalType": "uint256",
              "name": "existingCollateralAmountXRP",
              "type": "uint256"
            },
            {
              "internalType": "uint256",
              "name": "maxCollateralRatio",
              "type": "uint256"
            },
            {
              "internalType": "uint256",
              "name": "liquidationThreshold",
              "type": "uint256"
            },
            {
              "internalType": "uint256",
              "name": "desiredInterestRate",
              "type": "uint256"
            },
            {
              "internalType": "uint256",
              "name": "paymentDuration",
              "type": "uint256"
            },
            {
              "internalType": "uint256",
              "name": "minimalPartialFill",
              "type": "uint256"
            },
            {
              "internalType": "bool",
              "name": "canceled",
              "type": "bool"
            },
            {
              "internalType": "bool",
              "name": "autoCanceled",
              "type": "bool"
            }
          ],
          "internalType": "struct XrpLendingP2PV5.BorrowingRequest",
          "name": "",
          "type": "tuple"
        }
      ],
      "stateMutability": "view",
      "type": "function"
    },
    {
      "inputs": [],
      "name": "getCurrentPrice",
      "outputs": [
        {
          "internalType": "uint256",
          "name": "",
          "type": "uint256"
        }
      ],
      "stateMutability": "view",
      "type": "function"
    },
    {
      "inputs": [
        {
          "internalType": "uint256",
          "name": "_requestId",
          "type": "uint256"
        }
      ],
      "name": "getLendingRequest",
      "outputs": [
        {
          "components": [
            {
              "internalType": "string",
              "name": "lender",
              "type": "string"
            },
            {
              "internalType": "uint256",
              "name": "amountToLendUSD",
              "type": "uint256"
            },
            {
              "internalType": "uint256",
              "name": "amountLendedUSD",
              "type": "uint256"
            },
            {
              "internalType": "uint256",
              "name": "minCollateralRatio",
              "type": "uint256"
            },
            {
              "internalType": "uint256",
              "name": "liquidationThreshold",
              "type": "uint256"
            },
            {
              "internalType": "uint256",
              "name": "desiredInterestRate",
              "type": "uint256"
            },
            {
              "internalType": "uint256",
              "name": "paymentDuration",
              "type": "uint256"
            },
            {
              "internalType": "uint256",
              "name": "minimalPartialFill",
              "type": "uint256"
            },
            {
              "internalType": "bool",
              "name": "canceled",
              "type": "bool"
            },
            {
              "internalType": "bool",
              "name": "autoCanceled",
              "type": "bool"
            }
          ],
          "internalType": "struct XrpLendingP2PV5.LendingRequest",
          "name": "",
          "type": "tuple"
        }
      ],
      "stateMutability": "view",
      "type": "function"
    },
    {
      "inputs": [
        {
          "internalType": "uint256",
          "name": "_loanId",
          "type": "uint256"
        }
      ],
      "name": "getLoanDetails",
      "outputs": [
        {
          "components": [
            {
              "internalType": "string",
              "name": "lender",
              "type": "string"
            },
            {
              "internalType": "string",
              "name": "borrower",
              "type": "string"
            },
            {
              "internalType": "uint256",
              "name": "amountBorrowedUSD",
              "type": "uint256"
            },
            {
              "internalType": "uint256",
              "name": "amountPayableToLender",
              "type": "uint256"
            },
            {
              "internalType": "uint256",
              "name": "amountPayableToPlatform",
              "type": "uint256"
            },
            {
              "internalType": "uint256",
              "name": "amountPaidUSD",
              "type": "uint256"
            },
            {
              "internalType": "uint256",
              "name": "collateralAmountXRP",
              "type": "uint256"
            },
            {
              "internalType": "uint256",
              "name": "repayBy",
              "type": "uint256"
            },
            {
              "internalType": "uint256",
              "name": "liquidationThreshold",
              "type": "uint256"
            },
            {
              "internalType": "bool",
              "name": "isLiquidated",
              "type": "bool"
            }
          ],
          "internalType": "struct XrpLendingP2PV5.Loan",
          "name": "",
          "type": "tuple"
        }
      ],
      "stateMutability": "view",
      "type": "function"
    },
    {
      "inputs": [
        {
          "internalType": "string",
          "name": "_user",
          "type": "string"
        }
      ],
      "name": "getUserBorrowingRequests",
      "outputs": [
        {
          "internalType": "uint256[]",
          "name": "",
          "type": "uint256[]"
        }
      ],
      "stateMutability": "view",
      "type": "function"
    },
    {
      "inputs": [
        {
          "internalType": "string",
          "name": "_user",
          "type": "string"
        }
      ],
      "name": "getUserLendingRequests",
      "outputs": [
        {
          "internalType": "uint256[]",
          "name": "",
          "type": "uint256[]"
        }
      ],
      "stateMutability": "view",
      "type": "function"
    },
    {
      "inputs": [
        {
          "internalType": "string",
          "name": "_user",
          "type": "string"
        }
      ],
      "name": "getUserLoans",
      "outputs": [
        {
          "internalType": "uint256[]",
          "name": "",
          "type": "uint256[]"
        }
      ],
      "stateMutability": "view",
      "type": "function"
    },
    {
      "inputs": [],
      "name": "lastPriceUpdateTimestamp",
      "outputs": [
        {
          "internalType": "uint256",
          "name": "",
          "type": "uint256"
        }
      ],
      "stateMutability": "view",
      "type": "function"
    },
    {
      "inputs": [],
      "name": "lendingRequestCounter",
      "outputs": [
        {
          "internalType": "uint256",
          "name": "",
          "type": "uint256"
        }
      ],
      "stateMutability": "view",
      "type": "function"
    },
    {
      "inputs": [
        {
          "internalType": "uint256",
          "name": "",
          "type": "uint256"
        }
      ],
      "name": "lendingRequests",
      "outputs": [
        {
          "internalType": "string",
          "name": "lender",
          "type": "string"
        },
        {
          "internalType": "uint256",
          "name": "amountToLendUSD",
          "type": "uint256"
        },
        {
          "internalType": "uint256",
          "name": "amountLendedUSD",
          "type": "uint256"
        },
        {
          "internalType": "uint256",
          "name": "minCollateralRatio",
          "type": "uint256"
        },
        {
          "internalType": "uint256",
          "name": "liquidationThreshold",
          "type": "uint256"
        },
        {
          "internalType": "uint256",
          "name": "desiredInterestRate",
          "type": "uint256"
        },
        {
          "internalType": "uint256",
          "name": "paymentDuration",
          "type": "uint256"
        },
        {
          "internalType": "uint256",
          "name": "minimalPartialFill",
          "type": "uint256"
        },
        {
          "internalType": "bool",
          "name": "canceled",
          "type": "bool"
        },
        {
          "internalType": "bool",
          "name": "autoCanceled",
          "type": "bool"
        }
      ],
      "stateMutability": "view",
      "type": "function"
    },
    {
      "inputs": [],
      "name": "loanCounter",
      "outputs": [
        {
          "internalType": "uint256",
          "name": "",
          "type": "uint256"
        }
      ],
      "stateMutability": "view",
      "type": "function"
    },
    {
      "inputs": [
        {
          "internalType": "uint256",
          "name": "",
          "type": "uint256"
        }
      ],
      "name": "loans",
      "outputs": [
        {
          "internalType": "string",
          "name": "lender",
          "type": "string"
        },
        {
          "internalType": "string",
          "name": "borrower",
          "type": "string"
        },
        {
          "internalType": "uint256",
          "name": "amountBorrowedUSD",
          "type": "uint256"
        },
        {
          "internalType": "uint256",
          "name": "amountPayableToLender",
          "type": "uint256"
        },
        {
          "internalType": "uint256",
          "name": "amountPayableToPlatform",
          "type": "uint256"
        },
        {
          "internalType": "uint256",
          "name": "amountPaidUSD",
          "type": "uint256"
        },
        {
          "internalType": "uint256",
          "name": "collateralAmountXRP",
          "type": "uint256"
        },
        {
          "internalType": "uint256",
          "name": "repayBy",
          "type": "uint256"
        },
        {
          "internalType": "uint256",
          "name": "liquidationThreshold",
          "type": "uint256"
        },
        {
          "internalType": "bool",
          "name": "isLiquidated",
          "type": "bool"
        }
      ],
      "stateMutability": "view",
      "type": "function"
    },
    {
      "inputs": [],
      "name": "oracleUpdater",
      "outputs": [
        {
          "internalType": "address",
          "name": "",
          "type": "address"
        }
      ],
      "stateMutability": "view",
      "type": "function"
    },
    {
      "inputs": [
        {
          "internalType": "uint256",
          "name": "newPrice",
          "type": "uint256"
        }
      ],
      "name": "setPriceOracle",
      "outputs": [],
      "stateMutability": "nonpayable",
      "type": "function"
    },
    {
      "inputs": [],
      "name": "supportedSourceChain",
      "outputs": [
        {
          "internalType": "string",
          "name": "",
          "type": "string"
        }
      ],
      "stateMutability": "view",
      "type": "function"
    },
    {
      "inputs": [
        {
          "internalType": "string",
          "name": "",
          "type": "string"
        },
        {
          "internalType": "uint256",
          "name": "",
          "type": "uint256"
        }
      ],
      "name": "userBorrowingRequests",
      "outputs": [
        {
          "internalType": "uint256",
          "name": "",
          "type": "uint256"
        }
      ],
      "stateMutability": "view",
      "type": "function"
    },
    {
      "inputs": [
        {
          "internalType": "string",
          "name": "",
          "type": "string"
        },
        {
          "internalType": "uint256",
          "name": "",
          "type": "uint256"
        }
      ],
      "name": "userLendingRequests",
      "outputs": [
        {
          "internalType": "uint256",
          "name": "",
          "type": "uint256"
        }
      ],
      "stateMutability": "view",
      "type": "function"
    },
    {
      "inputs": [
        {
          "internalType": "string",
          "name": "",
          "type": "string"
        },
        {
          "internalType": "uint256",
          "name": "",
          "type": "uint256"
        }
      ],
      "name": "userLoans",
      "outputs": [
        {
          "internalType": "uint256",
          "name": "",
          "type": "uint256"
        }
      ],
      "stateMutability": "view",
      "type": "function"
    }
  ],
  "bytecode": "0x60c0346100dd57601f6140c838819003918201601f19168301916001600160401b038311848410176100e25780849260409485528339810103126100dd57610052602061004b836100f8565b92016100f8565b906001600160a01b038116156100cc57608052600080546001600160a01b0319166001600160a01b03929092169190911781556003819055600a819055600b553360a052604051613fbb908161010d8239608051818181610c060152818161170c015261381b015260a05181818161076701526109e80152f35b63e6c4247b60e01b60005260046000fd5b600080fd5b634e487b7160e01b600052604160045260246000fd5b51906001600160a01b03821682036100dd5756fe60a080604052600436101561001357600080fd5b600090813560e01c9081630bc82cf31461387f575080630fc6fec41461384a578063116191b61461380557806314c7eb49146136a25780631a98b2e0146116345780632153c8fd146115ff578063220f8e181461157b57806323b1f8e41461155d5780633077d7d11461152257806331f59c55146114e757806334d9289e146114c95780633cbfbbf31461148e57806345887070146101d45780634916065814610b61578063560d52d414610b4557806361a979bf14610a8c578063625c513b146109d15780636468499b146109b3578063655e16001461099557806366811ce81461093c57806366877b8d146107bf57806378f2c2c314610796578063805d64a01461075157806380a960071461067b57806384311dc014610640578063976e9989146105bc578063a824ca9314610581578063a8e2135c146103e6578063b8ecd94d1461033f578063bad271691461030b578063dec20e05146102d0578063e1ec3c68146101f2578063eb91d37e146101d45763f8f769be1461019757600080fd5b346101d157806003193601126101d15760206040517f7c4ef9fcbcd718c531be33e6c1e942f34ae50e2c58f65d1da8631ee13be5eb668152f35b80fd5b50346101d157806003193601126101d1576020600154604051908152f35b50346101d15760203660031901126101d15760406102919160043581526004602052206040519061022e826102278184613ad4565b0383613907565b604051610249816102428160018601613ad4565b0382613907565b60028201549160038101546004820154600583015460068401549160078501549361029f60ff6009600889015498015416976040519b8c9b6101408d526101408d0190613a0e565b908b820360208d0152613a0e565b9760408a01526060890152608088015260a087015260c086015260e085015261010084015215156101208301520390f35b50346101d157806003193601126101d15760206040517fde25758b3e02a50e26bf555d8688aff6c38cd237cfa12e59c1961ae28e5d516b8152f35b50346101d157806003193601126101d15761033b610327613b57565b604051918291602083526020830190613a0e565b0390f35b50346101d15760203660031901126101d1576004356001600160401b0381116103e257602061037561038892369060040161396e565b81604051938285809451938492016139bd565b81016007815203019020604051918260208354918281520192825260208220915b8181106103cc5761033b856103c081870382613907565b60405191829182613a60565b82548452602090930192600192830192016103a9565b5080fd5b50346101d15760203660031901126101d1576040816101a092610160835161040d816138eb565b6060815282602082015282858201528260608201528260808201528260a08201528260c08201528260e08201528261010082015282610120820152826101408201520152600435815260066020522060405190610469826138eb565b60405161047a816102428185613ad4565b82526001810154906020830191825260028101546040840190815260038201549160608501928352600481015460808601908152600582015460a08701908152600683015460c0880190815260078401549160e089019283526008850154936101008a01948552600a6009870154966101208c019788520154976101408b019760ff8a161515895260ff6101608d019a60081c1615158a52610531604051809e819e60208352519161018060208201520190613a0e565b9a5160408d01525160608c01525160808b01525160a08a01525160c08901525160e08801525161010087015251610120860152516101408501525115156101608401525115156101808301520390f35b50346101d157806003193601126101d15760206040517f34d844336851612d0d8a9c6849f53488b6afbfddc10b3fc3244fd1542d82001b8152f35b50346101d15760203660031901126101d1576004356001600160401b0381116103e25760206103756105f292369060040161396e565b81016009815203019020604051918260208354918281520192825260208220915b81811061062a5761033b856103c081870382613907565b8254845260209093019260019283019201610613565b50346101d157806003193601126101d15760206040517f2bf410a8493e77af80af6f30380c04e8c4b71932630dcf9c831b20e7388ee3a88152f35b50346101d15760203660031901126101d1576040906004358152600660205220610180604051916106b7836106b08184613ad4565b0384613907565b60ff600182015491600281015490600381015460048201546005830154600684015490600785015492600886015494600a6009880154970154976107066040519d8d8f9e8f9081520190613a0e565b9a60208d015260408c015260608b015260808a015260a089015260c088015260e0870152610100860152610120850152818116151561014085015260081c1615156101608301520390f35b50346101d157806003193601126101d1576040517f00000000000000000000000000000000000000000000000000000000000000006001600160a01b03168152602090f35b50346101d157806003193601126101d15760206107b1613b57565b818151910120604051908152f35b50346101d15760203660031901126101d15760206040826101409361012083516107e8816138b9565b6060815260608682015282858201528260608201528260808201528260a08201528260c08201528260e082015282610100820152015260043581526004835220604051610834816138b9565b604051610845816102428186613ad4565b81526040519161085c836106b08160018501613ad4565b8382019283526002810154926040830193845260038201546060840190815260048301546080850190815260058401549060a0860191825260068501549260c0870193845261090260078701549560e089019687526108ef60ff600960088b01549a6101008d019b8c520154169961012081019a15158b526040519d8d8f9e928f938452519201526101608d0190613a0e565b90518b8203601f190160408d0152613a0e565b975160608a01525160808901525160a08801525160c08701525160e086015251610100850152516101208401525115156101408301520390f35b50346101d1576020906109666109513661398c565b939081604051938285809451938492016139bd565b810160078152030190209081548310156101d157602061098684846139e0565b90549060031b1c604051908152f35b50346101d157806003193601126101d1576020600a54604051908152f35b50346101d157806003193601126101d1576020600b54604051908152f35b50346101d15760203660031901126101d1576004357f00000000000000000000000000000000000000000000000000000000000000006001600160a01b03163303610a48576020817f66cbca4f3c64fecf1dcb9ce094abcf7f68c3450a1d4e3a8e917dd621edb4ebe092600155604051908152a180f35b606460405162461bcd60e51b815260206004820152602060248201527f43616c6c6572206973206e6f7420746865206f7261636c6520757064617465726044820152fd5b50346101d15760203660031901126101d1576040610b0691600435815260056020522060405190610ac1826102278184613ad4565b60ff6001820154916002810154906003810154600482015460058301549060068401549260086007860154950154956040519a8b9a6101408c526101408c0190613a0e565b9860208b015260408a01526060890152608088015260a087015260c086015260e0850152818116151561010085015260081c1615156101208301520390f35b50346101d157806003193601126101d157602060405160058152f35b50346101d15760803660031901126101d1576024356001600160401b0381116103e257610b92903690600401613a33565b6044356001600160401b03811161148a57610bb1903690600401613a33565b9190926064356001600160401b03811161148657610bd3903690600401613a33565b9091610be0368385613928565b8051602091820120604051635f6970c360e01b81526004803590820152608060248201527f00000000000000000000000000000000000000000000000000000000000000006001600160a01b03169692909182908190610c5b8c8c610c49608486018a8c613b99565b85810360031901604487015291613b99565b90606483015203818c8a5af1908115611378578991611457575b501561144857610c8f610cb3949392610cab923691613928565b60208151910120610c9e613b57565b6020815191012014613bba565b810190613bfd565b9190604051610ce360208281610cd281830196878151938492016139bd565b81010301601f198101835282613907565b5190207fde25758b3e02a50e26bf555d8688aff6c38cd237cfa12e59c1961ae28e5d516b8103610e4557505060208151918180820193849201010312610e4057600080516020613f6683398151915292610d409151923691613928565b908084526005602052610d776040852092604051610d62816102428188613ad4565b60208151910120906020815191012014613e4c565b6008820160018154610d8c60ff821615613e98565b60ff19161790556001820154600283015460038401546004850154600586015490600687015492600788015494610e05604051998a996101808b5260146101808c01527318d85b98d95b13195b991a5b99d4995c5d595cdd60621b6101a08c015260208b01526101c060408b01526101c08a0190613ad4565b966060890152608088015260a087015260c086015260e08501526101008401526101208301526001610140830152846101608301520390a180f35b600080fd5b929391927fe69dc4620ee0a9212a459c83b8c8cd0a36ebf6d6727329fc7e3e67a3e87df79d8103610faa57505060208251928180820194859201010312610e4057600080516020613f4683398151915292610ec16101e0927518d85b98d95b109bdc9c9bddda5b99d4995c5d595cdd60521b9451923691613928565b908086526006602052610ee36040872092604051610d62816102428188613ad4565b600a820160018154610ef860ff821615613e98565b60ff1916179055600182015491600281015460038201546004830154600584015490600685015492600786015494610f636008880154976009810154996040519d8e9d8e6101c0815260166101c0820152015260208d015261020060408d01526102008c0190613ad4565b9860608b015260808a015260a089015260c088015260e08701526101008601526101208501526101408401526101608301526001610180830152846101a08301520390a180f35b9092907f4a469cefcbed9a88178fc34579047173d00d4643d65873018db1ec410f46e00d0361140c5760208151918180820193849201010312610e4057519081855260046020526040852092600984019460ff8654166113c75760078501805442111561138357610e1061102060025442613c56565b10156112d9575b6006860192835461103a60015482613dff565b936003890196875495606461105560088d0198895490613dff565b04111561129d57604051611081919061107281610242818f613ad4565b60208151910120923691613928565b6020815191012003611249578990611097613b57565b90833b15611245576110e5936110d38480948d94611107604051998a97889687956326ef699d60e01b8752608060048801526084870190613a0e565b85810360031901602487015290613ad4565b838103600319016044850152600381526205852560ec1b602082015260400190565b90606483015203925af1918261122c575b50506111635760405162461bcd60e51b815260206004820152601c60248201527f4661696c656420746f2073656e642058525020746f206c656e646572000000006044820152606490fd5b600080516020613f2683398151915296600160ff19825416179055600286015493549260048701546005880154915492549354946111f6604051998a996101a08b52600d6101a08c01526c3634b8bab4b230ba32a637b0b760991b6101c08c01528d60208c015260408b01526101e060608b015260016111e76101e08c0183613ad4565b918b830360808d015201613ad4565b9660a089015260c088015260e087015261010086015261012085015261014084015261016083015260016101808301520390a180f35b8161123691613907565b611241578838611118565b8880fd5b8280fd5b60405162461bcd60e51b815260206004820152602660248201527f4f6e6c7920746865206c656e6465722063616e206c697175696461746520746860448201526532903637b0b760d11b6064820152608490fd5b60405162461bcd60e51b815260206004820152601460248201527310d85b9b9bdd081b1a5c5d5a59185d19481e595d60621b6044820152606490fd5b8754604051638183f10f60e01b815290602090829060049082906001600160a01b03165afa908115611378578991611345575b506020817f66cbca4f3c64fecf1dcb9ce094abcf7f68c3450a1d4e3a8e917dd621edb4ebe09260015542600255604051908152a1611027565b90506020813d602011611370575b8161136060209383613907565b81010312610e405751602061130c565b3d9150611353565b6040513d8b823e3d90fd5b606460405162461bcd60e51b815260206004820152602060248201527f43616e6e6f74206c6971756964617465206265666f72652064756520646174656044820152fd5b60405162461bcd60e51b815260206004820152601760248201527f4c6f616e20616c7265616479206c6971756964617465640000000000000000006044820152606490fd5b60405162461bcd60e51b815260206004820152600f60248201526e125b9d985b1a590818dbdb5b585b99608a1b604482015280606481015b0390fd5b631403112d60e21b8852600488fd5b611479915060203d60201161147f575b6114718183613907565b810190613b81565b38610c75565b503d611467565b8580fd5b8380fd5b50346101d157806003193601126101d15760206040517f02a0046ae0a72923f4582943512f0b3b95b88a4125f476ba466151a9053e12498152f35b50346101d157806003193601126101d1576020600354604051908152f35b50346101d157806003193601126101d15760206040517f4a469cefcbed9a88178fc34579047173d00d4643d65873018db1ec410f46e00d8152f35b50346101d157806003193601126101d15760206040517fe69dc4620ee0a9212a459c83b8c8cd0a36ebf6d6727329fc7e3e67a3e87df79d8152f35b50346101d157806003193601126101d1576020600254604051908152f35b50346101d15760203660031901126101d1576004356001600160401b0381116103e25760206103756115b192369060040161396e565b81016008815203019020604051918260208354918281520192825260208220915b8181106115e95761033b856103c081870382613907565b82548452602090930192600192830192016115d2565b50346101d1576020906116146109513661398c565b810160088152030190209081548310156101d157602061098684846139e0565b50346101d15760c03660031901126101d1576024356001600160401b0381116103e257611665903690600401613a33565b6044929192356001600160401b03811161124557611687903690600401613a33565b90936064356001600160401b03811161369e576116a8903690600401613a33565b906084356001600160401b0381116125765761177392849261174860208b978a6116d78b973690600401613a33565b99909a61175a6116e8368a8a613928565b805190870120604051631876eed960e01b8152600480359082015260c060248201527f00000000000000000000000000000000000000000000000000000000000000006001600160a01b03169b90988997889793959360c4890191613b99565b86810360031901604488015291613b99565b9060648401526003198382030160848401528a8c613b99565b60a43560a483015203818d885af1908115613693578a91613674575b50156136655760a4351561362f576117af91610cab610c8f368b88613928565b96906040516117ce60208281610cd281830196878151938492016139bd565b5190207f34d844336851612d0d8a9c6849f53488b6afbfddc10b3fc3244fd1542d82001b8103611b205750505050505060a08280518101031261124557602082015160408301519161183160608501519660a06080870151960151923691613928565b9361183d600a54613df0565b9687600a556040519761184f896138b9565b86895260a43560208a01528760408a01528460608a01528560808a01528160a08a01528260c08a01528360e08a0152876101008a0152876101208a0152875260056020526040872088518051906001600160401b038211611b0c576118b48354613a9a565b601f8111611aca575b50602090601f8311600114611a495761198393838c9d9461012094600894600080516020613f668339815191529f92611a3e575b50508160011b916000199060031b1c19161781555b6020840151600182015560408401516002820155606084015160038201556080840151600482015560a0840151600582015560c0840151600682015560e08401516007820155019161196b6101008201511515849060ff801983541691151516179055565b0151815461ff00191690151560081b61ff0016179055565b6119b06040516020818161199d8b838151938492016139bd565b81016008815203019020600a5490613e12565b600a5494611a00604051978897610180895260146101808a01527318dc99585d1953195b991a5b99d4995c5d595cdd60621b6101a08a015260208901526101c060408901526101c0880190613a0e565b9460a435606088015289608088015260a087015260c086015260e085015261010084015261012083015284610140830152846101608301520390a180f35b0151905038806118f1565b90838b52808b20918b5b601f1985168110611ab257509360018461012094600080516020613f668339815191529e9f969461198398600896601f19811610611a99575b505050811b018155611906565b015160001960f88460031b161c19169055388080611a8c565b91926020600181928685015181550194019201611a53565b838b5260208b20601f840160051c810160208510611b05575b8c601f840160051c83018210611afb575050506118bd565b8155600101611ae3565b5080611ae3565b634e487b7160e01b8a52604160045260248afd5b9698967f2bf410a8493e77af80af6f30380c04e8c4b71932630dcf9c831b20e7388ee3a88103611e985750505050505060c084805181010312611245576020840151604085015191606086015195611b8960808201519560c060a0840151930151933691613928565b94611b95600b54613df0565b9788600b5560405198611ba78a6138eb565b878a528560208b01528860408b015260a43560608b015260a43560808b01528660a08b01528160c08b01528260e08b0152836101008b0152846101208b0152886101408b0152886101608b0152885260066020526040882089518051906001600160401b038211611e8457611c1c8354613a9a565b601f8111611e42575b50602090601f8311600114611dc157611cea93838d9e9461016094600080516020613f468339815191529f94600a9592611db6575b50508160011b916000199060031b1c19161781555b6020840151600182015560408401516002820155606084015160038201556080840151600482015560a0840151600582015560c0840151600682015560e0840151600782015561010084015160088201556101208401516009820155019161196b6101408201511515849060ff801983541691151516179055565b611d1760405160208181611d048c838151938492016139bd565b81016009815203019020600b5490613e12565b600b5495611d696040519889986101c08a5260166101c08b01527518dc99585d19509bdc9c9bddda5b99d4995c5d595cdd60521b6101e08b015260208a015261020060408a0152610200890190613a0e565b95606088015289608088015260a43560a088015260a43560c088015260e087015261010086015261012085015261014084015261016083015284610180830152846101a08301520390a180f35b015190503880611c5a565b90838c52808c20918c5b601f1985168110611e2a575093600184600080516020613f468339815191529e9f9594600a94611cea9861016097601f19811610611e11575b505050811b018155611c6f565b015160001960f88460031b161c19169055388080611e04565b91926020600181928685015181550194019201611dcb565b838c5260208c20601f840160051c810160208510611e7d575b8d601f840160051c83018210611e7357505050611c25565b8155600101611e5b565b5080611e5b565b634e487b7160e01b8b52604160045260248bfd5b7f02a0046ae0a72923f4582943512f0b3b95b88a4125f476ba466151a9053e1249819a929394959698999a146000146127e95750611ee281602080611eec94518301019101613c79565b9890963691613928565b92600194602097604051611f008a82613907565b8b8152888c5260058a5260408c209760ff60088a01541660001461262c5750508a91611f2a613db5565b925b1561257a57505050908891833b156112455788938392838793611f65604051988996879586946326ef699d60e01b865260048601613d31565b03925af19182612561575b5050611f8f5760405162461bcd60e51b81528061144460048201613d7d565b611f9a600354613df0565b90816003556064611faf600585015488613dff565b049260058402938085046005148115171561254d57611fce9088613cb0565b92611fdd600683015442613cb0565b90600483015460405192611ff0846138b9565b604051612001816102428189613ad4565b8452858a8501528a60408501528660608501526064880460808501528b60a085015260a43560c085015260e084015261010083015289610120830152895260048752604089209080518051906001600160401b0382116124795781906120678554613a9a565b601f8111612500575b508a90601f8311600114612498578d9261248d575b50508160011b916000199060031b1c19161782555b878101518051906001600160401b038211612479576120bc6001850154613a9a565b601f8111612434575b5089908c601f84116001146123845795612199600080516020613f268339815191529d9a966009610120731858d8d95c1d13195b991a5b99d4995c5d595cdd60621b9f9c986101c09f9c97988061224c9a61223e9960649f92612379575b50508160011b916000199060031b1c19161760018501555b60408101516002850155606081015160038501556080810151600485015560a0810151600585015560c0810151600685015560e0810151600785015561010081015160088501550151151591019060ff801983541691151516179055565b6121c36040518a8186516121b08183858b016139bd565b8101600781520301902060035490613e12565b8d888a6121e78d6121d960028701918254613cb0565b809155600186015490613c56565b600785015411612286575b505050600354612206600683015442613cb0565b9860048301549a6040519e8f9e8f6101a0815260146101a082015201528d015260408c01526101e060608c01526101e08b0190613ad4565b9089820360808b0152613a0e565b9560a088015260c08701520460e08501528661010085015260a435610120850152610140840152610160830152846101808301520390a180f35b60408383600080516020613f66833981519152955260058352206008810161010181546122b660ff821615613e98565b61ffff19161790556001810154906002810154600382015460048301546005840154916006850154936123386007870154966040519a8b9a6101808c5260186101808d01527f6175746f43616e63656c4c656e64696e675265717565737400000000000000006101a08d01528b01526101c060408b01526101c08a0190613ad4565b966060890152608088015260a087015260c086015260e0850152610100840152610120830152600161014083015260016101608301520390a18d888a6121f2565b015190503880612123565b5090600185018d528a8d20918d5b601f198516811061241d575095612199600080516020613f268339815191529d9a966009610120731858d8d95c1d13195b991a5b99d4995c5d595cdd60621b9f9c986101c09f9c978960019161223e9960649f61224c9d601f19811610612404575b505050811b01600185015561213b565b015160001960f88460031b161c191690553880806123f4565b91928c600181928685015181550194019201612392565b600185018d528a8d20601f840160051c81018c8510612472575b8e5b601f840160051c83018210612467575050506120c5565b81556001018e612450565b508061244e565b634e487b7160e01b8c52604160045260248cfd5b015190503880612085565b9250848d528a8d20908d935b8c601f19851686106124e757506001945083601f198116106124ce575b505050811b01825561209a565b015160001960f88460031b161c191690553880806124c1565b82820151845594850194600190930192909101906124a4565b909150848d528a8d20601f840160051c81018c8510612546575b84939291908f5b601f840160051c8301821061253857505050612070565b81558594506001018f612521565b508061251a565b634e487b7160e01b89526011600452602489fd5b8161256b91613907565b612576578638611f70565b8680fd5b9199508a9750955060a43560001981019190821161261857843b1561261457916125c28896959493928793604051998a98899788966326ef699d60e01b885260048801613cef565b03925af18015612609576125f4575b505061144460405192839262461bcd60e51b845260048401526024830190613a0e565b6125ff828092613907565b6101d157806125d1565b6040513d84823e3d90fd5b8780fd5b634e487b7160e01b88526011600452602488fd5b6126368954613a9a565b61267c5750508a9160405161264c604082613907565b601981527f4c656e64696e672072657175657374206e6f7420666f756e64000000000000008b820152925b611f2c565b60078901548c10156126d95750508a9160405161269a606082613907565b602781527f426f72726f7720616d6f756e74206973206c657373207468616e206d696e696d8b82015266185b08199a5b1b60ca1b604082015292611f2c565b6126eb818a015460028b015490613c56565b8c11156127475750508a91604051612704606082613907565b602b81527f426f72726f7720616d6f756e7420657863656564732072656d61696e696e67208b8201526a1b195b9908185b5bdd5b9d60aa1b604082015292611f2c565b61275560038a01548d613ee4565b60a435101561279f5750508a91604051612770604082613907565b601781527f496e73756666696369656e7420636f6c6c61746572616c0000000000000000008b82015292611f2c565b6127ad939193368385613928565b8b815191012060038c6040516127c4604082613907565b828152016205852560ec1b8152201461267757508b92506127e3613cbd565b92611f2c565b9497949193917f7c4ef9fcbcd718c531be33e6c1e942f34ae50e2c58f65d1da8631ee13be5eb668103613136575061282d8160208061283794518301019101613c79565b9590963691613928565b9260019760209760405161284b8a82613907565b8b8152888c5260068a5260408c209a60ff600a8d015416600014612f935750508a91612875613db5565b925b15612f4a57505050908891833b156112455788938392836128bd936128f16128cf604051998a97889687956326ef699d60e01b8752608060048801526084870191613b99565b84810360031901602486015290613ad4565b82810360031901604484015260038152621554d160ea1b602082015260400190565b60a435606483015203925af19182612f35575b50506129235760405162461bcd60e51b81528061144460048201613d7d565b61292e600354613df0565b94856003556064612945600783015460a435613dff565b049160058302928084046005148115171561254d57612968906064850490613c56565b966129758860a435613cb0565b90612984600885015442613cb0565b60068501549060405193612997856138b9565b8585526040516129ab81610242818b613ad4565b8b86015260a435604086015260608501526064870460808501528b60a08501528760c085015260e084015261010083015289610120830152895260048752604089209080518051906001600160401b038211612479578190612a0d8554613a9a565b601f8111612ee8575b508a90601f8311600114612e80578d92612e75575b50508160011b916000199060031b1c19161782555b878101518051906001600160401b03821161247957612a626001850154613a9a565b601f8111612e30575b5089908c601f8411600114612dd357928061012093612b03979693600996926123795750508160011b916000199060031b1c191617600185015560408101516002850155606081015160038501556080810151600485015560a0810151600585015560c0810151600685015560e0810151600785015561010081015160088501550151151591019060ff801983541691151516179055565b604051888354612b1281613a9a565b9060018116908115612dbc5750600114612d8c575b5093612c1f6101c09794612c11600080516020613f268339815191529b9895612b7b868d606498751858d8d95c1d109bdc9c9bddda5b99d4995c5d595cdd60521b9f9c600781520301902060035490613e12565b60028301612b8c60a4358254613cb0565b90558d60048401612b9e898254613c56565b809155612bb46009860154600587015490613ee4565b11612c59575b50612bca6003549a60a435613cb0565b99612bd9600885015442613cb0565b9860068501549a6040519e8f9e8f6101a0815260166101a082015201528d015260408c01526101e060608c01526101e08b0190613a0e565b9089820360808b0152613ad4565b9560a43560a089015260c08801520460e086015287610100860152610120850152610140840152610160830152846101808301520390a180f35b6040818a600080516020613f46833981519152935260068c5220600a81016101018154612c8960ff821615613e98565b61ffff19161790558a8a600183015492600281015460038201546004830154600584015491600685015493612d2660078701549660088101549860098201549a6040516080526101c0608051526101c0601a9060805101527f6175746f43616e63656c426f72726f77696e67526571756573740000000000006101e060805101526080510152610200604060805101526102006080510190613ad4565b986060608051015260808051015260a0608051015260c0608051015260e0608051015261010060805101526101206080510152610140608051015261016060805101526001610180608051015260016101a060805101526080519003608051a18d612bba565b9050838a52878a208a905b828210612daa5750508101612c1f612b27565b80548483015290890190600101612d97565b60ff19168452508015150282019050612c1f612b27565b5090600185018d528a8d20918d5b8c601f1986168210612e1a5750508361012093612b03979693600193600997601f1981161061240457505050811b01600185015561213b565b6001849582939585015181550194019201612de1565b600185018d528a8d20601f840160051c81018c8510612e6e575b8e5b601f840160051c83018210612e6357505050612a6b565b81556001018e612e4c565b5080612e4a565b015190503880612a2b565b9250848d528a8d20908d935b8c601f1985168610612ecf57506001945083601f19811610612eb6575b505050811b018255612a40565b015160001960f88460031b161c19169055388080612ea9565b8282015184559485019460019093019290910190612e8c565b909150848d528a8d20601f840160051c81018c8510612f2e575b84939291908f5b601f840160051c83018210612f2057505050612a16565b81558594506001018f612f09565b5080612f02565b81612f3f91613907565b612576578638612904565b858a948d9496899360001960a435019060a435821161261857843b1561261457916125c28896959493928793604051998a98899788966326ef699d60e01b885260048801613cef565b612f9d8c54613a9a565b612fe35750508a91604051612fb3604082613907565b601b81527f426f72726f77696e672072657175657374206e6f7420666f756e6400000000008b820152925b612877565b60098c015460a43510156130405750508a91604051613003606082613907565b602581527f4c656e6420616d6f756e74206973206c657373207468616e206d696e696d616c8b8201526408199a5b1b60da1b604082015292612877565b808c015460028d015461305291613c56565b60a43511156130b05750508a9160405161306d606082613907565b602b81527f4c656e6420616d6f756e7420657863656564732072656d61696e696e6720626f8b8201526a1c9c9bddc8185b5bdd5b9d60aa1b604082015292612877565b60048c01548911156130fd5750508a916040516130ce604082613907565b601e81527f41736b696e6720666f7220746f6f206d75636820636f6c6c61746572616c00008b82015292612877565b61310b939193368385613928565b8b8151910120613119613c8f565b8c815191012014612fde57508b9250613130613cbd565b92612877565b7f7bd15d6b2d182a804b2a36c079625580f8a960afa839087ccb184e9db92b9a03909895929496981460001461356d579061317d8260208061318795518301019101613c79565b9890503691613928565b9160019360209660405161319b8982613907565b8a8152898b526004895260408b20966131b5368585613928565b8a81519101206131c3613c8f565b8051908c01201461346357505089916131da613cbd565b925b1561341a57505050813b15612614576040516326ef699d60e01b81528880828061320e60a435898c8960048601613d31565b038183885af19182613405575b505061323a5760405162461bcd60e51b81528061144460048201613d7d565b6005840161324b60a4358254613cb0565b9055876005850192835496600387019788541115613333575b50505050600283015493549060048401549054600685015491600786015493600887015495600988015460ff16976040519b8c9b6101a08d526101a08d01600990526101c08d01683932b830bca637b0b760b91b905260a435908d015260408c015260608b016101e090526101e08b016132dd91613ad4565b8a810360808c01526132ee91613a0e565b9760a08a015260c089015260e0880152610100870152610120860152610140850152610160840152151561018083015203600080516020613f2683398151915291a180f35b6006879a999a015491803b1561148a576110e59484613376938195613388604051998a97889687956326ef699d60e01b8752608060048801526084870191613b99565b8481036003190160248601528d613a0e565b90606483015203925af191826133f0575b50506133e45760405162461bcd60e51b815260048101879052601e60248201527f4661696c656420746f2073656e642058525020746f20626f72726f77657200006044820152606490fd5b94939438878180613264565b816133fa91613907565b612614578738613399565b8161340f91613907565b61124157883861321b565b8a9294888a95889360001960a435019060a435821161261857843b1561261457916125c28896959493928793604051998a98899788966326ef699d60e01b885260048801613cef565b6040516134768161024281858d01613ad4565b8051908b01208751888c0120146134be5750508991604051613499604082613907565b60128152712737ba103a3432903637b0b71037bbb732b960711b8a820152925b6131dc565b600988015460ff161561350c57505089916040516134dd604082613907565b601a81527f4c6f616e20697320616c7265616479206c6971756964617465640000000000008a820152926131dc565b60058801549193916135209060a435613cb0565b600389015410156134b957509150899160405161353e604082613907565b601d81527f52657061796d656e74206578636565647320616d6f756e74206f7765640000008a820152926131dc565b5094918693889560001960a4350160a4358111612618578798859897983b15612614576135c2968894610c496135d4936040519c8d9b8c9a8b996326ef699d60e01b8b52608060048c015260848b0191613b99565b8881036003190160248a015291613b99565b90606483015203925af180156126095761361f5760405162461bcd60e51b815260206004820152600f60248201526e125b9d985b1a590818dbdb5b585b99608a1b6044820152606490fd5b8161362991613907565b8161140c565b60405162461bcd60e51b815260206004820152600e60248201526d125b9d985b1a5908185b5bdd5b9d60921b6044820152606490fd5b631403112d60e21b8952600489fd5b61368d915060203d60201161147f576114718183613907565b3861178f565b6040513d8c823e3d90fd5b8480fd5b50346101d15760203660031901126101d1576040816137c39261012083516136c9816138b9565b6060815282602082015282858201528260608201528260808201528260a08201528260c08201528260e0820152826101008201520152600435815260056020522060405190613717826138b9565b604051613728816102428185613ad4565b82526001810154906020830191825260028101546040840190815260038201549160608501928352600481015460808601908152600582015460a0870190815260068301549160c08801928352600860078501549460e08a0195865201549561010089019560ff88161515875260ff6101208b019860081c16151588526040519a8b9a60208c525161014060208d01526101608c0190613a0e565b985160408b01525160608a01525160808901525160a08801525160c08701525160e0860152516101008501525115156101208401525115156101408301520390f35b50346101d157806003193601126101d1576040517f00000000000000000000000000000000000000000000000000000000000000006001600160a01b03168152602090f35b50346101d15760209061385f6109513661398c565b810160098152030190209081548310156101d157602061098684846139e0565b9050346103e257816003193601126103e257807f7bd15d6b2d182a804b2a36c079625580f8a960afa839087ccb184e9db92b9a0360209252f35b61014081019081106001600160401b038211176138d557604052565b634e487b7160e01b600052604160045260246000fd5b61018081019081106001600160401b038211176138d557604052565b90601f801991011681019081106001600160401b038211176138d557604052565b9291926001600160401b0382116138d55760405191613951601f8201601f191660200184613907565b829481845281830111610e40578281602093846000960137010152565b9080601f83011215610e405781602061398993359101613928565b90565b6040600319820112610e4057600435906001600160401b038211610e40576139b69160040161396e565b9060243590565b60005b8381106139d05750506000910152565b81810151838201526020016139c0565b80548210156139f85760005260206000200190600090565b634e487b7160e01b600052603260045260246000fd5b90602091613a27815180928185528580860191016139bd565b601f01601f1916010190565b9181601f84011215610e40578235916001600160401b038311610e405760208381860195010111610e4057565b602060408183019282815284518094520192019060005b818110613a845750505090565b8251845260209384019390920191600101613a77565b90600182811c92168015613aca575b6020831014613ab457565b634e487b7160e01b600052602260045260246000fd5b91607f1691613aa9565b60009291815491613ae483613a9a565b8083529260018116908115613b3a5750600114613b0057505050565b60009081526020812093945091925b838310613b20575060209250010190565b600181602092949394548385870101520191019190613b0f565b915050602093945060ff929192191683830152151560051b010190565b60405190613b66604083613907565b600c82526b1614941317dd195cdd1b995d60a21b6020830152565b90816020910312610e4057518015158103610e405790565b908060209392818452848401376000828201840152601f01601f1916010190565b15613bc157565b60405162461bcd60e51b815260206004820152601460248201527324b73b30b634b21039b7bab931b29031b430b4b760611b6044820152606490fd5b9190604083820312610e405782356001600160401b038111610e405781613c2591850161396e565b926020810135906001600160401b038211610e4057019080601f83011215610e405781602061398993359101613928565b91908203918211613c6357565b634e487b7160e01b600052601160045260246000fd5b9190826040910312610e40576020825192015190565b60405190613c9e604083613907565b60038252621554d160ea1b6020830152565b91908201809211613c6357565b60405190613ccc604083613907565b6014825273125b9d985b1a59081d1bdad95b881cde5b589bdb60621b6020830152565b96959490613d2c93613d10613d1e926060979560808c5260808c0191613b99565b9089820360208b0152613a0e565b918783036040890152613b99565b930152565b949392613d5e90613d50613d2c9360609560808a5260808a0191613b99565b908782036020890152613a0e565b858103604087015260409060038152621554d160ea1b60208201520190565b60609060208152601e60208201527f4661696c656420746f2073656e642055534420746f20626f72726f776572000060408201520190565b60405190613dc4604083613907565b601b82527f5265717565737420697320616c72656164792063616e63656c656400000000006020830152565b6000198114613c635760010190565b81810292918115918404141715613c6357565b8054680100000000000000008110156138d557613e34916001820181556139e0565b819291549060031b91821b91600019901b1916179055565b15613e5357565b60405162461bcd60e51b815260206004820152601760248201527f4e6f742074686520726571756573742063726561746f720000000000000000006044820152606490fd5b15613e9f57565b60405162461bcd60e51b815260206004820152601b60248201527f5265717565737420697320616c72656164792063616e63656c656400000000006044820152606490fd5b90613eee91613dff565b600a810290808204600a1490151715613c6357600154908115613f0f570490565b634e487b7160e01b600052601260045260246000fdfe14911a90b4fc792bf578afe4c069ef70114c053057b1c937cc513aabe478b6bea2908278dad0bde731dbbbcb6cd4e5cdb0d3f22655b2cdb6c0d80811bbfb7f953e0367fa0e58853c174e40e3499ddc773bf5e6f18512d19e8122e902e25d1e21a2646970667358221220fdbc9e405898b8d5d306a705e9b00e877e4630a4f3c60f8d8adfee5349c5cef964736f6c634300081c0033",
  "linkReferences": {},
  "deployedLinkReferences": {}
}