{
  "_format": "hh-sol-artifact-1",
  "contractName": "XrpLendingP2PV4",
  "sourceName": "contracts/p2p/XrpLendingP2P.sol",
  "abi": [
    {
      "inputs": [
        {
          "internalType": "address",
          "name": "gateway_",
          "type": "address"
        },
        {
          "internalType": "address",
          "name": "priceOracle_",
          "type": "address"
        }
      ],
      "stateMutability": "nonpayable",
      "type": "constructor"
    },
    {
      "inputs": [],
      "name": "InvalidAddress",
      "type": "error"
    },
    {
      "inputs": [],
      "name": "NotApprovedByGateway",
      "type": "error"
    },
    {
      "anonymous": false,
      "inputs": [
        {
          "indexed": false,
          "internalType": "uint256",
          "name": "requestId",
          "type": "uint256"
        }
      ],
      "name": "BorrowingRequestAutoCanceled",
      "type": "event"
    },
    {
      "anonymous": false,
      "inputs": [
        {
          "indexed": false,
          "internalType": "uint256",
          "name": "requestId",
          "type": "uint256"
        },
        {
          "indexed": false,
          "internalType": "string",
          "name": "canceller",
          "type": "string"
        }
      ],
      "name": "BorrowingRequestCanceled",
      "type": "event"
    },
    {
      "anonymous": false,
      "inputs": [
        {
          "indexed": false,
          "internalType": "uint256",
          "name": "requestId",
          "type": "uint256"
        },
        {
          "indexed": false,
          "internalType": "string",
          "name": "borrower",
          "type": "string"
        },
        {
          "indexed": false,
          "internalType": "uint256",
          "name": "amountToBorrowUSD",
          "type": "uint256"
        },
        {
          "indexed": false,
          "internalType": "uint256",
          "name": "collateralAmountXRP",
          "type": "uint256"
        },
        {
          "indexed": false,
          "internalType": "uint256",
          "name": "maxCollateralRatio",
          "type": "uint256"
        },
        {
          "indexed": false,
          "internalType": "uint256",
          "name": "liquidationThreshold",
          "type": "uint256"
        },
        {
          "indexed": false,
          "internalType": "uint256",
          "name": "desiredInterestRate",
          "type": "uint256"
        },
        {
          "indexed": false,
          "internalType": "uint256",
          "name": "paymentDuration",
          "type": "uint256"
        },
        {
          "indexed": false,
          "internalType": "uint256",
          "name": "minimalPartialFill",
          "type": "uint256"
        }
      ],
      "name": "BorrowingRequestCreated",
      "type": "event"
    },
    {
      "anonymous": false,
      "inputs": [
        {
          "indexed": false,
          "internalType": "uint256",
          "name": "requestId",
          "type": "uint256"
        }
      ],
      "name": "LendingRequestAutoCanceled",
      "type": "event"
    },
    {
      "anonymous": false,
      "inputs": [
        {
          "indexed": false,
          "internalType": "uint256",
          "name": "requestId",
          "type": "uint256"
        },
        {
          "indexed": false,
          "internalType": "string",
          "name": "canceller",
          "type": "string"
        }
      ],
      "name": "LendingRequestCanceled",
      "type": "event"
    },
    {
      "anonymous": false,
      "inputs": [
        {
          "indexed": false,
          "internalType": "uint256",
          "name": "requestId",
          "type": "uint256"
        },
        {
          "indexed": false,
          "internalType": "string",
          "name": "lender",
          "type": "string"
        },
        {
          "indexed": false,
          "internalType": "uint256",
          "name": "amountToLendUSD",
          "type": "uint256"
        },
        {
          "indexed": false,
          "internalType": "uint256",
          "name": "minCollateralRatio",
          "type": "uint256"
        },
        {
          "indexed": false,
          "internalType": "uint256",
          "name": "liquidationThreshold",
          "type": "uint256"
        },
        {
          "indexed": false,
          "internalType": "uint256",
          "name": "desiredInterestRate",
          "type": "uint256"
        },
        {
          "indexed": false,
          "internalType": "uint256",
          "name": "paymentDuration",
          "type": "uint256"
        },
        {
          "indexed": false,
          "internalType": "uint256",
          "name": "minimalPartialFill",
          "type": "uint256"
        }
      ],
      "name": "LendingRequestCreated",
      "type": "event"
    },
    {
      "anonymous": false,
      "inputs": [
        {
          "indexed": false,
          "internalType": "uint256",
          "name": "loanId",
          "type": "uint256"
        },
        {
          "indexed": false,
          "internalType": "uint256",
          "name": "requestId",
          "type": "uint256"
        },
        {
          "indexed": false,
          "internalType": "string",
          "name": "lender",
          "type": "string"
        },
        {
          "indexed": false,
          "internalType": "string",
          "name": "borrower",
          "type": "string"
        },
        {
          "indexed": false,
          "internalType": "uint256",
          "name": "amountBorrowedUSD",
          "type": "uint256"
        },
        {
          "indexed": false,
          "internalType": "uint256",
          "name": "collateralAmountXRP",
          "type": "uint256"
        },
        {
          "indexed": false,
          "internalType": "uint256",
          "name": "amountPayableToLender",
          "type": "uint256"
        },
        {
          "indexed": false,
          "internalType": "uint256",
          "name": "amountPayableToPlatform",
          "type": "uint256"
        },
        {
          "indexed": false,
          "internalType": "uint256",
          "name": "repayBy",
          "type": "uint256"
        },
        {
          "indexed": false,
          "internalType": "uint256",
          "name": "liquidationThreshold",
          "type": "uint256"
        }
      ],
      "name": "LoanCreatedFromBorrowingRequest",
      "type": "event"
    },
    {
      "anonymous": false,
      "inputs": [
        {
          "indexed": false,
          "internalType": "uint256",
          "name": "loanId",
          "type": "uint256"
        },
        {
          "indexed": false,
          "internalType": "uint256",
          "name": "requestId",
          "type": "uint256"
        },
        {
          "indexed": false,
          "internalType": "string",
          "name": "lender",
          "type": "string"
        },
        {
          "indexed": false,
          "internalType": "string",
          "name": "borrower",
          "type": "string"
        },
        {
          "indexed": false,
          "internalType": "uint256",
          "name": "amountBorrowedUSD",
          "type": "uint256"
        },
        {
          "indexed": false,
          "internalType": "uint256",
          "name": "collateralAmountXRP",
          "type": "uint256"
        },
        {
          "indexed": false,
          "internalType": "uint256",
          "name": "amountPayableToLender",
          "type": "uint256"
        },
        {
          "indexed": false,
          "internalType": "uint256",
          "name": "amountPayableToPlatform",
          "type": "uint256"
        },
        {
          "indexed": false,
          "internalType": "uint256",
          "name": "repayBy",
          "type": "uint256"
        },
        {
          "indexed": false,
          "internalType": "uint256",
          "name": "liquidationThreshold",
          "type": "uint256"
        }
      ],
      "name": "LoanCreatedFromLendingRequest",
      "type": "event"
    },
    {
      "anonymous": false,
      "inputs": [
        {
          "indexed": false,
          "internalType": "uint256",
          "name": "loanId",
          "type": "uint256"
        },
        {
          "indexed": false,
          "internalType": "string",
          "name": "liquidator",
          "type": "string"
        },
        {
          "indexed": false,
          "internalType": "uint256",
          "name": "collateralLiquidated",
          "type": "uint256"
        }
      ],
      "name": "LoanLiquidated",
      "type": "event"
    },
    {
      "anonymous": false,
      "inputs": [
        {
          "indexed": false,
          "internalType": "uint256",
          "name": "loanId",
          "type": "uint256"
        },
        {
          "indexed": false,
          "internalType": "uint256",
          "name": "amountRepaid",
          "type": "uint256"
        },
        {
          "indexed": false,
          "internalType": "uint256",
          "name": "totalPaid",
          "type": "uint256"
        }
      ],
      "name": "LoanRepaid",
      "type": "event"
    },
    {
      "anonymous": false,
      "inputs": [
        {
          "indexed": false,
          "internalType": "uint256",
          "name": "loanId",
          "type": "uint256"
        },
        {
          "indexed": false,
          "internalType": "string",
          "name": "borrower",
          "type": "string"
        },
        {
          "indexed": false,
          "internalType": "uint256",
          "name": "newAmountBorrowedUSD",
          "type": "uint256"
        },
        {
          "indexed": false,
          "internalType": "uint256",
          "name": "newCollateralAmountXRP",
          "type": "uint256"
        },
        {
          "indexed": false,
          "internalType": "uint256",
          "name": "newAmountPayableToLender",
          "type": "uint256"
        }
      ],
      "name": "LoanUpdated",
      "type": "event"
    },
    {
      "anonymous": false,
      "inputs": [
        {
          "indexed": false,
          "internalType": "uint256",
          "name": "newPrice",
          "type": "uint256"
        }
      ],
      "name": "PriceUpdated",
      "type": "event"
    },
    {
      "inputs": [],
      "name": "PLATFORM_FEE_PERCENT",
      "outputs": [
        {
          "internalType": "uint256",
          "name": "",
          "type": "uint256"
        }
      ],
      "stateMutability": "view",
      "type": "function"
    },
    {
      "inputs": [],
      "name": "SELECTOR_ACCEPT_BORROWING_REQUEST",
      "outputs": [
        {
          "internalType": "bytes32",
          "name": "",
          "type": "bytes32"
        }
      ],
      "stateMutability": "view",
      "type": "function"
    },
    {
      "inputs": [],
      "name": "SELECTOR_ACCEPT_LENDING_REQUEST",
      "outputs": [
        {
          "internalType": "bytes32",
          "name": "",
          "type": "bytes32"
        }
      ],
      "stateMutability": "view",
      "type": "function"
    },
    {
      "inputs": [],
      "name": "SELECTOR_BORROWING_REQUEST",
      "outputs": [
        {
          "internalType": "bytes32",
          "name": "",
          "type": "bytes32"
        }
      ],
      "stateMutability": "view",
      "type": "function"
    },
    {
      "inputs": [],
      "name": "SELECTOR_CANCEL_BORROWING_REQUEST",
      "outputs": [
        {
          "internalType": "bytes32",
          "name": "",
          "type": "bytes32"
        }
      ],
      "stateMutability": "view",
      "type": "function"
    },
    {
      "inputs": [],
      "name": "SELECTOR_CANCEL_LENDING_REQUEST",
      "outputs": [
        {
          "internalType": "bytes32",
          "name": "",
          "type": "bytes32"
        }
      ],
      "stateMutability": "view",
      "type": "function"
    },
    {
      "inputs": [],
      "name": "SELECTOR_LENDING_REQUEST",
      "outputs": [
        {
          "internalType": "bytes32",
          "name": "",
          "type": "bytes32"
        }
      ],
      "stateMutability": "view",
      "type": "function"
    },
    {
      "inputs": [],
      "name": "SELECTOR_LIQUIDATE_LOAN",
      "outputs": [
        {
          "internalType": "bytes32",
          "name": "",
          "type": "bytes32"
        }
      ],
      "stateMutability": "view",
      "type": "function"
    },
    {
      "inputs": [],
      "name": "SELECTOR_REPAY_LOAN",
      "outputs": [
        {
          "internalType": "bytes32",
          "name": "",
          "type": "bytes32"
        }
      ],
      "stateMutability": "view",
      "type": "function"
    },
    {
      "inputs": [],
      "name": "SUPPORTED_SOURCE_CHAIN_HASH",
      "outputs": [
        {
          "internalType": "bytes32",
          "name": "",
          "type": "bytes32"
        }
      ],
      "stateMutability": "view",
      "type": "function"
    },
    {
      "inputs": [],
      "name": "borrowingRequestCounter",
      "outputs": [
        {
          "internalType": "uint256",
          "name": "",
          "type": "uint256"
        }
      ],
      "stateMutability": "view",
      "type": "function"
    },
    {
      "inputs": [
        {
          "internalType": "uint256",
          "name": "",
          "type": "uint256"
        }
      ],
      "name": "borrowingRequests",
      "outputs": [
        {
          "internalType": "string",
          "name": "borrower",
          "type": "string"
        },
        {
          "internalType": "uint256",
          "name": "amountToBorrowUSD",
          "type": "uint256"
        },
        {
          "internalType": "uint256",
          "name": "amountBorrowedUSD",
          "type": "uint256"
        },
        {
          "internalType": "uint256",
          "name": "initialCollateralAmountXRP",
          "type": "uint256"
        },
        {
          "internalType": "uint256",
          "name": "existingCollateralAmountXRP",
          "type": "uint256"
        },
        {
          "internalType": "uint256",
          "name": "maxCollateralRatio",
          "type": "uint256"
        },
        {
          "internalType": "uint256",
          "name": "liquidationThreshold",
          "type": "uint256"
        },
        {
          "internalType": "uint256",
          "name": "desiredInterestRate",
          "type": "uint256"
        },
        {
          "internalType": "uint256",
          "name": "paymentDuration",
          "type": "uint256"
        },
        {
          "internalType": "uint256",
          "name": "minimalPartialFill",
          "type": "uint256"
        },
        {
          "internalType": "bool",
          "name": "canceled",
          "type": "bool"
        },
        {
          "internalType": "bool",
          "name": "autoCanceled",
          "type": "bool"
        }
      ],
      "stateMutability": "view",
      "type": "function"
    },
    {
      "inputs": [],
      "name": "currentXRPPriceUSD",
      "outputs": [
        {
          "internalType": "uint256",
          "name": "",
          "type": "uint256"
        }
      ],
      "stateMutability": "view",
      "type": "function"
    },
    {
      "inputs": [
        {
          "internalType": "bytes32",
          "name": "commandId",
          "type": "bytes32"
        },
        {
          "internalType": "string",
          "name": "sourceChain",
          "type": "string"
        },
        {
          "internalType": "string",
          "name": "sourceAddress",
          "type": "string"
        },
        {
          "internalType": "bytes",
          "name": "payload",
          "type": "bytes"
        }
      ],
      "name": "execute",
      "outputs": [],
      "stateMutability": "nonpayable",
      "type": "function"
    },
    {
      "inputs": [
        {
          "internalType": "bytes32",
          "name": "commandId",
          "type": "bytes32"
        },
        {
          "internalType": "string",
          "name": "sourceChain",
          "type": "string"
        },
        {
          "internalType": "string",
          "name": "sourceAddress",
          "type": "string"
        },
        {
          "internalType": "bytes",
          "name": "payload",
          "type": "bytes"
        },
        {
          "internalType": "string",
          "name": "tokenSymbol",
          "type": "string"
        },
        {
          "internalType": "uint256",
          "name": "amount",
          "type": "uint256"
        }
      ],
      "name": "executeWithToken",
      "outputs": [],
      "stateMutability": "nonpayable",
      "type": "function"
    },
    {
      "inputs": [],
      "name": "gateway",
      "outputs": [
        {
          "internalType": "contract IMyAxelarGateway",
          "name": "",
          "type": "address"
        }
      ],
      "stateMutability": "view",
      "type": "function"
    },
    {
      "inputs": [
        {
          "internalType": "uint256",
          "name": "_requestId",
          "type": "uint256"
        }
      ],
      "name": "getBorrowingRequest",
      "outputs": [
        {
          "components": [
            {
              "internalType": "string",
              "name": "borrower",
              "type": "string"
            },
            {
              "internalType": "uint256",
              "name": "amountToBorrowUSD",
              "type": "uint256"
            },
            {
              "internalType": "uint256",
              "name": "amountBorrowedUSD",
              "type": "uint256"
            },
            {
              "internalType": "uint256",
              "name": "initialCollateralAmountXRP",
              "type": "uint256"
            },
            {
              "internalType": "uint256",
              "name": "existingCollateralAmountXRP",
              "type": "uint256"
            },
            {
              "internalType": "uint256",
              "name": "maxCollateralRatio",
              "type": "uint256"
            },
            {
              "internalType": "uint256",
              "name": "liquidationThreshold",
              "type": "uint256"
            },
            {
              "internalType": "uint256",
              "name": "desiredInterestRate",
              "type": "uint256"
            },
            {
              "internalType": "uint256",
              "name": "paymentDuration",
              "type": "uint256"
            },
            {
              "internalType": "uint256",
              "name": "minimalPartialFill",
              "type": "uint256"
            },
            {
              "internalType": "bool",
              "name": "canceled",
              "type": "bool"
            },
            {
              "internalType": "bool",
              "name": "autoCanceled",
              "type": "bool"
            }
          ],
          "internalType": "struct XrpLendingP2PV4.BorrowingRequest",
          "name": "",
          "type": "tuple"
        }
      ],
      "stateMutability": "view",
      "type": "function"
    },
    {
      "inputs": [],
      "name": "getCurrentPrice",
      "outputs": [
        {
          "internalType": "uint256",
          "name": "",
          "type": "uint256"
        }
      ],
      "stateMutability": "view",
      "type": "function"
    },
    {
      "inputs": [
        {
          "internalType": "uint256",
          "name": "_requestId",
          "type": "uint256"
        }
      ],
      "name": "getLendingRequest",
      "outputs": [
        {
          "components": [
            {
              "internalType": "string",
              "name": "lender",
              "type": "string"
            },
            {
              "internalType": "uint256",
              "name": "amountToLendUSD",
              "type": "uint256"
            },
            {
              "internalType": "uint256",
              "name": "amountLendedUSD",
              "type": "uint256"
            },
            {
              "internalType": "uint256",
              "name": "minCollateralRatio",
              "type": "uint256"
            },
            {
              "internalType": "uint256",
              "name": "liquidationThreshold",
              "type": "uint256"
            },
            {
              "internalType": "uint256",
              "name": "desiredInterestRate",
              "type": "uint256"
            },
            {
              "internalType": "uint256",
              "name": "paymentDuration",
              "type": "uint256"
            },
            {
              "internalType": "uint256",
              "name": "minimalPartialFill",
              "type": "uint256"
            },
            {
              "internalType": "bool",
              "name": "canceled",
              "type": "bool"
            },
            {
              "internalType": "bool",
              "name": "autoCanceled",
              "type": "bool"
            }
          ],
          "internalType": "struct XrpLendingP2PV4.LendingRequest",
          "name": "",
          "type": "tuple"
        }
      ],
      "stateMutability": "view",
      "type": "function"
    },
    {
      "inputs": [
        {
          "internalType": "uint256",
          "name": "_loanId",
          "type": "uint256"
        }
      ],
      "name": "getLoanDetails",
      "outputs": [
        {
          "components": [
            {
              "internalType": "string",
              "name": "lender",
              "type": "string"
            },
            {
              "internalType": "string",
              "name": "borrower",
              "type": "string"
            },
            {
              "internalType": "uint256",
              "name": "amountBorrowedUSD",
              "type": "uint256"
            },
            {
              "internalType": "uint256",
              "name": "amountPayableToLender",
              "type": "uint256"
            },
            {
              "internalType": "uint256",
              "name": "amountPayableToPlatform",
              "type": "uint256"
            },
            {
              "internalType": "uint256",
              "name": "amountPaidUSD",
              "type": "uint256"
            },
            {
              "internalType": "uint256",
              "name": "collateralAmountXRP",
              "type": "uint256"
            },
            {
              "internalType": "uint256",
              "name": "repayBy",
              "type": "uint256"
            },
            {
              "internalType": "uint256",
              "name": "liquidationThreshold",
              "type": "uint256"
            },
            {
              "internalType": "bool",
              "name": "isLiquidated",
              "type": "bool"
            }
          ],
          "internalType": "struct XrpLendingP2PV4.Loan",
          "name": "",
          "type": "tuple"
        }
      ],
      "stateMutability": "view",
      "type": "function"
    },
    {
      "inputs": [
        {
          "internalType": "string",
          "name": "_user",
          "type": "string"
        }
      ],
      "name": "getUserBorrowingRequests",
      "outputs": [
        {
          "internalType": "uint256[]",
          "name": "",
          "type": "uint256[]"
        }
      ],
      "stateMutability": "view",
      "type": "function"
    },
    {
      "inputs": [
        {
          "internalType": "string",
          "name": "_user",
          "type": "string"
        }
      ],
      "name": "getUserLendingRequests",
      "outputs": [
        {
          "internalType": "uint256[]",
          "name": "",
          "type": "uint256[]"
        }
      ],
      "stateMutability": "view",
      "type": "function"
    },
    {
      "inputs": [
        {
          "internalType": "string",
          "name": "_user",
          "type": "string"
        }
      ],
      "name": "getUserLoans",
      "outputs": [
        {
          "internalType": "uint256[]",
          "name": "",
          "type": "uint256[]"
        }
      ],
      "stateMutability": "view",
      "type": "function"
    },
    {
      "inputs": [],
      "name": "lastPriceUpdateTimestamp",
      "outputs": [
        {
          "internalType": "uint256",
          "name": "",
          "type": "uint256"
        }
      ],
      "stateMutability": "view",
      "type": "function"
    },
    {
      "inputs": [],
      "name": "lendingRequestCounter",
      "outputs": [
        {
          "internalType": "uint256",
          "name": "",
          "type": "uint256"
        }
      ],
      "stateMutability": "view",
      "type": "function"
    },
    {
      "inputs": [
        {
          "internalType": "uint256",
          "name": "",
          "type": "uint256"
        }
      ],
      "name": "lendingRequests",
      "outputs": [
        {
          "internalType": "string",
          "name": "lender",
          "type": "string"
        },
        {
          "internalType": "uint256",
          "name": "amountToLendUSD",
          "type": "uint256"
        },
        {
          "internalType": "uint256",
          "name": "amountLendedUSD",
          "type": "uint256"
        },
        {
          "internalType": "uint256",
          "name": "minCollateralRatio",
          "type": "uint256"
        },
        {
          "internalType": "uint256",
          "name": "liquidationThreshold",
          "type": "uint256"
        },
        {
          "internalType": "uint256",
          "name": "desiredInterestRate",
          "type": "uint256"
        },
        {
          "internalType": "uint256",
          "name": "paymentDuration",
          "type": "uint256"
        },
        {
          "internalType": "uint256",
          "name": "minimalPartialFill",
          "type": "uint256"
        },
        {
          "internalType": "bool",
          "name": "canceled",
          "type": "bool"
        },
        {
          "internalType": "bool",
          "name": "autoCanceled",
          "type": "bool"
        }
      ],
      "stateMutability": "view",
      "type": "function"
    },
    {
      "inputs": [],
      "name": "loanCounter",
      "outputs": [
        {
          "internalType": "uint256",
          "name": "",
          "type": "uint256"
        }
      ],
      "stateMutability": "view",
      "type": "function"
    },
    {
      "inputs": [
        {
          "internalType": "uint256",
          "name": "",
          "type": "uint256"
        }
      ],
      "name": "loans",
      "outputs": [
        {
          "internalType": "string",
          "name": "lender",
          "type": "string"
        },
        {
          "internalType": "string",
          "name": "borrower",
          "type": "string"
        },
        {
          "internalType": "uint256",
          "name": "amountBorrowedUSD",
          "type": "uint256"
        },
        {
          "internalType": "uint256",
          "name": "amountPayableToLender",
          "type": "uint256"
        },
        {
          "internalType": "uint256",
          "name": "amountPayableToPlatform",
          "type": "uint256"
        },
        {
          "internalType": "uint256",
          "name": "amountPaidUSD",
          "type": "uint256"
        },
        {
          "internalType": "uint256",
          "name": "collateralAmountXRP",
          "type": "uint256"
        },
        {
          "internalType": "uint256",
          "name": "repayBy",
          "type": "uint256"
        },
        {
          "internalType": "uint256",
          "name": "liquidationThreshold",
          "type": "uint256"
        },
        {
          "internalType": "bool",
          "name": "isLiquidated",
          "type": "bool"
        }
      ],
      "stateMutability": "view",
      "type": "function"
    },
    {
      "inputs": [],
      "name": "oracleUpdater",
      "outputs": [
        {
          "internalType": "address",
          "name": "",
          "type": "address"
        }
      ],
      "stateMutability": "view",
      "type": "function"
    },
    {
      "inputs": [
        {
          "internalType": "uint256",
          "name": "newPrice",
          "type": "uint256"
        }
      ],
      "name": "setPriceOracle",
      "outputs": [],
      "stateMutability": "nonpayable",
      "type": "function"
    },
    {
      "inputs": [],
      "name": "supportedSourceChain",
      "outputs": [
        {
          "internalType": "string",
          "name": "",
          "type": "string"
        }
      ],
      "stateMutability": "view",
      "type": "function"
    },
    {
      "inputs": [
        {
          "internalType": "string",
          "name": "",
          "type": "string"
        },
        {
          "internalType": "uint256",
          "name": "",
          "type": "uint256"
        }
      ],
      "name": "userBorrowingRequests",
      "outputs": [
        {
          "internalType": "uint256",
          "name": "",
          "type": "uint256"
        }
      ],
      "stateMutability": "view",
      "type": "function"
    },
    {
      "inputs": [
        {
          "internalType": "string",
          "name": "",
          "type": "string"
        },
        {
          "internalType": "uint256",
          "name": "",
          "type": "uint256"
        }
      ],
      "name": "userLendingRequests",
      "outputs": [
        {
          "internalType": "uint256",
          "name": "",
          "type": "uint256"
        }
      ],
      "stateMutability": "view",
      "type": "function"
    },
    {
      "inputs": [
        {
          "internalType": "string",
          "name": "",
          "type": "string"
        },
        {
          "internalType": "uint256",
          "name": "",
          "type": "uint256"
        }
      ],
      "name": "userLoans",
      "outputs": [
        {
          "internalType": "uint256",
          "name": "",
          "type": "uint256"
        }
      ],
      "stateMutability": "view",
      "type": "function"
    }
  ],
  "bytecode": "0x60c0346100dd57601f613bf038819003918201601f19168301916001600160401b038311848410176100e25780849260409485528339810103126100dd57610052602061004b836100f8565b92016100f8565b906001600160a01b038116156100cc57608052600080546001600160a01b0319166001600160a01b03929092169190911781556003819055600a819055600b553360a052604051613ae3908161010d8239608051818181610c0601528181611537015261338c015260a05181818161076701526109e80152f35b63e6c4247b60e01b60005260046000fd5b600080fd5b634e487b7160e01b600052604160045260246000fd5b51906001600160a01b03821682036100dd5756fe608080604052600436101561001357600080fd5b600090813560e01c9081630bc82cf3146133f0575080630fc6fec4146133bb578063116191b61461337657806314c7eb49146132135780631a98b2e0146114615780632153c8fd1461142c578063220f8e18146113a857806323b1f8e41461138a5780633077d7d11461134f57806331f59c551461131457806334d9289e146112f65780633cbfbbf3146112bb57806345887070146101d45780634916065814610b61578063560d52d414610b4557806361a979bf14610a8c578063625c513b146109d15780636468499b146109b3578063655e16001461099557806366811ce81461093c57806366877b8d146107bf57806378f2c2c314610796578063805d64a01461075157806380a960071461067b57806384311dc014610640578063976e9989146105bc578063a824ca9314610581578063a8e2135c146103e6578063b8ecd94d1461033f578063bad271691461030b578063dec20e05146102d0578063e1ec3c68146101f2578063eb91d37e146101d45763f8f769be1461019757600080fd5b346101d157806003193601126101d15760206040517f7c4ef9fcbcd718c531be33e6c1e942f34ae50e2c58f65d1da8631ee13be5eb668152f35b80fd5b50346101d157806003193601126101d1576020600154604051908152f35b50346101d15760203660031901126101d15760406102919160043581526004602052206040519061022e826102278184613645565b0383613478565b604051610249816102428160018601613645565b0382613478565b60028201549160038101546004820154600583015460068401549160078501549361029f60ff6009600889015498015416976040519b8c9b6101408d526101408d019061357f565b908b820360208d015261357f565b9760408a01526060890152608088015260a087015260c086015260e085015261010084015215156101208301520390f35b50346101d157806003193601126101d15760206040517fde25758b3e02a50e26bf555d8688aff6c38cd237cfa12e59c1961ae28e5d516b8152f35b50346101d157806003193601126101d15761033b6103276136c8565b60405191829160208352602083019061357f565b0390f35b50346101d15760203660031901126101d1576004356001600160401b0381116103e25760206103756103889236906004016134df565b816040519382858094519384920161352e565b81016007815203019020604051918260208354918281520192825260208220915b8181106103cc5761033b856103c081870382613478565b604051918291826135d1565b82548452602090930192600192830192016103a9565b5080fd5b50346101d15760203660031901126101d1576040816101a092610160835161040d8161345c565b6060815282602082015282858201528260608201528260808201528260a08201528260c08201528260e082015282610100820152826101208201528261014082015201526004358152600660205220604051906104698261345c565b60405161047a816102428185613645565b82526001810154906020830191825260028101546040840190815260038201549160608501928352600481015460808601908152600582015460a08701908152600683015460c0880190815260078401549160e089019283526008850154936101008a01948552600a6009870154966101208c019788520154976101408b019760ff8a161515895260ff6101608d019a60081c1615158a52610531604051809e819e6020835251916101806020820152019061357f565b9a5160408d01525160608c01525160808b01525160a08a01525160c08901525160e08801525161010087015251610120860152516101408501525115156101608401525115156101808301520390f35b50346101d157806003193601126101d15760206040517f34d844336851612d0d8a9c6849f53488b6afbfddc10b3fc3244fd1542d82001b8152f35b50346101d15760203660031901126101d1576004356001600160401b0381116103e25760206103756105f29236906004016134df565b81016009815203019020604051918260208354918281520192825260208220915b81811061062a5761033b856103c081870382613478565b8254845260209093019260019283019201610613565b50346101d157806003193601126101d15760206040517f2bf410a8493e77af80af6f30380c04e8c4b71932630dcf9c831b20e7388ee3a88152f35b50346101d15760203660031901126101d1576040906004358152600660205220610180604051916106b7836106b08184613645565b0384613478565b60ff600182015491600281015490600381015460048201546005830154600684015490600785015492600886015494600a6009880154970154976107066040519d8d8f9e8f908152019061357f565b9a60208d015260408c015260608b015260808a015260a089015260c088015260e0870152610100860152610120850152818116151561014085015260081c1615156101608301520390f35b50346101d157806003193601126101d1576040517f00000000000000000000000000000000000000000000000000000000000000006001600160a01b03168152602090f35b50346101d157806003193601126101d15760206107b16136c8565b818151910120604051908152f35b50346101d15760203660031901126101d15760206040826101409361012083516107e88161342a565b6060815260608682015282858201528260608201528260808201528260a08201528260c08201528260e0820152826101008201520152600435815260048352206040516108348161342a565b604051610845816102428186613645565b81526040519161085c836106b08160018501613645565b8382019283526002810154926040830193845260038201546060840190815260048301546080850190815260058401549060a0860191825260068501549260c0870193845261090260078701549560e089019687526108ef60ff600960088b01549a6101008d019b8c520154169961012081019a15158b526040519d8d8f9e928f938452519201526101608d019061357f565b90518b8203601f190160408d015261357f565b975160608a01525160808901525160a08801525160c08701525160e086015251610100850152516101208401525115156101408301520390f35b50346101d157602090610966610951366134fd565b9390816040519382858094519384920161352e565b810160078152030190209081548310156101d15760206109868484613551565b90549060031b1c604051908152f35b50346101d157806003193601126101d1576020600a54604051908152f35b50346101d157806003193601126101d1576020600b54604051908152f35b50346101d15760203660031901126101d1576004357f00000000000000000000000000000000000000000000000000000000000000006001600160a01b03163303610a48576020817f66cbca4f3c64fecf1dcb9ce094abcf7f68c3450a1d4e3a8e917dd621edb4ebe092600155604051908152a180f35b606460405162461bcd60e51b815260206004820152602060248201527f43616c6c6572206973206e6f7420746865206f7261636c6520757064617465726044820152fd5b50346101d15760203660031901126101d1576040610b0691600435815260056020522060405190610ac1826102278184613645565b60ff6001820154916002810154906003810154600482015460058301549060068401549260086007860154950154956040519a8b9a6101408c526101408c019061357f565b9860208b015260408a01526060890152608088015260a087015260c086015260e0850152818116151561010085015260081c1615156101208301520390f35b50346101d157806003193601126101d157602060405160058152f35b50346101d15760803660031901126101d1576024356001600160401b0381116103e257610b929036906004016135a4565b6044356001600160401b03811161106b57610bb19036906004016135a4565b9190926064356001600160401b0381116112b757610bd39036906004016135a4565b9091610be0368385613499565b8051602091820120604051635f6970c360e01b81526004803590820152608060248201527f00000000000000000000000000000000000000000000000000000000000000006001600160a01b03169692909182908190610c5b8c8c610c49608486018a8c61370a565b8581036003190160448701529161370a565b90606483015203818c8a5af19081156112ac57899161127d575b501561126e57610c8f610cb3949392610cab923691613499565b60208151910120610c9e6136c8565b602081519101201461372b565b81019061376e565b9190604051610ce360208281610cd2818301968781519384920161352e565b81010301601f198101835282613478565b5190207fde25758b3e02a50e26bf555d8688aff6c38cd237cfa12e59c1961ae28e5d516b8103610dbc57505060208151918180820193849201010312610db7577f9d9930deac2c319f6551b9a16eb7e01a31224fecf2fcb618159c414e44c2362f92610d529151923691613499565b908084526005602052600860408520610d89604051610d75816102428186613645565b6020815191012085516020870120146139bd565b0160018154610d9b60ff821615613a09565b60ff1916179055610db160405192839283613a55565b0390a180f35b600080fd5b7fe69dc4620ee0a9212a459c83b8c8cd0a36ebf6d6727329fc7e3e67a3e87df79d8103610e4b57505060208151918180820193849201010312610db7577f2af119227ec26a21ab3ae1550987f63aac1ac06a30a76f83608b2ca8851accee92610e289151923691613499565b908084526006602052600a60408520610d89604051610d75816102428186613645565b909391907f4a469cefcbed9a88178fc34579047173d00d4643d65873018db1ec410f46e00d036112325760208151918180820193849201010312610db757519081855260046020526040852093600985019060ff8254166111ed5760078601544211156111a957610e10610ec1600254426137c7565b10156110ff575b60068601958654610edb60015482613970565b6064610ef06003850154600886015490613970565b0411156110c357604051610f08816102428186613645565b60208151910120610f1a368988613499565b602081519101200361106f578891610f306136c8565b93803b1561106b57610f6a84610f7c968195610f9e604051998a97889687956326ef699d60e01b875260806004880152608487019061357f565b85810360031901602487015290613645565b838103600319016044850152600381526205852560ec1b602082015260400190565b90606483015203925af19182611052575b5050610ffa5760405162461bcd60e51b815260206004820152601c60248201527f4661696c656420746f2073656e642058525020746f206c656e646572000000006044820152606490fd5b7f192e7442dd103acc961c7d78235baae73e1f85c8fe4d43ad5212631c411aa5b59461104691600160ff198254161790555491604051948594855260606020860152606085019161370a565b9060408301520390a180f35b8161105c91613478565b611067578638610faf565b8680fd5b8380fd5b60405162461bcd60e51b815260206004820152602660248201527f4f6e6c7920746865206c656e6465722063616e206c697175696461746520746860448201526532903637b0b760d11b6064820152608490fd5b60405162461bcd60e51b815260206004820152601460248201527310d85b9b9bdd081b1a5c5d5a59185d19481e595d60621b6044820152606490fd5b8654604051638183f10f60e01b815290602090829060049082906001600160a01b03165afa90811561119e57889161116b575b506020817f66cbca4f3c64fecf1dcb9ce094abcf7f68c3450a1d4e3a8e917dd621edb4ebe09260015542600255604051908152a1610ec8565b90506020813d602011611196575b8161118660209383613478565b81010312610db757516020611132565b3d9150611179565b6040513d8a823e3d90fd5b606460405162461bcd60e51b815260206004820152602060248201527f43616e6e6f74206c6971756964617465206265666f72652064756520646174656044820152fd5b60405162461bcd60e51b815260206004820152601760248201527f4c6f616e20616c7265616479206c6971756964617465640000000000000000006044820152606490fd5b60405162461bcd60e51b815260206004820152600f60248201526e125b9d985b1a590818dbdb5b585b99608a1b604482015280606481015b0390fd5b631403112d60e21b8852600488fd5b61129f915060203d6020116112a5575b6112978183613478565b8101906136f2565b38610c75565b503d61128d565b6040513d8b823e3d90fd5b8580fd5b50346101d157806003193601126101d15760206040517f02a0046ae0a72923f4582943512f0b3b95b88a4125f476ba466151a9053e12498152f35b50346101d157806003193601126101d1576020600354604051908152f35b50346101d157806003193601126101d15760206040517f4a469cefcbed9a88178fc34579047173d00d4643d65873018db1ec410f46e00d8152f35b50346101d157806003193601126101d15760206040517fe69dc4620ee0a9212a459c83b8c8cd0a36ebf6d6727329fc7e3e67a3e87df79d8152f35b50346101d157806003193601126101d1576020600254604051908152f35b50346101d15760203660031901126101d1576004356001600160401b0381116103e25760206103756113de9236906004016134df565b81016008815203019020604051918260208354918281520192825260208220915b8181106114165761033b856103c081870382613478565b82548452602090930192600192830192016113ff565b50346101d157602090611441610951366134fd565b810160088152030190209081548310156101d15760206109868484613551565b50346101d15760c03660031901126101d1576024356001600160401b0381116103e2576114929036906004016135a4565b91906044356001600160401b03811161192b576114b39036906004016135a4565b90936064356001600160401b038111612f72576114d49036906004016135a4565b906084356001600160401b03811161106757879261159e92611573602089886115028b9736906004016135a4565b989099611585611513368a8a613499565b805190870120604051631876eed960e01b8152600480359082015260c060248201527f00000000000000000000000000000000000000000000000000000000000000006001600160a01b03169b90988997889793959360c489019161370a565b8681036003190160448801529161370a565b906064840152600319838203016084840152898b61370a565b60a43560a483015203818d885af1908115613208578a916131e9575b50156131da5760a435156131a4576115da91610cab610c8f36898c613499565b96906040516115f960208281610cd2818301968781519384920161352e565b5190207f34d844336851612d0d8a9c6849f53488b6afbfddc10b3fc3244fd1542d82001b810361192f5750505050505060a08280518101031261192b57602082015160408301519161165c60608501519660a06080870151960151923691613499565b93611668600a54613961565b9687600a556040519761167a8961342a565b86895260a43560208a01528760408a01528460608a01528560808a01528160a08a01528260c08a01528360e08a0152876101008a0152876101208a0152875260056020526040872088518051906001600160401b038211611917576116df835461360b565b601f81116118d5575b50602090601f8311600114611842576117c093838c9d94610120946008947fb910788820c1fc1e98934bee6586d460fceb05098ba6698fb7f4ed9745174aeb9f92611837575b50508160011b916000199060031b1c19161781555b6020840151600182015560408401516002820155606084015160038201556080840151600482015560a0840151600582015560c0840151600682015560e0840151600782015501916117a86101008201511515849060ff801983541691151516179055565b0151815461ff00191690151560081b61ff0016179055565b6117ed604051602081816117da8b8381519384920161352e565b81016008815203019020600a5490613983565b600a549461180f6040519788978852610100602089015261010088019061357f565b9460a43560408801526060870152608086015260a085015260c084015260e08301520390a180f35b01519050388061172e565b90838b52808b20918b5b601f19851681106118bd575093600184610120947fb910788820c1fc1e98934bee6586d460fceb05098ba6698fb7f4ed9745174aeb9e9f96946117c098600896601f198116106118a4575b505050811b018155611743565b015160001960f88460031b161c19169055388080611897565b9192602060018192868501518155019401920161184c565b838b5260208b20601f840160051c810160208510611910575b8c601f840160051c83018210611906575050506116e8565b81556001016118ee565b50806118ee565b634e487b7160e01b8a52604160045260248afd5b8280fd5b9698967f2bf410a8493e77af80af6f30380c04e8c4b71932630dcf9c831b20e7388ee3a88103611c7c5750505050505060c08480518101031261192b57602084015160408501519160608601519561199860808201519560c060a0840151930151933691613499565b946119a4600b54613961565b9788600b55604051986119b68a61345c565b878a528560208b01528860408b015260a43560608b015260a43560808b01528660a08b01528160c08b01528260e08b0152836101008b0152846101208b0152886101408b0152886101608b0152885260066020526040882089518051906001600160401b038211611c6857611a2b835461360b565b601f8111611c26575b50602090601f8311600114611b9357611b0b93838d9e94610160947f52b3c3eb0ec3121857763d94d3f845187d46a75755afdbac574efd5e388ee4159f94600a9592611b88575b50508160011b916000199060031b1c19161781555b6020840151600182015560408401516002820155606084015160038201556080840151600482015560a0840151600582015560c0840151600682015560e084015160078201556101008401516008820155610120840151600982015501916117a86101408201511515849060ff801983541691151516179055565b611b3860405160208181611b258c8381519384920161352e565b81016009815203019020600b5490613983565b600b5495611b5a604051988998895261012060208a015261012089019061357f565b95604088015260a4356060880152608087015260a086015260c085015260e08401526101008301520390a180f35b015190503880611a7b565b90838c52808c20918c5b601f1985168110611c0e5750936001847f52b3c3eb0ec3121857763d94d3f845187d46a75755afdbac574efd5e388ee4159e9f9594600a94611b0b9861016097601f19811610611bf5575b505050811b018155611a90565b015160001960f88460031b161c19169055388080611be8565b91926020600181928685015181550194019201611b9d565b838c5260208c20601f840160051c810160208510611c61575b8d601f840160051c83018210611c5757505050611a34565b8155600101611c3f565b5080611c3f565b634e487b7160e01b8b52604160045260248bfd5b7f02a0046ae0a72923f4582943512f0b3b95b88a4125f476ba466151a9053e1249819a929394979598969a146000146124ba575090611cd4611cca8360208060089d965183010191016137ea565b9690953691613499565b95600197602098604051611ce88b82613478565b8b815290878c5260058b5260ff60408d209d8e0154166000146122fb5750508991611d11613926565b925b1561226157505050823b1561225d578585938993848094611d4a604051988996879586946326ef699d60e01b8652600486016138a2565b03925af19182612248575b5050611d745760405162461bcd60e51b81528061126a600482016138ee565b611d7f600354613961565b95866003556064611d94600583015485613970565b0460058102908082046005148115171561223457611db29085613821565b611dc0600684015442613821565b9860048401546040519a611dd38c61342a565b604051611de481610242818a613645565b8c52888a8d01528760408d01528360608d01526064850460808d01528a60a08d015260a43560c08d015260e08c01526101008b0152886101208b01528852600487526040882089518051906001600160401b038211611c68578190611e49845461360b565b601f81116121e7575b508a90601f831160011461217f578c92612174575b50508160011b916000199060031b1c19161781555b878a0151998a516001600160401b038111611c6857611e9e600184015461360b565b601f8111612131575b5089601f821160011461209557610120611f6793838e9f947fd78b81f983ab0b3a6517474d1a0daeff9e4c321ee95948ba22b05a7d820fdf319f9460649a9998966009969261208a575b50508160011b916000199060031b1c19161760018501555b60408101516002850155606081015160038501556080810151600485015560a0810151600585015560c0810151600685015560e0810151600785015561010081015160088501550151151591019060ff801983541691151516179055565b611f93604051898181611f808c8381519384920161352e565b8101600781520301902060035490613983565b611fb360028501611fa5888254613821565b8091556001860154906137c7565b600785015411612034575b61200960035497611ffb611fd6600688015442613821565b966004810154986040519c8d9c8d528c015261014060408c01526101408b0190613645565b9089820360608b015261357f565b95608088015260a43560a088015260c08701520460e08501526101008401526101208301520390a180f35b848a5260058852600860408b2001610101815461205460ff821615613a09565b61ffff19161790557f7562a949655b77cbaa6a59364f68ac2be8c52117d2d6274dc36793591f0053e188604051878152a1611fbe565b015190503880611ef1565b600184018c528a8c20919c8c8e5b601f191681106121195750611f679360017fd78b81f983ab0b3a6517474d1a0daeff9e4c321ee95948ba22b05a7d820fdf319e9f6064999897956009956101209583601f19811610612100575b505050811b016001850155611f09565b015160001960f88460031b161c191690553880806120f0565b828201518455600190930192918c01918c018e6120a3565b600184018c528a8c20601f830160051c81018c841061216d575b8d601f840160051c8301821061216357505050611ea7565b815560010161214b565b508061214b565b015190503880611e67565b9250838c528a8c20908c935b8c601f19851686106121ce57506001945083601f198116106121b5575b505050811b018155611e7c565b015160001960f88460031b161c191690553880806121a8565b828201518455948501946001909301929091019061218b565b909150838c528a8c20601f840160051c81018c851061222d575b84939291908e5b601f840160051c8301821061221f57505050611e52565b81558594506001018e612208565b5080612201565b634e487b7160e01b88526011600452602488fd5b8161225291613478565b6112b7578538611d55565b8780fd5b9199979550955060001960a435019060a435821161223457843b1561225d57916122a98896959493928793604051998a98899788966326ef699d60e01b885260048801613860565b03925af180156122f0576122db575b505061126a60405192839262461bcd60e51b84526004840152602483019061357f565b6122e6828092613478565b6101d157806122b8565b6040513d84823e3d90fd5b6123058d5461360b565b61234b575050899160405161231b604082613478565b601981527f4c656e64696e672072657175657374206e6f7420666f756e64000000000000008b820152925b611d13565b60078d01548910156123a85750508991604051612369606082613478565b602781527f426f72726f7720616d6f756e74206973206c657373207468616e206d696e696d8b82015266185b08199a5b1b60ca1b604082015292611d13565b8c6123bb828201546002830154906137c7565b8a11156124185750505089916040516123d5606082613478565b602b81527f426f72726f7720616d6f756e7420657863656564732072656d61696e696e67208b8201526a1b195b9908185b5bdd5b9d60aa1b604082015292611d13565b60036124269101548a613a6c565b60a43510156124705750508991604051612441604082613478565b601781527f496e73756666696369656e7420636f6c6c61746572616c0000000000000000008b82015292611d13565b61247e939193368385613499565b8b815191012060038c604051612495604082613478565b828152016205852560ec1b8152201461234657508a92506124b461382e565b92611d13565b7f7c4ef9fcbcd718c531be33e6c1e942f34ae50e2c58f65d1da8631ee13be5eb668103612ce65750976124fb611cca8a602080600a9d5183010191016137ea565b9560019760209860405161250f8b82613478565b8b815290878c5260068b5260ff60408d209d8e015416600014612b435750508991612538613926565b925b15612afa57505050823b1561225d5761257e899389938480946125b2612590604051998a97889687956326ef699d60e01b875260806004880152608487019161370a565b84810360031901602486015290613645565b82810360031901604484015260038152621554d160ea1b602082015260400190565b60a435606483015203925af19182612ae5575b50506125e45760405162461bcd60e51b81528061126a600482016138ee565b6125ef600354613961565b92836003556064612606600789015460a435613970565b0460058102908082046005148115171561223457612629899160648404906137c7565b956126368760a435613821565b612644600884015442613821565b60068401549161024261266c6040519661265d8861342a565b89885260405192838092613645565b8b86015260a435604086015260608501526064850460808501528a60a08501528760c085015260e084015261010083015288610120830152885260048752604088209080518051906001600160401b038211611c685781906126ce855461360b565b601f8111612a98575b508a90601f8311600114612a30578c92612a25575b50508160011b916000199060031b1c19161782555b878101518051906001600160401b038211611c6857612723600185015461360b565b601f81116129e2575b5089908b601f8411600114612985579280610120936127c49796936009969261208a5750508160011b916000199060031b1c191617600185015560408101516002850155606081015160038501556080810151600485015560a0810151600585015560c0810151600685015560e0810151600785015561010081015160088501550151151591019060ff801983541691151516179055565b604051978781546127d48161360b565b906001811690811561296e575060011461293e575b50906128288a897f5f3fd84535e3b48ba95fd197841a9e11e295fab1fb4da631105f7d76bf8a8dff9b9c85600760649897520301902060035490613983565b6002810161283960a4358254613821565b90556004810161284a8782546137c7565b8091556128606009830154600584015490613a6c565b116128e8575b6128bd6128786003549860a435613821565b916128af61288a600883015442613821565b966006830154986040519c8d9c8d528c015261014060408c01526101408b019061357f565b9089820360608b0152613645565b9560a435608089015260a088015260c08701520460e08501526101008401526101208301520390a180f35b848a5260068852600a60408b2001610101815461290860ff821615613a09565b61ffff19161790557fba8f1140804ed0d80b9366acd35166ac348a3f02961bec8d2578bab4bfffe56788604051878152a1612866565b905081895287892089905b82821061295c57505089016128286127e9565b8054828d015290890190600101612949565b60ff19168c5250801515028a0190506128286127e9565b5090600185018c528a8c20918c5b8c601f19861682106129cc57505083610120936127c4979693600193600997601f1981161061210057505050811b016001850155611f09565b6001849582939585015181550194019201612993565b600185018c528a8c20601f840160051c81018c8510612a1e575b8d601f840160051c83018210612a145750505061272c565b81556001016129fc565b50806129fc565b0151905038806126ec565b9250848c528a8c20908c935b8c601f1985168610612a7f57506001945083601f19811610612a66575b505050811b018255612701565b015160001960f88460031b161c19169055388080612a59565b8282015184559485019460019093019290910190612a3c565b909150848c528a8c20601f840160051c81018c8510612ade575b84939291908e5b601f840160051c83018210612ad0575050506126d7565b81558594506001018e612ab9565b5080612ab2565b81612aef91613478565b6112b75785386125c5565b858a948c94968b9360001960a435019060a435821161223457843b1561225d57916122a98896959493928793604051998a98899788966326ef699d60e01b885260048801613860565b612b4d8d5461360b565b612b935750508991604051612b63604082613478565b601b81527f426f72726f77696e672072657175657374206e6f7420666f756e6400000000008b820152925b61253a565b60098d015460a4351015612bf05750508991604051612bb3606082613478565b602581527f4c656e6420616d6f756e74206973206c657373207468616e206d696e696d616c8b8201526408199a5b1b60da1b60408201529261253a565b808d015460028e0154612c02916137c7565b60a4351115612c605750508991604051612c1d606082613478565b602b81527f4c656e6420616d6f756e7420657863656564732072656d61696e696e6720626f8b8201526a1c9c9bddc8185b5bdd5b9d60aa1b60408201529261253a565b60048d0154891115612cad5750508991604051612c7e604082613478565b601e81527f41736b696e6720666f7220746f6f206d75636820636f6c6c61746572616c00008b8201529261253a565b612cbb939193368385613499565b8b8151910120612cc9613800565b8c815191012014612b8e57508a9250612ce061382e565b9261253a565b7f7bd15d6b2d182a804b2a36c079625580f8a960afa839087ccb184e9db92b9a03909995929394979899146000146130e25790612d2f82602080612d39955183010191016137ea565b9790503691613499565b92600194602097604051612d4d8a82613478565b8a8152888b5260048a5260408b2097612d67368585613499565b8b8151910120612d75613800565b8051908d012014612fd85750508991612d8c61382e565b925b15612f8f57505050823b1561225d576040516326ef699d60e01b815288808280612dc060a4358a888a600486016138a2565b038183895af19182612f76575b5050612dec5760405162461bcd60e51b81528061126a600482016138ee565b87927fd9cfbcfb9ae5d65b8d34072de4575f602ee25cf3715bc05c291701fe9e258f9a612e4760058801612e2360a4358254613821565b80915560405191829160a4358c846040919493926060820195825260208201520152565b0390a16005860195865460038201541115612e69575b50505050505050505080f35b6006015492813b15612f725784612ea7938195612eb9610f7c6040519a8b98899788966326ef699d60e01b885260806004890152608488019161370a565b8581036003190160248701529061357f565b90606483015203925af19182612f5d575b5050612f155760405162461bcd60e51b815260048101849052601e60248201527f4661696c656420746f2073656e642058525020746f20626f72726f77657200006044820152606490fd5b546040805192835260a43560208401528201527fd9cfbcfb9ae5d65b8d34072de4575f602ee25cf3715bc05c291701fe9e258f9a9150606090a1388080808481808080612e5d565b81612f6791613478565b612f72578438612eca565b8480fd5b81612f8091613478565b612f8b578838612dcd565b8880fd5b858a948c9496899360001960a435019060a435821161223457843b1561225d57916122a98896959493928793604051998a98899788966326ef699d60e01b885260048801613860565b604051612feb81610242818d8601613645565b8051908c01208851898d012014613033575050899160405161300e604082613478565b60128152712737ba103a3432903637b0b71037bbb732b960711b8b820152925b612d8e565b600989015460ff16156130815750508991604051613052604082613478565b601a81527f4c6f616e20697320616c7265616479206c6971756964617465640000000000008b82015292612d8e565b60058901549193916130959060a435613821565b60038a0154101561302e5750915089916040516130b3604082613478565b601d81527f52657061796d656e74206578636565647320616d6f756e74206f7765640000008b82015292612d8e565b5096959390919260001960a4350160a4358111612234578798859897983b1561225d57613137968894610c49613149936040519c8d9b8c9a8b996326ef699d60e01b8b52608060048c015260848b019161370a565b8881036003190160248a01529161370a565b90606483015203925af180156122f0576131945760405162461bcd60e51b815260206004820152600f60248201526e125b9d985b1a590818dbdb5b585b99608a1b6044820152606490fd5b8161319e91613478565b38611232565b60405162461bcd60e51b815260206004820152600e60248201526d125b9d985b1a5908185b5bdd5b9d60921b6044820152606490fd5b631403112d60e21b8952600489fd5b613202915060203d6020116112a5576112978183613478565b386115ba565b6040513d8c823e3d90fd5b50346101d15760203660031901126101d15760408161333492610120835161323a8161342a565b6060815282602082015282858201528260608201528260808201528260a08201528260c08201528260e08201528261010082015201526004358152600560205220604051906132888261342a565b604051613299816102428185613645565b82526001810154906020830191825260028101546040840190815260038201549160608501928352600481015460808601908152600582015460a0870190815260068301549160c08801928352600860078501549460e08a0195865201549561010089019560ff88161515875260ff6101208b019860081c16151588526040519a8b9a60208c525161014060208d01526101608c019061357f565b985160408b01525160608a01525160808901525160a08801525160c08701525160e0860152516101008501525115156101208401525115156101408301520390f35b50346101d157806003193601126101d1576040517f00000000000000000000000000000000000000000000000000000000000000006001600160a01b03168152602090f35b50346101d1576020906133d0610951366134fd565b810160098152030190209081548310156101d15760206109868484613551565b9050346103e257816003193601126103e257807f7bd15d6b2d182a804b2a36c079625580f8a960afa839087ccb184e9db92b9a0360209252f35b61014081019081106001600160401b0382111761344657604052565b634e487b7160e01b600052604160045260246000fd5b61018081019081106001600160401b0382111761344657604052565b90601f801991011681019081106001600160401b0382111761344657604052565b9291926001600160401b03821161344657604051916134c2601f8201601f191660200184613478565b829481845281830111610db7578281602093846000960137010152565b9080601f83011215610db7578160206134fa93359101613499565b90565b6040600319820112610db757600435906001600160401b038211610db757613527916004016134df565b9060243590565b60005b8381106135415750506000910152565b8181015183820152602001613531565b80548210156135695760005260206000200190600090565b634e487b7160e01b600052603260045260246000fd5b906020916135988151809281855285808601910161352e565b601f01601f1916010190565b9181601f84011215610db7578235916001600160401b038311610db75760208381860195010111610db757565b602060408183019282815284518094520192019060005b8181106135f55750505090565b82518452602093840193909201916001016135e8565b90600182811c9216801561363b575b602083101461362557565b634e487b7160e01b600052602260045260246000fd5b91607f169161361a565b600092918154916136558361360b565b80835292600181169081156136ab575060011461367157505050565b60009081526020812093945091925b838310613691575060209250010190565b600181602092949394548385870101520191019190613680565b915050602093945060ff929192191683830152151560051b010190565b604051906136d7604083613478565b600c82526b1614941317dd195cdd1b995d60a21b6020830152565b90816020910312610db757518015158103610db75790565b908060209392818452848401376000828201840152601f01601f1916010190565b1561373257565b60405162461bcd60e51b815260206004820152601460248201527324b73b30b634b21039b7bab931b29031b430b4b760611b6044820152606490fd5b9190604083820312610db75782356001600160401b038111610db757816137969185016134df565b926020810135906001600160401b038211610db757019080601f83011215610db7578160206134fa93359101613499565b919082039182116137d457565b634e487b7160e01b600052601160045260246000fd5b9190826040910312610db7576020825192015190565b6040519061380f604083613478565b60038252621554d160ea1b6020830152565b919082018092116137d457565b6040519061383d604083613478565b6014825273125b9d985b1a59081d1bdad95b881cde5b589bdb60621b6020830152565b9695949061389d9361388161388f926060979560808c5260808c019161370a565b9089820360208b015261357f565b91878303604089015261370a565b930152565b9493926138cf906138c161389d9360609560808a5260808a019161370a565b90878203602089015261357f565b858103604087015260409060038152621554d160ea1b60208201520190565b60609060208152601e60208201527f4661696c656420746f2073656e642055534420746f20626f72726f776572000060408201520190565b60405190613935604083613478565b601b82527f5265717565737420697320616c72656164792063616e63656c656400000000006020830152565b60001981146137d45760010190565b818102929181159184041417156137d457565b805468010000000000000000811015613446576139a591600182018155613551565b819291549060031b91821b91600019901b1916179055565b156139c457565b60405162461bcd60e51b815260206004820152601760248201527f4e6f742074686520726571756573742063726561746f720000000000000000006044820152606490fd5b15613a1057565b60405162461bcd60e51b815260206004820152601b60248201527f5265717565737420697320616c72656164792063616e63656c656400000000006044820152606490fd5b6040906134fa93928152816020820152019061357f565b90613a7691613970565b600a810290808204600a14901517156137d457600154908115613a97570490565b634e487b7160e01b600052601260045260246000fdfea26469706673582212202b7ff475daaf4b82c539837224f645fdf537e5f964fbfc2714b86d55e096d70b64736f6c634300081c0033",
  "linkReferences": {},
  "deployedLinkReferences": {}
}