{
  "_format": "hh-sol-artifact-1",
  "contractName": "XrpLendingP2PV2",
  "sourceName": "contracts/p2p/XrpLendingP2P.sol",
  "abi": [
    {
      "inputs": [
        {
          "internalType": "address",
          "name": "gateway_",
          "type": "address"
        },
        {
          "internalType": "address",
          "name": "priceOracle_",
          "type": "address"
        }
      ],
      "stateMutability": "nonpayable",
      "type": "constructor"
    },
    {
      "inputs": [],
      "name": "InvalidAddress",
      "type": "error"
    },
    {
      "inputs": [],
      "name": "NotApprovedByGateway",
      "type": "error"
    },
    {
      "anonymous": false,
      "inputs": [
        {
          "indexed": false,
          "internalType": "uint256",
          "name": "requestId",
          "type": "uint256"
        }
      ],
      "name": "BorrowingRequestAutoCanceled",
      "type": "event"
    },
    {
      "anonymous": false,
      "inputs": [
        {
          "indexed": false,
          "internalType": "uint256",
          "name": "requestId",
          "type": "uint256"
        },
        {
          "indexed": false,
          "internalType": "string",
          "name": "canceller",
          "type": "string"
        }
      ],
      "name": "BorrowingRequestCanceled",
      "type": "event"
    },
    {
      "anonymous": false,
      "inputs": [
        {
          "indexed": false,
          "internalType": "uint256",
          "name": "requestId",
          "type": "uint256"
        },
        {
          "indexed": false,
          "internalType": "string",
          "name": "borrower",
          "type": "string"
        },
        {
          "indexed": false,
          "internalType": "uint256",
          "name": "amountToBorrowUSD",
          "type": "uint256"
        },
        {
          "indexed": false,
          "internalType": "uint256",
          "name": "collateralAmountXRP",
          "type": "uint256"
        },
        {
          "indexed": false,
          "internalType": "uint256",
          "name": "maxCollateralRatio",
          "type": "uint256"
        },
        {
          "indexed": false,
          "internalType": "uint256",
          "name": "liquidationThreshold",
          "type": "uint256"
        },
        {
          "indexed": false,
          "internalType": "uint256",
          "name": "desiredInterestRate",
          "type": "uint256"
        },
        {
          "indexed": false,
          "internalType": "uint256",
          "name": "paymentDuration",
          "type": "uint256"
        },
        {
          "indexed": false,
          "internalType": "uint256",
          "name": "minimalPartialFill",
          "type": "uint256"
        }
      ],
      "name": "BorrowingRequestCreated",
      "type": "event"
    },
    {
      "anonymous": false,
      "inputs": [
        {
          "indexed": false,
          "internalType": "uint256",
          "name": "requestId",
          "type": "uint256"
        }
      ],
      "name": "LendingRequestAutoCanceled",
      "type": "event"
    },
    {
      "anonymous": false,
      "inputs": [
        {
          "indexed": false,
          "internalType": "uint256",
          "name": "requestId",
          "type": "uint256"
        },
        {
          "indexed": false,
          "internalType": "string",
          "name": "canceller",
          "type": "string"
        }
      ],
      "name": "LendingRequestCanceled",
      "type": "event"
    },
    {
      "anonymous": false,
      "inputs": [
        {
          "indexed": false,
          "internalType": "uint256",
          "name": "requestId",
          "type": "uint256"
        },
        {
          "indexed": false,
          "internalType": "string",
          "name": "lender",
          "type": "string"
        },
        {
          "indexed": false,
          "internalType": "uint256",
          "name": "amountToLendUSD",
          "type": "uint256"
        },
        {
          "indexed": false,
          "internalType": "uint256",
          "name": "minCollateralRatio",
          "type": "uint256"
        },
        {
          "indexed": false,
          "internalType": "uint256",
          "name": "liquidationThreshold",
          "type": "uint256"
        },
        {
          "indexed": false,
          "internalType": "uint256",
          "name": "desiredInterestRate",
          "type": "uint256"
        },
        {
          "indexed": false,
          "internalType": "uint256",
          "name": "paymentDuration",
          "type": "uint256"
        },
        {
          "indexed": false,
          "internalType": "uint256",
          "name": "minimalPartialFill",
          "type": "uint256"
        }
      ],
      "name": "LendingRequestCreated",
      "type": "event"
    },
    {
      "anonymous": false,
      "inputs": [
        {
          "indexed": false,
          "internalType": "uint256",
          "name": "loanId",
          "type": "uint256"
        },
        {
          "indexed": false,
          "internalType": "string",
          "name": "lender",
          "type": "string"
        },
        {
          "indexed": false,
          "internalType": "string",
          "name": "borrower",
          "type": "string"
        },
        {
          "indexed": false,
          "internalType": "uint256",
          "name": "amountBorrowedUSD",
          "type": "uint256"
        },
        {
          "indexed": false,
          "internalType": "uint256",
          "name": "collateralAmountXRP",
          "type": "uint256"
        },
        {
          "indexed": false,
          "internalType": "uint256",
          "name": "amountPayableToLender",
          "type": "uint256"
        },
        {
          "indexed": false,
          "internalType": "uint256",
          "name": "amountPayableToPlatform",
          "type": "uint256"
        },
        {
          "indexed": false,
          "internalType": "uint256",
          "name": "repayBy",
          "type": "uint256"
        },
        {
          "indexed": false,
          "internalType": "uint256",
          "name": "liquidationThreshold",
          "type": "uint256"
        }
      ],
      "name": "LoanCreated",
      "type": "event"
    },
    {
      "anonymous": false,
      "inputs": [
        {
          "indexed": false,
          "internalType": "uint256",
          "name": "loanId",
          "type": "uint256"
        },
        {
          "indexed": false,
          "internalType": "string",
          "name": "liquidator",
          "type": "string"
        },
        {
          "indexed": false,
          "internalType": "uint256",
          "name": "collateralLiquidated",
          "type": "uint256"
        }
      ],
      "name": "LoanLiquidated",
      "type": "event"
    },
    {
      "anonymous": false,
      "inputs": [
        {
          "indexed": false,
          "internalType": "uint256",
          "name": "loanId",
          "type": "uint256"
        },
        {
          "indexed": false,
          "internalType": "uint256",
          "name": "amountRepaid",
          "type": "uint256"
        },
        {
          "indexed": false,
          "internalType": "uint256",
          "name": "totalPaid",
          "type": "uint256"
        }
      ],
      "name": "LoanRepaid",
      "type": "event"
    },
    {
      "anonymous": false,
      "inputs": [
        {
          "indexed": false,
          "internalType": "uint256",
          "name": "loanId",
          "type": "uint256"
        },
        {
          "indexed": false,
          "internalType": "string",
          "name": "borrower",
          "type": "string"
        },
        {
          "indexed": false,
          "internalType": "uint256",
          "name": "newAmountBorrowedUSD",
          "type": "uint256"
        },
        {
          "indexed": false,
          "internalType": "uint256",
          "name": "newCollateralAmountXRP",
          "type": "uint256"
        },
        {
          "indexed": false,
          "internalType": "uint256",
          "name": "newAmountPayableToLender",
          "type": "uint256"
        }
      ],
      "name": "LoanUpdated",
      "type": "event"
    },
    {
      "anonymous": false,
      "inputs": [
        {
          "indexed": false,
          "internalType": "uint256",
          "name": "newPrice",
          "type": "uint256"
        }
      ],
      "name": "PriceUpdated",
      "type": "event"
    },
    {
      "anonymous": false,
      "inputs": [
        {
          "indexed": false,
          "internalType": "uint256",
          "name": "requestId",
          "type": "uint256"
        },
        {
          "indexed": false,
          "internalType": "uint256",
          "name": "amountFilled",
          "type": "uint256"
        }
      ],
      "name": "RequestFilled",
      "type": "event"
    },
    {
      "inputs": [],
      "name": "PLATFORM_FEE_PERCENT",
      "outputs": [
        {
          "internalType": "uint256",
          "name": "",
          "type": "uint256"
        }
      ],
      "stateMutability": "view",
      "type": "function"
    },
    {
      "inputs": [],
      "name": "SELECTOR_ACCEPT_BORROWING_REQUEST",
      "outputs": [
        {
          "internalType": "bytes32",
          "name": "",
          "type": "bytes32"
        }
      ],
      "stateMutability": "view",
      "type": "function"
    },
    {
      "inputs": [],
      "name": "SELECTOR_ACCEPT_LENDING_REQUEST",
      "outputs": [
        {
          "internalType": "bytes32",
          "name": "",
          "type": "bytes32"
        }
      ],
      "stateMutability": "view",
      "type": "function"
    },
    {
      "inputs": [],
      "name": "SELECTOR_BORROWING_REQUEST",
      "outputs": [
        {
          "internalType": "bytes32",
          "name": "",
          "type": "bytes32"
        }
      ],
      "stateMutability": "view",
      "type": "function"
    },
    {
      "inputs": [],
      "name": "SELECTOR_CANCEL_BORROWING_REQUEST",
      "outputs": [
        {
          "internalType": "bytes32",
          "name": "",
          "type": "bytes32"
        }
      ],
      "stateMutability": "view",
      "type": "function"
    },
    {
      "inputs": [],
      "name": "SELECTOR_CANCEL_LENDING_REQUEST",
      "outputs": [
        {
          "internalType": "bytes32",
          "name": "",
          "type": "bytes32"
        }
      ],
      "stateMutability": "view",
      "type": "function"
    },
    {
      "inputs": [],
      "name": "SELECTOR_LENDING_REQUEST",
      "outputs": [
        {
          "internalType": "bytes32",
          "name": "",
          "type": "bytes32"
        }
      ],
      "stateMutability": "view",
      "type": "function"
    },
    {
      "inputs": [],
      "name": "SELECTOR_LIQUIDATE_LOAN",
      "outputs": [
        {
          "internalType": "bytes32",
          "name": "",
          "type": "bytes32"
        }
      ],
      "stateMutability": "view",
      "type": "function"
    },
    {
      "inputs": [],
      "name": "SELECTOR_REPAY_LOAN",
      "outputs": [
        {
          "internalType": "bytes32",
          "name": "",
          "type": "bytes32"
        }
      ],
      "stateMutability": "view",
      "type": "function"
    },
    {
      "inputs": [],
      "name": "SUPPORTED_SOURCE_CHAIN_HASH",
      "outputs": [
        {
          "internalType": "bytes32",
          "name": "",
          "type": "bytes32"
        }
      ],
      "stateMutability": "view",
      "type": "function"
    },
    {
      "inputs": [
        {
          "internalType": "uint256",
          "name": "",
          "type": "uint256"
        }
      ],
      "name": "borrowingRequests",
      "outputs": [
        {
          "internalType": "string",
          "name": "borrower",
          "type": "string"
        },
        {
          "internalType": "uint256",
          "name": "amountToBorrowUSD",
          "type": "uint256"
        },
        {
          "internalType": "uint256",
          "name": "amountBorrowedUSD",
          "type": "uint256"
        },
        {
          "internalType": "uint256",
          "name": "initialCollateralAmountXRP",
          "type": "uint256"
        },
        {
          "internalType": "uint256",
          "name": "existingCollateralAmountXRP",
          "type": "uint256"
        },
        {
          "internalType": "uint256",
          "name": "maxCollateralRatio",
          "type": "uint256"
        },
        {
          "internalType": "uint256",
          "name": "liquidationThreshold",
          "type": "uint256"
        },
        {
          "internalType": "uint256",
          "name": "desiredInterestRate",
          "type": "uint256"
        },
        {
          "internalType": "uint256",
          "name": "paymentDuration",
          "type": "uint256"
        },
        {
          "internalType": "uint256",
          "name": "minimalPartialFill",
          "type": "uint256"
        },
        {
          "internalType": "bool",
          "name": "canceled",
          "type": "bool"
        }
      ],
      "stateMutability": "view",
      "type": "function"
    },
    {
      "inputs": [],
      "name": "currentXRPPriceUSD",
      "outputs": [
        {
          "internalType": "uint256",
          "name": "",
          "type": "uint256"
        }
      ],
      "stateMutability": "view",
      "type": "function"
    },
    {
      "inputs": [
        {
          "internalType": "bytes32",
          "name": "commandId",
          "type": "bytes32"
        },
        {
          "internalType": "string",
          "name": "sourceChain",
          "type": "string"
        },
        {
          "internalType": "string",
          "name": "sourceAddress",
          "type": "string"
        },
        {
          "internalType": "bytes",
          "name": "payload",
          "type": "bytes"
        }
      ],
      "name": "execute",
      "outputs": [],
      "stateMutability": "nonpayable",
      "type": "function"
    },
    {
      "inputs": [
        {
          "internalType": "bytes32",
          "name": "commandId",
          "type": "bytes32"
        },
        {
          "internalType": "string",
          "name": "sourceChain",
          "type": "string"
        },
        {
          "internalType": "string",
          "name": "sourceAddress",
          "type": "string"
        },
        {
          "internalType": "bytes",
          "name": "payload",
          "type": "bytes"
        },
        {
          "internalType": "string",
          "name": "tokenSymbol",
          "type": "string"
        },
        {
          "internalType": "uint256",
          "name": "amount",
          "type": "uint256"
        }
      ],
      "name": "executeWithToken",
      "outputs": [],
      "stateMutability": "nonpayable",
      "type": "function"
    },
    {
      "inputs": [],
      "name": "gateway",
      "outputs": [
        {
          "internalType": "contract IMyAxelarGateway",
          "name": "",
          "type": "address"
        }
      ],
      "stateMutability": "view",
      "type": "function"
    },
    {
      "inputs": [
        {
          "internalType": "uint256",
          "name": "_requestId",
          "type": "uint256"
        }
      ],
      "name": "getBorrowingRequest",
      "outputs": [
        {
          "components": [
            {
              "internalType": "string",
              "name": "borrower",
              "type": "string"
            },
            {
              "internalType": "uint256",
              "name": "amountToBorrowUSD",
              "type": "uint256"
            },
            {
              "internalType": "uint256",
              "name": "amountBorrowedUSD",
              "type": "uint256"
            },
            {
              "internalType": "uint256",
              "name": "initialCollateralAmountXRP",
              "type": "uint256"
            },
            {
              "internalType": "uint256",
              "name": "existingCollateralAmountXRP",
              "type": "uint256"
            },
            {
              "internalType": "uint256",
              "name": "maxCollateralRatio",
              "type": "uint256"
            },
            {
              "internalType": "uint256",
              "name": "liquidationThreshold",
              "type": "uint256"
            },
            {
              "internalType": "uint256",
              "name": "desiredInterestRate",
              "type": "uint256"
            },
            {
              "internalType": "uint256",
              "name": "paymentDuration",
              "type": "uint256"
            },
            {
              "internalType": "uint256",
              "name": "minimalPartialFill",
              "type": "uint256"
            },
            {
              "internalType": "bool",
              "name": "canceled",
              "type": "bool"
            }
          ],
          "internalType": "struct XrpLendingP2PV2.BorrowingRequest",
          "name": "",
          "type": "tuple"
        }
      ],
      "stateMutability": "view",
      "type": "function"
    },
    {
      "inputs": [],
      "name": "getCurrentPrice",
      "outputs": [
        {
          "internalType": "uint256",
          "name": "",
          "type": "uint256"
        }
      ],
      "stateMutability": "view",
      "type": "function"
    },
    {
      "inputs": [
        {
          "internalType": "uint256",
          "name": "_requestId",
          "type": "uint256"
        }
      ],
      "name": "getLendingRequest",
      "outputs": [
        {
          "components": [
            {
              "internalType": "string",
              "name": "lender",
              "type": "string"
            },
            {
              "internalType": "uint256",
              "name": "amountToLendUSD",
              "type": "uint256"
            },
            {
              "internalType": "uint256",
              "name": "amountLendedUSD",
              "type": "uint256"
            },
            {
              "internalType": "uint256",
              "name": "minCollateralRatio",
              "type": "uint256"
            },
            {
              "internalType": "uint256",
              "name": "liquidationThreshold",
              "type": "uint256"
            },
            {
              "internalType": "uint256",
              "name": "desiredInterestRate",
              "type": "uint256"
            },
            {
              "internalType": "uint256",
              "name": "paymentDuration",
              "type": "uint256"
            },
            {
              "internalType": "uint256",
              "name": "minimalPartialFill",
              "type": "uint256"
            },
            {
              "internalType": "bool",
              "name": "canceled",
              "type": "bool"
            }
          ],
          "internalType": "struct XrpLendingP2PV2.LendingRequest",
          "name": "",
          "type": "tuple"
        }
      ],
      "stateMutability": "view",
      "type": "function"
    },
    {
      "inputs": [
        {
          "internalType": "uint256",
          "name": "_loanId",
          "type": "uint256"
        }
      ],
      "name": "getLoanDetails",
      "outputs": [
        {
          "components": [
            {
              "internalType": "string",
              "name": "lender",
              "type": "string"
            },
            {
              "internalType": "string",
              "name": "borrower",
              "type": "string"
            },
            {
              "internalType": "uint256",
              "name": "amountBorrowedUSD",
              "type": "uint256"
            },
            {
              "internalType": "uint256",
              "name": "amountPayableToLender",
              "type": "uint256"
            },
            {
              "internalType": "uint256",
              "name": "amountPayableToPlatform",
              "type": "uint256"
            },
            {
              "internalType": "uint256",
              "name": "amountPaidUSD",
              "type": "uint256"
            },
            {
              "internalType": "uint256",
              "name": "collateralAmountXRP",
              "type": "uint256"
            },
            {
              "internalType": "uint256",
              "name": "repayBy",
              "type": "uint256"
            },
            {
              "internalType": "uint256",
              "name": "liquidationThreshold",
              "type": "uint256"
            },
            {
              "internalType": "bool",
              "name": "isLiquidated",
              "type": "bool"
            }
          ],
          "internalType": "struct XrpLendingP2PV2.Loan",
          "name": "",
          "type": "tuple"
        }
      ],
      "stateMutability": "view",
      "type": "function"
    },
    {
      "inputs": [
        {
          "internalType": "string",
          "name": "_user",
          "type": "string"
        }
      ],
      "name": "getUserBorrowingRequests",
      "outputs": [
        {
          "internalType": "uint256[]",
          "name": "",
          "type": "uint256[]"
        }
      ],
      "stateMutability": "view",
      "type": "function"
    },
    {
      "inputs": [
        {
          "internalType": "string",
          "name": "_user",
          "type": "string"
        }
      ],
      "name": "getUserLendingRequests",
      "outputs": [
        {
          "internalType": "uint256[]",
          "name": "",
          "type": "uint256[]"
        }
      ],
      "stateMutability": "view",
      "type": "function"
    },
    {
      "inputs": [
        {
          "internalType": "string",
          "name": "_user",
          "type": "string"
        }
      ],
      "name": "getUserLoans",
      "outputs": [
        {
          "internalType": "uint256[]",
          "name": "",
          "type": "uint256[]"
        }
      ],
      "stateMutability": "view",
      "type": "function"
    },
    {
      "inputs": [],
      "name": "lastPriceUpdateTimestamp",
      "outputs": [
        {
          "internalType": "uint256",
          "name": "",
          "type": "uint256"
        }
      ],
      "stateMutability": "view",
      "type": "function"
    },
    {
      "inputs": [
        {
          "internalType": "uint256",
          "name": "",
          "type": "uint256"
        }
      ],
      "name": "lendingRequests",
      "outputs": [
        {
          "internalType": "string",
          "name": "lender",
          "type": "string"
        },
        {
          "internalType": "uint256",
          "name": "amountToLendUSD",
          "type": "uint256"
        },
        {
          "internalType": "uint256",
          "name": "amountLendedUSD",
          "type": "uint256"
        },
        {
          "internalType": "uint256",
          "name": "minCollateralRatio",
          "type": "uint256"
        },
        {
          "internalType": "uint256",
          "name": "liquidationThreshold",
          "type": "uint256"
        },
        {
          "internalType": "uint256",
          "name": "desiredInterestRate",
          "type": "uint256"
        },
        {
          "internalType": "uint256",
          "name": "paymentDuration",
          "type": "uint256"
        },
        {
          "internalType": "uint256",
          "name": "minimalPartialFill",
          "type": "uint256"
        },
        {
          "internalType": "bool",
          "name": "canceled",
          "type": "bool"
        }
      ],
      "stateMutability": "view",
      "type": "function"
    },
    {
      "inputs": [],
      "name": "loanCounter",
      "outputs": [
        {
          "internalType": "uint256",
          "name": "",
          "type": "uint256"
        }
      ],
      "stateMutability": "view",
      "type": "function"
    },
    {
      "inputs": [
        {
          "internalType": "uint256",
          "name": "",
          "type": "uint256"
        }
      ],
      "name": "loans",
      "outputs": [
        {
          "internalType": "string",
          "name": "lender",
          "type": "string"
        },
        {
          "internalType": "string",
          "name": "borrower",
          "type": "string"
        },
        {
          "internalType": "uint256",
          "name": "amountBorrowedUSD",
          "type": "uint256"
        },
        {
          "internalType": "uint256",
          "name": "amountPayableToLender",
          "type": "uint256"
        },
        {
          "internalType": "uint256",
          "name": "amountPayableToPlatform",
          "type": "uint256"
        },
        {
          "internalType": "uint256",
          "name": "amountPaidUSD",
          "type": "uint256"
        },
        {
          "internalType": "uint256",
          "name": "collateralAmountXRP",
          "type": "uint256"
        },
        {
          "internalType": "uint256",
          "name": "repayBy",
          "type": "uint256"
        },
        {
          "internalType": "uint256",
          "name": "liquidationThreshold",
          "type": "uint256"
        },
        {
          "internalType": "bool",
          "name": "isLiquidated",
          "type": "bool"
        }
      ],
      "stateMutability": "view",
      "type": "function"
    },
    {
      "inputs": [],
      "name": "oracleUpdater",
      "outputs": [
        {
          "internalType": "address",
          "name": "",
          "type": "address"
        }
      ],
      "stateMutability": "view",
      "type": "function"
    },
    {
      "inputs": [],
      "name": "requestCounter",
      "outputs": [
        {
          "internalType": "uint256",
          "name": "",
          "type": "uint256"
        }
      ],
      "stateMutability": "view",
      "type": "function"
    },
    {
      "inputs": [
        {
          "internalType": "uint256",
          "name": "newPrice",
          "type": "uint256"
        }
      ],
      "name": "setPriceOracle",
      "outputs": [],
      "stateMutability": "nonpayable",
      "type": "function"
    },
    {
      "inputs": [],
      "name": "supportedSourceChain",
      "outputs": [
        {
          "internalType": "string",
          "name": "",
          "type": "string"
        }
      ],
      "stateMutability": "view",
      "type": "function"
    },
    {
      "inputs": [
        {
          "internalType": "string",
          "name": "",
          "type": "string"
        },
        {
          "internalType": "uint256",
          "name": "",
          "type": "uint256"
        }
      ],
      "name": "userBorrowingRequests",
      "outputs": [
        {
          "internalType": "uint256",
          "name": "",
          "type": "uint256"
        }
      ],
      "stateMutability": "view",
      "type": "function"
    },
    {
      "inputs": [
        {
          "internalType": "string",
          "name": "",
          "type": "string"
        },
        {
          "internalType": "uint256",
          "name": "",
          "type": "uint256"
        }
      ],
      "name": "userLendingRequests",
      "outputs": [
        {
          "internalType": "uint256",
          "name": "",
          "type": "uint256"
        }
      ],
      "stateMutability": "view",
      "type": "function"
    },
    {
      "inputs": [
        {
          "internalType": "string",
          "name": "",
          "type": "string"
        },
        {
          "internalType": "uint256",
          "name": "",
          "type": "uint256"
        }
      ],
      "name": "userLoans",
      "outputs": [
        {
          "internalType": "uint256",
          "name": "",
          "type": "uint256"
        }
      ],
      "stateMutability": "view",
      "type": "function"
    }
  ],
  "bytecode": "0x60c0346100d857601f613c2238819003918201601f19168301916001600160401b038311848410176100dd5780849260409485528339810103126100d857610052602061004b836100f3565b92016100f3565b906001600160a01b038116156100c757608052600080546001600160a01b0319166001600160a01b03929092169190911781556003819055600a553360a052604051613b1a90816101088239608051818181610b9e015281816114d101526133a7015260a051818181610742015261098e0152f35b63e6c4247b60e01b60005260046000fd5b600080fd5b634e487b7160e01b600052604160045260246000fd5b51906001600160a01b03821682036100d85756fe608080604052600436101561001357600080fd5b600090813560e01c9081630bc82cf31461340b575080630fc6fec4146133d6578063116191b61461339157806314c7eb491461324e5780631a98b2e0146113f95780632153c8fd146113c4578063220f8e181461134057806323b1f8e4146113225780633077d7d1146112e757806331f59c55146112ac57806334d9289e1461128e5780633cbfbbf31461125357806345887070146101c95780634916065814610af9578063560d52d414610add57806361a979bf14610a32578063625c513b1461097757806366811ce81461091e57806366877b8d1461079a57806378f2c2c314610771578063805d64a01461072c57806380a960071461066a57806384311dc01461062f578063973a814e14610611578063976e99891461058d578063a824ca9314610552578063a8e2135c146103db578063b8ecd94d14610334578063bad2716914610300578063dec20e05146102c5578063e1ec3c68146101e7578063eb91d37e146101c95763f8f769be1461018c57600080fd5b346101c657806003193601126101c65760206040517f7c4ef9fcbcd718c531be33e6c1e942f34ae50e2c58f65d1da8631ee13be5eb668152f35b80fd5b50346101c657806003193601126101c6576020600154604051908152f35b50346101c65760203660031901126101c6576040610286916004358152600460205220604051906102238261021c818461367c565b03836134af565b60405161023e81610237816001860161367c565b03826134af565b60028201549160038101546004820154600583015460068401549160078501549361029460ff6009600889015498015416976040519b8c9b6101408d526101408d01906135b6565b908b820360208d01526135b6565b9760408a01526060890152608088015260a087015260c086015260e085015261010084015215156101208301520390f35b50346101c657806003193601126101c65760206040517fde25758b3e02a50e26bf555d8688aff6c38cd237cfa12e59c1961ae28e5d516b8152f35b50346101c657806003193601126101c65761033061031c6136ff565b6040519182916020835260208301906135b6565b0390f35b50346101c65760203660031901126101c6576004356001600160401b0381116103d757602061036a61037d923690600401613516565b8160405193828580945193849201613565565b81016007815203019020604051918260208354918281520192825260208220915b8181106103c157610330856103b5818703826134af565b60405191829182613608565b825484526020909301926001928301920161039e565b5080fd5b50346101c65760203660031901126101c657602060408261016093610140835161040481613493565b60608152828682015282858201528260608201528260808201528260a08201528260c08201528260e0820152826101008201528261012082015201526004358152600683522060405161045681613493565b60405161046781610237818661367c565b8152600182015491838201928352600281015460408301908152600382015460608401908152600483015460808501908152600584015460a0860190815260068501549160c0870192835260078601549360e08801948552600887015495610100890196875261050b60ff600a60098b01549a6101208d019b8c520154169961014081019a15158b526040519d8d8f9e928f938452519201526101808d01906135b6565b995160408c01525160608b01525160808a01525160a08901525160c08801525160e08701525161010086015251610120850152516101408401525115156101608301520390f35b50346101c657806003193601126101c65760206040517f34d844336851612d0d8a9c6849f53488b6afbfddc10b3fc3244fd1542d82001b8152f35b50346101c65760203660031901126101c6576004356001600160401b0381116103d757602061036a6105c3923690600401613516565b81016009815203019020604051918260208354918281520192825260208220915b8181106105fb57610330856103b5818703826134af565b82548452602090930192600192830192016105e4565b50346101c657806003193601126101c6576020600a54604051908152f35b50346101c657806003193601126101c65760206040517f2bf410a8493e77af80af6f30380c04e8c4b71932630dcf9c831b20e7388ee3a88152f35b50346101c65760203660031901126101c65760406106f09160043581526006602052206040519061069f8261021c818461367c565b60018101549060028101549060038101546004820154600583015460068401549060078501549260088601549460ff600a600989015498015416976040519b8c9b6101608d526101608d01906135b6565b9960208c015260408b015260608a0152608089015260a088015260c087015260e086015261010085015261012084015215156101408301520390f35b50346101c657806003193601126101c6576040517f00000000000000000000000000000000000000000000000000000000000000006001600160a01b03168152602090f35b50346101c657806003193601126101c657602061078c6136ff565b818151910120604051908152f35b50346101c65760203660031901126101c65760206040826101409361012083516107c381613477565b6060815260608682015282858201528260608201528260808201528260a08201528260c08201528260e08201528261010082015201526004358152600483522060405161080f81613477565b60405161082081610237818661367c565b81526040519161083e83610837816001850161367c565b03846134af565b8382019283526002810154926040830193845260038201546060840190815260048301546080850190815260058401549060a0860191825260068501549260c087019384526108e460078701549560e089019687526108d160ff600960088b01549a6101008d019b8c520154169961012081019a15158b526040519d8d8f9e928f938452519201526101608d01906135b6565b90518b8203601f190160408d01526135b6565b975160608a01525160808901525160a08801525160c08701525160e086015251610100850152516101208401525115156101408301520390f35b50346101c65760209061094861093336613534565b93908160405193828580945193849201613565565b810160078152030190209081548310156101c65760206109688484613588565b90549060031b1c604051908152f35b50346101c65760203660031901126101c6576004357f00000000000000000000000000000000000000000000000000000000000000006001600160a01b031633036109ee576020817f66cbca4f3c64fecf1dcb9ce094abcf7f68c3450a1d4e3a8e917dd621edb4ebe092600155604051908152a180f35b606460405162461bcd60e51b815260206004820152602060248201527f43616c6c6572206973206e6f7420746865206f7261636c6520757064617465726044820152fd5b50346101c65760203660031901126101c6576040610aad91600435815260056020522060405190610a678261021c818461367c565b6001810154906002810154906003810154600482015460058301549060068401549260ff600860078701549601541695604051998a996101208b526101208b01906135b6565b9760208a015260408901526060880152608087015260a086015260c085015260e084015215156101008301520390f35b50346101c657806003193601126101c657602060405160058152f35b50346101c65760803660031901126101c6576024356001600160401b0381116103d757610b2a9036906004016135db565b6044356001600160401b03811161100357610b499036906004016135db565b9190926064356001600160401b03811161124f57610b6b9036906004016135db565b9091610b783683856134d0565b8051602091820120604051635f6970c360e01b81526004803590820152608060248201527f00000000000000000000000000000000000000000000000000000000000000006001600160a01b03169692909182908190610bf38c8c610be1608486018a8c613741565b85810360031901604487015291613741565b90606483015203818c8a5af1908115611244578991611215575b501561120657610c27610c4b949392610c439236916134d0565b60208151910120610c366136ff565b6020815191012014613762565b8101906137a5565b9190604051610c7b60208281610c6a8183019687815193849201613565565b81010301601f1981018352826134af565b5190207fde25758b3e02a50e26bf555d8688aff6c38cd237cfa12e59c1961ae28e5d516b8103610d5457505060208151918180820193849201010312610d4f577f9d9930deac2c319f6551b9a16eb7e01a31224fecf2fcb618159c414e44c2362f92610cea91519236916134d0565b908084526005602052600860408520610d21604051610d0d81610237818661367c565b6020815191012085516020870120146139f4565b0160018154610d3360ff821615613a40565b60ff1916179055610d4960405192839283613a8c565b0390a180f35b600080fd5b7fe69dc4620ee0a9212a459c83b8c8cd0a36ebf6d6727329fc7e3e67a3e87df79d8103610de357505060208151918180820193849201010312610d4f577f2af119227ec26a21ab3ae1550987f63aac1ac06a30a76f83608b2ca8851accee92610dc091519236916134d0565b908084526006602052600a60408520610d21604051610d0d81610237818661367c565b909391907f4a469cefcbed9a88178fc34579047173d00d4643d65873018db1ec410f46e00d036111ca5760208151918180820193849201010312610d4f57519081855260046020526040852093600985019060ff82541661118557600786015442111561114157610e10610e59600254426137fe565b1015611097575b60068601958654610e73600154826139a7565b6064610e8860038501546008860154906139a7565b04111561105b57604051610ea081610237818661367c565b60208151910120610eb23689886134d0565b6020815191012003611007578891610ec86136ff565b93803b1561100357610f0284610f14968195610f36604051998a97889687956326ef699d60e01b87526080600488015260848701906135b6565b8581036003190160248701529061367c565b838103600319016044850152600381526205852560ec1b602082015260400190565b90606483015203925af19182610fea575b5050610f925760405162461bcd60e51b815260206004820152601c60248201527f4661696c656420746f2073656e642058525020746f206c656e646572000000006044820152606490fd5b7f192e7442dd103acc961c7d78235baae73e1f85c8fe4d43ad5212631c411aa5b594610fde91600160ff1982541617905554916040519485948552606060208601526060850191613741565b9060408301520390a180f35b81610ff4916134af565b610fff578638610f47565b8680fd5b8380fd5b60405162461bcd60e51b815260206004820152602660248201527f4f6e6c7920746865206c656e6465722063616e206c697175696461746520746860448201526532903637b0b760d11b6064820152608490fd5b60405162461bcd60e51b815260206004820152601460248201527310d85b9b9bdd081b1a5c5d5a59185d19481e595d60621b6044820152606490fd5b8654604051638183f10f60e01b815290602090829060049082906001600160a01b03165afa908115611136578891611103575b506020817f66cbca4f3c64fecf1dcb9ce094abcf7f68c3450a1d4e3a8e917dd621edb4ebe09260015542600255604051908152a1610e60565b90506020813d60201161112e575b8161111e602093836134af565b81010312610d4f575160206110ca565b3d9150611111565b6040513d8a823e3d90fd5b606460405162461bcd60e51b815260206004820152602060248201527f43616e6e6f74206c6971756964617465206265666f72652064756520646174656044820152fd5b60405162461bcd60e51b815260206004820152601760248201527f4c6f616e20616c7265616479206c6971756964617465640000000000000000006044820152606490fd5b60405162461bcd60e51b815260206004820152600f60248201526e125b9d985b1a590818dbdb5b585b99608a1b604482015280606481015b0390fd5b631403112d60e21b8852600488fd5b611237915060203d60201161123d575b61122f81836134af565b810190613729565b38610c0d565b503d611225565b6040513d8b823e3d90fd5b8580fd5b50346101c657806003193601126101c65760206040517f02a0046ae0a72923f4582943512f0b3b95b88a4125f476ba466151a9053e12498152f35b50346101c657806003193601126101c6576020600354604051908152f35b50346101c657806003193601126101c65760206040517f4a469cefcbed9a88178fc34579047173d00d4643d65873018db1ec410f46e00d8152f35b50346101c657806003193601126101c65760206040517fe69dc4620ee0a9212a459c83b8c8cd0a36ebf6d6727329fc7e3e67a3e87df79d8152f35b50346101c657806003193601126101c6576020600254604051908152f35b50346101c65760203660031901126101c6576004356001600160401b0381116103d757602061036a611376923690600401613516565b81016008815203019020604051918260208354918281520192825260208220915b8181106113ae57610330856103b5818703826134af565b8254845260209093019260019283019201611397565b50346101c6576020906113d961093336613534565b810160088152030190209081548310156101c65760206109688484613588565b50346101c65760c03660031901126101c6576024356001600160401b0381116103d75761142a9036906004016135db565b6044929192356001600160401b03811161189f5761144c9036906004016135db565b90936064356001600160401b038111612fad5761146d9036906004016135db565b906084356001600160401b038111610fff5761153892849261150d60208b978a61149c8b9736906004016135db565b99909a61151f6114ad368a8a6134d0565b805190870120604051631876eed960e01b8152600480359082015260c060248201527f00000000000000000000000000000000000000000000000000000000000000006001600160a01b03169b90988997889793959360c4890191613741565b86810360031901604488015291613741565b9060648401526003198382030160848401528a8c613741565b60a43560a483015203818d885af1908115613243578a91613224575b50156132155760a435156131df5761157491610c43610c27368b886134d0565b969060405161159360208281610c6a8183019687815193849201613565565b5190207f34d844336851612d0d8a9c6849f53488b6afbfddc10b3fc3244fd1542d82001b81036118a35750505050505060a08280518101031261189f5760208201516040830151916115f660608501519660a060808701519601519236916134d0565b93611602600a54613998565b9687600a556040519761161489613445565b86895260a43560208a01528760408a01528460608a01528560808a01528160a08a01528260c08a01528360e08a0152876101008a015287526005602052604087209780518051906001600160401b03821161188b576116738b54613642565b601f8111611849575b50602090601f83116001146117b65761173493838c9d94600894610100947fb910788820c1fc1e98934bee6586d460fceb05098ba6698fb7f4ed9745174aeb9f926117ab575b50508160011b916000199060031b1c19161784555b6020810151600185015560408101516002850155606081015160038501556080810151600485015560a0810151600585015560c0810151600685015560e081015160078501550151151591019060ff801983541691151516179055565b6117616040516020818161174e8b83815193849201613565565b81016008815203019020600a54906139ba565b600a5494611783604051978897885261010060208901526101008801906135b6565b9460a43560408801526060870152608086015260a085015260c084015260e08301520390a180f35b0151905038806116c2565b908b8b52808b20918b5b601f19851681106118315750936001846008947fb910788820c1fc1e98934bee6586d460fceb05098ba6698fb7f4ed9745174aeb9e9f96946117349861010096601f19811610611818575b505050811b0184556116d7565b015160001960f88460031b161c1916905538808061180b565b919260206001819286850151815501940192016117c0565b8b8b5260208b20601f840160051c810160208510611884575b8c601f840160051c8301821061187a5750505061167c565b8155600101611862565b5080611862565b634e487b7160e01b8a52604160045260248afd5b8280fd5b9698967f2bf410a8493e77af80af6f30380c04e8c4b71932630dcf9c831b20e7388ee3a88103611be25750505050505060c08480518101031261189f57602084015160408501519160608601519561190c60808201519560c060a08401519301519336916134d0565b94611918600a54613998565b9788600a556040519861192a8a613493565b878a528560208b01528860408b015260a43560608b015260a43560808b01528660a08b01528160c08b01528260e08b0152836101008b0152846101208b0152886101408b015288526006602052604088209880518051906001600160401b038211611bce576119998c54613642565b601f8111611b8c575b50602090601f8311600114611af957611a7193838d9e94600a947f52b3c3eb0ec3121857763d94d3f845187d46a75755afdbac574efd5e388ee4159f946101409592611aee575b50508160011b916000199060031b1c19161784555b6020810151600185015560408101516002850155606081015160038501556080810151600485015560a0810151600585015560c0810151600685015560e08101516007850155610100810151600885015561012081015160098501550151151591019060ff801983541691151516179055565b611a9e60405160208181611a8b8c83815193849201613565565b81016009815203019020600a54906139ba565b600a5495611ac0604051988998895261012060208a01526101208901906135b6565b95604088015260a4356060880152608087015260a086015260c085015260e08401526101008301520390a180f35b0151905038806119e9565b908c8c52808c20918c5b601f1985168110611b745750936001847f52b3c3eb0ec3121857763d94d3f845187d46a75755afdbac574efd5e388ee4159e9f959461014094611a7198600a97601f19811610611b5b575b505050811b0184556119fe565b015160001960f88460031b161c19169055388080611b4e565b91926020600181928685015181550194019201611b03565b8c8c5260208c20601f840160051c810160208510611bc7575b8d601f840160051c83018210611bbd575050506119a2565b8155600101611ba5565b5080611ba5565b634e487b7160e01b8b52604160045260248bfd5b7f02a0046ae0a72923f4582943512f0b3b95b88a4125f476ba466151a9053e1249819a92939495969a989798146000146124695750611c2d81602080611c3794518301019101613821565b96909736916134d0565b92600194602099604051611c4b8c826134af565b8a8152898b5260058c5260408b209760ff60088a0154166000146122ab5750508991611c7561395d565b925b1561221057505050823b1561220c578386938993848094611cae604051988996879586946326ef699d60e01b8652600486016138d9565b03925af191826121f7575b5050611cd85760405162461bcd60e51b81528061120260048201613925565b611ce3600354613998565b806003556064611cf76005850154866139a7565b04916005830292808404600514811517156121e357611d169086613858565b91611d25600686015442613858565b90600486015460405192611d3884613477565b604051611d4981610237818c61367c565b8452848c8501528860408501528560608501526064870460808501528a60a085015260a43560c085015260e084015261010083015288610120830152885260048952604088209080518051906001600160401b038211611bce578190611daf8554613642565b601f8111612195575b508c90601f831160011461212d578c92612122575b50508160011b916000199060031b1c19161782555b898101518051906001600160401b038211611bce57611e046001850154613642565b601f81116120df575b508b90601f831160011461201d579360096101207f366860bfaaa09039e53ae0d422aaee44aeacb58f06f6c13fd14f52b7683963e698958e9f9a97957e29bbc9d1df4cafb61a2ba58e25f6566e062d41595d49e6f935461eab174b589f60409f9e9d9a9796611ef19783612012575b50508160011b916000199060031b1c19161760018501555b8d8101516002850155606081015160038501556080810151600485015560a0810151600585015560c0810151600685015560e0810151600785015561010081015160088501550151151591019060ff801983541691151516179055565b611f1a895187818451611f078183858901613565565b81016007815203019020600354906139ba565b611f3a60028501611f2c898254613858565b8091556001860154906137fe565b600785015411611fc0575b600354926064611f59600687015442613858565b91611f8c600488015494611f7f8e51998a998a526101208d8b01526101208a019061367c565b908882038f8a01526135b6565b948a606088015260a435608088015260a08701520460c085015260e08401526101008301520390a18351928352820152a180f35b878b52600586526008898c200160018154611fde60ff821615613a40565b60ff19161790557f7562a949655b77cbaa6a59364f68ac2be8c52117d2d6274dc36793591f0053e1868a518a8152a1611f45565b015190503880611e7c565b90600185018c528c8c20918c5b601f19851681106120c857506101207f366860bfaaa09039e53ae0d422aaee44aeacb58f06f6c13fd14f52b7683963e698957e29bbc9d1df4cafb61a2ba58e25f6566e062d41595d49e6f935461eab174b589e9f9a97938660409f9e9d9a9796600192600996611ef199601f198116106120af575b505050811b016001850155611e94565b015160001960f88460031b161c1916905538808061209f565b91928e60018192868501518155019401920161202a565b600185018c528c8c20601f840160051c81018e851061211b575b8d601f840160051c8301821061211157505050611e0d565b81556001016120f9565b50806120f9565b015190503880611dcd565b858d528d8d208d945091908e5b601f198516861061217c57506001945083601f19811610612163575b505050811b018255611de2565b015160001960f88460031b161c19169055388080612156565b828201518455948501946001909301929182019161213a565b909150848c528c8c208d601f850160051c82019085106121dc575b84939291908e5b601f840160051c830182106121ce57505050611db8565b81558594506001018e6121b7565b50806121b0565b634e487b7160e01b88526011600452602488fd5b81612201916134af565b61124f578538611cb9565b8780fd5b91998b99509750955060a4356000198101919082116121e357843b1561220c57916122598896959493928793604051998a98899788966326ef699d60e01b885260048801613897565b03925af180156122a05761228b575b505061120260405192839262461bcd60e51b8452600484015260248301906135b6565b6122968280926134af565b6101c65780612268565b6040513d84823e3d90fd5b6122b58954613642565b6122fb57505089916040516122cb6040826134af565b601981527f4c656e64696e672072657175657374206e6f7420666f756e64000000000000008d820152925b611c77565b60078901548a101561235857505089916040516123196060826134af565b602781527f426f72726f7720616d6f756e74206973206c657373207468616e206d696e696d8d82015266185b08199a5b1b60ca1b604082015292611c77565b61236a818a015460028b0154906137fe565b8a11156123c657505089916040516123836060826134af565b602b81527f426f72726f7720616d6f756e7420657863656564732072656d61696e696e67208d8201526a1b195b9908185b5bdd5b9d60aa1b604082015292611c77565b6123d460038a01548b613aa3565b60a435101561241e57505089916040516123ef6040826134af565b601781527f496e73756666696369656e7420636f6c6c61746572616c0000000000000000008d82015292611c77565b8c600361242f9593953685876134d0565b828151910120916040516124446040826134af565b828152016205852560ec1b815220146122f657508a9250612463613865565b92611c77565b979896979495949193917f7c4ef9fcbcd718c531be33e6c1e942f34ae50e2c58f65d1da8631ee13be5eb668103612d2157506124b1816020806124bb94518301019101613821565b95909836916134d0565b926001956020976040516124cf8a826134af565b8b81528a8c5260068a5260408c209860ff600a8b015416600014612b7e5750508a916124f961395d565b925b15612b3557505050908891833b1561189f576125529383928361254093612574604051988996879586946326ef699d60e01b8652608060048701526084860191613741565b8381036003190160248501528d61367c565b82810360031901604484015260038152621554d160ea1b602082015260400190565b60a435606483015203925af19182612b20575b50506125a65760405162461bcd60e51b81528061120260048201613925565b6125b1600354613998565b928360035560646125c8600783015460a4356139a7565b04600581029080820460051481151715612b0c576125ea9060648304906137fe565b946125f78660a435613858565b90612606600885015442613858565b6006850154906040519361261985613477565b87855260405161262d81610237818b61367c565b8b86015260a435604086015260608501526064850460808501528b60a08501528760c085015260e084015261010083015289610120830152895260048752604089209080518051906001600160401b038211612a3857819061268f8554613642565b601f8111612abf575b508a90601f8311600114612a57578d92612a4c575b50508160011b916000199060031b1c19161782555b878101518051906001600160401b038211612a38576126e46001850154613642565b601f81116129f3575b5089908c601f841160011461297c5792806101209361278797969360099692612971575b50508160011b916000199060031b1c19161760018501555b60408101516002850155606081015160038501556080810151600485015560a0810151600585015560c0810151600685015560e0810151600785015561010081015160088501550151151591019060ff801983541691151516179055565b60405188835461279681613642565b906001811690811561295b575060011461292c575b50938795919360647e29bbc9d1df4cafb61a2ba58e25f6566e062d41595d49e6f935461eab174b589a9894612812878a60409d998b60077f366860bfaaa09039e53ae0d422aaee44aeacb58f06f6c13fd14f52b7683963e69d5203019020600354906139ba565b6002830161282360a4358254613858565b90558c600484016128358782546137fe565b80915561284b6009860154600587015490613aa3565b116128d9575b506128616003549660a435613858565b6128a2612872600886015442613858565b946128956006820154978f61012090519c8d9c8d528c01526101208b01906135b6565b908982038f8b015261367c565b9560a4356060890152608088015260a08701520460c085015260e08401526101008301520390a1825191825260a43590820152a180f35b8b818c600a935260068a522001600181546128f760ff821615613a40565b60ff19161790557fba8f1140804ed0d80b9366acd35166ac348a3f02961bec8d2578bab4bfffe567878c518c8152a18c612851565b9050838a52878a208a905b828210612949575050810160406127ab565b80548483015290890190600101612937565b60ff1916845250801515028201905060406127ab565b015190503880612711565b5090600185018d528a8d20918d5b8c601f19861682106129dd5750508361012093612787979693600193600997601f198116106129c4575b505050811b016001850155612729565b015160001960f88460031b161c191690553880806129b4565b600184958293958501518155019401920161298a565b600185018d528a8d20601f840160051c81018c8510612a31575b8e5b601f840160051c83018210612a26575050506126ed565b81556001018e612a0f565b5080612a0d565b634e487b7160e01b8c52604160045260248cfd5b0151905038806126ad565b9250848d528a8d20908d935b8c601f1985168610612aa657506001945083601f19811610612a8d575b505050811b0182556126c2565b015160001960f88460031b161c19169055388080612a80565b8282015184559485019460019093019290910190612a63565b909150848d528a8d20601f840160051c81018c8510612b05575b84939291908f5b601f840160051c83018210612af757505050612698565b81558594506001018f612ae0565b5080612ad9565b634e487b7160e01b89526011600452602489fd5b81612b2a916134af565b610fff578638612587565b858a948d9496899360001960a435019060a43582116121e357843b1561220c57916122598896959493928793604051998a98899788966326ef699d60e01b885260048801613897565b612b888a54613642565b612bce5750508a91604051612b9e6040826134af565b601b81527f426f72726f77696e672072657175657374206e6f7420666f756e6400000000008b820152925b6124fb565b60098a015460a4351015612c2b5750508a91604051612bee6060826134af565b602581527f4c656e6420616d6f756e74206973206c657373207468616e206d696e696d616c8b8201526408199a5b1b60da1b6040820152926124fb565b612c3d818b015460028c0154906137fe565b60a4351115612c9b5750508a91604051612c586060826134af565b602b81527f4c656e6420616d6f756e7420657863656564732072656d61696e696e6720626f8b8201526a1c9c9bddc8185b5bdd5b9d60aa1b6040820152926124fb565b60048a0154891115612ce85750508a91604051612cb96040826134af565b601e81527f41736b696e6720666f7220746f6f206d75636820636f6c6c61746572616c00008b820152926124fb565b612cf69391933683856134d0565b8b8151910120612d04613837565b8c815191012014612bc957508b9250612d1b613865565b926124fb565b7f7bd15d6b2d182a804b2a36c079625580f8a960afa839087ccb184e9db92b9a039098979895929394951460001461311d5790612d6a82602080612d7495518301019101613821565b97905036916134d0565b92600194602097604051612d888a826134af565b8a8152888b5260048a5260408b2097612da23685856134d0565b8b8151910120612db0613837565b8051908d0120146130135750508991612dc7613865565b925b15612fca57505050823b1561220c576040516326ef699d60e01b815288808280612dfb60a4358a888a600486016138d9565b038183895af19182612fb1575b5050612e275760405162461bcd60e51b81528061120260048201613925565b87927fd9cfbcfb9ae5d65b8d34072de4575f602ee25cf3715bc05c291701fe9e258f9a612e8260058801612e5e60a4358254613858565b80915560405191829160a4358c846040919493926060820195825260208201520152565b0390a16005860195865460038201541115612ea4575b50505050505050505080f35b6006015492813b15612fad5784612ee2938195612ef4610f146040519a8b98899788966326ef699d60e01b8852608060048901526084880191613741565b858103600319016024870152906135b6565b90606483015203925af19182612f98575b5050612f505760405162461bcd60e51b815260048101849052601e60248201527f4661696c656420746f2073656e642058525020746f20626f72726f77657200006044820152606490fd5b546040805192835260a43560208401528201527fd9cfbcfb9ae5d65b8d34072de4575f602ee25cf3715bc05c291701fe9e258f9a9150606090a1388080808481808080612e98565b81612fa2916134af565b612fad578438612f05565b8480fd5b81612fbb916134af565b612fc6578838612e08565b8880fd5b858a948c9496899360001960a435019060a43582116121e357843b1561220c57916122598896959493928793604051998a98899788966326ef699d60e01b885260048801613897565b60405161302681610237818d860161367c565b8051908c01208851898d01201461306e57505089916040516130496040826134af565b60128152712737ba103a3432903637b0b71037bbb732b960711b8b820152925b612dc9565b600989015460ff16156130bc575050899160405161308d6040826134af565b601a81527f4c6f616e20697320616c7265616479206c6971756964617465640000000000008b82015292612dc9565b60058901549193916130d09060a435613858565b60038a015410156130695750915089916040516130ee6040826134af565b601d81527f52657061796d656e74206578636565647320616d6f756e74206f7765640000008b82015292612dc9565b5096959390919260001960a4350160a43581116121e3578798859897983b1561220c57613172968894610be1613184936040519c8d9b8c9a8b996326ef699d60e01b8b52608060048c015260848b0191613741565b8881036003190160248a015291613741565b90606483015203925af180156122a0576131cf5760405162461bcd60e51b815260206004820152600f60248201526e125b9d985b1a590818dbdb5b585b99608a1b6044820152606490fd5b816131d9916134af565b386111ca565b60405162461bcd60e51b815260206004820152600e60248201526d125b9d985b1a5908185b5bdd5b9d60921b6044820152606490fd5b631403112d60e21b8952600489fd5b61323d915060203d60201161123d5761122f81836134af565b38611554565b6040513d8c823e3d90fd5b50346101c65760203660031901126101c65760408161335892610100835161327581613445565b6060815282602082015282858201528260608201528260808201528260a08201528260c08201528260e082015201526004358152600560205220604051906132bc82613445565b6040516132cd81610237818561367c565b8252600181015490602083019182526002810154906040840191825260038101546060850190815260048201546080860190815260058301549060a0870191825260068401549260c0880193845260ff600860078701549660e08b019788520154169561010089019615158752604051998a9960208b525161012060208c01526101408b01906135b6565b975160408a01525160608901525160808801525160a08701525160c08601525160e0850152516101008401525115156101208301520390f35b50346101c657806003193601126101c6576040517f00000000000000000000000000000000000000000000000000000000000000006001600160a01b03168152602090f35b50346101c6576020906133eb61093336613534565b810160098152030190209081548310156101c65760206109688484613588565b9050346103d757816003193601126103d757807f7bd15d6b2d182a804b2a36c079625580f8a960afa839087ccb184e9db92b9a0360209252f35b61012081019081106001600160401b0382111761346157604052565b634e487b7160e01b600052604160045260246000fd5b61014081019081106001600160401b0382111761346157604052565b61016081019081106001600160401b0382111761346157604052565b90601f801991011681019081106001600160401b0382111761346157604052565b9291926001600160401b03821161346157604051916134f9601f8201601f1916602001846134af565b829481845281830111610d4f578281602093846000960137010152565b9080601f83011215610d4f57816020613531933591016134d0565b90565b6040600319820112610d4f57600435906001600160401b038211610d4f5761355e91600401613516565b9060243590565b60005b8381106135785750506000910152565b8181015183820152602001613568565b80548210156135a05760005260206000200190600090565b634e487b7160e01b600052603260045260246000fd5b906020916135cf81518092818552858086019101613565565b601f01601f1916010190565b9181601f84011215610d4f578235916001600160401b038311610d4f5760208381860195010111610d4f57565b602060408183019282815284518094520192019060005b81811061362c5750505090565b825184526020938401939092019160010161361f565b90600182811c92168015613672575b602083101461365c57565b634e487b7160e01b600052602260045260246000fd5b91607f1691613651565b6000929181549161368c83613642565b80835292600181169081156136e257506001146136a857505050565b60009081526020812093945091925b8383106136c8575060209250010190565b6001816020929493945483858701015201910191906136b7565b915050602093945060ff929192191683830152151560051b010190565b6040519061370e6040836134af565b600c82526b1614941317dd195cdd1b995d60a21b6020830152565b90816020910312610d4f57518015158103610d4f5790565b908060209392818452848401376000828201840152601f01601f1916010190565b1561376957565b60405162461bcd60e51b815260206004820152601460248201527324b73b30b634b21039b7bab931b29031b430b4b760611b6044820152606490fd5b9190604083820312610d4f5782356001600160401b038111610d4f57816137cd918501613516565b926020810135906001600160401b038211610d4f57019080601f83011215610d4f57816020613531933591016134d0565b9190820391821161380b57565b634e487b7160e01b600052601160045260246000fd5b9190826040910312610d4f576020825192015190565b604051906138466040836134af565b60038252621554d160ea1b6020830152565b9190820180921161380b57565b604051906138746040836134af565b6014825273125b9d985b1a59081d1bdad95b881cde5b589bdb60621b6020830152565b969594906138d4936138b86138c6926060979560808c5260808c0191613741565b9089820360208b01526135b6565b918783036040890152613741565b930152565b949392613906906138f86138d49360609560808a5260808a0191613741565b9087820360208901526135b6565b858103604087015260409060038152621554d160ea1b60208201520190565b60609060208152601e60208201527f4661696c656420746f2073656e642055534420746f20626f72726f776572000060408201520190565b6040519061396c6040836134af565b601b82527f5265717565737420697320616c72656164792063616e63656c656400000000006020830152565b600019811461380b5760010190565b8181029291811591840414171561380b57565b805468010000000000000000811015613461576139dc91600182018155613588565b819291549060031b91821b91600019901b1916179055565b156139fb57565b60405162461bcd60e51b815260206004820152601760248201527f4e6f742074686520726571756573742063726561746f720000000000000000006044820152606490fd5b15613a4757565b60405162461bcd60e51b815260206004820152601b60248201527f5265717565737420697320616c72656164792063616e63656c656400000000006044820152606490fd5b6040906135319392815281602082015201906135b6565b90613aad916139a7565b600a810290808204600a149015171561380b57600154908115613ace570490565b634e487b7160e01b600052601260045260246000fdfea26469706673582212204d55a0eed8f61ac1ab0f9e0a511c21c32f505baa7b7e8637ef7dfe5ae21c595364736f6c634300081c0033",
  "linkReferences": {},
  "deployedLinkReferences": {}
}