{
  "_format": "hh-sol-artifact-1",
  "contractName": "XrpLendingPoolV5",
  "sourceName": "contracts/pledge/XrpLendingPool.sol",
  "abi": [
    {
      "inputs": [
        {
          "internalType": "address",
          "name": "gateway_",
          "type": "address"
        },
        {
          "internalType": "address",
          "name": "priceOracle_",
          "type": "address"
        },
        {
          "internalType": "uint256",
          "name": "dailyInterestFactorE18_",
          "type": "uint256"
        }
      ],
      "stateMutability": "nonpayable",
      "type": "constructor"
    },
    {
      "inputs": [],
      "name": "InvalidAddress",
      "type": "error"
    },
    {
      "inputs": [],
      "name": "NotApprovedByGateway",
      "type": "error"
    },
    {
      "inputs": [
        {
          "internalType": "uint256",
          "name": "x",
          "type": "uint256"
        }
      ],
      "name": "PRBMathUD60x18__Exp2InputTooBig",
      "type": "error"
    },
    {
      "inputs": [
        {
          "internalType": "uint256",
          "name": "x",
          "type": "uint256"
        }
      ],
      "name": "PRBMathUD60x18__LogInputTooSmall",
      "type": "error"
    },
    {
      "inputs": [
        {
          "internalType": "uint256",
          "name": "prod1",
          "type": "uint256"
        }
      ],
      "name": "PRBMath__MulDivFixedPointOverflow",
      "type": "error"
    },
    {
      "anonymous": false,
      "inputs": [
        {
          "indexed": false,
          "internalType": "string",
          "name": "eventName",
          "type": "string"
        },
        {
          "indexed": false,
          "internalType": "uint256",
          "name": "amount1",
          "type": "uint256"
        },
        {
          "indexed": false,
          "internalType": "string",
          "name": "borrower",
          "type": "string"
        },
        {
          "indexed": false,
          "internalType": "uint256",
          "name": "borrowAmountUSD",
          "type": "uint256"
        },
        {
          "indexed": false,
          "internalType": "uint256",
          "name": "amountPayableUSD",
          "type": "uint256"
        },
        {
          "indexed": false,
          "internalType": "uint256",
          "name": "collateralAmountXRP",
          "type": "uint256"
        },
        {
          "indexed": false,
          "internalType": "uint256",
          "name": "lastPayableUpdateTime",
          "type": "uint256"
        },
        {
          "indexed": false,
          "internalType": "uint256",
          "name": "repaidUSD",
          "type": "uint256"
        }
      ],
      "name": "BorrowerEvent",
      "type": "event"
    },
    {
      "anonymous": false,
      "inputs": [
        {
          "indexed": false,
          "internalType": "string",
          "name": "eventName",
          "type": "string"
        },
        {
          "indexed": false,
          "internalType": "uint256",
          "name": "amount1",
          "type": "uint256"
        },
        {
          "indexed": false,
          "internalType": "string",
          "name": "user",
          "type": "string"
        },
        {
          "indexed": false,
          "internalType": "uint256",
          "name": "contributionBalance",
          "type": "uint256"
        },
        {
          "indexed": false,
          "internalType": "uint256",
          "name": "rewardDebt",
          "type": "uint256"
        },
        {
          "indexed": false,
          "internalType": "uint256",
          "name": "confirmedRewards",
          "type": "uint256"
        }
      ],
      "name": "ContributorEvent",
      "type": "event"
    },
    {
      "anonymous": false,
      "inputs": [
        {
          "indexed": false,
          "internalType": "uint256",
          "name": "rewardDistributed",
          "type": "uint256"
        },
        {
          "indexed": false,
          "internalType": "uint256",
          "name": "accRewardPerShareE18",
          "type": "uint256"
        },
        {
          "indexed": false,
          "internalType": "uint256",
          "name": "equity",
          "type": "uint256"
        },
        {
          "indexed": false,
          "internalType": "uint256",
          "name": "retainedEarning",
          "type": "uint256"
        }
      ],
      "name": "PoolRewardEvent",
      "type": "event"
    },
    {
      "inputs": [],
      "name": "SELECTOR_BORROW",
      "outputs": [
        {
          "internalType": "bytes32",
          "name": "",
          "type": "bytes32"
        }
      ],
      "stateMutability": "view",
      "type": "function"
    },
    {
      "inputs": [],
      "name": "SELECTOR_CLAIM_REWARD",
      "outputs": [
        {
          "internalType": "bytes32",
          "name": "",
          "type": "bytes32"
        }
      ],
      "stateMutability": "view",
      "type": "function"
    },
    {
      "inputs": [],
      "name": "SELECTOR_LEND",
      "outputs": [
        {
          "internalType": "bytes32",
          "name": "",
          "type": "bytes32"
        }
      ],
      "stateMutability": "view",
      "type": "function"
    },
    {
      "inputs": [],
      "name": "SELECTOR_LIQUIDATE_LOAN",
      "outputs": [
        {
          "internalType": "bytes32",
          "name": "",
          "type": "bytes32"
        }
      ],
      "stateMutability": "view",
      "type": "function"
    },
    {
      "inputs": [],
      "name": "SELECTOR_REPAY_LOAN",
      "outputs": [
        {
          "internalType": "bytes32",
          "name": "",
          "type": "bytes32"
        }
      ],
      "stateMutability": "view",
      "type": "function"
    },
    {
      "inputs": [],
      "name": "SELECTOR_WITHDRAW",
      "outputs": [
        {
          "internalType": "bytes32",
          "name": "",
          "type": "bytes32"
        }
      ],
      "stateMutability": "view",
      "type": "function"
    },
    {
      "inputs": [],
      "name": "SUPPORTED_SOURCE_CHAIN_HASH",
      "outputs": [
        {
          "internalType": "bytes32",
          "name": "",
          "type": "bytes32"
        }
      ],
      "stateMutability": "view",
      "type": "function"
    },
    {
      "inputs": [],
      "name": "accRewardPerShareE18",
      "outputs": [
        {
          "internalType": "uint256",
          "name": "",
          "type": "uint256"
        }
      ],
      "stateMutability": "view",
      "type": "function"
    },
    {
      "inputs": [
        {
          "internalType": "string",
          "name": "",
          "type": "string"
        }
      ],
      "name": "borrowers",
      "outputs": [
        {
          "internalType": "string",
          "name": "borrower",
          "type": "string"
        },
        {
          "internalType": "uint256",
          "name": "borrowAmountUSD",
          "type": "uint256"
        },
        {
          "internalType": "uint256",
          "name": "amountPayableUSD",
          "type": "uint256"
        },
        {
          "internalType": "uint256",
          "name": "collateralAmountXRP",
          "type": "uint256"
        },
        {
          "internalType": "uint256",
          "name": "lastPayableUpdateTime",
          "type": "uint256"
        },
        {
          "internalType": "uint256",
          "name": "repaidUSD",
          "type": "uint256"
        }
      ],
      "stateMutability": "view",
      "type": "function"
    },
    {
      "inputs": [],
      "name": "collateralRatioPc",
      "outputs": [
        {
          "internalType": "uint256",
          "name": "",
          "type": "uint256"
        }
      ],
      "stateMutability": "view",
      "type": "function"
    },
    {
      "inputs": [
        {
          "internalType": "string",
          "name": "",
          "type": "string"
        }
      ],
      "name": "contributors",
      "outputs": [
        {
          "internalType": "uint256",
          "name": "contributionBalance",
          "type": "uint256"
        },
        {
          "internalType": "uint256",
          "name": "rewardDebt",
          "type": "uint256"
        },
        {
          "internalType": "uint256",
          "name": "confirmedRewards",
          "type": "uint256"
        }
      ],
      "stateMutability": "view",
      "type": "function"
    },
    {
      "inputs": [],
      "name": "currentXRPPriceUSDE4",
      "outputs": [
        {
          "internalType": "uint256",
          "name": "",
          "type": "uint256"
        }
      ],
      "stateMutability": "view",
      "type": "function"
    },
    {
      "inputs": [],
      "name": "dailyInterestFactorE18",
      "outputs": [
        {
          "internalType": "uint256",
          "name": "",
          "type": "uint256"
        }
      ],
      "stateMutability": "view",
      "type": "function"
    },
    {
      "inputs": [],
      "name": "equity",
      "outputs": [
        {
          "internalType": "uint256",
          "name": "",
          "type": "uint256"
        }
      ],
      "stateMutability": "view",
      "type": "function"
    },
    {
      "inputs": [
        {
          "internalType": "bytes32",
          "name": "commandId",
          "type": "bytes32"
        },
        {
          "internalType": "string",
          "name": "sourceChain",
          "type": "string"
        },
        {
          "internalType": "string",
          "name": "sourceAddress",
          "type": "string"
        },
        {
          "internalType": "bytes",
          "name": "payload",
          "type": "bytes"
        }
      ],
      "name": "execute",
      "outputs": [],
      "stateMutability": "nonpayable",
      "type": "function"
    },
    {
      "inputs": [
        {
          "internalType": "bytes32",
          "name": "commandId",
          "type": "bytes32"
        },
        {
          "internalType": "string",
          "name": "sourceChain",
          "type": "string"
        },
        {
          "internalType": "string",
          "name": "sourceAddress",
          "type": "string"
        },
        {
          "internalType": "bytes",
          "name": "payload",
          "type": "bytes"
        },
        {
          "internalType": "string",
          "name": "tokenSymbol",
          "type": "string"
        },
        {
          "internalType": "uint256",
          "name": "amount",
          "type": "uint256"
        }
      ],
      "name": "executeWithToken",
      "outputs": [],
      "stateMutability": "nonpayable",
      "type": "function"
    },
    {
      "inputs": [],
      "name": "gateway",
      "outputs": [
        {
          "internalType": "contract IMyAxelarGateway",
          "name": "",
          "type": "address"
        }
      ],
      "stateMutability": "view",
      "type": "function"
    },
    {
      "inputs": [
        {
          "internalType": "string",
          "name": "_user",
          "type": "string"
        }
      ],
      "name": "getBorrowerInfo",
      "outputs": [
        {
          "components": [
            {
              "internalType": "string",
              "name": "borrower",
              "type": "string"
            },
            {
              "internalType": "uint256",
              "name": "borrowAmountUSD",
              "type": "uint256"
            },
            {
              "internalType": "uint256",
              "name": "amountPayableUSD",
              "type": "uint256"
            },
            {
              "internalType": "uint256",
              "name": "collateralAmountXRP",
              "type": "uint256"
            },
            {
              "internalType": "uint256",
              "name": "lastPayableUpdateTime",
              "type": "uint256"
            },
            {
              "internalType": "uint256",
              "name": "repaidUSD",
              "type": "uint256"
            }
          ],
          "internalType": "struct XrpLendingPoolV5.BorrowerInfo",
          "name": "",
          "type": "tuple"
        }
      ],
      "stateMutability": "view",
      "type": "function"
    },
    {
      "inputs": [
        {
          "internalType": "string",
          "name": "_user",
          "type": "string"
        }
      ],
      "name": "getContributorInfo",
      "outputs": [
        {
          "components": [
            {
              "internalType": "uint256",
              "name": "contributionBalance",
              "type": "uint256"
            },
            {
              "internalType": "uint256",
              "name": "rewardDebt",
              "type": "uint256"
            },
            {
              "internalType": "uint256",
              "name": "confirmedRewards",
              "type": "uint256"
            }
          ],
          "internalType": "struct XrpLendingPoolV5.ContributorInfo",
          "name": "",
          "type": "tuple"
        }
      ],
      "stateMutability": "view",
      "type": "function"
    },
    {
      "inputs": [],
      "name": "lastPriceUpdateTimestamp",
      "outputs": [
        {
          "internalType": "uint256",
          "name": "",
          "type": "uint256"
        }
      ],
      "stateMutability": "view",
      "type": "function"
    },
    {
      "inputs": [],
      "name": "lastRewardTimeStamp",
      "outputs": [
        {
          "internalType": "uint256",
          "name": "",
          "type": "uint256"
        }
      ],
      "stateMutability": "view",
      "type": "function"
    },
    {
      "inputs": [],
      "name": "liquidationThresholdPc",
      "outputs": [
        {
          "internalType": "uint256",
          "name": "",
          "type": "uint256"
        }
      ],
      "stateMutability": "view",
      "type": "function"
    },
    {
      "inputs": [],
      "name": "retainedEarning",
      "outputs": [
        {
          "internalType": "uint256",
          "name": "",
          "type": "uint256"
        }
      ],
      "stateMutability": "view",
      "type": "function"
    },
    {
      "inputs": [],
      "name": "rewardInterval",
      "outputs": [
        {
          "internalType": "uint256",
          "name": "",
          "type": "uint256"
        }
      ],
      "stateMutability": "view",
      "type": "function"
    },
    {
      "inputs": [
        {
          "internalType": "address",
          "name": "_priceOracle",
          "type": "address"
        }
      ],
      "name": "setPriceOracle",
      "outputs": [],
      "stateMutability": "nonpayable",
      "type": "function"
    },
    {
      "inputs": [],
      "name": "supportedSourceChain",
      "outputs": [
        {
          "internalType": "string",
          "name": "",
          "type": "string"
        }
      ],
      "stateMutability": "view",
      "type": "function"
    }
  ],
  "bytecode": "0x60a0346100f857601f612f1a38819003918201601f19168301916001600160401b038311848410176100fd578084926060946040528339810103126100f85761004781610113565b90604061005660208301610113565b910151916001600160a01b038116156100e75760805260006003556096600555606e6006556201518060085560006009556000600a556000600b5560018060a01b031660018060a01b03196000541617600055600455426007553360018060a01b03196001541617600155604051612df29081610128823960805181818161063b01528181610c5801526119d80152f35b63e6c4247b60e01b60005260046000fd5b600080fd5b634e487b7160e01b600052604160045260246000fd5b51906001600160a01b03821682036100f85756fe6080604052600436101561001257600080fd5b6000803560e01c806301d1024814611a425780630bc82cf314611a07578063116191b6146119c25780631a98b2e014610b9657806323b1f8e414610b7857806331f59c5514610b3d578063356c728414610b1f578063370477ff14610b0157806349160658146105a3578063530e784f14610527578063550b9997146105095780636277fc0d146104eb578063650a145f146104cd578063752329ec146104af57806378f2c2c31461048657806391a0ac6a146104685780639f6df997146103b8578063a43f2b921461037d578063ab8f93dc146102d3578063b73f3a8e1461025e578063bad271691461022a578063bec4de3f1461020c578063c5fa9552146101ee578063d8988068146101b3578063f1fd4ccb146101785763f64f78571461013b57600080fd5b3461017557806003193601126101755760206040517f2c260ca563e3b0491b45b463c200c724bc55ac058701ee1a0151cdeeb87eaf5a8152f35b80fd5b503461017557806003193601126101755760206040517f855511cc3694f64379908437d6d64458dc76d02482052bfb8a5b33a72c054c778152f35b503461017557806003193601126101755760206040517f4f943907ef0ef6f9d2e2408b05e520a66daaf74293dbf665e5a20b117676170e8152f35b50346101755780600319360112610175576020600254604051908152f35b50346101755780600319360112610175576020600854604051908152f35b503461017557806003193601126101755761025a610246611cae565b604051918291602083526020830190611c5c565b0390f35b503461017557602036600319011261017557600435906001600160401b0382116101755760606102a960206102963660048701611c1b565b8160405193828580945193849201611c39565b8101600d815203019020805490600260018201549101549060405192835260208301526040820152f35b503461017557602036600319011261017557600435906001600160401b0382116101755761035f61030c60206102963660048701611c1b565b8101600c8152030190206040519061032f826103288184611d12565b0383611baf565b6001810154906002810154906003810154600560048301549201549260405196879660c0885260c0880190611c5c565b94602087015260408601526060850152608084015260a08301520390f35b503461017557806003193601126101755760206040517f9982a092a6e4ed71c78f9619841a31a676df9098c2ec526ad2647af4f8aa674b8152f35b5034610175576020366003190112610175576004356001600160401b0381116104645760206060926103f161041c933690600401611c1b565b90604080516103ff81611b94565b828152828582015201528160405193828580945193849201611c39565b8101600d81520301902060405161043281611b94565b815491828252604060026001830154926020850193845201549201918252604051928352516020830152516040820152f35b5080fd5b50346101755780600319360112610175576020600b54604051908152f35b503461017557806003193601126101755760206104a1611cae565b818151910120604051908152f35b50346101755780600319360112610175576020600954604051908152f35b50346101755780600319360112610175576020600554604051908152f35b50346101755780600319360112610175576020600a54604051908152f35b50346101755780600319360112610175576020600654604051908152f35b5034610175576020366003190112610175576004356001600160a01b03811690819003610464576001546001600160a01b031633036105725781546001600160a01b03191617815580f35b60405162461bcd60e51b81526020600482015260096024820152682737ba1037bbb732b960b91b6044820152606490fd5b5034610175576080366003190112610175576024356001600160401b038111610464576105d4903690600401611c81565b906044356001600160401b038111610883576105f4903690600401611c81565b6064939193356001600160401b03811161087f57610616903690600401611c81565b9290610623368583611bd0565b602081519101209383602061068c8860018060a01b037f0000000000000000000000000000000000000000000000000000000000000000169861069e8c6040519687958695635f6970c360e01b87526004356004880152608060248801528c6084880191611dad565b85810360031901604487015291611dad565b90606483015203818c8a5af1908115610af6578991610ac7575b5015610ab857906106f5916106ed6106d136868a611bd0565b602081519101206106e0611cae565b6020815191012014611dce565b810190611e11565b90604051610724602082816107138183019687815193849201611c39565b81010301601f198101835282611baf565b5190207f2c260ca563e3b0491b45b463c200c724bc55ac058701ee1a0151cdeeb87eaf5a81036108c2575050610758612a8b565b60405182868237602081848101600d8152030190209261077784612b2b565b60028401948554908115610887578289933b15610883578594848a936107b58296604051998a97889687956326ef699d60e01b875260048701612047565b03925af1918261086a575b50506107e35760405162461bcd60e51b8152806107df600482016120e0565b0390fd5b84937f13e6f599fa07a181cb76c5f3df1a736a8f64247f22e1f14b99eeaac7fb05499792845491610852600183549301549160405195869560c08752600b60c08801526a18db185a5b54995dd85c9960aa1b60e088015260208701526101006040870152610100860191611dad565b91606084015260808301528560a08301520390a15580f35b8161087491611baf565b61087f5785386107c0565b8580fd5b8380fd5b60405162461bcd60e51b81526020600482015260136024820152724e6f207265776172647320746f20636c61696d60681b6044820152606490fd5b92949391927f855511cc3694f64379908437d6d64458dc76d02482052bfb8a5b33a72c054c7703610a81578051602080830192600092810103126101755750519261090b612a8b565b60405185878237602081878101600d8152030190209261092a84612b2b565b84845410610a45578791833b15610a415786938392838a936109638a604051998a97889687956326ef699d60e01b875260048701612047565b03925af19182610a2c575b505061098d5760405162461bcd60e51b8152806107df600482016120e0565b7f13e6f599fa07a181cb76c5f3df1a736a8f64247f22e1f14b99eeaac7fb054997936109ba838354611e6a565b82556109c883600b54611e6a565b600b55815491610a16600260018301549201549260405196879660c08852600860c089015267776974686472617760c01b60e089015260208801526101006040880152610100870191611dad565b926060850152608084015260a08301520390a180f35b81610a3691611baf565b61087f57853861096e565b8280fd5b60405162461bcd60e51b8152602060048201526014602482015273496e73756666696369656e742062616c616e636560601b6044820152606490fd5b60405162461bcd60e51b815260206004820152600f60248201526e125b9d985b1a590818dbdb5b585b99608a1b6044820152606490fd5b631403112d60e21b8852600488fd5b610ae9915060203d602011610aef575b610ae18183611baf565b810190611d95565b386106b8565b503d610ad7565b6040513d8b823e3d90fd5b50346101755780600319360112610175576020600454604051908152f35b50346101755780600319360112610175576020600754604051908152f35b503461017557806003193601126101755760206040517f4a469cefcbed9a88178fc34579047173d00d4643d65873018db1ec410f46e00d8152f35b50346101755780600319360112610175576020600354604051908152f35b50346101755760c0366003190112610175576024356001600160401b03811161046457610bc7903690600401611c81565b6044929192356001600160401b038111610a4157610be9903690600401611c81565b91906064356001600160401b0381116119be57610c0a903690600401611c81565b926084356001600160401b03811161102d57610c2a903690600401611c81565b97909260a4359536610c3d908284611bd0565b8051906020012091868b8a8c87898d8c600160a01b600190037f0000000000000000000000000000000000000000000000000000000000000000169a8b97604051998a9889978897631876eed960e01b895260043560048a01526024890160c0905260c4890190610cad92611dad565b90600319888303016044890152610cc392611dad565b916064860152600319858303016084860152610cde92611dad565b9060a483015203915a94602095f19081156119b3578b91611994575b501561198557871561194f57610d18916106ed6106d1368888611bd0565b90604051610d36602082816107138183019687815193849201611c39565b5190207f9982a092a6e4ed71c78f9619841a31a676df9098c2ec526ad2647af4f8aa674b8103610e45575050505050610d96610db2917f13e6f599fa07a181cb76c5f3df1a736a8f64247f22e1f14b99eeaac7fb05499796973691611bd0565b60208151910120610da5611f01565b6020815191012014611f22565b610dba612a8b565b60405183828237602081858101600d81520301902090610dd982612b2b565b610de4838354611faf565b8255610df283600b54611faf565b600b55815491610a16600260018301549201549260405196879660c08852600a60c089015269636f6e7472696275746560b01b60e089015260208801526101006040880152610100870191611dad565b80f35b7f4f943907ef0ef6f9d2e2408b05e520a66daaf74293dbf665e5a20b117676170e819b989693949799959b146000146112fa5750805160208083019260009281010312610175575090610e9b9151963691611bd0565b6020815191012097610ece604099600360208c610eba81519182611baf565b828152016205852560ec1b81522014611f22565b610ed6612118565b610ee260055487611ece565b6064810290808204606414901517156112e657600254610f0191611ee1565b84106112a257885183888237602081858101600c815203019020948951610f3381610f2c818a611d12565b0382611baf565b602081519101206020908a8c51610f4a8482611baf565b528a8020146110355750610f5d866121ac565b823b15611031578784938a93848094610f8d8f8d9051998a97889687956326ef699d60e01b875260048701612047565b03925af19182611018575b5050610fb657865162461bcd60e51b8152806107df600482016120e0565b91600080516020612d9d83398151915295969161100c9360018301610fdc878254611faf565b809155610fee60038501938454611faf565b80935560028401549160056004860154950154955198899889612083565b0390a15b610e42612a8b565b8161102291611baf565b61102d578638610f98565b8680fd5b8880fd5b929190829594953b1561129e578886938b938480948f8d61106b9151998a97889687956326ef699d60e01b875260048701612047565b03925af19182611285575b505061109457875162461bcd60e51b8152806107df600482016120e0565b879495969751916110a483611b63565b6110af36858a611bd0565b83528183019087825286840188815260608501918252608085019242845260a08601948c86528951888d823781818a8101600c8152030190209651908151916001600160401b03831161127157908e916111098a54611cd8565b601f8111611238575b5081601f85116001146111b657509280600080516020612d9d8339815191529f9e9d9b9996936111a39d9b9996936005999682936111ab575b5050508160011b916000199060031b1c19161787555b51600187015551600286015551600385015551600484015551910155600182015460028301549060038401549260056004860154950154955198899889612083565b0390a1611010565b01519150388061114b565b8a845280842093601f198616915b82821061122057505093600080516020612d9d8339815191529f9e9d9b9996936111a39d9b9996936001938360059b9810611207575b505050811b018755611161565b015160001960f88460031b161c191690553880806111fa565b806001869782949787015181550196019401906111c4565b611261908b8552838520601f870160051c810191858810611267575b601f0160051c0190611fbc565b38611112565b9091508190611254565b634e487b7160e01b8f52604160045260248ffd5b8161128f91611baf565b61129a578738611076565b8780fd5b8980fd5b885162461bcd60e51b815260206004820152601760248201527f496e73756666696369656e7420636f6c6c61746572616c0000000000000000006044820152606490fd5b634e487b7160e01b89526011600452602489fd5b90507f7bd15d6b2d182a804b2a36c079625580f8a960afa839087ccb184e9db92b9a03819a979293949598999a146000146115ac575061133f91610d96913691611bd0565b60405182878237602081848101600c81520301902060405161136581610f2c8185611d12565b6020815191012061137736858a611bd0565b60208151910120036115725760405161139481610f2c8185611d12565b60208151910120946113bb6020968a6040516113b08a82611baf565b528a80201415611e8d565b8860058301936113cc898654611faf565b85556113d7846121ac565b600284018054909790808b1061154a5750600385015491803b15610883578794848d9361141c8296604051998a97889687956326ef699d60e01b875260048701611f65565b03925af19182611535575b50506114725760405162461bcd60e51b815260206004820152601a60248201527f4661696c656420746f2073656e642058525020746f20757365720000000000006044820152606490fd5b600080516020612d9d8339815191529661149d6114958454600185015490611e6a565b600954611faf565b6009556114bc604051858382378781878101600c815203019020611fd3565b611510600183015495549160046003850154940154945495604051998a996101008b5260096101008c0152683932b830bca637b0b760b91b6101208c01528a015261014060408a0152610140890191611dad565b946060870152608086015260a085015260c084015260e08301520390a1610e42612a8b565b8161153f91611baf565b611031578838611427565b9050600080516020612d9d8339815191529a935061156b9250899150611e6a565b85556114bc565b60405162461bcd60e51b81526020600482015260126024820152712737ba103a3432903637b0b71037bbb732b960711b6044820152606490fd5b7f4a469cefcbed9a88178fc34579047173d00d4643d65873018db1ec410f46e00d90989293979896919596146000146118735760405184838237602081868101600c8152030190209260405161160681610f2c8188611d12565b602081519101209661162d6020988c6040516116228c82611baf565b528c80201415611e8d565b611635612118565b61163e856121ac565b600385019889549261271061165560025486611ece565b049060028801998a5492606461166d60065486611ece565b0411156118375761169d91611683913691611bd0565b8b8151910120611691611f01565b8c815191012014611f22565b8b106117d95790818c93923b156108835787948487936116d58296604051998a97889687956326ef699d60e01b875260048701611f65565b03925af191826117c4575b505061172b5760405162461bcd60e51b815260206004820152601a60248201527f4661696c656420746f2073656e642058525020746f20757365720000000000006044820152606490fd5b611749611495600080516020612d9d83398151915298865490611e6a565b600955611768604051848382378681868101600c815203019020611fd3565b60025495611510600184015495549154926005600486015495015495604051998a996101008b52600d6101008c01526c3634b8bab4b230ba32a637b0b760991b6101208c01528a015261014060408a0152610140890191611dad565b816117ce91611baf565b6110315788386116e0565b60405162461bcd60e51b8152600481018a9052603060248201527f52657061796d656e7420616d6f756e74206d757374206265206772656174657260448201526f081d1a185b881d1bdd185b081bddd95960821b6064820152608490fd5b60405162461bcd60e51b8152600481018d9052601460248201527310d85b9b9bdd081b1a5c5d5a59185d19481e595d60621b6044820152606490fd5b9094889487926000198a018a811161193b578798859897983b1561129a576118c396889461068c6118d5936040519c8d9b8c9a8b996326ef699d60e01b8b52608060048c015260848b0191611dad565b8881036003190160248a015291611dad565b90606483015203925af18015611930576119205760405162461bcd60e51b815260206004820152600f60248201526e125b9d985b1a590818dbdb5b585b99608a1b6044820152606490fd5b8161192a91611baf565b81610a81565b6040513d84823e3d90fd5b634e487b7160e01b88526011600452602488fd5b60405162461bcd60e51b815260206004820152600e60248201526d125b9d985b1a5908185b5bdd5b9d60921b6044820152606490fd5b631403112d60e21b8a5260048afd5b6119ad915060203d602011610aef57610ae18183611baf565b38610cfa565b6040513d8d823e3d90fd5b8480fd5b50346101755780600319360112610175576040517f00000000000000000000000000000000000000000000000000000000000000006001600160a01b03168152602090f35b503461017557806003193601126101755760206040517f7bd15d6b2d182a804b2a36c079625580f8a960afa839087ccb184e9db92b9a038152f35b5034610175576020366003190112610175576004356001600160401b038111610464576020611b4092611a7c611abb933690600401611c1b565b9060a0604051611a8b81611b63565b60608152828582015282604082015282606082015282608082015201528160405193828580945193849201611c39565b8101600c81520301902060405190611ad282611b63565b604051611ae381610f2c8185611d12565b8252600181015490602083019182526002810154906040840191825260038101546060850190815260056004830154926080870193845201549260a08601938452604051968796602088525160c0602089015260e0880190611c5c565b945160408701525160608601525160808501525160a08401525160c08301520390f35b60c081019081106001600160401b03821117611b7e57604052565b634e487b7160e01b600052604160045260246000fd5b606081019081106001600160401b03821117611b7e57604052565b90601f801991011681019081106001600160401b03821117611b7e57604052565b9291926001600160401b038211611b7e5760405191611bf9601f8201601f191660200184611baf565b829481845281830111611c16578281602093846000960137010152565b600080fd5b9080601f83011215611c1657816020611c3693359101611bd0565b90565b60005b838110611c4c5750506000910152565b8181015183820152602001611c3c565b90602091611c7581518092818552858086019101611c39565b601f01601f1916010190565b9181601f84011215611c16578235916001600160401b038311611c165760208381860195010111611c1657565b60405190611cbd604083611baf565b600c82526b1614941317dd195cdd1b995d60a21b6020830152565b90600182811c92168015611d08575b6020831014611cf257565b634e487b7160e01b600052602260045260246000fd5b91607f1691611ce7565b60009291815491611d2283611cd8565b8083529260018116908115611d785750600114611d3e57505050565b60009081526020812093945091925b838310611d5e575060209250010190565b600181602092949394548385870101520191019190611d4d565b915050602093945060ff929192191683830152151560051b010190565b90816020910312611c1657518015158103611c165790565b908060209392818452848401376000828201840152601f01601f1916010190565b15611dd557565b60405162461bcd60e51b815260206004820152601460248201527324b73b30b634b21039b7bab931b29031b430b4b760611b6044820152606490fd5b9190604083820312611c165782356001600160401b038111611c165781611e39918501611c1b565b926020810135906001600160401b038211611c1657019080601f83011215611c1657816020611c3693359101611bd0565b91908203918211611e7757565b634e487b7160e01b600052601160045260246000fd5b15611e9457565b60405162461bcd60e51b81526020600482015260126024820152712737ba1030b71030b1ba34bb32903637b0b760711b6044820152606490fd5b81810292918115918404141715611e7757565b8115611eeb570490565b634e487b7160e01b600052601260045260246000fd5b60405190611f10604083611baf565b60038252621554d160ea1b6020830152565b15611f2957565b60405162461bcd60e51b8152602060048201526014602482015273125b9d985b1a59081d1bdad95b881cde5b589bdb60621b6044820152606490fd5b95949392606093611f84611f929360409560808b5260808b0191611dad565b9188830360208a0152611dad565b85810382870152600381526205852560ec1b602082015201930152565b91908201809211611e7757565b818110611fc7575050565b60008155600101611fbc565b6005600091611fe28154611cd8565b80612005575b508260018201558260028201558260038201558260048201550155565b601f811160011461201b57508281555b38611fe8565b8184526020842061203691601f01841c810190600101611fbc565b808352826020812081835555612015565b95949392606093611f846120669360409560808b5260808b0191611dad565b8581038287015260038152621554d160ea1b602082015201930152565b949160e096936120c7929a9998959a6101008852600661010089015265626f72726f7760d01b61012089015260208801526101406040880152610140870191611dad565b976060850152608084015260a083015260c08201520152565b60609060208152601a60208201527f4661696c656420746f2073656e642055534420746f207573657200000000000060408201520190565b610e1061212760035442611e6a565b101561212f57565b600054604051638183f10f60e01b815290602090829060049082906001600160a01b03165afa9081156121a05760009161216e575b5060025542600355565b90506020813d602011612198575b8161218960209383611baf565b81010312611c16575138612164565b3d915061217c565b6040513d6000823e3d90fd5b6040516121bd81610f2c8185611d12565b6020815191012060006040516121d4602082611baf565b527fc5d2460186f7233c927e7db2dcc703c0e500b653ca82273b7bfad8045d85a47014612a885760048101906201518061220f835442611e6a565b048015612a83576004549081612244575050670de0b6b3a764000061223c60026000935b01928354612cfe565b049055429055565b61225061225592612b68565b612cfe565b680a688906bd8b000000811015612a6f5761223c6002670de0b6b3a7640000809360401b04600160bf1b6780000000000000008216612a5c575b84906740000000000000008316612a49575b6720000000000000008316612a36575b6710000000000000008316612a23575b6708000000000000008316612a10575b67040000000000000083166129fd575b67020000000000000083166129ea575b67010000000000000083166129d7575b668000000000000083166129c4575b664000000000000083166129b1575b6620000000000000831661299e575b6610000000000000831661298b575b66080000000000008316612978575b66040000000000008316612965575b66020000000000008316612952575b6601000000000000831661293f575b65800000000000831661292c575b654000000000008316612919575b652000000000008316612906575b6510000000000083166128f3575b6508000000000083166128e0575b6504000000000083166128cd575b6502000000000083166128ba575b6501000000000083166128a7575b6480000000008316612894575b6440000000008316612881575b642000000000831661286e575b641000000000831661285b575b6408000000008316612848575b6404000000008316612835575b6402000000008316612822575b640100000000831661280f575b638000000083166127fc575b634000000083166127e9575b632000000083166127d6575b631000000083166127c3575b630800000083166127b0575b6304000000831661279d575b6302000000831661278a575b63010000008316612777575b628000008316612764575b624000008316612751575b62200000831661273e575b62100000831661272b575b620800008316612718575b620400008316612705575b6202000083166126f2575b6201000083166126df575b61800083166126cc575b61400083166126b9575b61200083166126a6575b6110008316612693575b6108008316612680575b610400831661266d575b610200831661265a575b6101008316612647575b60808316612634575b60408316612621575b6020831661260e575b601083166125fb575b600883166125e8575b600483166125d5575b8383166125c2575b600183166125af575b029060401c60bf031c93612233565b680100000000000000010260401c6125a0565b680100000000000000010260401c612597565b680100000000000000030260401c61258f565b680100000000000000060260401c612586565b6801000000000000000b0260401c61257d565b680100000000000000160260401c612574565b6801000000000000002c0260401c61256b565b680100000000000000590260401c612562565b680100000000000000b10260401c612559565b680100000000000001630260401c61254f565b680100000000000002c60260401c612545565b6801000000000000058c0260401c61253b565b68010000000000000b170260401c612531565b6801000000000000162e0260401c612527565b68010000000000002c5d0260401c61251d565b680100000000000058b90260401c612513565b6801000000000000b1720260401c612509565b680100000000000162e40260401c6124fe565b6801000000000002c5c80260401c6124f3565b68010000000000058b910260401c6124e8565b680100000000000b17210260401c6124dd565b68010000000000162e430260401c6124d2565b680100000000002c5c860260401c6124c7565b6801000000000058b90c0260401c6124bc565b68010000000000b172180260401c6124b1565b6801000000000162e4300260401c6124a5565b68010000000002c5c8600260401c612499565b680100000000058b90c00260401c61248d565b6801000000000b17217f0260401c612481565b680100000000162e42ff0260401c612475565b6801000000002c5c85fe0260401c612469565b68010000000058b90bfc0260401c61245d565b680100000000b17217f80260401c612451565b68010000000162e42ff10260401c612444565b680100000002c5c85fe30260401c612437565b6801000000058b90bfce0260401c61242a565b68010000000b17217fbb0260401c61241d565b6801000000162e42fff00260401c612410565b68010000002c5c8601cc0260401c612403565b680100000058b90c0b490260401c6123f6565b6801000000b1721835510260401c6123e9565b680100000162e430e5a20260401c6123db565b6801000002c5c863b73f0260401c6123cd565b68010000058b90cf1e6e0260401c6123bf565b680100000b1721bcfc9a0260401c6123b1565b68010000162e43f4f8310260401c6123a3565b680100002c5c89d5ec6d0260401c612395565b6801000058b91b5bc9ae0260401c612387565b68010000b17255775c040260401c612379565b6801000162e525ee05470260401c61236a565b68010002c5cc37da94920260401c61235b565b680100058ba01fb9f96d0260401c61234c565b6801000b175effdc76ba0260401c61233d565b680100162f3904051fa10260401c61232e565b6801002c605e2e8cec500260401c61231f565b68010058c86da1c09ea20260401c612310565b680100b1afa5abcbed610260401c612301565b68010163da9fb33356d80260401c6122f1565b680102c9a3e778060ee70260401c6122e1565b6801059b0d31585743ae0260401c6122d1565b68010b5586cf9890f62a0260401c6122c1565b6801172b83c7d517adce0260401c6122b1565b6801306fe0a31b7152df0260401c6122a1565b5068016a09e667f3bcc909607f1b61228f565b634a4f26f160e01b60005260045260246000fd5b505050565b50565b612a9a60075460085490611faf565b4210612b29576009548015612a8857670de0b6b3a76400008102818104670de0b6b3a764000003611e77577f3bbf4fd14371c778a1a9fa198c3f541150dca8e41ad40a8abc647f8ded285c0691608091612b02612afa600b548093611ee1565b600a54611faf565b80600a556000600955426007556040519283526020830152604082015260006060820152a1565b565b612b646002670de0b6b3a7640000612b478454600a5490611ece565b04926001810193612b59855482611e6a565b945501918254611faf565b9055565b90670de0b6b3a76400008210612ce957600091670de0b6b3a76400008104600160801b811015612cde575b68010000000000000000811015612cc9575b640100000000811015612cb4575b62010000811015612c9f575b610100811015612c8a575b6010811015612c75575b6004811015612c60575b60021115612c4e575b670de0b6b3a76400008302921c670de0b6b3a76400008114612a88576706f05b59d3b2000090815b612c17575050565b80670de0b6b3a764000091020490671bc16d674ec80000821015612c40575b60011c9081612c0f565b809193019260011c90612c36565b9160018101809111611e775791612be7565b60021c9260028101809111611e775792612bde565b60041c9260048101809111611e775792612bd4565b60081c9260088101809111611e775792612bca565b60101c9260108101809111611e775792612bbf565b60201c9260208101809111611e775792612bb3565b60401c9260408101809111611e775792612ba5565b60809350831c612b93565b50633621413760e21b60005260045260246000fd5b600019828209828202908180821091039381850393670de0b6b3a7640000851015612d875790670de0b6b3a76400009109906706f05b59d3b1ffff82119414612d76577faccb18165bd6fe31ae1cf318dc5b51eee0e1ba569b88cd74c1773b91fac1066992828211900360ee1b910360121c17020190565b50670de0b6b3a76400009150040190565b8463698d9a0160e11b60005260045260246000fdfe048b34d42ef8d61a998046e064ebf9f1236661b212f113ec9d12dc4c502577afa2646970667358221220e79ce4c8c6bc473d510e89cbb41dc71faf387ae2e7a92cb03d6f72c2b7f368b264736f6c634300081c0033",
  "linkReferences": {},
  "deployedLinkReferences": {}
}