{
  "_format": "hh-sol-artifact-1",
  "contractName": "XrpLendingPoolV4",
  "sourceName": "contracts/pledge/XrpLendingPool.sol",
  "abi": [
    {
      "inputs": [
        {
          "internalType": "address",
          "name": "gateway_",
          "type": "address"
        },
        {
          "internalType": "address",
          "name": "priceOracle_",
          "type": "address"
        },
        {
          "internalType": "uint256",
          "name": "dailyInterestFactorE18_",
          "type": "uint256"
        }
      ],
      "stateMutability": "nonpayable",
      "type": "constructor"
    },
    {
      "inputs": [],
      "name": "InvalidAddress",
      "type": "error"
    },
    {
      "inputs": [],
      "name": "NotApprovedByGateway",
      "type": "error"
    },
    {
      "inputs": [
        {
          "internalType": "uint256",
          "name": "x",
          "type": "uint256"
        }
      ],
      "name": "PRBMathUD60x18__Exp2InputTooBig",
      "type": "error"
    },
    {
      "inputs": [
        {
          "internalType": "uint256",
          "name": "x",
          "type": "uint256"
        }
      ],
      "name": "PRBMathUD60x18__LogInputTooSmall",
      "type": "error"
    },
    {
      "inputs": [
        {
          "internalType": "uint256",
          "name": "prod1",
          "type": "uint256"
        }
      ],
      "name": "PRBMath__MulDivFixedPointOverflow",
      "type": "error"
    },
    {
      "anonymous": false,
      "inputs": [
        {
          "indexed": false,
          "internalType": "string",
          "name": "eventName",
          "type": "string"
        },
        {
          "indexed": false,
          "internalType": "uint256",
          "name": "amount1",
          "type": "uint256"
        },
        {
          "indexed": false,
          "internalType": "string",
          "name": "borrower",
          "type": "string"
        },
        {
          "indexed": false,
          "internalType": "uint256",
          "name": "borrowAmountUSD",
          "type": "uint256"
        },
        {
          "indexed": false,
          "internalType": "uint256",
          "name": "amountPayableUSD",
          "type": "uint256"
        },
        {
          "indexed": false,
          "internalType": "uint256",
          "name": "collateralAmountXRP",
          "type": "uint256"
        },
        {
          "indexed": false,
          "internalType": "uint256",
          "name": "lastPayableUpdateTime",
          "type": "uint256"
        },
        {
          "indexed": false,
          "internalType": "uint256",
          "name": "repaidUSD",
          "type": "uint256"
        }
      ],
      "name": "BorrowerEvent",
      "type": "event"
    },
    {
      "anonymous": false,
      "inputs": [
        {
          "indexed": false,
          "internalType": "string",
          "name": "eventName",
          "type": "string"
        },
        {
          "indexed": false,
          "internalType": "uint256",
          "name": "amount1",
          "type": "uint256"
        },
        {
          "indexed": false,
          "internalType": "string",
          "name": "user",
          "type": "string"
        },
        {
          "indexed": false,
          "internalType": "uint256",
          "name": "contributionBalance",
          "type": "uint256"
        },
        {
          "indexed": false,
          "internalType": "uint256",
          "name": "rewardDebt",
          "type": "uint256"
        },
        {
          "indexed": false,
          "internalType": "uint256",
          "name": "confirmedRewards",
          "type": "uint256"
        }
      ],
      "name": "ContributorEvent",
      "type": "event"
    },
    {
      "anonymous": false,
      "inputs": [
        {
          "indexed": false,
          "internalType": "uint256",
          "name": "rewardDistributed",
          "type": "uint256"
        },
        {
          "indexed": false,
          "internalType": "uint256",
          "name": "accRewardPerShareE18",
          "type": "uint256"
        },
        {
          "indexed": false,
          "internalType": "uint256",
          "name": "equity",
          "type": "uint256"
        },
        {
          "indexed": false,
          "internalType": "uint256",
          "name": "retainedEarning",
          "type": "uint256"
        }
      ],
      "name": "PoolRewardEvent",
      "type": "event"
    },
    {
      "inputs": [],
      "name": "SELECTOR_BORROW",
      "outputs": [
        {
          "internalType": "bytes32",
          "name": "",
          "type": "bytes32"
        }
      ],
      "stateMutability": "view",
      "type": "function"
    },
    {
      "inputs": [],
      "name": "SELECTOR_CLAIM_REWARD",
      "outputs": [
        {
          "internalType": "bytes32",
          "name": "",
          "type": "bytes32"
        }
      ],
      "stateMutability": "view",
      "type": "function"
    },
    {
      "inputs": [],
      "name": "SELECTOR_LEND",
      "outputs": [
        {
          "internalType": "bytes32",
          "name": "",
          "type": "bytes32"
        }
      ],
      "stateMutability": "view",
      "type": "function"
    },
    {
      "inputs": [],
      "name": "SELECTOR_LIQUIDATE_LOAN",
      "outputs": [
        {
          "internalType": "bytes32",
          "name": "",
          "type": "bytes32"
        }
      ],
      "stateMutability": "view",
      "type": "function"
    },
    {
      "inputs": [],
      "name": "SELECTOR_REPAY_LOAN",
      "outputs": [
        {
          "internalType": "bytes32",
          "name": "",
          "type": "bytes32"
        }
      ],
      "stateMutability": "view",
      "type": "function"
    },
    {
      "inputs": [],
      "name": "SELECTOR_WITHDRAW",
      "outputs": [
        {
          "internalType": "bytes32",
          "name": "",
          "type": "bytes32"
        }
      ],
      "stateMutability": "view",
      "type": "function"
    },
    {
      "inputs": [],
      "name": "SUPPORTED_SOURCE_CHAIN_HASH",
      "outputs": [
        {
          "internalType": "bytes32",
          "name": "",
          "type": "bytes32"
        }
      ],
      "stateMutability": "view",
      "type": "function"
    },
    {
      "inputs": [],
      "name": "accRewardPerShareE18",
      "outputs": [
        {
          "internalType": "uint256",
          "name": "",
          "type": "uint256"
        }
      ],
      "stateMutability": "view",
      "type": "function"
    },
    {
      "inputs": [
        {
          "internalType": "string",
          "name": "",
          "type": "string"
        }
      ],
      "name": "borrowers",
      "outputs": [
        {
          "internalType": "string",
          "name": "borrower",
          "type": "string"
        },
        {
          "internalType": "uint256",
          "name": "borrowAmountUSD",
          "type": "uint256"
        },
        {
          "internalType": "uint256",
          "name": "amountPayableUSD",
          "type": "uint256"
        },
        {
          "internalType": "uint256",
          "name": "collateralAmountXRP",
          "type": "uint256"
        },
        {
          "internalType": "uint256",
          "name": "lastPayableUpdateTime",
          "type": "uint256"
        },
        {
          "internalType": "uint256",
          "name": "repaidUSD",
          "type": "uint256"
        }
      ],
      "stateMutability": "view",
      "type": "function"
    },
    {
      "inputs": [],
      "name": "collateralRatioPc",
      "outputs": [
        {
          "internalType": "uint256",
          "name": "",
          "type": "uint256"
        }
      ],
      "stateMutability": "view",
      "type": "function"
    },
    {
      "inputs": [
        {
          "internalType": "string",
          "name": "",
          "type": "string"
        }
      ],
      "name": "contributors",
      "outputs": [
        {
          "internalType": "uint256",
          "name": "contributionBalance",
          "type": "uint256"
        },
        {
          "internalType": "uint256",
          "name": "rewardDebt",
          "type": "uint256"
        },
        {
          "internalType": "uint256",
          "name": "confirmedRewards",
          "type": "uint256"
        }
      ],
      "stateMutability": "view",
      "type": "function"
    },
    {
      "inputs": [],
      "name": "currentXRPPriceUSDE4",
      "outputs": [
        {
          "internalType": "uint256",
          "name": "",
          "type": "uint256"
        }
      ],
      "stateMutability": "view",
      "type": "function"
    },
    {
      "inputs": [],
      "name": "dailyInterestFactorE18",
      "outputs": [
        {
          "internalType": "uint256",
          "name": "",
          "type": "uint256"
        }
      ],
      "stateMutability": "view",
      "type": "function"
    },
    {
      "inputs": [],
      "name": "equity",
      "outputs": [
        {
          "internalType": "uint256",
          "name": "",
          "type": "uint256"
        }
      ],
      "stateMutability": "view",
      "type": "function"
    },
    {
      "inputs": [
        {
          "internalType": "bytes32",
          "name": "commandId",
          "type": "bytes32"
        },
        {
          "internalType": "string",
          "name": "sourceChain",
          "type": "string"
        },
        {
          "internalType": "string",
          "name": "sourceAddress",
          "type": "string"
        },
        {
          "internalType": "bytes",
          "name": "payload",
          "type": "bytes"
        }
      ],
      "name": "execute",
      "outputs": [],
      "stateMutability": "nonpayable",
      "type": "function"
    },
    {
      "inputs": [
        {
          "internalType": "bytes32",
          "name": "commandId",
          "type": "bytes32"
        },
        {
          "internalType": "string",
          "name": "sourceChain",
          "type": "string"
        },
        {
          "internalType": "string",
          "name": "sourceAddress",
          "type": "string"
        },
        {
          "internalType": "bytes",
          "name": "payload",
          "type": "bytes"
        },
        {
          "internalType": "string",
          "name": "tokenSymbol",
          "type": "string"
        },
        {
          "internalType": "uint256",
          "name": "amount",
          "type": "uint256"
        }
      ],
      "name": "executeWithToken",
      "outputs": [],
      "stateMutability": "nonpayable",
      "type": "function"
    },
    {
      "inputs": [],
      "name": "gateway",
      "outputs": [
        {
          "internalType": "contract IMyAxelarGateway",
          "name": "",
          "type": "address"
        }
      ],
      "stateMutability": "view",
      "type": "function"
    },
    {
      "inputs": [
        {
          "internalType": "string",
          "name": "_user",
          "type": "string"
        }
      ],
      "name": "getBorrowerInfo",
      "outputs": [
        {
          "components": [
            {
              "internalType": "string",
              "name": "borrower",
              "type": "string"
            },
            {
              "internalType": "uint256",
              "name": "borrowAmountUSD",
              "type": "uint256"
            },
            {
              "internalType": "uint256",
              "name": "amountPayableUSD",
              "type": "uint256"
            },
            {
              "internalType": "uint256",
              "name": "collateralAmountXRP",
              "type": "uint256"
            },
            {
              "internalType": "uint256",
              "name": "lastPayableUpdateTime",
              "type": "uint256"
            },
            {
              "internalType": "uint256",
              "name": "repaidUSD",
              "type": "uint256"
            }
          ],
          "internalType": "struct XrpLendingPoolV4.BorrowerInfo",
          "name": "",
          "type": "tuple"
        }
      ],
      "stateMutability": "view",
      "type": "function"
    },
    {
      "inputs": [
        {
          "internalType": "string",
          "name": "_user",
          "type": "string"
        }
      ],
      "name": "getContributorInfo",
      "outputs": [
        {
          "components": [
            {
              "internalType": "uint256",
              "name": "contributionBalance",
              "type": "uint256"
            },
            {
              "internalType": "uint256",
              "name": "rewardDebt",
              "type": "uint256"
            },
            {
              "internalType": "uint256",
              "name": "confirmedRewards",
              "type": "uint256"
            }
          ],
          "internalType": "struct XrpLendingPoolV4.ContributorInfo",
          "name": "",
          "type": "tuple"
        }
      ],
      "stateMutability": "view",
      "type": "function"
    },
    {
      "inputs": [],
      "name": "lastPriceUpdateTimestamp",
      "outputs": [
        {
          "internalType": "uint256",
          "name": "",
          "type": "uint256"
        }
      ],
      "stateMutability": "view",
      "type": "function"
    },
    {
      "inputs": [],
      "name": "lastRewardTimeStamp",
      "outputs": [
        {
          "internalType": "uint256",
          "name": "",
          "type": "uint256"
        }
      ],
      "stateMutability": "view",
      "type": "function"
    },
    {
      "inputs": [],
      "name": "liquidationThresholdPc",
      "outputs": [
        {
          "internalType": "uint256",
          "name": "",
          "type": "uint256"
        }
      ],
      "stateMutability": "view",
      "type": "function"
    },
    {
      "inputs": [],
      "name": "retainedEarning",
      "outputs": [
        {
          "internalType": "uint256",
          "name": "",
          "type": "uint256"
        }
      ],
      "stateMutability": "view",
      "type": "function"
    },
    {
      "inputs": [],
      "name": "rewardInterval",
      "outputs": [
        {
          "internalType": "uint256",
          "name": "",
          "type": "uint256"
        }
      ],
      "stateMutability": "view",
      "type": "function"
    },
    {
      "inputs": [
        {
          "internalType": "address",
          "name": "_priceOracle",
          "type": "address"
        }
      ],
      "name": "setPriceOracle",
      "outputs": [],
      "stateMutability": "nonpayable",
      "type": "function"
    },
    {
      "inputs": [],
      "name": "supportedSourceChain",
      "outputs": [
        {
          "internalType": "string",
          "name": "",
          "type": "string"
        }
      ],
      "stateMutability": "view",
      "type": "function"
    }
  ],
  "bytecode": "0x60a0346100f857601f612f0338819003918201601f19168301916001600160401b038311848410176100fd578084926060946040528339810103126100f85761004781610113565b90604061005660208301610113565b910151916001600160a01b038116156100e75760805260006003556096600555606e6006556201518060085560006009556000600a556000600b5560018060a01b031660018060a01b03196000541617600055600455426007553360018060a01b03196001541617600155604051612ddb9081610128823960805181818161063b01528181610c580152611a5a0152f35b63e6c4247b60e01b60005260046000fd5b600080fd5b634e487b7160e01b600052604160045260246000fd5b51906001600160a01b03821682036100f85756fe6080604052600436101561001257600080fd5b6000803560e01c806301d1024814611ac45780630bc82cf314611a89578063116191b614611a445780631a98b2e014610b9657806323b1f8e414610b7857806331f59c5514610b3d578063356c728414610b1f578063370477ff14610b0157806349160658146105a3578063530e784f14610527578063550b9997146105095780636277fc0d146104eb578063650a145f146104cd578063752329ec146104af57806378f2c2c31461048657806391a0ac6a146104685780639f6df997146103b8578063a43f2b921461037d578063ab8f93dc146102d3578063b73f3a8e1461025e578063bad271691461022a578063bec4de3f1461020c578063c5fa9552146101ee578063d8988068146101b3578063f1fd4ccb146101785763f64f78571461013b57600080fd5b3461017557806003193601126101755760206040517f2c260ca563e3b0491b45b463c200c724bc55ac058701ee1a0151cdeeb87eaf5a8152f35b80fd5b503461017557806003193601126101755760206040517f855511cc3694f64379908437d6d64458dc76d02482052bfb8a5b33a72c054c778152f35b503461017557806003193601126101755760206040517f4f943907ef0ef6f9d2e2408b05e520a66daaf74293dbf665e5a20b117676170e8152f35b50346101755780600319360112610175576020600254604051908152f35b50346101755780600319360112610175576020600854604051908152f35b503461017557806003193601126101755761025a610246611d2b565b604051918291602083526020830190611cd9565b0390f35b503461017557602036600319011261017557600435906001600160401b0382116101755760606102a960206102963660048701611c98565b8160405193828580945193849201611cb6565b8101600d815203019020805490600260018201549101549060405192835260208301526040820152f35b503461017557602036600319011261017557600435906001600160401b0382116101755761035f61030c60206102963660048701611c98565b8101600c8152030190206040519061032f826103288184611d8f565b0383611c31565b6001810154906002810154906003810154600560048301549201549260405196879660c0885260c0880190611cd9565b94602087015260408601526060850152608084015260a08301520390f35b503461017557806003193601126101755760206040517f9982a092a6e4ed71c78f9619841a31a676df9098c2ec526ad2647af4f8aa674b8152f35b5034610175576020366003190112610175576004356001600160401b0381116104645760206060926103f161041c933690600401611c98565b90604080516103ff81611c16565b828152828582015201528160405193828580945193849201611cb6565b8101600d81520301902060405161043281611c16565b815491828252604060026001830154926020850193845201549201918252604051928352516020830152516040820152f35b5080fd5b50346101755780600319360112610175576020600b54604051908152f35b503461017557806003193601126101755760206104a1611d2b565b818151910120604051908152f35b50346101755780600319360112610175576020600954604051908152f35b50346101755780600319360112610175576020600554604051908152f35b50346101755780600319360112610175576020600a54604051908152f35b50346101755780600319360112610175576020600654604051908152f35b5034610175576020366003190112610175576004356001600160a01b03811690819003610464576001546001600160a01b031633036105725781546001600160a01b03191617815580f35b60405162461bcd60e51b81526020600482015260096024820152682737ba1037bbb732b960b91b6044820152606490fd5b5034610175576080366003190112610175576024356001600160401b038111610464576105d4903690600401611cfe565b906044356001600160401b038111610883576105f4903690600401611cfe565b6064939193356001600160401b03811161087f57610616903690600401611cfe565b9290610623368583611c52565b602081519101209383602061068c8860018060a01b037f0000000000000000000000000000000000000000000000000000000000000000169861069e8c6040519687958695635f6970c360e01b87526004356004880152608060248801528c6084880191611e2a565b85810360031901604487015291611e2a565b90606483015203818c8a5af1908115610af6578991610ac7575b5015610ab857906106f5916106ed6106d136868a611c52565b602081519101206106e0611d2b565b6020815191012014611e4b565b810190611e8e565b90604051610724602082816107138183019687815193849201611cb6565b81010301601f198101835282611c31565b5190207f2c260ca563e3b0491b45b463c200c724bc55ac058701ee1a0151cdeeb87eaf5a81036108c2575050610758612a74565b60405182868237602081848101600d8152030190209261077784612b14565b60028401948554908115610887578289933b15610883578594848a936107b58296604051998a97889687956326ef699d60e01b8752600487016120c4565b03925af1918261086a575b50506107e35760405162461bcd60e51b8152806107df6004820161215d565b0390fd5b84937f13e6f599fa07a181cb76c5f3df1a736a8f64247f22e1f14b99eeaac7fb05499792845491610852600183549301549160405195869560c08752600b60c08801526a18db185a5b54995dd85c9960aa1b60e088015260208701526101006040870152610100860191611e2a565b91606084015260808301528560a08301520390a15580f35b8161087491611c31565b61087f5785386107c0565b8580fd5b8380fd5b60405162461bcd60e51b81526020600482015260136024820152724e6f207265776172647320746f20636c61696d60681b6044820152606490fd5b92949391927f855511cc3694f64379908437d6d64458dc76d02482052bfb8a5b33a72c054c7703610a81578051602080830192600092810103126101755750519261090b612a74565b60405185878237602081878101600d8152030190209261092a84612b14565b84845410610a45578791833b15610a415786938392838a936109638a604051998a97889687956326ef699d60e01b8752600487016120c4565b03925af19182610a2c575b505061098d5760405162461bcd60e51b8152806107df6004820161215d565b7f13e6f599fa07a181cb76c5f3df1a736a8f64247f22e1f14b99eeaac7fb054997936109ba838354611ee7565b82556109c883600b54611ee7565b600b55815491610a16600260018301549201549260405196879660c08852600860c089015267776974686472617760c01b60e089015260208801526101006040880152610100870191611e2a565b926060850152608084015260a08301520390a180f35b81610a3691611c31565b61087f57853861096e565b8280fd5b60405162461bcd60e51b8152602060048201526014602482015273496e73756666696369656e742062616c616e636560601b6044820152606490fd5b60405162461bcd60e51b815260206004820152600f60248201526e125b9d985b1a590818dbdb5b585b99608a1b6044820152606490fd5b631403112d60e21b8852600488fd5b610ae9915060203d602011610aef575b610ae18183611c31565b810190611e12565b386106b8565b503d610ad7565b6040513d8b823e3d90fd5b50346101755780600319360112610175576020600454604051908152f35b50346101755780600319360112610175576020600754604051908152f35b503461017557806003193601126101755760206040517f4a469cefcbed9a88178fc34579047173d00d4643d65873018db1ec410f46e00d8152f35b50346101755780600319360112610175576020600354604051908152f35b50346101755760c0366003190112610175576024356001600160401b03811161046457610bc7903690600401611cfe565b6044929192356001600160401b038111610a4157610be9903690600401611cfe565b91906064356001600160401b038111611a4057610c0a903690600401611cfe565b926084356001600160401b03811161102557610c2a903690600401611cfe565b97909260a4359536610c3d908284611c52565b8051906020012091868b8a8c87898d8c600160a01b600190037f0000000000000000000000000000000000000000000000000000000000000000169a8b97604051998a9889978897631876eed960e01b895260043560048a01526024890160c0905260c4890190610cad92611e2a565b90600319888303016044890152610cc392611e2a565b916064860152600319858303016084860152610cde92611e2a565b9060a483015203915a94602095f1908115611a35578b91611a16575b5015611a075787156119d157610d18916106ed6106d1368888611c52565b90604051610d36602082816107138183019687815193849201611cb6565b5190207f9982a092a6e4ed71c78f9619841a31a676df9098c2ec526ad2647af4f8aa674b8103610e45575050505050610d96610db2917f13e6f599fa07a181cb76c5f3df1a736a8f64247f22e1f14b99eeaac7fb05499796973691611c52565b60208151910120610da5611f7e565b6020815191012014611f9f565b610dba612a74565b60405183828237602081858101600d81520301902090610dd982612b14565b610de483835461202c565b8255610df283600b5461202c565b600b55815491610a16600260018301549201549260405196879660c08852600a60c089015269636f6e7472696275746560b01b60e089015260208801526101006040880152610100870191611e2a565b80f35b7f4f943907ef0ef6f9d2e2408b05e520a66daaf74293dbf665e5a20b117676170e819b989693949799959b146000146112f25750805160208083019260009281010312610175575090610e9b9151963691611c52565b6020815191012097610ece604099600360208c610eba81519182611c31565b828152016205852560ec1b81522014611f9f565b610eda60055487611f4b565b6064810290808204606414901517156112de57600254610ef991611f5e565b841061129a57885183888237602081858101600c815203019020948951610f2b81610f24818a611d8f565b0382611c31565b602081519101206020908a8c51610f428482611c31565b528a80201461102d5750610f5586612195565b823b15611029578784938a93848094610f858f8d9051998a97889687956326ef699d60e01b8752600487016120c4565b03925af19182611010575b5050610fae57865162461bcd60e51b8152806107df6004820161215d565b91600080516020612d868339815191529596916110049360018301610fd487825461202c565b809155610fe66003850193845461202c565b80935560028401549160056004860154950154955198899889612100565b0390a15b610e42612a74565b8161101a91611c31565b611025578638610f90565b8680fd5b8880fd5b929190829594953b15611296578886938b938480948f8d6110639151998a97889687956326ef699d60e01b8752600487016120c4565b03925af1918261127d575b505061108c57875162461bcd60e51b8152806107df6004820161215d565b8794959697519161109c83611be5565b6110a736858a611c52565b83528183019087825286840188815260608501918252608085019242845260a08601948c86528951888d823781818a8101600c8152030190209651908151916001600160401b03831161126957908e916111018a54611d55565b601f8111611230575b5081601f85116001146111ae57509280600080516020612d868339815191529f9e9d9b99969361119b9d9b9996936005999682936111a3575b5050508160011b916000199060031b1c19161787555b51600187015551600286015551600385015551600484015551910155600182015460028301549060038401549260056004860154950154955198899889612100565b0390a1611008565b015191503880611143565b8a845280842093601f198616915b82821061121857505093600080516020612d868339815191529f9e9d9b99969361119b9d9b9996936001938360059b98106111ff575b505050811b018755611159565b015160001960f88460031b161c191690553880806111f2565b806001869782949787015181550196019401906111bc565b611259908b8552838520601f870160051c81019185881061125f575b601f0160051c0190612039565b3861110a565b909150819061124c565b634e487b7160e01b8f52604160045260248ffd5b8161128791611c31565b61129257873861106e565b8780fd5b8980fd5b885162461bcd60e51b815260206004820152601760248201527f496e73756666696369656e7420636f6c6c61746572616c0000000000000000006044820152606490fd5b634e487b7160e01b89526011600452602489fd5b90507f7bd15d6b2d182a804b2a36c079625580f8a960afa839087ccb184e9db92b9a03819a979293949598999a146000146115a4575061133791610d96913691611c52565b60405182878237602081848101600c81520301902060405161135d81610f248185611d8f565b6020815191012061136f36858a611c52565b602081519101200361156a5760405161138c81610f248185611d8f565b60208151910120946113b36020968a6040516113a88a82611c31565b528a80201415611f0a565b8860058301936113c489865461202c565b85556113cf84612195565b600284018054909790808b106115425750600385015491803b15610883578794848d936114148296604051998a97889687956326ef699d60e01b875260048701611fe2565b03925af1918261152d575b505061146a5760405162461bcd60e51b815260206004820152601a60248201527f4661696c656420746f2073656e642058525020746f20757365720000000000006044820152606490fd5b600080516020612d868339815191529661149561148d8454600185015490611ee7565b60095461202c565b6009556114b4604051858382378781878101600c815203019020612050565b611508600183015495549160046003850154940154945495604051998a996101008b5260096101008c0152683932b830bca637b0b760b91b6101208c01528a015261014060408a0152610140890191611e2a565b946060870152608086015260a085015260c084015260e08301520390a1610e42612a74565b8161153791611c31565b61102957883861141f565b9050600080516020612d868339815191529a93506115639250899150611ee7565b85556114b4565b60405162461bcd60e51b81526020600482015260126024820152712737ba103a3432903637b0b71037bbb732b960711b6044820152606490fd5b7f4a469cefcbed9a88178fc34579047173d00d4643d65873018db1ec410f46e00d90989293979896919596146000146118f55760405184838237602081868101600c815203019020926040516115fe81610f248188611d8f565b60208151910120966116256020988c60405161161a8c82611c31565b528c80201415611f0a565b610e1061163460035442611ee7565b1015611879575b61164485612195565b600385019889549261271061165b60025486611f4b565b049060028801998a5492606461167360065486611f4b565b04111561183d576116a391611689913691611c52565b8b8151910120611697611f7e565b8c815191012014611f9f565b8b106117df5790818c93923b156108835787948487936116db8296604051998a97889687956326ef699d60e01b875260048701611fe2565b03925af191826117ca575b50506117315760405162461bcd60e51b815260206004820152601a60248201527f4661696c656420746f2073656e642058525020746f20757365720000000000006044820152606490fd5b61174f61148d600080516020612d8683398151915298865490611ee7565b60095561176e604051848382378681868101600c815203019020612050565b60025495611508600184015495549154926005600486015495015495604051998a996101008b52600d6101008c01526c3634b8bab4b230ba32a637b0b760991b6101208c01528a015261014060408a0152610140890191611e2a565b816117d491611c31565b6110295788386116e6565b60405162461bcd60e51b8152600481018a9052603060248201527f52657061796d656e7420616d6f756e74206d757374206265206772656174657260448201526f081d1a185b881d1bdd185b081bddd95960821b6064820152608490fd5b60405162461bcd60e51b8152600481018d9052601460248201527310d85b9b9bdd081b1a5c5d5a59185d19481e595d60621b6044820152606490fd5b8a54604051638183f10f60e01b8152908990829060049082906001600160a01b03165afa9081156118ea578c916118b8575b506002554260035561163b565b90508881813d83116118e3575b6118cf8183611c31565b810103126118de5751386118ab565b600080fd5b503d6118c5565b6040513d8e823e3d90fd5b9094889487926000198a018a81116119bd578798859897983b156112925761194596889461068c611957936040519c8d9b8c9a8b996326ef699d60e01b8b52608060048c015260848b0191611e2a565b8881036003190160248a015291611e2a565b90606483015203925af180156119b2576119a25760405162461bcd60e51b815260206004820152600f60248201526e125b9d985b1a590818dbdb5b585b99608a1b6044820152606490fd5b816119ac91611c31565b81610a81565b6040513d84823e3d90fd5b634e487b7160e01b88526011600452602488fd5b60405162461bcd60e51b815260206004820152600e60248201526d125b9d985b1a5908185b5bdd5b9d60921b6044820152606490fd5b631403112d60e21b8a5260048afd5b611a2f915060203d602011610aef57610ae18183611c31565b38610cfa565b6040513d8d823e3d90fd5b8480fd5b50346101755780600319360112610175576040517f00000000000000000000000000000000000000000000000000000000000000006001600160a01b03168152602090f35b503461017557806003193601126101755760206040517f7bd15d6b2d182a804b2a36c079625580f8a960afa839087ccb184e9db92b9a038152f35b5034610175576020366003190112610175576004356001600160401b038111610464576020611bc292611afe611b3d933690600401611c98565b9060a0604051611b0d81611be5565b60608152828582015282604082015282606082015282608082015201528160405193828580945193849201611cb6565b8101600c81520301902060405190611b5482611be5565b604051611b6581610f248185611d8f565b8252600181015490602083019182526002810154906040840191825260038101546060850190815260056004830154926080870193845201549260a08601938452604051968796602088525160c0602089015260e0880190611cd9565b945160408701525160608601525160808501525160a08401525160c08301520390f35b60c081019081106001600160401b03821117611c0057604052565b634e487b7160e01b600052604160045260246000fd5b606081019081106001600160401b03821117611c0057604052565b90601f801991011681019081106001600160401b03821117611c0057604052565b9291926001600160401b038211611c005760405191611c7b601f8201601f191660200184611c31565b8294818452818301116118de578281602093846000960137010152565b9080601f830112156118de57816020611cb393359101611c52565b90565b60005b838110611cc95750506000910152565b8181015183820152602001611cb9565b90602091611cf281518092818552858086019101611cb6565b601f01601f1916010190565b9181601f840112156118de578235916001600160401b0383116118de57602083818601950101116118de57565b60405190611d3a604083611c31565b600c82526b1614941317dd195cdd1b995d60a21b6020830152565b90600182811c92168015611d85575b6020831014611d6f57565b634e487b7160e01b600052602260045260246000fd5b91607f1691611d64565b60009291815491611d9f83611d55565b8083529260018116908115611df55750600114611dbb57505050565b60009081526020812093945091925b838310611ddb575060209250010190565b600181602092949394548385870101520191019190611dca565b915050602093945060ff929192191683830152151560051b010190565b908160209103126118de575180151581036118de5790565b908060209392818452848401376000828201840152601f01601f1916010190565b15611e5257565b60405162461bcd60e51b815260206004820152601460248201527324b73b30b634b21039b7bab931b29031b430b4b760611b6044820152606490fd5b91906040838203126118de5782356001600160401b0381116118de5781611eb6918501611c98565b926020810135906001600160401b0382116118de57019080601f830112156118de57816020611cb393359101611c52565b91908203918211611ef457565b634e487b7160e01b600052601160045260246000fd5b15611f1157565b60405162461bcd60e51b81526020600482015260126024820152712737ba1030b71030b1ba34bb32903637b0b760711b6044820152606490fd5b81810292918115918404141715611ef457565b8115611f68570490565b634e487b7160e01b600052601260045260246000fd5b60405190611f8d604083611c31565b60038252621554d160ea1b6020830152565b15611fa657565b60405162461bcd60e51b8152602060048201526014602482015273125b9d985b1a59081d1bdad95b881cde5b589bdb60621b6044820152606490fd5b9594939260609361200161200f9360409560808b5260808b0191611e2a565b9188830360208a0152611e2a565b85810382870152600381526205852560ec1b602082015201930152565b91908201809211611ef457565b818110612044575050565b60008155600101612039565b600560009161205f8154611d55565b80612082575b508260018201558260028201558260038201558260048201550155565b601f811160011461209857508281555b38612065565b818452602084206120b391601f01841c810190600101612039565b808352826020812081835555612092565b959493926060936120016120e39360409560808b5260808b0191611e2a565b8581038287015260038152621554d160ea1b602082015201930152565b949160e09693612144929a9998959a6101008852600661010089015265626f72726f7760d01b61012089015260208801526101406040880152610140870191611e2a565b976060850152608084015260a083015260c08201520152565b60609060208152601a60208201527f4661696c656420746f2073656e642055534420746f207573657200000000000060408201520190565b6040516121a681610f248185611d8f565b6020815191012060006040516121bd602082611c31565b527fc5d2460186f7233c927e7db2dcc703c0e500b653ca82273b7bfad8045d85a47014612a71576004810190620151806121f8835442611ee7565b048015612a6c57600454908161222d575050670de0b6b3a764000061222560026000935b01928354612ce7565b049055429055565b61223961223e92612b51565b612ce7565b680a688906bd8b000000811015612a58576122256002670de0b6b3a7640000809360401b04600160bf1b6780000000000000008216612a45575b84906740000000000000008316612a32575b6720000000000000008316612a1f575b6710000000000000008316612a0c575b67080000000000000083166129f9575b67040000000000000083166129e6575b67020000000000000083166129d3575b67010000000000000083166129c0575b668000000000000083166129ad575b6640000000000000831661299a575b66200000000000008316612987575b66100000000000008316612974575b66080000000000008316612961575b6604000000000000831661294e575b6602000000000000831661293b575b66010000000000008316612928575b658000000000008316612915575b654000000000008316612902575b6520000000000083166128ef575b6510000000000083166128dc575b6508000000000083166128c9575b6504000000000083166128b6575b6502000000000083166128a3575b650100000000008316612890575b648000000000831661287d575b644000000000831661286a575b6420000000008316612857575b6410000000008316612844575b6408000000008316612831575b640400000000831661281e575b640200000000831661280b575b64010000000083166127f8575b638000000083166127e5575b634000000083166127d2575b632000000083166127bf575b631000000083166127ac575b63080000008316612799575b63040000008316612786575b63020000008316612773575b63010000008316612760575b62800000831661274d575b62400000831661273a575b622000008316612727575b621000008316612714575b620800008316612701575b6204000083166126ee575b6202000083166126db575b6201000083166126c8575b61800083166126b5575b61400083166126a2575b612000831661268f575b611000831661267c575b6108008316612669575b6104008316612656575b6102008316612643575b6101008316612630575b6080831661261d575b6040831661260a575b602083166125f7575b601083166125e4575b600883166125d1575b600483166125be575b8383166125ab575b60018316612598575b029060401c60bf031c9361221c565b680100000000000000010260401c612589565b680100000000000000010260401c612580565b680100000000000000030260401c612578565b680100000000000000060260401c61256f565b6801000000000000000b0260401c612566565b680100000000000000160260401c61255d565b6801000000000000002c0260401c612554565b680100000000000000590260401c61254b565b680100000000000000b10260401c612542565b680100000000000001630260401c612538565b680100000000000002c60260401c61252e565b6801000000000000058c0260401c612524565b68010000000000000b170260401c61251a565b6801000000000000162e0260401c612510565b68010000000000002c5d0260401c612506565b680100000000000058b90260401c6124fc565b6801000000000000b1720260401c6124f2565b680100000000000162e40260401c6124e7565b6801000000000002c5c80260401c6124dc565b68010000000000058b910260401c6124d1565b680100000000000b17210260401c6124c6565b68010000000000162e430260401c6124bb565b680100000000002c5c860260401c6124b0565b6801000000000058b90c0260401c6124a5565b68010000000000b172180260401c61249a565b6801000000000162e4300260401c61248e565b68010000000002c5c8600260401c612482565b680100000000058b90c00260401c612476565b6801000000000b17217f0260401c61246a565b680100000000162e42ff0260401c61245e565b6801000000002c5c85fe0260401c612452565b68010000000058b90bfc0260401c612446565b680100000000b17217f80260401c61243a565b68010000000162e42ff10260401c61242d565b680100000002c5c85fe30260401c612420565b6801000000058b90bfce0260401c612413565b68010000000b17217fbb0260401c612406565b6801000000162e42fff00260401c6123f9565b68010000002c5c8601cc0260401c6123ec565b680100000058b90c0b490260401c6123df565b6801000000b1721835510260401c6123d2565b680100000162e430e5a20260401c6123c4565b6801000002c5c863b73f0260401c6123b6565b68010000058b90cf1e6e0260401c6123a8565b680100000b1721bcfc9a0260401c61239a565b68010000162e43f4f8310260401c61238c565b680100002c5c89d5ec6d0260401c61237e565b6801000058b91b5bc9ae0260401c612370565b68010000b17255775c040260401c612362565b6801000162e525ee05470260401c612353565b68010002c5cc37da94920260401c612344565b680100058ba01fb9f96d0260401c612335565b6801000b175effdc76ba0260401c612326565b680100162f3904051fa10260401c612317565b6801002c605e2e8cec500260401c612308565b68010058c86da1c09ea20260401c6122f9565b680100b1afa5abcbed610260401c6122ea565b68010163da9fb33356d80260401c6122da565b680102c9a3e778060ee70260401c6122ca565b6801059b0d31585743ae0260401c6122ba565b68010b5586cf9890f62a0260401c6122aa565b6801172b83c7d517adce0260401c61229a565b6801306fe0a31b7152df0260401c61228a565b5068016a09e667f3bcc909607f1b612278565b634a4f26f160e01b60005260045260246000fd5b505050565b50565b612a836007546008549061202c565b4210612b12576009548015612a7157670de0b6b3a76400008102818104670de0b6b3a764000003611ef4577f3bbf4fd14371c778a1a9fa198c3f541150dca8e41ad40a8abc647f8ded285c0691608091612aeb612ae3600b548093611f5e565b600a5461202c565b80600a556000600955426007556040519283526020830152604082015260006060820152a1565b565b612b4d6002670de0b6b3a7640000612b308454600a5490611f4b565b04926001810193612b42855482611ee7565b94550191825461202c565b9055565b90670de0b6b3a76400008210612cd257600091670de0b6b3a76400008104600160801b811015612cc7575b68010000000000000000811015612cb2575b640100000000811015612c9d575b62010000811015612c88575b610100811015612c73575b6010811015612c5e575b6004811015612c49575b60021115612c37575b670de0b6b3a76400008302921c670de0b6b3a76400008114612a71576706f05b59d3b2000090815b612c00575050565b80670de0b6b3a764000091020490671bc16d674ec80000821015612c29575b60011c9081612bf8565b809193019260011c90612c1f565b9160018101809111611ef45791612bd0565b60021c9260028101809111611ef45792612bc7565b60041c9260048101809111611ef45792612bbd565b60081c9260088101809111611ef45792612bb3565b60101c9260108101809111611ef45792612ba8565b60201c9260208101809111611ef45792612b9c565b60401c9260408101809111611ef45792612b8e565b60809350831c612b7c565b50633621413760e21b60005260045260246000fd5b600019828209828202908180821091039381850393670de0b6b3a7640000851015612d705790670de0b6b3a76400009109906706f05b59d3b1ffff82119414612d5f577faccb18165bd6fe31ae1cf318dc5b51eee0e1ba569b88cd74c1773b91fac1066992828211900360ee1b910360121c17020190565b50670de0b6b3a76400009150040190565b8463698d9a0160e11b60005260045260246000fdfe048b34d42ef8d61a998046e064ebf9f1236661b212f113ec9d12dc4c502577afa2646970667358221220262cd4cc2ec7aaf9f16b9bd58da98ddc0873bfeca76c2eefe1c5d2af887c461f64736f6c634300081c0033",
  "linkReferences": {},
  "deployedLinkReferences": {}
}