{
  "_format": "hh-sol-artifact-1",
  "contractName": "XrpLendingP2P",
  "sourceName": "contracts/p2p/XrpLendingP2P.sol",
  "abi": [
    {
      "inputs": [
        {
          "internalType": "address",
          "name": "gateway_",
          "type": "address"
        },
        {
          "internalType": "address",
          "name": "priceOracle_",
          "type": "address"
        }
      ],
      "stateMutability": "nonpayable",
      "type": "constructor"
    },
    {
      "inputs": [],
      "name": "InvalidAddress",
      "type": "error"
    },
    {
      "inputs": [],
      "name": "NotApprovedByGateway",
      "type": "error"
    },
    {
      "anonymous": false,
      "inputs": [
        {
          "indexed": false,
          "internalType": "uint256",
          "name": "requestId",
          "type": "uint256"
        }
      ],
      "name": "BorrowingRequestAutoCanceled",
      "type": "event"
    },
    {
      "anonymous": false,
      "inputs": [
        {
          "indexed": false,
          "internalType": "uint256",
          "name": "requestId",
          "type": "uint256"
        },
        {
          "indexed": false,
          "internalType": "string",
          "name": "canceller",
          "type": "string"
        }
      ],
      "name": "BorrowingRequestCanceled",
      "type": "event"
    },
    {
      "anonymous": false,
      "inputs": [
        {
          "indexed": false,
          "internalType": "uint256",
          "name": "requestId",
          "type": "uint256"
        },
        {
          "indexed": false,
          "internalType": "string",
          "name": "borrower",
          "type": "string"
        },
        {
          "indexed": false,
          "internalType": "uint256",
          "name": "amountToBorrowUSD",
          "type": "uint256"
        },
        {
          "indexed": false,
          "internalType": "uint256",
          "name": "collateralAmountXRP",
          "type": "uint256"
        },
        {
          "indexed": false,
          "internalType": "uint256",
          "name": "maxCollateralRatio",
          "type": "uint256"
        },
        {
          "indexed": false,
          "internalType": "uint256",
          "name": "liquidationThreshold",
          "type": "uint256"
        },
        {
          "indexed": false,
          "internalType": "uint256",
          "name": "desiredInterestRate",
          "type": "uint256"
        },
        {
          "indexed": false,
          "internalType": "uint256",
          "name": "paymentDuration",
          "type": "uint256"
        },
        {
          "indexed": false,
          "internalType": "uint256",
          "name": "minimalPartialFill",
          "type": "uint256"
        }
      ],
      "name": "BorrowingRequestCreated",
      "type": "event"
    },
    {
      "anonymous": false,
      "inputs": [
        {
          "indexed": false,
          "internalType": "uint256",
          "name": "requestId",
          "type": "uint256"
        }
      ],
      "name": "LendingRequestAutoCanceled",
      "type": "event"
    },
    {
      "anonymous": false,
      "inputs": [
        {
          "indexed": false,
          "internalType": "uint256",
          "name": "requestId",
          "type": "uint256"
        },
        {
          "indexed": false,
          "internalType": "string",
          "name": "canceller",
          "type": "string"
        }
      ],
      "name": "LendingRequestCanceled",
      "type": "event"
    },
    {
      "anonymous": false,
      "inputs": [
        {
          "indexed": false,
          "internalType": "uint256",
          "name": "requestId",
          "type": "uint256"
        },
        {
          "indexed": false,
          "internalType": "string",
          "name": "lender",
          "type": "string"
        },
        {
          "indexed": false,
          "internalType": "uint256",
          "name": "amountToLendUSD",
          "type": "uint256"
        },
        {
          "indexed": false,
          "internalType": "uint256",
          "name": "minCollateralRatio",
          "type": "uint256"
        },
        {
          "indexed": false,
          "internalType": "uint256",
          "name": "liquidationThreshold",
          "type": "uint256"
        },
        {
          "indexed": false,
          "internalType": "uint256",
          "name": "desiredInterestRate",
          "type": "uint256"
        },
        {
          "indexed": false,
          "internalType": "uint256",
          "name": "paymentDuration",
          "type": "uint256"
        },
        {
          "indexed": false,
          "internalType": "uint256",
          "name": "minimalPartialFill",
          "type": "uint256"
        }
      ],
      "name": "LendingRequestCreated",
      "type": "event"
    },
    {
      "anonymous": false,
      "inputs": [
        {
          "indexed": false,
          "internalType": "uint256",
          "name": "loanId",
          "type": "uint256"
        },
        {
          "indexed": true,
          "internalType": "string",
          "name": "lender",
          "type": "string"
        },
        {
          "indexed": true,
          "internalType": "string",
          "name": "borrower",
          "type": "string"
        },
        {
          "indexed": false,
          "internalType": "uint256",
          "name": "amountBorrowedUSD",
          "type": "uint256"
        },
        {
          "indexed": false,
          "internalType": "uint256",
          "name": "collateralAmountXRP",
          "type": "uint256"
        },
        {
          "indexed": false,
          "internalType": "uint256",
          "name": "amountPayableToLender",
          "type": "uint256"
        },
        {
          "indexed": false,
          "internalType": "uint256",
          "name": "amountPayableToPlatform",
          "type": "uint256"
        },
        {
          "indexed": false,
          "internalType": "uint256",
          "name": "repayBy",
          "type": "uint256"
        },
        {
          "indexed": false,
          "internalType": "uint256",
          "name": "liquidationThreshold",
          "type": "uint256"
        }
      ],
      "name": "LoanCreated",
      "type": "event"
    },
    {
      "anonymous": false,
      "inputs": [
        {
          "indexed": false,
          "internalType": "uint256",
          "name": "loanId",
          "type": "uint256"
        },
        {
          "indexed": true,
          "internalType": "string",
          "name": "liquidator",
          "type": "string"
        },
        {
          "indexed": false,
          "internalType": "uint256",
          "name": "collateralLiquidated",
          "type": "uint256"
        }
      ],
      "name": "LoanLiquidated",
      "type": "event"
    },
    {
      "anonymous": false,
      "inputs": [
        {
          "indexed": false,
          "internalType": "uint256",
          "name": "loanId",
          "type": "uint256"
        },
        {
          "indexed": false,
          "internalType": "uint256",
          "name": "amountRepaid",
          "type": "uint256"
        },
        {
          "indexed": false,
          "internalType": "uint256",
          "name": "totalPaid",
          "type": "uint256"
        }
      ],
      "name": "LoanRepaid",
      "type": "event"
    },
    {
      "anonymous": false,
      "inputs": [
        {
          "indexed": false,
          "internalType": "uint256",
          "name": "loanId",
          "type": "uint256"
        },
        {
          "indexed": true,
          "internalType": "string",
          "name": "borrower",
          "type": "string"
        },
        {
          "indexed": false,
          "internalType": "uint256",
          "name": "newAmountBorrowedUSD",
          "type": "uint256"
        },
        {
          "indexed": false,
          "internalType": "uint256",
          "name": "newCollateralAmountXRP",
          "type": "uint256"
        },
        {
          "indexed": false,
          "internalType": "uint256",
          "name": "newAmountPayableToLender",
          "type": "uint256"
        }
      ],
      "name": "LoanUpdated",
      "type": "event"
    },
    {
      "anonymous": false,
      "inputs": [
        {
          "indexed": false,
          "internalType": "uint256",
          "name": "newPrice",
          "type": "uint256"
        }
      ],
      "name": "PriceUpdated",
      "type": "event"
    },
    {
      "anonymous": false,
      "inputs": [
        {
          "indexed": false,
          "internalType": "uint256",
          "name": "requestId",
          "type": "uint256"
        },
        {
          "indexed": false,
          "internalType": "uint256",
          "name": "amountFilled",
          "type": "uint256"
        }
      ],
      "name": "RequestFilled",
      "type": "event"
    },
    {
      "inputs": [],
      "name": "PLATFORM_FEE_PERCENT",
      "outputs": [
        {
          "internalType": "uint256",
          "name": "",
          "type": "uint256"
        }
      ],
      "stateMutability": "view",
      "type": "function"
    },
    {
      "inputs": [],
      "name": "SELECTOR_ACCEPT_BORROWING_REQUEST",
      "outputs": [
        {
          "internalType": "bytes32",
          "name": "",
          "type": "bytes32"
        }
      ],
      "stateMutability": "view",
      "type": "function"
    },
    {
      "inputs": [],
      "name": "SELECTOR_ACCEPT_LENDING_REQUEST",
      "outputs": [
        {
          "internalType": "bytes32",
          "name": "",
          "type": "bytes32"
        }
      ],
      "stateMutability": "view",
      "type": "function"
    },
    {
      "inputs": [],
      "name": "SELECTOR_BORROWING_REQUEST",
      "outputs": [
        {
          "internalType": "bytes32",
          "name": "",
          "type": "bytes32"
        }
      ],
      "stateMutability": "view",
      "type": "function"
    },
    {
      "inputs": [],
      "name": "SELECTOR_CANCEL_BORROWING_REQUEST",
      "outputs": [
        {
          "internalType": "bytes32",
          "name": "",
          "type": "bytes32"
        }
      ],
      "stateMutability": "view",
      "type": "function"
    },
    {
      "inputs": [],
      "name": "SELECTOR_CANCEL_LENDING_REQUEST",
      "outputs": [
        {
          "internalType": "bytes32",
          "name": "",
          "type": "bytes32"
        }
      ],
      "stateMutability": "view",
      "type": "function"
    },
    {
      "inputs": [],
      "name": "SELECTOR_LENDING_REQUEST",
      "outputs": [
        {
          "internalType": "bytes32",
          "name": "",
          "type": "bytes32"
        }
      ],
      "stateMutability": "view",
      "type": "function"
    },
    {
      "inputs": [],
      "name": "SELECTOR_LIQUIDATE_LOAN",
      "outputs": [
        {
          "internalType": "bytes32",
          "name": "",
          "type": "bytes32"
        }
      ],
      "stateMutability": "view",
      "type": "function"
    },
    {
      "inputs": [],
      "name": "SELECTOR_REPAY_LOAN",
      "outputs": [
        {
          "internalType": "bytes32",
          "name": "",
          "type": "bytes32"
        }
      ],
      "stateMutability": "view",
      "type": "function"
    },
    {
      "inputs": [],
      "name": "SUPPORTED_SOURCE_CHAIN_HASH",
      "outputs": [
        {
          "internalType": "bytes32",
          "name": "",
          "type": "bytes32"
        }
      ],
      "stateMutability": "view",
      "type": "function"
    },
    {
      "inputs": [
        {
          "internalType": "uint256",
          "name": "",
          "type": "uint256"
        }
      ],
      "name": "borrowingRequests",
      "outputs": [
        {
          "internalType": "string",
          "name": "borrower",
          "type": "string"
        },
        {
          "internalType": "uint256",
          "name": "amountToBorrowUSD",
          "type": "uint256"
        },
        {
          "internalType": "uint256",
          "name": "amountBorrowedUSD",
          "type": "uint256"
        },
        {
          "internalType": "uint256",
          "name": "initialCollateralAmountXRP",
          "type": "uint256"
        },
        {
          "internalType": "uint256",
          "name": "existingCollateralAmountXRP",
          "type": "uint256"
        },
        {
          "internalType": "uint256",
          "name": "maxCollateralRatio",
          "type": "uint256"
        },
        {
          "internalType": "uint256",
          "name": "liquidationThreshold",
          "type": "uint256"
        },
        {
          "internalType": "uint256",
          "name": "desiredInterestRate",
          "type": "uint256"
        },
        {
          "internalType": "uint256",
          "name": "paymentDuration",
          "type": "uint256"
        },
        {
          "internalType": "uint256",
          "name": "minimalPartialFill",
          "type": "uint256"
        },
        {
          "internalType": "bool",
          "name": "canceled",
          "type": "bool"
        }
      ],
      "stateMutability": "view",
      "type": "function"
    },
    {
      "inputs": [],
      "name": "currentXRPPriceUSD",
      "outputs": [
        {
          "internalType": "uint256",
          "name": "",
          "type": "uint256"
        }
      ],
      "stateMutability": "view",
      "type": "function"
    },
    {
      "inputs": [
        {
          "internalType": "bytes32",
          "name": "commandId",
          "type": "bytes32"
        },
        {
          "internalType": "string",
          "name": "sourceChain",
          "type": "string"
        },
        {
          "internalType": "string",
          "name": "sourceAddress",
          "type": "string"
        },
        {
          "internalType": "bytes",
          "name": "payload",
          "type": "bytes"
        }
      ],
      "name": "execute",
      "outputs": [],
      "stateMutability": "nonpayable",
      "type": "function"
    },
    {
      "inputs": [
        {
          "internalType": "bytes32",
          "name": "commandId",
          "type": "bytes32"
        },
        {
          "internalType": "string",
          "name": "sourceChain",
          "type": "string"
        },
        {
          "internalType": "string",
          "name": "sourceAddress",
          "type": "string"
        },
        {
          "internalType": "bytes",
          "name": "payload",
          "type": "bytes"
        },
        {
          "internalType": "string",
          "name": "tokenSymbol",
          "type": "string"
        },
        {
          "internalType": "uint256",
          "name": "amount",
          "type": "uint256"
        }
      ],
      "name": "executeWithToken",
      "outputs": [],
      "stateMutability": "nonpayable",
      "type": "function"
    },
    {
      "inputs": [],
      "name": "gateway",
      "outputs": [
        {
          "internalType": "contract IMyAxelarGateway",
          "name": "",
          "type": "address"
        }
      ],
      "stateMutability": "view",
      "type": "function"
    },
    {
      "inputs": [
        {
          "internalType": "uint256",
          "name": "_requestId",
          "type": "uint256"
        }
      ],
      "name": "getBorrowingRequest",
      "outputs": [
        {
          "components": [
            {
              "internalType": "string",
              "name": "borrower",
              "type": "string"
            },
            {
              "internalType": "uint256",
              "name": "amountToBorrowUSD",
              "type": "uint256"
            },
            {
              "internalType": "uint256",
              "name": "amountBorrowedUSD",
              "type": "uint256"
            },
            {
              "internalType": "uint256",
              "name": "initialCollateralAmountXRP",
              "type": "uint256"
            },
            {
              "internalType": "uint256",
              "name": "existingCollateralAmountXRP",
              "type": "uint256"
            },
            {
              "internalType": "uint256",
              "name": "maxCollateralRatio",
              "type": "uint256"
            },
            {
              "internalType": "uint256",
              "name": "liquidationThreshold",
              "type": "uint256"
            },
            {
              "internalType": "uint256",
              "name": "desiredInterestRate",
              "type": "uint256"
            },
            {
              "internalType": "uint256",
              "name": "paymentDuration",
              "type": "uint256"
            },
            {
              "internalType": "uint256",
              "name": "minimalPartialFill",
              "type": "uint256"
            },
            {
              "internalType": "bool",
              "name": "canceled",
              "type": "bool"
            }
          ],
          "internalType": "struct XrpLendingP2P.BorrowingRequest",
          "name": "",
          "type": "tuple"
        }
      ],
      "stateMutability": "view",
      "type": "function"
    },
    {
      "inputs": [],
      "name": "getCurrentPrice",
      "outputs": [
        {
          "internalType": "uint256",
          "name": "",
          "type": "uint256"
        }
      ],
      "stateMutability": "view",
      "type": "function"
    },
    {
      "inputs": [
        {
          "internalType": "uint256",
          "name": "_requestId",
          "type": "uint256"
        }
      ],
      "name": "getLendingRequest",
      "outputs": [
        {
          "components": [
            {
              "internalType": "string",
              "name": "lender",
              "type": "string"
            },
            {
              "internalType": "uint256",
              "name": "amountToLendUSD",
              "type": "uint256"
            },
            {
              "internalType": "uint256",
              "name": "amountLendedUSD",
              "type": "uint256"
            },
            {
              "internalType": "uint256",
              "name": "minCollateralRatio",
              "type": "uint256"
            },
            {
              "internalType": "uint256",
              "name": "liquidationThreshold",
              "type": "uint256"
            },
            {
              "internalType": "uint256",
              "name": "desiredInterestRate",
              "type": "uint256"
            },
            {
              "internalType": "uint256",
              "name": "paymentDuration",
              "type": "uint256"
            },
            {
              "internalType": "uint256",
              "name": "minimalPartialFill",
              "type": "uint256"
            },
            {
              "internalType": "bool",
              "name": "canceled",
              "type": "bool"
            }
          ],
          "internalType": "struct XrpLendingP2P.LendingRequest",
          "name": "",
          "type": "tuple"
        }
      ],
      "stateMutability": "view",
      "type": "function"
    },
    {
      "inputs": [
        {
          "internalType": "uint256",
          "name": "_loanId",
          "type": "uint256"
        }
      ],
      "name": "getLoanDetails",
      "outputs": [
        {
          "components": [
            {
              "internalType": "string",
              "name": "lender",
              "type": "string"
            },
            {
              "internalType": "string",
              "name": "borrower",
              "type": "string"
            },
            {
              "internalType": "uint256",
              "name": "amountBorrowedUSD",
              "type": "uint256"
            },
            {
              "internalType": "uint256",
              "name": "amountPayableToLender",
              "type": "uint256"
            },
            {
              "internalType": "uint256",
              "name": "amountPayableToPlatform",
              "type": "uint256"
            },
            {
              "internalType": "uint256",
              "name": "amountPaidUSD",
              "type": "uint256"
            },
            {
              "internalType": "uint256",
              "name": "collateralAmountXRP",
              "type": "uint256"
            },
            {
              "internalType": "uint256",
              "name": "repayBy",
              "type": "uint256"
            },
            {
              "internalType": "uint256",
              "name": "liquidationThreshold",
              "type": "uint256"
            },
            {
              "internalType": "bool",
              "name": "isLiquidated",
              "type": "bool"
            }
          ],
          "internalType": "struct XrpLendingP2P.Loan",
          "name": "",
          "type": "tuple"
        }
      ],
      "stateMutability": "view",
      "type": "function"
    },
    {
      "inputs": [
        {
          "internalType": "string",
          "name": "_user",
          "type": "string"
        }
      ],
      "name": "getUserBorrowingRequests",
      "outputs": [
        {
          "internalType": "uint256[]",
          "name": "",
          "type": "uint256[]"
        }
      ],
      "stateMutability": "view",
      "type": "function"
    },
    {
      "inputs": [
        {
          "internalType": "string",
          "name": "_user",
          "type": "string"
        }
      ],
      "name": "getUserLendingRequests",
      "outputs": [
        {
          "internalType": "uint256[]",
          "name": "",
          "type": "uint256[]"
        }
      ],
      "stateMutability": "view",
      "type": "function"
    },
    {
      "inputs": [
        {
          "internalType": "string",
          "name": "_user",
          "type": "string"
        }
      ],
      "name": "getUserLoans",
      "outputs": [
        {
          "internalType": "uint256[]",
          "name": "",
          "type": "uint256[]"
        }
      ],
      "stateMutability": "view",
      "type": "function"
    },
    {
      "inputs": [],
      "name": "lastPriceUpdateTimestamp",
      "outputs": [
        {
          "internalType": "uint256",
          "name": "",
          "type": "uint256"
        }
      ],
      "stateMutability": "view",
      "type": "function"
    },
    {
      "inputs": [
        {
          "internalType": "uint256",
          "name": "",
          "type": "uint256"
        }
      ],
      "name": "lendingRequests",
      "outputs": [
        {
          "internalType": "string",
          "name": "lender",
          "type": "string"
        },
        {
          "internalType": "uint256",
          "name": "amountToLendUSD",
          "type": "uint256"
        },
        {
          "internalType": "uint256",
          "name": "amountLendedUSD",
          "type": "uint256"
        },
        {
          "internalType": "uint256",
          "name": "minCollateralRatio",
          "type": "uint256"
        },
        {
          "internalType": "uint256",
          "name": "liquidationThreshold",
          "type": "uint256"
        },
        {
          "internalType": "uint256",
          "name": "desiredInterestRate",
          "type": "uint256"
        },
        {
          "internalType": "uint256",
          "name": "paymentDuration",
          "type": "uint256"
        },
        {
          "internalType": "uint256",
          "name": "minimalPartialFill",
          "type": "uint256"
        },
        {
          "internalType": "bool",
          "name": "canceled",
          "type": "bool"
        }
      ],
      "stateMutability": "view",
      "type": "function"
    },
    {
      "inputs": [],
      "name": "loanCounter",
      "outputs": [
        {
          "internalType": "uint256",
          "name": "",
          "type": "uint256"
        }
      ],
      "stateMutability": "view",
      "type": "function"
    },
    {
      "inputs": [
        {
          "internalType": "uint256",
          "name": "",
          "type": "uint256"
        }
      ],
      "name": "loans",
      "outputs": [
        {
          "internalType": "string",
          "name": "lender",
          "type": "string"
        },
        {
          "internalType": "string",
          "name": "borrower",
          "type": "string"
        },
        {
          "internalType": "uint256",
          "name": "amountBorrowedUSD",
          "type": "uint256"
        },
        {
          "internalType": "uint256",
          "name": "amountPayableToLender",
          "type": "uint256"
        },
        {
          "internalType": "uint256",
          "name": "amountPayableToPlatform",
          "type": "uint256"
        },
        {
          "internalType": "uint256",
          "name": "amountPaidUSD",
          "type": "uint256"
        },
        {
          "internalType": "uint256",
          "name": "collateralAmountXRP",
          "type": "uint256"
        },
        {
          "internalType": "uint256",
          "name": "repayBy",
          "type": "uint256"
        },
        {
          "internalType": "uint256",
          "name": "liquidationThreshold",
          "type": "uint256"
        },
        {
          "internalType": "bool",
          "name": "isLiquidated",
          "type": "bool"
        }
      ],
      "stateMutability": "view",
      "type": "function"
    },
    {
      "inputs": [],
      "name": "oracleUpdater",
      "outputs": [
        {
          "internalType": "address",
          "name": "",
          "type": "address"
        }
      ],
      "stateMutability": "view",
      "type": "function"
    },
    {
      "inputs": [],
      "name": "requestCounter",
      "outputs": [
        {
          "internalType": "uint256",
          "name": "",
          "type": "uint256"
        }
      ],
      "stateMutability": "view",
      "type": "function"
    },
    {
      "inputs": [
        {
          "internalType": "uint256",
          "name": "newPrice",
          "type": "uint256"
        }
      ],
      "name": "setPriceOracle",
      "outputs": [],
      "stateMutability": "nonpayable",
      "type": "function"
    },
    {
      "inputs": [],
      "name": "supportedSourceChain",
      "outputs": [
        {
          "internalType": "string",
          "name": "",
          "type": "string"
        }
      ],
      "stateMutability": "view",
      "type": "function"
    },
    {
      "inputs": [
        {
          "internalType": "string",
          "name": "",
          "type": "string"
        },
        {
          "internalType": "uint256",
          "name": "",
          "type": "uint256"
        }
      ],
      "name": "userBorrowingRequests",
      "outputs": [
        {
          "internalType": "uint256",
          "name": "",
          "type": "uint256"
        }
      ],
      "stateMutability": "view",
      "type": "function"
    },
    {
      "inputs": [
        {
          "internalType": "string",
          "name": "",
          "type": "string"
        },
        {
          "internalType": "uint256",
          "name": "",
          "type": "uint256"
        }
      ],
      "name": "userLendingRequests",
      "outputs": [
        {
          "internalType": "uint256",
          "name": "",
          "type": "uint256"
        }
      ],
      "stateMutability": "view",
      "type": "function"
    },
    {
      "inputs": [
        {
          "internalType": "string",
          "name": "",
          "type": "string"
        },
        {
          "internalType": "uint256",
          "name": "",
          "type": "uint256"
        }
      ],
      "name": "userLoans",
      "outputs": [
        {
          "internalType": "uint256",
          "name": "",
          "type": "uint256"
        }
      ],
      "stateMutability": "view",
      "type": "function"
    }
  ],
  "bytecode": "0x60c0346100d857601f613c3438819003918201601f19168301916001600160401b038311848410176100dd5780849260409485528339810103126100d857610052602061004b836100f3565b92016100f3565b906001600160a01b038116156100c757608052600080546001600160a01b0319166001600160a01b03929092169190911781556003819055600a553360a052604051613b2c90816101088239608051818181610b9e015281816114c301526132eb015260a051818181610742015261098e0152f35b63e6c4247b60e01b60005260046000fd5b600080fd5b634e487b7160e01b600052604160045260246000fd5b51906001600160a01b03821682036100d85756fe608080604052600436101561001357600080fd5b600090813560e01c9081630bc82cf31461334f575080630fc6fec41461331a578063116191b6146132d557806314c7eb49146131925780631a98b2e0146113ec5780632153c8fd146113b7578063220f8e181461133357806323b1f8e4146113155780633077d7d1146112da57806331f59c551461129f57806334d9289e146112815780633cbfbbf31461124657806345887070146101c95780634916065814610af9578063560d52d414610add57806361a979bf14610a32578063625c513b1461097757806366811ce81461091e57806366877b8d1461079a57806378f2c2c314610771578063805d64a01461072c57806380a960071461066a57806384311dc01461062f578063973a814e14610611578063976e99891461058d578063a824ca9314610552578063a8e2135c146103db578063b8ecd94d14610334578063bad2716914610300578063dec20e05146102c5578063e1ec3c68146101e7578063eb91d37e146101c95763f8f769be1461018c57600080fd5b346101c657806003193601126101c65760206040517f7c4ef9fcbcd718c531be33e6c1e942f34ae50e2c58f65d1da8631ee13be5eb668152f35b80fd5b50346101c657806003193601126101c6576020600154604051908152f35b50346101c65760203660031901126101c6576040610286916004358152600460205220604051906102238261021c81846135c0565b03836133f3565b60405161023e8161023781600186016135c0565b03826133f3565b60028201549160038101546004820154600583015460068401549160078501549361029460ff6009600889015498015416976040519b8c9b6101408d526101408d01906134fa565b908b820360208d01526134fa565b9760408a01526060890152608088015260a087015260c086015260e085015261010084015215156101208301520390f35b50346101c657806003193601126101c65760206040517fde25758b3e02a50e26bf555d8688aff6c38cd237cfa12e59c1961ae28e5d516b8152f35b50346101c657806003193601126101c65761033061031c613643565b6040519182916020835260208301906134fa565b0390f35b50346101c65760203660031901126101c6576004356001600160401b0381116103d757602061036a61037d92369060040161345a565b81604051938285809451938492016134a9565b81016007815203019020604051918260208354918281520192825260208220915b8181106103c157610330856103b5818703826133f3565b6040519182918261354c565b825484526020909301926001928301920161039e565b5080fd5b50346101c65760203660031901126101c6576020604082610160936101408351610404816133d7565b60608152828682015282858201528260608201528260808201528260a08201528260c08201528260e08201528261010082015282610120820152015260043581526006835220604051610456816133d7565b6040516104678161023781866135c0565b8152600182015491838201928352600281015460408301908152600382015460608401908152600483015460808501908152600584015460a0860190815260068501549160c0870192835260078601549360e08801948552600887015495610100890196875261050b60ff600a60098b01549a6101208d019b8c520154169961014081019a15158b526040519d8d8f9e928f938452519201526101808d01906134fa565b995160408c01525160608b01525160808a01525160a08901525160c08801525160e08701525161010086015251610120850152516101408401525115156101608301520390f35b50346101c657806003193601126101c65760206040517f34d844336851612d0d8a9c6849f53488b6afbfddc10b3fc3244fd1542d82001b8152f35b50346101c65760203660031901126101c6576004356001600160401b0381116103d757602061036a6105c392369060040161345a565b81016009815203019020604051918260208354918281520192825260208220915b8181106105fb57610330856103b5818703826133f3565b82548452602090930192600192830192016105e4565b50346101c657806003193601126101c6576020600a54604051908152f35b50346101c657806003193601126101c65760206040517f2bf410a8493e77af80af6f30380c04e8c4b71932630dcf9c831b20e7388ee3a88152f35b50346101c65760203660031901126101c65760406106f09160043581526006602052206040519061069f8261021c81846135c0565b60018101549060028101549060038101546004820154600583015460068401549060078501549260088601549460ff600a600989015498015416976040519b8c9b6101608d526101608d01906134fa565b9960208c015260408b015260608a0152608089015260a088015260c087015260e086015261010085015261012084015215156101408301520390f35b50346101c657806003193601126101c6576040517f00000000000000000000000000000000000000000000000000000000000000006001600160a01b03168152602090f35b50346101c657806003193601126101c657602061078c613643565b818151910120604051908152f35b50346101c65760203660031901126101c65760206040826101409361012083516107c3816133bb565b6060815260608682015282858201528260608201528260808201528260a08201528260c08201528260e08201528261010082015201526004358152600483522060405161080f816133bb565b6040516108208161023781866135c0565b81526040519161083e8361083781600185016135c0565b03846133f3565b8382019283526002810154926040830193845260038201546060840190815260048301546080850190815260058401549060a0860191825260068501549260c087019384526108e460078701549560e089019687526108d160ff600960088b01549a6101008d019b8c520154169961012081019a15158b526040519d8d8f9e928f938452519201526101608d01906134fa565b90518b8203601f190160408d01526134fa565b975160608a01525160808901525160a08801525160c08701525160e086015251610100850152516101208401525115156101408301520390f35b50346101c65760209061094861093336613478565b939081604051938285809451938492016134a9565b810160078152030190209081548310156101c657602061096884846134cc565b90549060031b1c604051908152f35b50346101c65760203660031901126101c6576004357f00000000000000000000000000000000000000000000000000000000000000006001600160a01b031633036109ee576020817f66cbca4f3c64fecf1dcb9ce094abcf7f68c3450a1d4e3a8e917dd621edb4ebe092600155604051908152a180f35b606460405162461bcd60e51b815260206004820152602060248201527f43616c6c6572206973206e6f7420746865206f7261636c6520757064617465726044820152fd5b50346101c65760203660031901126101c6576040610aad91600435815260056020522060405190610a678261021c81846135c0565b6001810154906002810154906003810154600482015460058301549060068401549260ff600860078701549601541695604051998a996101208b526101208b01906134fa565b9760208a015260408901526060880152608087015260a086015260c085015260e084015215156101008301520390f35b50346101c657806003193601126101c657602060405160058152f35b50346101c65760803660031901126101c6576024356001600160401b0381116103d757610b2a90369060040161351f565b6044356001600160401b038111610ff657610b4990369060040161351f565b9190926064356001600160401b03811161124257610b6b90369060040161351f565b9091610b78368385613414565b8051602091820120604051635f6970c360e01b81526004803590820152608060248201527f00000000000000000000000000000000000000000000000000000000000000006001600160a01b03169692909182908190610bf38c8c610be1608486018a8c613685565b85810360031901604487015291613685565b90606483015203818c8a5af1908115611237578991611208575b50156111f957610c27610c4b949392610c43923691613414565b60208151910120610c36613643565b60208151910120146136a6565b8101906136e9565b90604051610c7a60208281610c6981830196878151938492016134a9565b81010301601f1981018352826133f3565b5190207fde25758b3e02a50e26bf555d8688aff6c38cd237cfa12e59c1961ae28e5d516b8103610d5357508051602080830193509082019190910312610d4e577f9d9930deac2c319f6551b9a16eb7e01a31224fecf2fcb618159c414e44c2362f92610ce99151923691613414565b908084526005602052600860408520610d20604051610d0c8161023781866135c0565b6020815191012085516020870120146139c6565b0160018154610d3260ff821615613a12565b60ff1916179055610d4860405192839283613a5e565b0390a180f35b600080fd5b7fe69dc4620ee0a9212a459c83b8c8cd0a36ebf6d6727329fc7e3e67a3e87df79d8103610de257508051602080830193509082019190910312610d4e577f2af119227ec26a21ab3ae1550987f63aac1ac06a30a76f83608b2ca8851accee92610dbf9151923691613414565b908084526006602052600a60408520610d20604051610d0c8161023781866135c0565b7f4a469cefcbed9a88178fc34579047173d00d4643d65873018db1ec410f46e00d036111bd5760208151918180820193849201010312610d4e575180855260046020526040852092600984019260ff84541661117857600785015442111561113457610e10610e5360025442613742565b101561108a575b60068501948554610e6d600154826138eb565b6064610e8260038501546008860154906138eb565b04111561104e57604051610e9a8161023781866135c0565b60208151910120610eac36868b613414565b6020815191012003610ffa578891610ec2613643565b93803b15610ff657610efc84610f0e968195610f30604051998a97889687956326ef699d60e01b87526080600488015260848701906134fa565b858103600319016024870152906135c0565b838103600319016044850152600381526205852560ec1b602082015260400190565b90606483015203925af19182610fdd575b5050610f8c5760405162461bcd60e51b815260206004820152601c60248201527f4661696c656420746f2073656e642058525020746f206c656e646572000000006044820152606490fd5b7f192e7442dd103acc961c7d78235baae73e1f85c8fe4d43ad5212631c411aa5b593604093600160ff198254161790555494818451928392833781018781520390209382519182526020820152a280f35b81610fe7916133f3565b610ff2578638610f41565b8680fd5b8380fd5b60405162461bcd60e51b815260206004820152602660248201527f4f6e6c7920746865206c656e6465722063616e206c697175696461746520746860448201526532903637b0b760d11b6064820152608490fd5b60405162461bcd60e51b815260206004820152601460248201527310d85b9b9bdd081b1a5c5d5a59185d19481e595d60621b6044820152606490fd5b8654604051638183f10f60e01b815290602090829060049082906001600160a01b03165afa9081156111295788916110f6575b506020817f66cbca4f3c64fecf1dcb9ce094abcf7f68c3450a1d4e3a8e917dd621edb4ebe09260015542600255604051908152a1610e5a565b90506020813d602011611121575b81611111602093836133f3565b81010312610d4e575160206110bd565b3d9150611104565b6040513d8a823e3d90fd5b606460405162461bcd60e51b815260206004820152602060248201527f43616e6e6f74206c6971756964617465206265666f72652064756520646174656044820152fd5b60405162461bcd60e51b815260206004820152601760248201527f4c6f616e20616c7265616479206c6971756964617465640000000000000000006044820152606490fd5b60405162461bcd60e51b815260206004820152600f60248201526e125b9d985b1a590818dbdb5b585b99608a1b604482015280606481015b0390fd5b631403112d60e21b8852600488fd5b61122a915060203d602011611230575b61122281836133f3565b81019061366d565b38610c0d565b503d611218565b6040513d8b823e3d90fd5b8580fd5b50346101c657806003193601126101c65760206040517f02a0046ae0a72923f4582943512f0b3b95b88a4125f476ba466151a9053e12498152f35b50346101c657806003193601126101c6576020600354604051908152f35b50346101c657806003193601126101c65760206040517f4a469cefcbed9a88178fc34579047173d00d4643d65873018db1ec410f46e00d8152f35b50346101c657806003193601126101c65760206040517fe69dc4620ee0a9212a459c83b8c8cd0a36ebf6d6727329fc7e3e67a3e87df79d8152f35b50346101c657806003193601126101c6576020600254604051908152f35b50346101c65760203660031901126101c6576004356001600160401b0381116103d757602061036a61136992369060040161345a565b81016008815203019020604051918260208354918281520192825260208220915b8181106113a157610330856103b5818703826133f3565b825484526020909301926001928301920161138a565b50346101c6576020906113cc61093336613478565b810160088152030190209081548310156101c657602061096884846134cc565b50346101c65760c03660031901126101c6576024356001600160401b0381116103d75761141d90369060040161351f565b6044929192356001600160401b0381116118915761143f90369060040161351f565b90936064356001600160401b038111612ef15761146090369060040161351f565b906084356001600160401b038111610ff257879261152a926114ff6020878a61148e8b97369060040161351f565b98909961151161149f368a8a613414565b805190870120604051631876eed960e01b8152600480359082015260c060248201527f00000000000000000000000000000000000000000000000000000000000000006001600160a01b03169b90988997889793959360c4890191613685565b86810360031901604488015291613685565b906064840152600319838203016084840152898b613685565b60a43560a483015203818d885af1908115613187578a91613168575b50156131595760a435156131235761156691610c43610c27368b8a613414565b969060405161158560208281610c6981830196878151938492016134a9565b5190207f34d844336851612d0d8a9c6849f53488b6afbfddc10b3fc3244fd1542d82001b81036118955750505050505060a0828051810103126118915760208201516040830151916115e860608501519660a06080870151960151923691613414565b936115f4600a546138dc565b9687600a556040519761160689613389565b86895260a43560208a01528760408a01528460608a01528560808a01528160a08a01528260c08a01528360e08a0152876101008a015287526005602052604087209780518051906001600160401b03821161187d576116658b54613586565b601f811161183b575b50602090601f83116001146117a85761172693838c9d94600894610100947fb910788820c1fc1e98934bee6586d460fceb05098ba6698fb7f4ed9745174aeb9f9261179d575b50508160011b916000199060031b1c19161784555b6020810151600185015560408101516002850155606081015160038501556080810151600485015560a0810151600585015560c0810151600685015560e081015160078501550151151591019060ff801983541691151516179055565b611753604051602081816117408b838151938492016134a9565b81016008815203019020600a549061396c565b600a5494611775604051978897885261010060208901526101008801906134fa565b9460a43560408801526060870152608086015260a085015260c084015260e08301520390a180f35b0151905038806116b4565b908b8b52808b20918b5b601f19851681106118235750936001846008947fb910788820c1fc1e98934bee6586d460fceb05098ba6698fb7f4ed9745174aeb9e9f96946117269861010096601f1981161061180a575b505050811b0184556116c9565b015160001960f88460031b161c191690553880806117fd565b919260206001819286850151815501940192016117b2565b8b8b5260208b20601f840160051c810160208510611876575b8c601f840160051c8301821061186c5750505061166e565b8155600101611854565b5080611854565b634e487b7160e01b8a52604160045260248afd5b8280fd5b9698967f2bf410a8493e77af80af6f30380c04e8c4b71932630dcf9c831b20e7388ee3a88103611bd45750505050505060c0848051810103126118915760208401516040850151916060860151956118fe60808201519560c060a0840151930151933691613414565b9461190a600a546138dc565b9788600a556040519861191c8a6133d7565b878a528560208b01528860408b015260a43560608b015260a43560808b01528660a08b01528160c08b01528260e08b0152836101008b0152846101208b0152886101408b015288526006602052604088209880518051906001600160401b038211611bc05761198b8c54613586565b601f8111611b7e575b50602090601f8311600114611aeb57611a6393838d9e94600a947f52b3c3eb0ec3121857763d94d3f845187d46a75755afdbac574efd5e388ee4159f946101409592611ae0575b50508160011b916000199060031b1c19161784555b6020810151600185015560408101516002850155606081015160038501556080810151600485015560a0810151600585015560c0810151600685015560e08101516007850155610100810151600885015561012081015160098501550151151591019060ff801983541691151516179055565b611a9060405160208181611a7d8c838151938492016134a9565b81016009815203019020600a549061396c565b600a5495611ab2604051988998895261012060208a01526101208901906134fa565b95604088015260a4356060880152608087015260a086015260c085015260e08401526101008301520390a180f35b0151905038806119db565b908c8c52808c20918c5b601f1985168110611b665750936001847f52b3c3eb0ec3121857763d94d3f845187d46a75755afdbac574efd5e388ee4159e9f959461014094611a6398600a97601f19811610611b4d575b505050811b0184556119f0565b015160001960f88460031b161c19169055388080611b40565b91926020600181928685015181550194019201611af5565b8c8c5260208c20601f840160051c810160208510611bb9575b8d601f840160051c83018210611baf57505050611994565b8155600101611b97565b5080611b97565b634e487b7160e01b8b52604160045260248bfd5b7f02a0046ae0a72923f4582943512f0b3b95b88a4125f476ba466151a9053e1249819a92939495969a989798146000146124225750611c1f81602080611c2994518301019101613765565b9690973691613414565b97600193602095604051611c3d88826133f3565b8a8152898b526005885260408b209660ff6008890154166000146122655750508991611c676138a1565b925b156121ca57505050823b156121c6578886938993848094611ca0604051988996879586946326ef699d60e01b86526004860161381d565b03925af191826121b1575b5050611cca5760405162461bcd60e51b8152806111f560048201613869565b611cd56003546138dc565b95866003556064611cea6005840154866138eb565b0460058102908082046005148115171561219d57611d08908661379c565b92611d1760068201544261379c565b9860048201546040519a611d2a8c6133bb565b604051611d3b8161023781886135c0565b8c5285888d01528860408d01528660608d01526064850460808d01528a60a08d015260a43560c08d015260e08c01526101008b0152886101208b01528852600485526040882089518051906001600160401b038211611bc0578190611da08454613586565b601f8111612150575b508890601f83116001146120e8578c926120dd575b50508160011b916000199060031b1c19161781555b858a0151998a516001600160401b038111611bc057611df56001840154613586565b601f811161209a575b5087601f8211600114611ff85793611ec560649460098e9f600080516020613ad78339815191529f9660409f9e9d9c9b9a979680600080516020613ab78339815191529b61012094611f8b9a92611fed575b50508160011b916000199060031b1c19161760018501555b8f8101516002850155606081015160038501556080810151600485015560a0810151600585015560c0810151600685015560e0810151600785015561010081015160088501550151151591019060ff801983541691151516179055565b611ef08b51898181611edd8b838151938492016134a9565b810160078152030190206003549061396c565b8c611f1160028301611f038c825461379c565b809155600184015490613742565b600783015411611f9a575b50600354611f2e60068301544261379c565b90611f4f611f466004850154948f51918280926138fe565b039020986139a6565b988d5196879604918c60a435918893909796959260c0959260e08601998652602086015260408501526060840152608083015260a08201520152565b0390a38351928352820152a180f35b8b818c6008935260058b52200160018154611fb860ff821615613a12565b60ff19161790557f7562a949655b77cbaa6a59364f68ac2be8c52117d2d6274dc36793591f0053e1888c518c8152a18c611f1c565b015190503880611e50565b600184018c52888c209c8c5b601f198416811061208357506064946009600080516020613ad78339815191529e9f60409e9d9c9b9a999660018761012093600080516020613ab78339815191529c98611ec598611f8b9b601f1981161061206a575b505050811b016001850155611e68565b015160001960f88460031b161c1916905538808061205a565b828201518f556001909e019d918a01918a01612004565b600184018c52888c20601f830160051c81018a84106120d6575b8d601f840160051c830182106120cc57505050611dfe565b81556001016120b4565b50806120b4565b015190503880611dbe565b9250838c52888c20908c935b8a601f198516861061213757506001945083601f1981161061211e575b505050811b018155611dd3565b015160001960f88460031b161c19169055388080612111565b82820151845594850194600190930192909101906120f4565b909150838c52888c20601f840160051c81018a8510612196575b84939291908e5b601f840160051c8301821061218857505050611da9565b81558594506001018e612171565b508061216a565b634e487b7160e01b88526011600452602488fd5b816121bb916133f3565b611242578538611cab565b8780fd5b858b939589958e9360001960a435019060a435821161219d57843b156121c657916122138896959493928793604051998a98899788966326ef699d60e01b8852600488016137db565b03925af1801561225a57612245575b50506111f560405192839262461bcd60e51b8452600484015260248301906134fa565b6122508280926133f3565b6101c65780612222565b6040513d84823e3d90fd5b61226f8854613586565b6122b557505089916040516122856040826133f3565b601981527f4c656e64696e672072657175657374206e6f7420666f756e640000000000000089820152925b611c69565b60078801548a101561231257505089916040516122d36060826133f3565b602781527f426f72726f7720616d6f756e74206973206c657373207468616e206d696e696d8982015266185b08199a5b1b60ca1b604082015292611c69565b6123248189015460028a015490613742565b8a1115612380575050899160405161233d6060826133f3565b602b81527f426f72726f7720616d6f756e7420657863656564732072656d61696e696e6720898201526a1b195b9908185b5bdd5b9d60aa1b604082015292611c69565b61238e60038901548b613a75565b60a43510156123d857505089916040516123a96040826133f3565b601781527f496e73756666696369656e7420636f6c6c61746572616c0000000000000000008982015292611c69565b6123e6939193368385613414565b89815191012060038a6040516123fd6040826133f3565b828152016205852560ec1b815220146122b057508a925061241c6137a9565b92611c69565b7f7c4ef9fcbcd718c531be33e6c1e942f34ae50e2c58f65d1da8631ee13be5eb66819a93959698999a14600014612c64575061246a8160208061247494518301019101613765565b9690983691613414565b926001946020976040516124888a826133f3565b8b81528a8c5260068a5260408c209760ff600a8a015416600014612ac15750508a916124b26138a1565b925b15612a7857505050908891833b156118915761250b938392836124f99361252d604051988996879586946326ef699d60e01b8652608060048701526084860191613685565b8381036003190160248501528c6135c0565b82810360031901604484015260038152621554d160ea1b602082015260400190565b60a435606483015203925af19182612a63575b505061255f5760405162461bcd60e51b8152806111f560048201613869565b61256a6003546138dc565b90816003556064612581600785015460a4356138eb565b0491600583029280840460051481151715612a4f576125a4906064850490613742565b906125b18260a43561379c565b906125c060088701544261379c565b600687015490604051936125d3856133bb565b8685526040516125e781610237818d6135c0565b8b86015260a435604086015260608501526064870460808501528b60a08501528860c085015260e084015261010083015289610120830152895260048752604089209080518051906001600160401b03821161297b5781906126498554613586565b601f8111612a02575b508a90601f831160011461299a578d9261298f575b50508160011b916000199060031b1c19161782555b878101518051906001600160401b03821161297b5761269e6001850154613586565b601f8111612936575b5089908c601f84116001146128ad576064956009610120600080516020613ad78339815191529f9d9b9760409f9d9b96978061284799600080516020613ab78339815191529d9861276b9892611fed5750508160011b916000199060031b1c19161760018501558f8101516002850155606081015160038501556080810151600485015560a0810151600585015560c0810151600685015560e0810151600785015561010081015160088501550151151591019060ff801983541691151516179055565b61278d8b518a8161277c818c6138fe565b60078152030190206003549061396c565b6002870161279e60a435825461379c565b90558c600488016127b08a8254613742565b8091556127c660098a015460058b015490613a75565b1161285a575b506127dc6003549160a43561379c565b906127eb60088901544261379c565b916128096127fd60068b0154956139a6565b998e51918280926138fe565b039020998d51978897049260a435908893909796959260c0959260e08601998652602086015260408501526060840152608083015260a08201520152565b0390a3825191825260a43590820152a180f35b8b818c600a935260068c5220016001815461287860ff821615613a12565b60ff19161790557fba8f1140804ed0d80b9366acd35166ac348a3f02961bec8d2578bab4bfffe567898c518c8152a18c6127cc565b5090600185018d528a8d20918d5b601f198516811061291f57506064956009610120600080516020613ad78339815191529f9d9b9760409f9d9b9688600191600080516020613ab78339815191529d9861276b986128479c601f1981161061206a57505050811b016001850155611e68565b91928c6001819286850151815501940192016128bb565b600185018d528a8d20601f840160051c81018c8510612974575b8e5b601f840160051c83018210612969575050506126a7565b81556001018e612952565b5080612950565b634e487b7160e01b8c52604160045260248cfd5b015190503880612667565b9250848d528a8d20908d935b8c601f19851686106129e957506001945083601f198116106129d0575b505050811b01825561267c565b015160001960f88460031b161c191690553880806129c3565b82820151845594850194600190930192909101906129a6565b909150848d528a8d20601f840160051c81018c8510612a48575b84939291908f5b601f840160051c83018210612a3a57505050612652565b81558594506001018f612a23565b5080612a1c565b634e487b7160e01b89526011600452602489fd5b81612a6d916133f3565b610ff2578638612540565b858a948d9496899360001960a435019060a435821161219d57843b156121c657916122138896959493928793604051998a98899788966326ef699d60e01b8852600488016137db565b612acb8954613586565b612b115750508a91604051612ae16040826133f3565b601b81527f426f72726f77696e672072657175657374206e6f7420666f756e6400000000008b820152925b6124b4565b600989015460a4351015612b6e5750508a91604051612b316060826133f3565b602581527f4c656e6420616d6f756e74206973206c657373207468616e206d696e696d616c8b8201526408199a5b1b60da1b6040820152926124b4565b612b80818a015460028b015490613742565b60a4351115612bde5750508a91604051612b9b6060826133f3565b602b81527f4c656e6420616d6f756e7420657863656564732072656d61696e696e6720626f8b8201526a1c9c9bddc8185b5bdd5b9d60aa1b6040820152926124b4565b60048901548a1115612c2b5750508a91604051612bfc6040826133f3565b601e81527f41736b696e6720666f7220746f6f206d75636820636f6c6c61746572616c00008b820152926124b4565b612c39939193368385613414565b8b8151910120612c4761377b565b8c815191012014612b0c57508b9250612c5e6137a9565b926124b4565b7f7bd15d6b2d182a804b2a36c079625580f8a960afa839087ccb184e9db92b9a0390989798969293949596146000146130615790612cae82602080612cb895518301019101613765565b9790503691613414565b92600194602097604051612ccc8a826133f3565b8a8152888b5260048a5260408b2097612ce6368585613414565b8b8151910120612cf461377b565b8051908d012014612f575750508991612d0b6137a9565b925b15612f0e57505050823b156121c6576040516326ef699d60e01b815288808280612d3f60a4358a888a6004860161381d565b038183895af19182612ef5575b5050612d6b5760405162461bcd60e51b8152806111f560048201613869565b87927fd9cfbcfb9ae5d65b8d34072de4575f602ee25cf3715bc05c291701fe9e258f9a612dc660058801612da260a435825461379c565b80915560405191829160a4358c846040919493926060820195825260208201520152565b0390a16005860195865460038201541115612de8575b50505050505050505080f35b6006015492813b15612ef15784612e26938195612e38610f0e6040519a8b98899788966326ef699d60e01b8852608060048901526084880191613685565b858103600319016024870152906134fa565b90606483015203925af19182612edc575b5050612e945760405162461bcd60e51b815260048101849052601e60248201527f4661696c656420746f2073656e642058525020746f20626f72726f77657200006044820152606490fd5b546040805192835260a43560208401528201527fd9cfbcfb9ae5d65b8d34072de4575f602ee25cf3715bc05c291701fe9e258f9a9150606090a1388080808481808080612ddc565b81612ee6916133f3565b612ef1578438612e49565b8480fd5b81612eff916133f3565b612f0a578838612d4c565b8880fd5b858a948c9496899360001960a435019060a435821161219d57843b156121c657916122138896959493928793604051998a98899788966326ef699d60e01b8852600488016137db565b604051612f6a81610237818d86016135c0565b8051908c01208851898d012014612fb25750508991604051612f8d6040826133f3565b60128152712737ba103a3432903637b0b71037bbb732b960711b8b820152925b612d0d565b600989015460ff16156130005750508991604051612fd16040826133f3565b601a81527f4c6f616e20697320616c7265616479206c6971756964617465640000000000008b82015292612d0d565b60058901549193916130149060a43561379c565b60038a01541015612fad5750915089916040516130326040826133f3565b601d81527f52657061796d656e74206578636565647320616d6f756e74206f7765640000008b82015292612d0d565b5096959390919260001960a4350160a435811161219d578798859897983b156121c6576130b6968894610be16130c8936040519c8d9b8c9a8b996326ef699d60e01b8b52608060048c015260848b0191613685565b8881036003190160248a015291613685565b90606483015203925af1801561225a576131135760405162461bcd60e51b815260206004820152600f60248201526e125b9d985b1a590818dbdb5b585b99608a1b6044820152606490fd5b8161311d916133f3565b386111bd565b60405162461bcd60e51b815260206004820152600e60248201526d125b9d985b1a5908185b5bdd5b9d60921b6044820152606490fd5b631403112d60e21b8952600489fd5b613181915060203d6020116112305761122281836133f3565b38611546565b6040513d8c823e3d90fd5b50346101c65760203660031901126101c65760408161329c9261010083516131b981613389565b6060815282602082015282858201528260608201528260808201528260a08201528260c08201528260e0820152015260043581526005602052206040519061320082613389565b6040516132118161023781856135c0565b8252600181015490602083019182526002810154906040840191825260038101546060850190815260048201546080860190815260058301549060a0870191825260068401549260c0880193845260ff600860078701549660e08b019788520154169561010089019615158752604051998a9960208b525161012060208c01526101408b01906134fa565b975160408a01525160608901525160808801525160a08701525160c08601525160e0850152516101008401525115156101208301520390f35b50346101c657806003193601126101c6576040517f00000000000000000000000000000000000000000000000000000000000000006001600160a01b03168152602090f35b50346101c65760209061332f61093336613478565b810160098152030190209081548310156101c657602061096884846134cc565b9050346103d757816003193601126103d757807f7bd15d6b2d182a804b2a36c079625580f8a960afa839087ccb184e9db92b9a0360209252f35b61012081019081106001600160401b038211176133a557604052565b634e487b7160e01b600052604160045260246000fd5b61014081019081106001600160401b038211176133a557604052565b61016081019081106001600160401b038211176133a557604052565b90601f801991011681019081106001600160401b038211176133a557604052565b9291926001600160401b0382116133a5576040519161343d601f8201601f1916602001846133f3565b829481845281830111610d4e578281602093846000960137010152565b9080601f83011215610d4e5781602061347593359101613414565b90565b6040600319820112610d4e57600435906001600160401b038211610d4e576134a29160040161345a565b9060243590565b60005b8381106134bc5750506000910152565b81810151838201526020016134ac565b80548210156134e45760005260206000200190600090565b634e487b7160e01b600052603260045260246000fd5b90602091613513815180928185528580860191016134a9565b601f01601f1916010190565b9181601f84011215610d4e578235916001600160401b038311610d4e5760208381860195010111610d4e57565b602060408183019282815284518094520192019060005b8181106135705750505090565b8251845260209384019390920191600101613563565b90600182811c921680156135b6575b60208310146135a057565b634e487b7160e01b600052602260045260246000fd5b91607f1691613595565b600092918154916135d083613586565b808352926001811690811561362657506001146135ec57505050565b60009081526020812093945091925b83831061360c575060209250010190565b6001816020929493945483858701015201910191906135fb565b915050602093945060ff929192191683830152151560051b010190565b604051906136526040836133f3565b600c82526b1614941317dd195cdd1b995d60a21b6020830152565b90816020910312610d4e57518015158103610d4e5790565b908060209392818452848401376000828201840152601f01601f1916010190565b156136ad57565b60405162461bcd60e51b815260206004820152601460248201527324b73b30b634b21039b7bab931b29031b430b4b760611b6044820152606490fd5b9190604083820312610d4e5782356001600160401b038111610d4e578161371191850161345a565b926020810135906001600160401b038211610d4e57019080601f83011215610d4e5781602061347593359101613414565b9190820391821161374f57565b634e487b7160e01b600052601160045260246000fd5b9190826040910312610d4e576020825192015190565b6040519061378a6040836133f3565b60038252621554d160ea1b6020830152565b9190820180921161374f57565b604051906137b86040836133f3565b6014825273125b9d985b1a59081d1bdad95b881cde5b589bdb60621b6020830152565b96959490613818936137fc61380a926060979560808c5260808c0191613685565b9089820360208b01526134fa565b918783036040890152613685565b930152565b94939261384a9061383c6138189360609560808a5260808a0191613685565b9087820360208901526134fa565b858103604087015260409060038152621554d160ea1b60208201520190565b60609060208152601e60208201527f4661696c656420746f2073656e642055534420746f20626f72726f776572000060408201520190565b604051906138b06040836133f3565b601b82527f5265717565737420697320616c72656164792063616e63656c656400000000006020830152565b600019811461374f5760010190565b8181029291811591840414171561374f57565b6000929181549161390e83613586565b9260018116908115613959575060011461392757505050565b909192935060005260206000206000905b8382106139455750500190565b600181602092548486015201910190613938565b60ff191683525050811515909102019150565b8054680100000000000000008110156133a55761398e916001820181556134cc565b819291549060031b91821b91600019901b1916179055565b6139be906020604051928284809451938492016134a9565b810103902090565b156139cd57565b60405162461bcd60e51b815260206004820152601760248201527f4e6f742074686520726571756573742063726561746f720000000000000000006044820152606490fd5b15613a1957565b60405162461bcd60e51b815260206004820152601b60248201527f5265717565737420697320616c72656164792063616e63656c656400000000006044820152606490fd5b6040906134759392815281602082015201906134fa565b90613a7f916138eb565b600a810290808204600a149015171561374f57600154908115613aa0570490565b634e487b7160e01b600052601260045260246000fdfe366860bfaaa09039e53ae0d422aaee44aeacb58f06f6c13fd14f52b7683963e60029bbc9d1df4cafb61a2ba58e25f6566e062d41595d49e6f935461eab174b58a26469706673582212208bb14e55ffc6f425073567b13748ef1393cd3ea6a186ef904878455fae17633364736f6c634300081c0033",
  "linkReferences": {},
  "deployedLinkReferences": {}
}