{
  "_format": "hh-sol-artifact-1",
  "contractName": "XrpLendingPoolV2",
  "sourceName": "contracts/pledge/XrpLendingPool.sol",
  "abi": [
    {
      "inputs": [
        {
          "internalType": "address",
          "name": "gateway_",
          "type": "address"
        },
        {
          "internalType": "address",
          "name": "priceOracle_",
          "type": "address"
        },
        {
          "internalType": "uint256",
          "name": "dailyInterestFactorE18_",
          "type": "uint256"
        }
      ],
      "stateMutability": "nonpayable",
      "type": "constructor"
    },
    {
      "inputs": [],
      "name": "InvalidAddress",
      "type": "error"
    },
    {
      "inputs": [],
      "name": "NotApprovedByGateway",
      "type": "error"
    },
    {
      "inputs": [
        {
          "internalType": "uint256",
          "name": "x",
          "type": "uint256"
        }
      ],
      "name": "PRBMathUD60x18__Exp2InputTooBig",
      "type": "error"
    },
    {
      "inputs": [
        {
          "internalType": "uint256",
          "name": "x",
          "type": "uint256"
        }
      ],
      "name": "PRBMathUD60x18__LogInputTooSmall",
      "type": "error"
    },
    {
      "inputs": [
        {
          "internalType": "uint256",
          "name": "prod1",
          "type": "uint256"
        }
      ],
      "name": "PRBMath__MulDivFixedPointOverflow",
      "type": "error"
    },
    {
      "anonymous": false,
      "inputs": [
        {
          "indexed": true,
          "internalType": "string",
          "name": "user",
          "type": "string"
        },
        {
          "indexed": false,
          "internalType": "uint256",
          "name": "amount",
          "type": "uint256"
        },
        {
          "indexed": false,
          "internalType": "uint256",
          "name": "confirmedRewards",
          "type": "uint256"
        },
        {
          "indexed": false,
          "internalType": "uint256",
          "name": "contributionBalance",
          "type": "uint256"
        },
        {
          "indexed": false,
          "internalType": "uint256",
          "name": "rewardDebt",
          "type": "uint256"
        }
      ],
      "name": "LiquidityAdded",
      "type": "event"
    },
    {
      "anonymous": false,
      "inputs": [
        {
          "indexed": true,
          "internalType": "string",
          "name": "user",
          "type": "string"
        },
        {
          "indexed": false,
          "internalType": "uint256",
          "name": "amount",
          "type": "uint256"
        },
        {
          "indexed": false,
          "internalType": "uint256",
          "name": "confirmedRewards",
          "type": "uint256"
        },
        {
          "indexed": false,
          "internalType": "uint256",
          "name": "contributionBalance",
          "type": "uint256"
        },
        {
          "indexed": false,
          "internalType": "uint256",
          "name": "rewardDebt",
          "type": "uint256"
        }
      ],
      "name": "LiquidityWithdrawn",
      "type": "event"
    },
    {
      "anonymous": false,
      "inputs": [
        {
          "indexed": true,
          "internalType": "uint256",
          "name": "loanId",
          "type": "uint256"
        },
        {
          "indexed": true,
          "internalType": "string",
          "name": "borrower",
          "type": "string"
        },
        {
          "indexed": false,
          "internalType": "uint256",
          "name": "borrowAmountUSD",
          "type": "uint256"
        },
        {
          "indexed": false,
          "internalType": "uint256",
          "name": "collateralAmountXRP",
          "type": "uint256"
        },
        {
          "indexed": false,
          "internalType": "uint256",
          "name": "lastInterestUpdateTime",
          "type": "uint256"
        }
      ],
      "name": "LoanCreated",
      "type": "event"
    },
    {
      "anonymous": false,
      "inputs": [
        {
          "indexed": true,
          "internalType": "uint256",
          "name": "loanId",
          "type": "uint256"
        },
        {
          "indexed": false,
          "internalType": "uint256",
          "name": "collateralValueUSD",
          "type": "uint256"
        },
        {
          "indexed": false,
          "internalType": "uint256",
          "name": "amountPayableUSD",
          "type": "uint256"
        },
        {
          "indexed": false,
          "internalType": "uint256",
          "name": "currentPriceUSD",
          "type": "uint256"
        }
      ],
      "name": "LoanLiquidated",
      "type": "event"
    },
    {
      "anonymous": false,
      "inputs": [
        {
          "indexed": true,
          "internalType": "uint256",
          "name": "loanId",
          "type": "uint256"
        },
        {
          "indexed": false,
          "internalType": "uint256",
          "name": "repaidAmountUSD",
          "type": "uint256"
        },
        {
          "indexed": false,
          "internalType": "uint256",
          "name": "remainingAmountPayableUSD",
          "type": "uint256"
        }
      ],
      "name": "LoanRepaid",
      "type": "event"
    },
    {
      "anonymous": false,
      "inputs": [
        {
          "indexed": true,
          "internalType": "uint256",
          "name": "loanId",
          "type": "uint256"
        },
        {
          "indexed": true,
          "internalType": "string",
          "name": "borrower",
          "type": "string"
        },
        {
          "indexed": false,
          "internalType": "uint256",
          "name": "borrowAmountUSD",
          "type": "uint256"
        },
        {
          "indexed": false,
          "internalType": "uint256",
          "name": "collateralAmountXRP",
          "type": "uint256"
        },
        {
          "indexed": false,
          "internalType": "uint256",
          "name": "lastInterestUpdateTime",
          "type": "uint256"
        }
      ],
      "name": "LoanUpdated",
      "type": "event"
    },
    {
      "anonymous": false,
      "inputs": [
        {
          "indexed": true,
          "internalType": "string",
          "name": "user",
          "type": "string"
        },
        {
          "indexed": false,
          "internalType": "uint256",
          "name": "rewardsToClaim",
          "type": "uint256"
        },
        {
          "indexed": false,
          "internalType": "uint256",
          "name": "confirmedRewards",
          "type": "uint256"
        },
        {
          "indexed": false,
          "internalType": "uint256",
          "name": "contributionBalance",
          "type": "uint256"
        },
        {
          "indexed": false,
          "internalType": "uint256",
          "name": "rewardDebt",
          "type": "uint256"
        }
      ],
      "name": "RewardsClaimed",
      "type": "event"
    },
    {
      "anonymous": false,
      "inputs": [
        {
          "indexed": false,
          "internalType": "uint256",
          "name": "rewardAmount",
          "type": "uint256"
        },
        {
          "indexed": false,
          "internalType": "uint256",
          "name": "accRewardPerShareE18",
          "type": "uint256"
        }
      ],
      "name": "RewardsDistributed",
      "type": "event"
    },
    {
      "inputs": [],
      "name": "SELECTOR_BORROW",
      "outputs": [
        {
          "internalType": "bytes32",
          "name": "",
          "type": "bytes32"
        }
      ],
      "stateMutability": "view",
      "type": "function"
    },
    {
      "inputs": [],
      "name": "SELECTOR_CLAIM_REWARD",
      "outputs": [
        {
          "internalType": "bytes32",
          "name": "",
          "type": "bytes32"
        }
      ],
      "stateMutability": "view",
      "type": "function"
    },
    {
      "inputs": [],
      "name": "SELECTOR_LEND",
      "outputs": [
        {
          "internalType": "bytes32",
          "name": "",
          "type": "bytes32"
        }
      ],
      "stateMutability": "view",
      "type": "function"
    },
    {
      "inputs": [],
      "name": "SELECTOR_LIQUIDATE_LOAN",
      "outputs": [
        {
          "internalType": "bytes32",
          "name": "",
          "type": "bytes32"
        }
      ],
      "stateMutability": "view",
      "type": "function"
    },
    {
      "inputs": [],
      "name": "SELECTOR_REPAY_LOAN",
      "outputs": [
        {
          "internalType": "bytes32",
          "name": "",
          "type": "bytes32"
        }
      ],
      "stateMutability": "view",
      "type": "function"
    },
    {
      "inputs": [],
      "name": "SELECTOR_WITHDRAW",
      "outputs": [
        {
          "internalType": "bytes32",
          "name": "",
          "type": "bytes32"
        }
      ],
      "stateMutability": "view",
      "type": "function"
    },
    {
      "inputs": [],
      "name": "SUPPORTED_SOURCE_CHAIN_HASH",
      "outputs": [
        {
          "internalType": "bytes32",
          "name": "",
          "type": "bytes32"
        }
      ],
      "stateMutability": "view",
      "type": "function"
    },
    {
      "inputs": [],
      "name": "accRewardPerShareE18",
      "outputs": [
        {
          "internalType": "uint256",
          "name": "",
          "type": "uint256"
        }
      ],
      "stateMutability": "view",
      "type": "function"
    },
    {
      "inputs": [],
      "name": "collateralRatioPc",
      "outputs": [
        {
          "internalType": "uint256",
          "name": "",
          "type": "uint256"
        }
      ],
      "stateMutability": "view",
      "type": "function"
    },
    {
      "inputs": [],
      "name": "currentXRPPriceUSDE4",
      "outputs": [
        {
          "internalType": "uint256",
          "name": "",
          "type": "uint256"
        }
      ],
      "stateMutability": "view",
      "type": "function"
    },
    {
      "inputs": [],
      "name": "dailyInterestFactorE18",
      "outputs": [
        {
          "internalType": "uint256",
          "name": "",
          "type": "uint256"
        }
      ],
      "stateMutability": "view",
      "type": "function"
    },
    {
      "inputs": [
        {
          "internalType": "bytes32",
          "name": "commandId",
          "type": "bytes32"
        },
        {
          "internalType": "string",
          "name": "sourceChain",
          "type": "string"
        },
        {
          "internalType": "string",
          "name": "sourceAddress",
          "type": "string"
        },
        {
          "internalType": "bytes",
          "name": "payload",
          "type": "bytes"
        }
      ],
      "name": "execute",
      "outputs": [],
      "stateMutability": "nonpayable",
      "type": "function"
    },
    {
      "inputs": [
        {
          "internalType": "bytes32",
          "name": "commandId",
          "type": "bytes32"
        },
        {
          "internalType": "string",
          "name": "sourceChain",
          "type": "string"
        },
        {
          "internalType": "string",
          "name": "sourceAddress",
          "type": "string"
        },
        {
          "internalType": "bytes",
          "name": "payload",
          "type": "bytes"
        },
        {
          "internalType": "string",
          "name": "tokenSymbol",
          "type": "string"
        },
        {
          "internalType": "uint256",
          "name": "amount",
          "type": "uint256"
        }
      ],
      "name": "executeWithToken",
      "outputs": [],
      "stateMutability": "nonpayable",
      "type": "function"
    },
    {
      "inputs": [],
      "name": "gateway",
      "outputs": [
        {
          "internalType": "contract IMyAxelarGateway",
          "name": "",
          "type": "address"
        }
      ],
      "stateMutability": "view",
      "type": "function"
    },
    {
      "inputs": [
        {
          "internalType": "uint256",
          "name": "_loanId",
          "type": "uint256"
        }
      ],
      "name": "getLoanDetails",
      "outputs": [
        {
          "components": [
            {
              "internalType": "string",
              "name": "borrower",
              "type": "string"
            },
            {
              "internalType": "uint256",
              "name": "borrowAmountUSD",
              "type": "uint256"
            },
            {
              "internalType": "uint256",
              "name": "amountPayableUSD",
              "type": "uint256"
            },
            {
              "internalType": "uint256",
              "name": "collateralAmountXRP",
              "type": "uint256"
            },
            {
              "internalType": "uint256",
              "name": "lastPayableUpdateTime",
              "type": "uint256"
            },
            {
              "internalType": "uint256",
              "name": "repaidUSD",
              "type": "uint256"
            },
            {
              "internalType": "bool",
              "name": "isLiquidated",
              "type": "bool"
            }
          ],
          "internalType": "struct XrpLendingPoolV2.Loan",
          "name": "",
          "type": "tuple"
        }
      ],
      "stateMutability": "view",
      "type": "function"
    },
    {
      "inputs": [
        {
          "internalType": "string",
          "name": "_user",
          "type": "string"
        }
      ],
      "name": "getUserInfo",
      "outputs": [
        {
          "components": [
            {
              "internalType": "uint256",
              "name": "contributionBalance",
              "type": "uint256"
            },
            {
              "internalType": "uint256",
              "name": "rewardDebt",
              "type": "uint256"
            },
            {
              "internalType": "uint256",
              "name": "confirmedRewards",
              "type": "uint256"
            }
          ],
          "internalType": "struct XrpLendingPoolV2.UserInfo",
          "name": "",
          "type": "tuple"
        }
      ],
      "stateMutability": "view",
      "type": "function"
    },
    {
      "inputs": [
        {
          "internalType": "string",
          "name": "_user",
          "type": "string"
        }
      ],
      "name": "getUserLoan",
      "outputs": [
        {
          "internalType": "uint256",
          "name": "",
          "type": "uint256"
        }
      ],
      "stateMutability": "view",
      "type": "function"
    },
    {
      "inputs": [],
      "name": "interestRatePc",
      "outputs": [
        {
          "internalType": "uint256",
          "name": "",
          "type": "uint256"
        }
      ],
      "stateMutability": "view",
      "type": "function"
    },
    {
      "inputs": [],
      "name": "lastPriceUpdateTimestamp",
      "outputs": [
        {
          "internalType": "uint256",
          "name": "",
          "type": "uint256"
        }
      ],
      "stateMutability": "view",
      "type": "function"
    },
    {
      "inputs": [],
      "name": "lastRewardTimeStamp",
      "outputs": [
        {
          "internalType": "uint256",
          "name": "",
          "type": "uint256"
        }
      ],
      "stateMutability": "view",
      "type": "function"
    },
    {
      "inputs": [],
      "name": "liquidationThresholdPc",
      "outputs": [
        {
          "internalType": "uint256",
          "name": "",
          "type": "uint256"
        }
      ],
      "stateMutability": "view",
      "type": "function"
    },
    {
      "inputs": [],
      "name": "loanCounter",
      "outputs": [
        {
          "internalType": "uint256",
          "name": "",
          "type": "uint256"
        }
      ],
      "stateMutability": "view",
      "type": "function"
    },
    {
      "inputs": [
        {
          "internalType": "uint256",
          "name": "",
          "type": "uint256"
        }
      ],
      "name": "loans",
      "outputs": [
        {
          "internalType": "string",
          "name": "borrower",
          "type": "string"
        },
        {
          "internalType": "uint256",
          "name": "borrowAmountUSD",
          "type": "uint256"
        },
        {
          "internalType": "uint256",
          "name": "amountPayableUSD",
          "type": "uint256"
        },
        {
          "internalType": "uint256",
          "name": "collateralAmountXRP",
          "type": "uint256"
        },
        {
          "internalType": "uint256",
          "name": "lastPayableUpdateTime",
          "type": "uint256"
        },
        {
          "internalType": "uint256",
          "name": "repaidUSD",
          "type": "uint256"
        },
        {
          "internalType": "bool",
          "name": "isLiquidated",
          "type": "bool"
        }
      ],
      "stateMutability": "view",
      "type": "function"
    },
    {
      "inputs": [],
      "name": "retainedEarning",
      "outputs": [
        {
          "internalType": "uint256",
          "name": "",
          "type": "uint256"
        }
      ],
      "stateMutability": "view",
      "type": "function"
    },
    {
      "inputs": [],
      "name": "rewardInterval",
      "outputs": [
        {
          "internalType": "uint256",
          "name": "",
          "type": "uint256"
        }
      ],
      "stateMutability": "view",
      "type": "function"
    },
    {
      "inputs": [
        {
          "internalType": "address",
          "name": "_priceOracle",
          "type": "address"
        }
      ],
      "name": "setPriceOracle",
      "outputs": [],
      "stateMutability": "nonpayable",
      "type": "function"
    },
    {
      "inputs": [],
      "name": "supportedSourceChain",
      "outputs": [
        {
          "internalType": "string",
          "name": "",
          "type": "string"
        }
      ],
      "stateMutability": "view",
      "type": "function"
    },
    {
      "inputs": [],
      "name": "totalLiquidity",
      "outputs": [
        {
          "internalType": "uint256",
          "name": "",
          "type": "uint256"
        }
      ],
      "stateMutability": "view",
      "type": "function"
    },
    {
      "inputs": [
        {
          "internalType": "string",
          "name": "",
          "type": "string"
        }
      ],
      "name": "userInfo",
      "outputs": [
        {
          "internalType": "uint256",
          "name": "contributionBalance",
          "type": "uint256"
        },
        {
          "internalType": "uint256",
          "name": "rewardDebt",
          "type": "uint256"
        },
        {
          "internalType": "uint256",
          "name": "confirmedRewards",
          "type": "uint256"
        }
      ],
      "stateMutability": "view",
      "type": "function"
    },
    {
      "inputs": [
        {
          "internalType": "string",
          "name": "",
          "type": "string"
        }
      ],
      "name": "userLoan",
      "outputs": [
        {
          "internalType": "uint256",
          "name": "",
          "type": "uint256"
        }
      ],
      "stateMutability": "view",
      "type": "function"
    }
  ],
  "bytecode": "0x60a03461010257601f612f0238819003918201601f19168301916001600160401b0383118484101761010757808492606094604052833981010312610102576100478161011d565b9060406100566020830161011d565b910151916001600160a01b038116156100f15760805260006003556096600555600a6006556078600755620151806009556000600a556000600b556000600c556000600d5560018060a01b031660018060a01b03196000541617600055600455426008553360018060a01b03196001541617600155604051612dd0908161013282396080518181816107b001528181610e000152611d0b0152f35b63e6c4247b60e01b60005260046000fd5b600080fd5b634e487b7160e01b600052604160045260246000fd5b51906001600160a01b03821682036101025756fe608080604052600436101561001357600080fd5b600090813560e01c9081630bc82cf314611d3a57508063116191b614611cf557806315770f9214611cd75780631a98b2e014610d3957806323b1f8e414610d1b57806331f59c5514610ce057806334d9289e14610cc2578063356c728414610ca4578063370477ff14610c86578063440cf15a14610c4f578063485449d614610c31578063491606581461070d578063530e784f14610691578063550b9997146106735780636277fc0d14610655578063650a145f1461063757806366877b8d14610523578063691a87f9146104b7578063752329ec1461049957806378f2c2c3146104705780637c9b7fdd146103c0578063a43f2b9214610385578063bad2716914610351578063bec4de3f14610333578063c5fa955214610315578063d8988068146102da578063e1ec3c6814610240578063f1fd4ccb14610205578063f64f7857146101ca5763fc4dd9fa1461016b57600080fd5b346101c75760203660031901126101c757600435906001600160401b0382116101c75760206101b4816101a13660048701611e54565b8160405193828580945193849201611e72565b8101600f81520301902054604051908152f35b80fd5b50346101c757806003193601126101c75760206040517f2c260ca563e3b0491b45b463c200c724bc55ac058701ee1a0151cdeeb87eaf5a8152f35b50346101c757806003193601126101c75760206040517f855511cc3694f64379908437d6d64458dc76d02482052bfb8a5b33a72c054c778152f35b50346101c75760203660031901126101c75760406102b5916004358152600e602052206040519061027c826102758184611f1e565b0383611ded565b600181015490600281015490600381015460048201549060ff60066005850154940154169360405197889760e0895260e0890190611e95565b95602088015260408701526060860152608085015260a0840152151560c08301520390f35b50346101c757806003193601126101c75760206040517f4f943907ef0ef6f9d2e2408b05e520a66daaf74293dbf665e5a20b117676170e8152f35b50346101c757806003193601126101c7576020600254604051908152f35b50346101c757806003193601126101c7576020600954604051908152f35b50346101c757806003193601126101c75761038161036d611eba565b604051918291602083526020830190611e95565b0390f35b50346101c757806003193601126101c75760206040517f9982a092a6e4ed71c78f9619841a31a676df9098c2ec526ad2647af4f8aa674b8152f35b50346101c75760203660031901126101c7576004356001600160401b03811161046c5760206060926103f9610424933690600401611e54565b906040805161040781611dd2565b828152828582015201528160405193828580945193849201611e72565b8101601081520301902060405161043a81611dd2565b815491828252604060026001830154926020850193845201549201918252604051928352516020830152516040820152f35b5080fd5b50346101c757806003193601126101c757602061048b611eba565b818151910120604051908152f35b50346101c757806003193601126101c7576020600a54604051908152f35b50346101c75760203660031901126101c757600435906001600160401b0382116101c7576104ed60206101a13660048601611e54565b81016010815203019020805461038160026001840154930154604051938493846040919493926060820195825260208201520152565b50346101c75760203660031901126101c75760408161060c9260c0835161054981611da1565b6060815282602082015282858201528260608201528260808201528260a082015201526004358152600e602052206040519061058482611da1565b60405161059c816105958185611f1e565b0382611ded565b825260018101549060208301918252600281015490604084019182526003810154606085019081526004820154906080860191825260ff600660058501549460a089019586520154169360c087019415158552604051978897602089525160e060208a0152610100890190611e95565b955160408801525160608701525160808601525160a08501525160c084015251151560e08301520390f35b50346101c757806003193601126101c7576020600554604051908152f35b50346101c757806003193601126101c7576020600b54604051908152f35b50346101c757806003193601126101c7576020600754604051908152f35b50346101c75760203660031901126101c7576004356001600160a01b0381169081900361046c576001546001600160a01b031633036106dc5781546001600160a01b03191617815580f35b60405162461bcd60e51b81526020600482015260096024820152682737ba1037bbb732b960b91b6044820152606490fd5b50346101c75760803660031901126101c7576024356001600160401b03811161046c5761073e903690600401611d74565b906044356001600160401b0381116109d25761075e903690600401611d74565b6064356001600160401b0381116109ce5761077d903690600401611d74565b949061078a368783611e0e565b8051602091820120604051635f6970c360e01b81526004803590820152608060248201527f00000000000000000000000000000000000000000000000000000000000000006001600160a01b031698929091829081906108046107f1608484018a8e611fb9565b8381036003190160448501528a8c611fb9565b90606483015203818c8c5af1908115610c26578991610bf7575b5015610be8579061085b9161085361083736868a611e0e565b60208151910120610846611eba565b6020815191012014611fda565b81019061201d565b9060405161088a602082816108798183019687815193849201611e72565b81010301601f198101835282611ded565b5190207f2c260ca563e3b0491b45b463c200c724bc55ac058701ee1a0151cdeeb87eaf5a8103610a115750506108be612a97565b604051828482376020818481016010815203019020946108dd86612b29565b600286019485549081156109d6578289933b156109d257859484889361091b8296604051998a97889687956326ef699d60e01b875260048701612187565b03925af191826109b9575b50506109495760405162461bcd60e51b815280610945600482016121c3565b0390fd5b84937f1af01a942698710a64fdbe7f2e5fe738ef43c0e0c0ae3ac1015aa57f11d67ab1916109b285549160018454940154958160405192839283378101600081520390209460405193838594859094939260609260808301968352602083015260408201520152565b0390a25580f35b816109c391611ded565b6109ce578538610926565b8580fd5b8380fd5b60405162461bcd60e51b81526020600482015260136024820152724e6f207265776172647320746f20636c61696d60681b6044820152606490fd5b7f855511cc3694f64379908437d6d64458dc76d02482052bfb8a5b33a72c054c779096929495939614600014610bb1578051602080830192600092810103126101c757505191610a5f612a97565b60405186868237602081888101601081520301902093610a7e85612b29565b83855410610b75578791833b15610b715787938392838993610ab789604051998a97889687956326ef699d60e01b875260048701612187565b03925af19182610b5c575b5050610ae15760405162461bcd60e51b815280610945600482016121c3565b610b567fa00f0e8908ada83b11e8068b0dbfa9c93ba003d1bbbcf5c3ead087dedd0a49b893610b11838554612076565b95868555600160028601549501549181604051928392833781016000815203902095604051948594859094939260609260808301968352602083015260408201520152565b0390a280f35b81610b6691611ded565b6109ce578538610ac2565b8280fd5b60405162461bcd60e51b8152602060048201526014602482015273496e73756666696369656e742062616c616e636560601b6044820152606490fd5b60405162461bcd60e51b815260206004820152600f60248201526e125b9d985b1a590818dbdb5b585b99608a1b6044820152606490fd5b631403112d60e21b8852600488fd5b610c19915060203d602011610c1f575b610c118183611ded565b810190611fa1565b3861081e565b503d610c07565b6040513d8b823e3d90fd5b50346101c757806003193601126101c7576020600654604051908152f35b50346101c75760203660031901126101c757600435906001600160401b0382116101c75760206101b4816101a13660048701611e54565b50346101c757806003193601126101c7576020600454604051908152f35b50346101c757806003193601126101c7576020600854604051908152f35b50346101c757806003193601126101c7576020600c54604051908152f35b50346101c757806003193601126101c75760206040517f4a469cefcbed9a88178fc34579047173d00d4643d65873018db1ec410f46e00d8152f35b50346101c757806003193601126101c7576020600354604051908152f35b50346101c75760c03660031901126101c7576024356001600160401b03811161046c57610d6a903690600401611d74565b906044356001600160401b0381116109d257610d8a903690600401611d74565b9091846064356001600160401b03811161046c57610dac903690600401611d74565b919092608435926001600160401b038411610b7157610e7794866020610e4e8b9686610ddd8d9a3690600401611d74565b9b819f918d610ded368c8c611e0e565b88815191012091610e6060018060a01b037f0000000000000000000000000000000000000000000000000000000000000000169f6040519b8c9a8b998a99631876eed960e01b8b5260043560048c015260c060248c015260c48b0191611fb9565b8881036003190160448a015291611fb9565b926064860152600319858403016084860152611fb9565b60a43560a483015203918a5af1908115611ccc578b91611cad575b5015611c9e5760a43515611c6857610eb291610853610837368787611e0e565b90604051610ed0602082816108798183019687815193849201611e72565b5190207f9982a092a6e4ed71c78f9619841a31a676df9098c2ec526ad2647af4f8aa674b8103610fcd575050505050610f307f8eaf203a8199d5994e67000062af8fc0759378a6a085da0f5ff326cfbb1353839394610f4c923691611e0e565b60208151910120610f3f6120cc565b60208151910120146120ed565b610f54612a97565b604051818482376020818381016010815203019020610f7281612b29565b610b56610f8260a435835461217a565b9283835560016002840154930154958160405192839283378101600081520390209460405193849360a435859094939260609260808301968352602083015260408201520152565b80f35b7f4f943907ef0ef6f9d2e2408b05e520a66daaf74293dbf665e5a20b117676170e8199939794989599146000146114fa57508051602080830192600092810103126101c75750906110219151943691611e0e565b6020815191012095611053604097600360208a5161103f8c82611ded565b828152016205852560ec1b815220146120ed565b61105f60055485612099565b6064810290808204606414901517156114e65760025461107e916120ac565b60a435106114a25787875183858237600f8482019081528190036020019020549687156111b757878252600e602052888220966110ba886121fb565b833b15610b7157849383928388936110e88b8f51998a97889687956326ef699d60e01b875260048701612187565b03925af1918261119e575b505061111157855162461bcd60e51b815280610945600482016121c3565b8392916111929161114860017f5f96a5d1a64b9c1bc759b3b519f1435e82066dbb895fccba43a68fe499c0cbc0970194855461217a565b8094556002600386019561115f60a435885461217a565b80975501549181895192839283378101600081520390209651938493846040919493926060820195825260208201520152565b0390a35b610fca612a97565b816111a891611ded565b6111b35787386110f3565b8780fd5b918094975095909294953b15610b7157849383928389936111ee8a8d51998a97889687956326ef699d60e01b875260048701612187565b03925af1918261148d575b505061121757835162461bcd60e51b815280610945600482016121c3565b600c5460001981146114795760010180600c5584519061123682611da1565b611241368487611e0e565b8252836020830152838683015260a43560608301524260808301528660a08301528660c08301528652600e60205284862081518051906001600160401b0382116114655761128f8354611ee4565b601f8111611424575b5060209089601f84116001146113945793837faa9b37700bf84cf4312a950e6b2b49c0f5555908b5a463eb0d2598d389c09c5798969460c0946006946113819a9892611389575b50508160011b916000199060031b1c19161781555b60208401516001820155898401516002820155606084015160038201556080840151600482015560a0840151600582015501910151151560ff80198354169116179055600c549485875183838237602081858101600f8152030190205581875192839283376000908201908152039020945190815260a43560208201524260408201529081906060820190565b0390a3611196565b0151905038806112df565b50838a52818a209190601f1984168b5b81811061140c57508460c0946006946113819a98947faa9b37700bf84cf4312a950e6b2b49c0f5555908b5a463eb0d2598d389c09c579c9a98600195106113f3575b505050811b0181556112f4565b015160001960f88460031b161c191690553880806113e6565b929360206001819287860151815501950193016113a4565b838a5260208a20601f840160051c81016020851061145e575b601f830160051c82018110611453575050611298565b8b815560010161143d565b508061143d565b634e487b7160e01b89526041600452602489fd5b634e487b7160e01b86526011600452602486fd5b8161149791611ded565b6109ce5785386111f9565b865162461bcd60e51b815260206004820152601760248201527f496e73756666696369656e7420636f6c6c61746572616c0000000000000000006044820152606490fd5b634e487b7160e01b89526011600452602489fd5b949795947f7bd15d6b2d182a804b2a36c079625580f8a960afa839087ccb184e9db92b9a0381036117bb5750602081519181808201938492010103126117b65761154b91610f309151983691611e0e565b858752600e60205260408720604051611568816105958185611f1e565b6020815191012061157a368486611e0e565b602081519101200361177c57600681019560ff875416611737578860058301966115a760a435895461217a565b88556115b2846121fb565b600284019687548060a43510156000146116f45750828855895460ff19166001178a55600385015491803b156109d25786948489936116098296604051998a97889687956326ef699d60e01b875260048701612130565b03925af191826116db575b505061165f5760405162461bcd60e51b815260206004820152601a60248201527f4661696c656420746f2073656e642058525020746f20757365720000000000006044820152606490fd5b6001604095896116b89460206116c0977fd9cfbcfb9ae5d65b8d34072de4575f602ee25cf3715bc05c291701fe9e258f9a9b8660ff19825416179055828b5193849283378101600f815203019020555491015490612076565b600a5461217a565b600a555b5481519060a43582526020820152a2610fca612a97565b816116e591611ded565b6116f0578838611614565b8880fd5b955050505050507fd9cfbcfb9ae5d65b8d34072de4575f602ee25cf3715bc05c291701fe9e258f9a945060409350611730915060a43590612076565b81556116c4565b60405162461bcd60e51b815260206004820152601a60248201527f4c6f616e20697320616c7265616479206c6971756964617465640000000000006044820152606490fd5b60405162461bcd60e51b81526020600482015260126024820152712737ba103a3432903637b0b71037bbb732b960711b6044820152606490fd5b600080fd5b7f4a469cefcbed9a88178fc34579047173d00d4643d65873018db1ec410f46e00d909896949792959814600014611b7557602081519181808201938492010103126117b6575196878952600e6020526040892096600688019460ff865416611b3057610e1061182c60035442612076565b1015611ab3575b61183c896121fb565b60038901549361271061185160025487612099565b049860028b0198895491606461186960075485612099565b048c1015611a775761188091610f30913691611e0e565b60a43510611a19578b94823b156109ce5785946118b58692604051998a97889687956326ef699d60e01b875260048701612130565b03925af19182611a00575b505061190b5760405162461bcd60e51b815260206004820152601a60248201527f4661696c656420746f2073656e642058525020746f20757365720000000000006044820152606490fd5b61191b6116b8835460a435612076565b600a55600160ff1982541617905584604051819480549061193b82611ee4565b91600181169081156119e857506001146119b0575b505060208186600f7ff2d932763377b0d691487ba847e159565f9926361b9c719edd77508949f8d91c9852030190205554906119a5600254604051938493846040919493926060820195825260208201520152565b0390a2610fca612a97565b90955082526020822082905b8682106119d157505093840193602081611950565b8054828401528893506020909101906001016119bc565b60ff1916845250508015150281019450602081611950565b81611a0a91611ded565b611a155786386118c0565b8680fd5b60405162461bcd60e51b815260206004820152603060248201527f52657061796d656e7420616d6f756e74206d757374206265206772656174657260448201526f081d1a185b881d1bdd185b081bddd95960821b6064820152608490fd5b60405162461bcd60e51b815260206004820152601460248201527310d85b9b9bdd081b1a5c5d5a59185d19481e595d60621b6044820152606490fd5b8a54604051638183f10f60e01b815290602090829060049082906001600160a01b03165afa908115611b25578c91611af3575b5060025542600355611833565b90506020813d602011611b1d575b81611b0e60209383611ded565b810103126117b6575138611ae6565b3d9150611b01565b6040513d8e823e3d90fd5b60405162461bcd60e51b815260206004820152601760248201527f4c6f616e20616c7265616479206c6971756964617465640000000000000000006044820152606490fd5b5093879596919460001960a4350160a4358111611c54578798859897983b156111b357611bca968894611bdc611bee936040519c8d9b8c9a8b996326ef699d60e01b8b52608060048c015260848b0191611fb9565b8881036003190160248a015291611fb9565b85810360031901604487015291611fb9565b90606483015203925af18015611c4957611c395760405162461bcd60e51b815260206004820152600f60248201526e125b9d985b1a590818dbdb5b585b99608a1b6044820152606490fd5b81611c4391611ded565b81610bb1565b6040513d84823e3d90fd5b634e487b7160e01b88526011600452602488fd5b60405162461bcd60e51b815260206004820152600e60248201526d125b9d985b1a5908185b5bdd5b9d60921b6044820152606490fd5b631403112d60e21b8a5260048afd5b611cc6915060203d602011610c1f57610c118183611ded565b38610e92565b6040513d8d823e3d90fd5b50346101c757806003193601126101c7576020600d54604051908152f35b50346101c757806003193601126101c7576040517f00000000000000000000000000000000000000000000000000000000000000006001600160a01b03168152602090f35b90503461046c578160031936011261046c57807f7bd15d6b2d182a804b2a36c079625580f8a960afa839087ccb184e9db92b9a0360209252f35b9181601f840112156117b6578235916001600160401b0383116117b657602083818601950101116117b657565b60e081019081106001600160401b03821117611dbc57604052565b634e487b7160e01b600052604160045260246000fd5b606081019081106001600160401b03821117611dbc57604052565b90601f801991011681019081106001600160401b03821117611dbc57604052565b9291926001600160401b038211611dbc5760405191611e37601f8201601f191660200184611ded565b8294818452818301116117b6578281602093846000960137010152565b9080601f830112156117b657816020611e6f93359101611e0e565b90565b60005b838110611e855750506000910152565b8181015183820152602001611e75565b90602091611eae81518092818552858086019101611e72565b601f01601f1916010190565b60405190611ec9604083611ded565b600c82526b1614941317dd195cdd1b995d60a21b6020830152565b90600182811c92168015611f14575b6020831014611efe57565b634e487b7160e01b600052602260045260246000fd5b91607f1691611ef3565b60009291815491611f2e83611ee4565b8083529260018116908115611f845750600114611f4a57505050565b60009081526020812093945091925b838310611f6a575060209250010190565b600181602092949394548385870101520191019190611f59565b915050602093945060ff929192191683830152151560051b010190565b908160209103126117b6575180151581036117b65790565b908060209392818452848401376000828201840152601f01601f1916010190565b15611fe157565b60405162461bcd60e51b815260206004820152601460248201527324b73b30b634b21039b7bab931b29031b430b4b760611b6044820152606490fd5b91906040838203126117b65782356001600160401b0381116117b65781612045918501611e54565b926020810135906001600160401b0382116117b657019080601f830112156117b657816020611e6f93359101611e0e565b9190820391821161208357565b634e487b7160e01b600052601160045260246000fd5b8181029291811591840414171561208357565b81156120b6570490565b634e487b7160e01b600052601260045260246000fd5b604051906120db604083611ded565b60038252621554d160ea1b6020830152565b156120f457565b60405162461bcd60e51b8152602060048201526014602482015273125b9d985b1a59081d1bdad95b881cde5b589bdb60621b6044820152606490fd5b9594939260609361214f61215d9360409560808b5260808b0191611fb9565b9188830360208a0152611fb9565b85810382870152600381526205852560ec1b602082015201930152565b9190820180921161208357565b9594939260609361214f6121a69360409560808b5260808b0191611fb9565b8581038287015260038152621554d160ea1b602082015201930152565b60609060208152601a60208201527f4661696c656420746f2073656e642055534420746f207573657200000000000060408201520190565b60ff600682015416612a945760048101906201518061221b835442612076565b048015612a8f576004549081612250575050670de0b6b3a764000061224860026000935b01928354612cfc565b049055429055565b61225c61226192612b66565b612cfc565b680a688906bd8b000000811015612a7b576122486002670de0b6b3a7640000809360401b04600160bf1b6780000000000000008216612a68575b84906740000000000000008316612a55575b6720000000000000008316612a42575b6710000000000000008316612a2f575b6708000000000000008316612a1c575b6704000000000000008316612a09575b67020000000000000083166129f6575b67010000000000000083166129e3575b668000000000000083166129d0575b664000000000000083166129bd575b662000000000000083166129aa575b66100000000000008316612997575b66080000000000008316612984575b66040000000000008316612971575b6602000000000000831661295e575b6601000000000000831661294b575b658000000000008316612938575b654000000000008316612925575b652000000000008316612912575b6510000000000083166128ff575b6508000000000083166128ec575b6504000000000083166128d9575b6502000000000083166128c6575b6501000000000083166128b3575b64800000000083166128a0575b644000000000831661288d575b642000000000831661287a575b6410000000008316612867575b6408000000008316612854575b6404000000008316612841575b640200000000831661282e575b640100000000831661281b575b63800000008316612808575b634000000083166127f5575b632000000083166127e2575b631000000083166127cf575b630800000083166127bc575b630400000083166127a9575b63020000008316612796575b63010000008316612783575b628000008316612770575b62400000831661275d575b62200000831661274a575b621000008316612737575b620800008316612724575b620400008316612711575b6202000083166126fe575b6201000083166126eb575b61800083166126d8575b61400083166126c5575b61200083166126b2575b611000831661269f575b610800831661268c575b6104008316612679575b6102008316612666575b6101008316612653575b60808316612640575b6040831661262d575b6020831661261a575b60108316612607575b600883166125f4575b600483166125e1575b8383166125ce575b600183166125bb575b029060401c60bf031c9361223f565b680100000000000000010260401c6125ac565b680100000000000000010260401c6125a3565b680100000000000000030260401c61259b565b680100000000000000060260401c612592565b6801000000000000000b0260401c612589565b680100000000000000160260401c612580565b6801000000000000002c0260401c612577565b680100000000000000590260401c61256e565b680100000000000000b10260401c612565565b680100000000000001630260401c61255b565b680100000000000002c60260401c612551565b6801000000000000058c0260401c612547565b68010000000000000b170260401c61253d565b6801000000000000162e0260401c612533565b68010000000000002c5d0260401c612529565b680100000000000058b90260401c61251f565b6801000000000000b1720260401c612515565b680100000000000162e40260401c61250a565b6801000000000002c5c80260401c6124ff565b68010000000000058b910260401c6124f4565b680100000000000b17210260401c6124e9565b68010000000000162e430260401c6124de565b680100000000002c5c860260401c6124d3565b6801000000000058b90c0260401c6124c8565b68010000000000b172180260401c6124bd565b6801000000000162e4300260401c6124b1565b68010000000002c5c8600260401c6124a5565b680100000000058b90c00260401c612499565b6801000000000b17217f0260401c61248d565b680100000000162e42ff0260401c612481565b6801000000002c5c85fe0260401c612475565b68010000000058b90bfc0260401c612469565b680100000000b17217f80260401c61245d565b68010000000162e42ff10260401c612450565b680100000002c5c85fe30260401c612443565b6801000000058b90bfce0260401c612436565b68010000000b17217fbb0260401c612429565b6801000000162e42fff00260401c61241c565b68010000002c5c8601cc0260401c61240f565b680100000058b90c0b490260401c612402565b6801000000b1721835510260401c6123f5565b680100000162e430e5a20260401c6123e7565b6801000002c5c863b73f0260401c6123d9565b68010000058b90cf1e6e0260401c6123cb565b680100000b1721bcfc9a0260401c6123bd565b68010000162e43f4f8310260401c6123af565b680100002c5c89d5ec6d0260401c6123a1565b6801000058b91b5bc9ae0260401c612393565b68010000b17255775c040260401c612385565b6801000162e525ee05470260401c612376565b68010002c5cc37da94920260401c612367565b680100058ba01fb9f96d0260401c612358565b6801000b175effdc76ba0260401c612349565b680100162f3904051fa10260401c61233a565b6801002c605e2e8cec500260401c61232b565b68010058c86da1c09ea20260401c61231c565b680100b1afa5abcbed610260401c61230d565b68010163da9fb33356d80260401c6122fd565b680102c9a3e778060ee70260401c6122ed565b6801059b0d31585743ae0260401c6122dd565b68010b5586cf9890f62a0260401c6122cd565b6801172b83c7d517adce0260401c6122bd565b6801306fe0a31b7152df0260401c6122ad565b5068016a09e667f3bcc909607f1b61229b565b634a4f26f160e01b60005260045260246000fd5b505050565b50565b612aa66008546009549061217a565b4210612b2757600a548015612a9457670de0b6b3a76400008102818104670de0b6b3a764000003612083577f29e98ba00d07f171959c4ddcd2f3020debc7c52cf537a034d7e664340d098c6c91612b0d612b05604093600d54906120ac565b600b5461217a565b80600b556000600a554260085582519182526020820152a1565b565b612b626002670de0b6b3a7640000612b458454600b5490612099565b04926001810193612b57855482612076565b94550191825461217a565b9055565b90670de0b6b3a76400008210612ce757600091670de0b6b3a76400008104600160801b811015612cdc575b68010000000000000000811015612cc7575b640100000000811015612cb2575b62010000811015612c9d575b610100811015612c88575b6010811015612c73575b6004811015612c5e575b60021115612c4c575b670de0b6b3a76400008302921c670de0b6b3a76400008114612a94576706f05b59d3b2000090815b612c15575050565b80670de0b6b3a764000091020490671bc16d674ec80000821015612c3e575b60011c9081612c0d565b809193019260011c90612c34565b91600181018091116120835791612be5565b60021c92600281018091116120835792612bdc565b60041c92600481018091116120835792612bd2565b60081c92600881018091116120835792612bc8565b60101c92601081018091116120835792612bbd565b60201c92602081018091116120835792612bb1565b60401c92604081018091116120835792612ba3565b60809350831c612b91565b50633621413760e21b60005260045260246000fd5b600019828209828202908180821091039381850393670de0b6b3a7640000851015612d855790670de0b6b3a76400009109906706f05b59d3b1ffff82119414612d74577faccb18165bd6fe31ae1cf318dc5b51eee0e1ba569b88cd74c1773b91fac1066992828211900360ee1b910360121c17020190565b50670de0b6b3a76400009150040190565b8463698d9a0160e11b60005260045260246000fdfea264697066735822122045344981034932f069a9bd69fe24d27e8580c7eae8941496916fcaf0fcf799e264736f6c634300081c0033",
  "linkReferences": {},
  "deployedLinkReferences": {}
}