{
  "contractName": "AxelarExecutable",
  "abi": [
    {
      "inputs": [
        {
          "internalType": "address",
          "name": "gateway_",
          "type": "address"
        }
      ],
      "stateMutability": "nonpayable",
      "type": "constructor"
    },
    {
      "inputs": [],
      "name": "InvalidAddress",
      "type": "error"
    },
    {
      "inputs": [],
      "name": "NotApprovedByGateway",
      "type": "error"
    },
    {
      "inputs": [],
      "name": "gateway",
      "outputs": [
        {
          "internalType": "contract IAxelarGateway",
          "name": "",
          "type": "address"
        }
      ],
      "stateMutability": "view",
      "type": "function"
    },
    {
      "inputs": [
        {
          "internalType": "bytes32",
          "name": "commandId",
          "type": "bytes32"
        },
        {
          "internalType": "string",
          "name": "sourceChain",
          "type": "string"
        },
        {
          "internalType": "string",
          "name": "sourceAddress",
          "type": "string"
        },
        {
          "internalType": "bytes",
          "name": "payload",
          "type": "bytes"
        }
      ],
      "name": "execute",
      "outputs": [],
      "stateMutability": "nonpayable",
      "type": "function"
    }
  ],
  "bytecode": "0x60a060405234801561001057600080fd5b5060405161072c38038061072c83398181016040528101906100329190610136565b600073ffffffffffffffffffffffffffffffffffffffff168173ffffffffffffffffffffffffffffffffffffffff161415610099576040517fe6c4247b00000000000000000000000000000000000000000000000000000000815260040160405180910390fd5b8073ffffffffffffffffffffffffffffffffffffffff1660808173ffffffffffffffffffffffffffffffffffffffff168152505050610163565b600080fd5b600073ffffffffffffffffffffffffffffffffffffffff82169050919050565b6000610103826100d8565b9050919050565b610113816100f8565b811461011e57600080fd5b50565b6000815190506101308161010a565b92915050565b60006020828403121561014c5761014b6100d3565b5b600061015a84828501610121565b91505092915050565b6080516105a96101836000396000818160770152609b01526105a96000f3fe608060405234801561001057600080fd5b50600436106100365760003560e01c8063116191b61461003b5780634916065814610059575b600080fd5b610043610075565b6040516100509190610224565b60405180910390f35b610073600480360381019061006e919061033a565b610099565b005b7f000000000000000000000000000000000000000000000000000000000000000081565b7f000000000000000000000000000000000000000000000000000000000000000073ffffffffffffffffffffffffffffffffffffffff16635fc9eb28888888888888886040518863ffffffff1660e01b81526004016100fe97969594939291906104ae565b602060405180830381600087803b15801561011857600080fd5b505af115801561012c573d6000803e3d6000fd5b505050506040513d601f19601f820116820180604052508101906101509190610546565b610186576040517f500c44b400000000000000000000000000000000000000000000000000000000815260040160405180910390fd5b61019486868686868661019d565b50505050505050565b505050505050565b600073ffffffffffffffffffffffffffffffffffffffff82169050919050565b6000819050919050565b60006101ea6101e56101e0846101a5565b6101c5565b6101a5565b9050919050565b60006101fc826101cf565b9050919050565b600061020e826101f1565b9050919050565b61021e81610203565b82525050565b60006020820190506102396000830184610215565b92915050565b600080fd5b600080fd5b6000819050919050565b61025c81610249565b811461026757600080fd5b50565b60008135905061027981610253565b92915050565b600080fd5b600080fd5b600080fd5b60008083601f8401126102a4576102a361027f565b5b8235905067ffffffffffffffff8111156102c1576102c0610284565b5b6020830191508360018202830111156102dd576102dc610289565b5b9250929050565b60008083601f8401126102fa576102f961027f565b5b8235905067ffffffffffffffff81111561031757610316610284565b5b60208301915083600182028301111561033357610332610289565b5b9250929050565b60008060008060008060006080888a0312156103595761035861023f565b5b60006103678a828b0161026a565b975050602088013567ffffffffffffffff81111561038857610387610244565b5b6103948a828b0161028e565b9650965050604088013567ffffffffffffffff8111156103b7576103b6610244565b5b6103c38a828b0161028e565b9450945050606088013567ffffffffffffffff8111156103e6576103e5610244565b5b6103f28a828b016102e4565b925092505092959891949750929550565b61040c81610249565b82525050565b600082825260208201905092915050565b82818337600083830152505050565b6000601f19601f8301169050919050565b600061044f8385610412565b935061045c838584610423565b61046583610432565b840190509392505050565b600082825260208201905092915050565b600061048d8385610470565b935061049a838584610423565b6104a383610432565b840190509392505050565b60006080820190506104c3600083018a610403565b81810360208301526104d681888a610443565b905081810360408301526104eb818688610443565b90508181036060830152610500818486610481565b905098975050505050505050565b60008115159050919050565b6105238161050e565b811461052e57600080fd5b50565b6000815190506105408161051a565b92915050565b60006020828403121561055c5761055b61023f565b5b600061056a84828501610531565b9150509291505056fea264697066735822122070e26ca98a2275352dda7c782554ab685a6e1735298aab9e10b8713a81216d1f64736f6c63430008090033",
  "immutableReferences": {
    "10": [
      {
        "length": 32,
        "start": 119
      },
      {
        "length": 32,
        "start": 155
      }
    ]
  },
  "source": "// SPDX-License-Identifier: MIT\n\npragma solidity ^0.8.0;\n\nimport { IAxelarGateway } from '../interfaces/IAxelarGateway.sol';\nimport { IAxelarExecutable } from '../interfaces/IAxelarExecutable.sol';\n\ncontract AxelarExecutable is IAxelarExecutable {\n    IAxelarGateway public immutable gateway;\n\n    constructor(address gateway_) {\n        if (gateway_ == address(0)) revert InvalidAddress();\n\n        gateway = IAxelarGateway(gateway_);\n    }\n\n    function execute(\n        bytes32 commandId,\n        string calldata sourceChain,\n        string calldata sourceAddress,\n        bytes calldata payload\n    ) external {\n        if (!gateway.validateContractCall(commandId, sourceChain, sourceAddress, payload))\n            revert NotApprovedByGateway();\n\n        _execute(sourceChain, sourceAddress, payload);\n    }\n\n    function _execute(\n        string calldata sourceChain,\n        string calldata sourceAddress,\n        bytes calldata payload\n    ) internal virtual {}\n}\n",
  "sourcePath": "/Users/softmark/Desktop/ripple/Temp/executable_sample/contracts/executable/AxelarExecutable.sol",
  "compiler": {
    "name": "solc",
    "version": "0.8.9+commit.e5eed63a.Emscripten.clang"
  },
  "schemaVersion": "3.4.16",
  "updatedAt": "2024-12-23T15:29:54.825Z",
  "devdoc": {
    "kind": "dev",
    "methods": {},
    "version": 1
  },
  "userdoc": {
    "kind": "user",
    "methods": {},
    "version": 1
  }
}