{
  "contractName": "ExecutableSample",
  "abi": [
    {
      "inputs": [
        {
          "internalType": "address",
          "name": "gateway_",
          "type": "address"
        }
      ],
      "stateMutability": "nonpayable",
      "type": "constructor"
    },
    {
      "inputs": [],
      "name": "InvalidAddress",
      "type": "error"
    },
    {
      "inputs": [],
      "name": "NotApprovedByGateway",
      "type": "error"
    },
    {
      "anonymous": false,
      "inputs": [
        {
          "indexed": false,
          "internalType": "string",
          "name": "_sourceChain",
          "type": "string"
        },
        {
          "indexed": false,
          "internalType": "string",
          "name": "_sourceAddress",
          "type": "string"
        },
        {
          "indexed": false,
          "internalType": "string",
          "name": "_message",
          "type": "string"
        },
        {
          "indexed": false,
          "internalType": "string",
          "name": "_tokenSymbol",
          "type": "string"
        },
        {
          "indexed": false,
          "internalType": "uint256",
          "name": "_tokenAmount",
          "type": "uint256"
        }
      ],
      "name": "Executed",
      "type": "event"
    },
    {
      "inputs": [
        {
          "internalType": "bytes32",
          "name": "commandId",
          "type": "bytes32"
        },
        {
          "internalType": "string",
          "name": "sourceChain",
          "type": "string"
        },
        {
          "internalType": "string",
          "name": "sourceAddress",
          "type": "string"
        },
        {
          "internalType": "bytes",
          "name": "payload",
          "type": "bytes"
        }
      ],
      "name": "execute",
      "outputs": [],
      "stateMutability": "nonpayable",
      "type": "function"
    },
    {
      "inputs": [],
      "name": "gateway",
      "outputs": [
        {
          "internalType": "contract IAxelarGateway",
          "name": "",
          "type": "address"
        }
      ],
      "stateMutability": "view",
      "type": "function"
    },
    {
      "inputs": [],
      "name": "message",
      "outputs": [
        {
          "internalType": "string",
          "name": "",
          "type": "string"
        }
      ],
      "stateMutability": "view",
      "type": "function"
    },
    {
      "inputs": [],
      "name": "sourceAddress",
      "outputs": [
        {
          "internalType": "string",
          "name": "",
          "type": "string"
        }
      ],
      "stateMutability": "view",
      "type": "function"
    },
    {
      "inputs": [],
      "name": "sourceChain",
      "outputs": [
        {
          "internalType": "string",
          "name": "",
          "type": "string"
        }
      ],
      "stateMutability": "view",
      "type": "function"
    },
    {
      "inputs": [],
      "name": "tokenAmount",
      "outputs": [
        {
          "internalType": "uint256",
          "name": "",
          "type": "uint256"
        }
      ],
      "stateMutability": "view",
      "type": "function"
    },
    {
      "inputs": [],
      "name": "tokenDenom",
      "outputs": [
        {
          "internalType": "string",
          "name": "",
          "type": "string"
        }
      ],
      "stateMutability": "view",
      "type": "function"
    }
  ],
  "bytecode": "0x60a06040523480156200001157600080fd5b506040516200129c3803806200129c833981810160405281019062000037919062000146565b80600073ffffffffffffffffffffffffffffffffffffffff168173ffffffffffffffffffffffffffffffffffffffff161415620000a0576040517fe6c4247b00000000000000000000000000000000000000000000000000000000815260040160405180910390fd5b8073ffffffffffffffffffffffffffffffffffffffff1660808173ffffffffffffffffffffffffffffffffffffffff1681525050505062000178565b600080fd5b600073ffffffffffffffffffffffffffffffffffffffff82169050919050565b60006200010e82620000e1565b9050919050565b620001208162000101565b81146200012c57600080fd5b50565b600081519050620001408162000115565b92915050565b6000602082840312156200015f576200015e620000dc565b5b60006200016f848285016200012f565b91505092915050565b6080516110fa620001a26000396000818161015401528181610206015261056b01526110fa6000f3fe608060405234801561001057600080fd5b506004361061007d5760003560e01c8063b0fa84441161005b578063b0fa8444146100da578063e21f37ce146100f8578063eec7faa114610116578063f307c509146101345761007d565b8063116191b6146100825780631c6ffa46146100a057806349160658146100be575b600080fd5b61008a610152565b60405161009791906107e5565b60405180910390f35b6100a8610176565b6040516100b59190610899565b60405180910390f35b6100d860048036038101906100d391906109c0565b610204565b005b6100e2610308565b6040516100ef9190610899565b60405180910390f35b610100610396565b60405161010d9190610899565b60405180910390f35b61011e610424565b60405161012b9190610aa2565b60405180910390f35b61013c61042a565b6040516101499190610899565b60405180910390f35b7f000000000000000000000000000000000000000000000000000000000000000081565b6000805461018390610aec565b80601f01602080910402602001604051908101604052809291908181526020018280546101af90610aec565b80156101fc5780601f106101d1576101008083540402835291602001916101fc565b820191906000526020600020905b8154815290600101906020018083116101df57829003601f168201915b505050505081565b7f000000000000000000000000000000000000000000000000000000000000000073ffffffffffffffffffffffffffffffffffffffff16635fc9eb28888888888888886040518863ffffffff1660e01b81526004016102699796959493929190610ba7565b602060405180830381600087803b15801561028357600080fd5b505af1158015610297573d6000803e3d6000fd5b505050506040513d601f19601f820116820180604052508101906102bb9190610c3f565b6102f1576040517f500c44b400000000000000000000000000000000000000000000000000000000815260040160405180910390fd5b6102ff8686868686866104b8565b50505050505050565b6001805461031590610aec565b80601f016020809104026020016040519081016040528092919081815260200182805461034190610aec565b801561038e5780601f106103635761010080835404028352916020019161038e565b820191906000526020600020905b81548152906001019060200180831161037157829003601f168201915b505050505081565b600280546103a390610aec565b80601f01602080910402602001604051908101604052809291908181526020018280546103cf90610aec565b801561041c5780601f106103f15761010080835404028352916020019161041c565b820191906000526020600020905b8154815290600101906020018083116103ff57829003601f168201915b505050505081565b60045481565b6003805461043790610aec565b80601f016020809104026020016040519081016040528092919081815260200182805461046390610aec565b80156104b05780601f10610485576101008083540402835291602001916104b0565b820191906000526020600020905b81548152906001019060200180831161049357829003601f168201915b505050505081565b606082828101906104c99190610e5a565b600360006004600084975085919050558491905090805190602001906104f092919061063d565b50505050808060200190518101906105089190610f55565b6002908051906020019061051d92919061063d565b5086866000919061052f9291906106c3565b508484600191906105419291906106c3565b507fef02410bc88d0062fef8f23932b97e4580b53fe2177a4e16c3d35fac352952166000600160027f000000000000000000000000000000000000000000000000000000000000000073ffffffffffffffffffffffffffffffffffffffff1663aacde5c760036040518263ffffffff1660e01b81526004016105c39190611033565b60006040518083038186803b1580156105db57600080fd5b505afa1580156105ef573d6000803e3d6000fd5b505050506040513d6000823e3d601f19601f820116820180604052508101906106189190610f55565b60045460405161062c959493929190611055565b60405180910390a150505050505050565b82805461064990610aec565b90600052602060002090601f01602090048101928261066b57600085556106b2565b82601f1061068457805160ff19168380011785556106b2565b828001600101855582156106b2579182015b828111156106b1578251825591602001919060010190610696565b5b5090506106bf9190610749565b5090565b8280546106cf90610aec565b90600052602060002090601f0160209004810192826106f15760008555610738565b82601f1061070a57803560ff1916838001178555610738565b82800160010185558215610738579182015b8281111561073757823582559160200191906001019061071c565b5b5090506107459190610749565b5090565b5b8082111561076257600081600090555060010161074a565b5090565b600073ffffffffffffffffffffffffffffffffffffffff82169050919050565b6000819050919050565b60006107ab6107a66107a184610766565b610786565b610766565b9050919050565b60006107bd82610790565b9050919050565b60006107cf826107b2565b9050919050565b6107df816107c4565b82525050565b60006020820190506107fa60008301846107d6565b92915050565b600081519050919050565b600082825260208201905092915050565b60005b8381101561083a57808201518184015260208101905061081f565b83811115610849576000848401525b50505050565b6000601f19601f8301169050919050565b600061086b82610800565b610875818561080b565b935061088581856020860161081c565b61088e8161084f565b840191505092915050565b600060208201905081810360008301526108b38184610860565b905092915050565b6000604051905090565b600080fd5b600080fd5b6000819050919050565b6108e2816108cf565b81146108ed57600080fd5b50565b6000813590506108ff816108d9565b92915050565b600080fd5b600080fd5b600080fd5b60008083601f84011261092a57610929610905565b5b8235905067ffffffffffffffff8111156109475761094661090a565b5b6020830191508360018202830111156109635761096261090f565b5b9250929050565b60008083601f8401126109805761097f610905565b5b8235905067ffffffffffffffff81111561099d5761099c61090a565b5b6020830191508360018202830111156109b9576109b861090f565b5b9250929050565b60008060008060008060006080888a0312156109df576109de6108c5565b5b60006109ed8a828b016108f0565b975050602088013567ffffffffffffffff811115610a0e57610a0d6108ca565b5b610a1a8a828b01610914565b9650965050604088013567ffffffffffffffff811115610a3d57610a3c6108ca565b5b610a498a828b01610914565b9450945050606088013567ffffffffffffffff811115610a6c57610a6b6108ca565b5b610a788a828b0161096a565b925092505092959891949750929550565b6000819050919050565b610a9c81610a89565b82525050565b6000602082019050610ab76000830184610a93565b92915050565b7f4e487b7100000000000000000000000000000000000000000000000000000000600052602260045260246000fd5b60006002820490506001821680610b0457607f821691505b60208210811415610b1857610b17610abd565b5b50919050565b610b27816108cf565b82525050565b82818337600083830152505050565b6000610b48838561080b565b9350610b55838584610b2d565b610b5e8361084f565b840190509392505050565b600082825260208201905092915050565b6000610b868385610b69565b9350610b93838584610b2d565b610b9c8361084f565b840190509392505050565b6000608082019050610bbc600083018a610b1e565b8181036020830152610bcf81888a610b3c565b90508181036040830152610be4818688610b3c565b90508181036060830152610bf9818486610b7a565b905098975050505050505050565b60008115159050919050565b610c1c81610c07565b8114610c2757600080fd5b50565b600081519050610c3981610c13565b92915050565b600060208284031215610c5557610c546108c5565b5b6000610c6384828501610c2a565b91505092915050565b600080fd5b7f4e487b7100000000000000000000000000000000000000000000000000000000600052604160045260246000fd5b610ca98261084f565b810181811067ffffffffffffffff82111715610cc857610cc7610c71565b5b80604052505050565b6000610cdb6108bb565b9050610ce78282610ca0565b919050565b600067ffffffffffffffff821115610d0757610d06610c71565b5b610d108261084f565b9050602081019050919050565b6000610d30610d2b84610cec565b610cd1565b905082815260208101848484011115610d4c57610d4b610c6c565b5b610d57848285610b2d565b509392505050565b600082601f830112610d7457610d73610905565b5b8135610d84848260208601610d1d565b91505092915050565b610d9681610a89565b8114610da157600080fd5b50565b600081359050610db381610d8d565b92915050565b600067ffffffffffffffff821115610dd457610dd3610c71565b5b610ddd8261084f565b9050602081019050919050565b6000610dfd610df884610db9565b610cd1565b905082815260208101848484011115610e1957610e18610c6c565b5b610e24848285610b2d565b509392505050565b600082601f830112610e4157610e40610905565b5b8135610e51848260208601610dea565b91505092915050565b600080600060608486031215610e7357610e726108c5565b5b600084013567ffffffffffffffff811115610e9157610e906108ca565b5b610e9d86828701610d5f565b9350506020610eae86828701610da4565b925050604084013567ffffffffffffffff811115610ecf57610ece6108ca565b5b610edb86828701610e2c565b9150509250925092565b6000610ef8610ef384610cec565b610cd1565b905082815260208101848484011115610f1457610f13610c6c565b5b610f1f84828561081c565b509392505050565b600082601f830112610f3c57610f3b610905565b5b8151610f4c848260208601610ee5565b91505092915050565b600060208284031215610f6b57610f6a6108c5565b5b600082015167ffffffffffffffff811115610f8957610f886108ca565b5b610f9584828501610f27565b91505092915050565b60008190508160005260206000209050919050565b60008154610fc081610aec565b610fca818661080b565b94506001821660008114610fe55760018114610ff75761102a565b60ff198316865260208601935061102a565b61100085610f9e565b60005b8381101561102257815481890152600182019150602081019050611003565b808801955050505b50505092915050565b6000602082019050818103600083015261104d8184610fb3565b905092915050565b600060a082019050818103600083015261106f8188610fb3565b905081810360208301526110838187610fb3565b905081810360408301526110978186610fb3565b905081810360608301526110ab8185610860565b90506110ba6080830184610a93565b969550505050505056fea26469706673582212205773e4eae21b65987a642d91f6f5b68b4e76b7c5a9069cd3c507f53cc457c00864736f6c63430008090033",
  "immutableReferences": {
    "10": [
      {
        "length": 32,
        "start": 340
      },
      {
        "length": 32,
        "start": 518
      },
      {
        "length": 32,
        "start": 1387
      }
    ]
  },
  "source": "// SPDX-License-Identifier: MIT\npragma solidity ^0.8.0;\n\nimport { AxelarExecutable } from '../AxelarExecutable.sol';\nimport { IAxelarGateway } from '../../interfaces/IAxelarGateway.sol';\n\ncontract ExecutableSample is AxelarExecutable {\n    string public sourceChain;\n    string public sourceAddress;\n    string public message;\n    string public tokenDenom;\n    uint256 public tokenAmount;\n\n    event Executed(string _sourceChain, string _sourceAddress, string _message, string _tokenSymbol, uint256 _tokenAmount);\n\n    constructor(address gateway_) AxelarExecutable(gateway_) {\n    }\n\n    function _execute(\n        string calldata sourceChain_,\n        string calldata sourceAddress_,\n        bytes calldata payload_\n    ) internal override {\n        bytes memory gmpPayload;\n        (tokenDenom, tokenAmount, gmpPayload) = abi.decode(payload_, (string, uint256, bytes));\n        (message) = abi.decode(gmpPayload, (string));\n        sourceChain = sourceChain_;\n        sourceAddress = sourceAddress_;\n\n        emit Executed(sourceChain, sourceAddress, message, IAxelarGateway(gateway).tokenSymbol(tokenDenom), tokenAmount);\n    }\n}",
  "sourcePath": "/Users/softmark/Desktop/ripple/Temp/executable_sample/contracts/executable/examples/ExecutableSample.sol",
  "compiler": {
    "name": "solc",
    "version": "0.8.9+commit.e5eed63a.Emscripten.clang"
  },
  "schemaVersion": "3.4.16",
  "updatedAt": "2024-12-23T15:38:12.086Z",
  "devdoc": {
    "kind": "dev",
    "methods": {},
    "version": 1
  },
  "userdoc": {
    "kind": "user",
    "methods": {},
    "version": 1
  }
}