{
  "_format": "hh-sol-artifact-1",
  "contractName": "AxelarExecutable",
  "sourceName": "contracts/executable/AxelarExecutable.sol",
  "abi": [
    {
      "inputs": [
        {
          "internalType": "address",
          "name": "gateway_",
          "type": "address"
        }
      ],
      "stateMutability": "nonpayable",
      "type": "constructor"
    },
    {
      "inputs": [],
      "name": "InvalidAddress",
      "type": "error"
    },
    {
      "inputs": [],
      "name": "NotApprovedByGateway",
      "type": "error"
    },
    {
      "inputs": [
        {
          "internalType": "bytes32",
          "name": "commandId",
          "type": "bytes32"
        },
        {
          "internalType": "string",
          "name": "sourceChain",
          "type": "string"
        },
        {
          "internalType": "string",
          "name": "sourceAddress",
          "type": "string"
        },
        {
          "internalType": "bytes",
          "name": "payload",
          "type": "bytes"
        }
      ],
      "name": "execute",
      "outputs": [],
      "stateMutability": "nonpayable",
      "type": "function"
    },
    {
      "inputs": [],
      "name": "gateway",
      "outputs": [
        {
          "internalType": "contract IAxelarGateway",
          "name": "",
          "type": "address"
        }
      ],
      "stateMutability": "view",
      "type": "function"
    }
  ],
  "bytecode": "0x60a060405234801561001057600080fd5b5060405161071c38038061071c83398181016040528101906100329190610135565b600073ffffffffffffffffffffffffffffffffffffffff168173ffffffffffffffffffffffffffffffffffffffff1603610098576040517fe6c4247b00000000000000000000000000000000000000000000000000000000815260040160405180910390fd5b8073ffffffffffffffffffffffffffffffffffffffff1660808173ffffffffffffffffffffffffffffffffffffffff168152505050610162565b600080fd5b600073ffffffffffffffffffffffffffffffffffffffff82169050919050565b6000610102826100d7565b9050919050565b610112816100f7565b811461011d57600080fd5b50565b60008151905061012f81610109565b92915050565b60006020828403121561014b5761014a6100d2565b5b600061015984828501610120565b91505092915050565b60805161059a6101826000396000818160770152609b015261059a6000f3fe608060405234801561001057600080fd5b50600436106100365760003560e01c8063116191b61461003b5780634916065814610059575b600080fd5b610043610075565b6040516100509190610215565b60405180910390f35b610073600480360381019061006e919061032b565b610099565b005b7f000000000000000000000000000000000000000000000000000000000000000081565b7f000000000000000000000000000000000000000000000000000000000000000073ffffffffffffffffffffffffffffffffffffffff16635fc9eb28888888888888886040518863ffffffff1660e01b81526004016100fe979695949392919061049f565b6020604051808303816000875af115801561011d573d6000803e3d6000fd5b505050506040513d601f19601f820116820180604052508101906101419190610537565b610177576040517f500c44b400000000000000000000000000000000000000000000000000000000815260040160405180910390fd5b61018586868686868661018e565b50505050505050565b505050505050565b600073ffffffffffffffffffffffffffffffffffffffff82169050919050565b6000819050919050565b60006101db6101d66101d184610196565b6101b6565b610196565b9050919050565b60006101ed826101c0565b9050919050565b60006101ff826101e2565b9050919050565b61020f816101f4565b82525050565b600060208201905061022a6000830184610206565b92915050565b600080fd5b600080fd5b6000819050919050565b61024d8161023a565b811461025857600080fd5b50565b60008135905061026a81610244565b92915050565b600080fd5b600080fd5b600080fd5b60008083601f84011261029557610294610270565b5b8235905067ffffffffffffffff8111156102b2576102b1610275565b5b6020830191508360018202830111156102ce576102cd61027a565b5b9250929050565b60008083601f8401126102eb576102ea610270565b5b8235905067ffffffffffffffff81111561030857610307610275565b5b6020830191508360018202830111156103245761032361027a565b5b9250929050565b60008060008060008060006080888a03121561034a57610349610230565b5b60006103588a828b0161025b565b975050602088013567ffffffffffffffff81111561037957610378610235565b5b6103858a828b0161027f565b9650965050604088013567ffffffffffffffff8111156103a8576103a7610235565b5b6103b48a828b0161027f565b9450945050606088013567ffffffffffffffff8111156103d7576103d6610235565b5b6103e38a828b016102d5565b925092505092959891949750929550565b6103fd8161023a565b82525050565b600082825260208201905092915050565b82818337600083830152505050565b6000601f19601f8301169050919050565b60006104408385610403565b935061044d838584610414565b61045683610423565b840190509392505050565b600082825260208201905092915050565b600061047e8385610461565b935061048b838584610414565b61049483610423565b840190509392505050565b60006080820190506104b4600083018a6103f4565b81810360208301526104c781888a610434565b905081810360408301526104dc818688610434565b905081810360608301526104f1818486610472565b905098975050505050505050565b60008115159050919050565b610514816104ff565b811461051f57600080fd5b50565b6000815190506105318161050b565b92915050565b60006020828403121561054d5761054c610230565b5b600061055b84828501610522565b9150509291505056fea2646970667358221220e22c966b7cea0f058021d16c31bdcd579c82cc2cd40c8a8a03a7b0d3b8b3210264736f6c63430008140033",
  "linkReferences": {},
  "deployedLinkReferences": {}
}